:020000040800F2
:100000001809002029020008A71900088317000812
:10001000A519000837040008E521000800000000C9
:10002000000000000000000000000000AB19000804
:10003000F504000800000000A9190008AD19000827
:10004000430200084302000843020008430200087C
:10005000430200084302000843020008430200086C
:10006000430200084302000843020008430200085C
:10007000430200084302000843020008430200084C
:10008000430200084302000843020008430200083C
:10009000430200084302000843020008430200082C
:1000A000430200084302000843020008430200081C
:1000B000430200084302000843020008430200080C
:1000C00043020008430200084302000843020008FC
:1000D00043020008611F00084302000843020008B1
:1000E00043020008430200084302000843020008DC
:1000F00043020008430200084302000843020008CC
:1001000043020008430200084302000843020008BB
:1001100043020008430200084302000843020008AB
:1001200043020008430200083904000843020008A3
:10013000430200084302000843020008430200088B
:10014000430200084302000843020008430200087B
:100150004302000843020008450400084302000867
:10016000430200084302000843020008430200085B
:100170004302000843020008430200080000000098
:10018000430200084302000800F002F800F03CF8C7
:100190000AA090E8000C82448344AAF10107DA45E2
:1001A00001D100F031F8AFF2090EBAE80F0013F0F8
:1001B000010F18BFFB1A43F00103184794560000C3
:1001C000B4560000103A24BF78C878C1FAD8520754
:1001D00024BF30C830C144BF04680C6070470000C1
:1001E0000023002400250026103A28BF78C1FBD840
:1001F000520728BF30C148BF0B6070471FB505F0DC
:10020000E7FA1FBD10B510BD00F0E2F81146FFF788
:10021000F5FF02F07BFC00F000F903B4FFF7F2FFFA
:1002200003BC00F001F90000094880470948004775
:10023000FEE7FEE7FEE7FEE7FEE7FEE7FEE7FEE796
:10024000FEE7FEE704480549054A064B70470000F3
:10025000491A000889010008180300201809002025
:10026000180500201805002053EA020C00F06980F0
:100270002DE9F04B4FF00006002B1FBFB3FA83F5BA
:1002800003FA05F424FA05F65E4012BF1643B2FAEB
:1002900082F502FA05F4C5F120051EBF22FA05FC1D
:1002A00044EA0C04203556EA044C4FEA144418BFC3
:1002B000641C4FF000084FF00009904271EB030CF2
:1002C00039D3002919BFB1FA81F701FA07F6B0FA5C
:1002D00080F700FA07F6C7F120071EBF20FA07FCD7
:1002E00046EA0C062037B6FBF4FCA7EB0507103FE7
:1002F00007F01F0BCBF120060CFA0BFB2CFA06F6CD
:1003000044BFB3460026202FA4BF5E464FF0000B2B
:100310005BEA060C08BF4FF0010B19EB0B09ABFBB6
:10032000027C48EB0608C01B06FB02CC0BFB03CC8F
:1003300071EB0C01C1E70B46024641464846BDE859
:10034000F08B13B54FF000004FF00001AFF30080C9
:10035000BDE81C4070474FF0000200B513469446BC
:100360009646203922BFA0E80C50A0E80C50B1F10D
:100370002001BFF4F7AF090728BFA0E80C5048BF21
:100380000CC05DF804EB890028BF40F8042B08BFBF
:10039000704748BF20F8022B11F0804F18BF00F8BB
:1003A000012B704770477047704710B500F008F890
:1003B000006810BD10B5044600F002F8046010BDDE
:1003C00000487047B802002000487047B80200207B
:1003D0007546FFF7F9FFAE4605006946534620F023
:1003E0000700854618B020B5FFF72CFFBDE8204078
:1003F0004FF000064FF000074FF000084FF0000BE1
:1004000021F00701AC46ACE8C009ACE8C009ACE893
:10041000C009ACE8C0098D4670470446AFF30080C0
:100420002046FFF7FAFE000001491820ABBEFEE7A8
:10043000260002007047FEE7014800F0B9B800004E
:10044000F8010020014800F0B3B800005802002075
:1004500001681823CAB2103AB2FBF3F2054B6FF3EE
:100460000901032A9B5CC36500D9091D8165084603
:1004700070470000DA57000810B5014600208B696C
:100480008A6A4FF0C07453B1B3F5005F15D072B1F2
:10049000012A0CD0022A0AD0032A09D104E01AB199
:1004A000012A06D0022A03D1C96AC90100D5012058
:1004B00010BDC96AA142FAD010BD002AF7D0012AA6
:1004C000F2D0022AF3D0032AF3D010BD30B504686D
:1004D000256825F480252560046863608368402BC7
:1004E000036803D099600068C26030BD9A600068FC
:1004F000C16030BD704772B6FEE72DE9F041044699
:10050000876D00F0C9FA064694F8350000250228E8
:1005100006D08020606584F834500120BDE8F08169
:100520002068016821F0160101602068416921F00E
:1005300080014161206C08B9A06C20B1206801687D
:1005400021F0080101602068016821F001010160CB
:100550000CE000F0A1FA801B052807D92020606577
:10056000032084F8350084F83450D7E72068006809
:10057000C007EED194F85C103F208840B86001209D
:1005800084F8350084F834500020C7E790F835101F
:10059000022903D08021416501207047052180F8A0
:1005A00035100068016821F00101016000207047EA
:1005B0002DE9F84304464FF00009CDF80090634858
:1005C0004FF41651A56D0068B0FBF1F72E6894F852
:1005D0005C10082000FA01F131420FD021680A684E
:1005E00052070BD50A6822F004020A6094F85C10E6
:1005F0008840A860606D40F00100606594F85C1070
:100600004FF0010808FA01F0304208D0216849692A
:10061000090604D5A860606D40F00200606594F89A
:100620005C1004208840304208D02168096889079E
:1006300004D5A860606D40F00400606594F85C101B
:1006400010208840304218D021680968090714D565
:10065000A86020680168490304D50068000308D534
:10066000A16C07E00168C90503D4016821F0080105
:100670000160216C09B12046884794F85C10202065
:100680008840304231D021680968C9062DD5A8605C
:1006900094F8350005282068016806D0490347D53D
:1006A000006800031DD4616C1CE021F0160101609C
:1006B0002068416921F080014161206C08B9A06C7B
:1006C00020B12068016821F00801016094F85C10F5
:1006D0003F208840A86084F8358084F83490216DEC
:1006E0001FE0E16B09B120468847606D00282BD0E0
:1006F000606DC00714D0052084F8350020680168BB
:1007000021F0010101600098401C0090B84203D81C
:1007100020680068C007F6D184F8358084F83490EA
:10072000E16C002910D001B02046BDE8F043084735
:100730000168C905D5D4016821F01001016084F871
:10074000358084F83490CCE7BDE8F88300010020C0
:100750002DE9F041044600F09FF906465CB1022005
:1007600084F83500002584F834502068016821F0B1
:10077000010101600DE00120BDE8F08100F08CF97D
:10078000801B052805D920206065032084F83500EA
:10079000F2E720680068C007F0D12268116820489D
:1007A0000140D4E901031843D4E903363343184325
:1007B00063691843A3691843E3691843236A18431C
:1007C0000843616A042903D1D4E90B131943084390
:1007D000106020684069666A20F0070130460E43C9
:1007E000012704280CD1A06A0643E06A40B12046E4
:1007F000FFF742FE20B14020606584F83570BAE70B
:10080000206846612046FFF723FE94F85C203F21D4
:1008100091408160656584F835700020ACE7000088
:100820003F8010F02DE9F0410446866D90F83400C9
:10083000002501280DD0012084F8340094F835708B
:100840000020012F07D084F8340002252846BDE897
:10085000F0810220FBE7022784F8357060652046AE
:10086000FFF734FE94F85C103F208840B0602068A9
:10087000016841F016010160206C20B12068016818
:1008800041F0080101602068016841F00101016048
:10089000DCE700002DE9F84FDFF8BCA100220125BC
:1008A00003264FF00F090AF1040BAAF1040E00BF52
:1008B0000B6805FA02F42340A34270D10F7907F0C8
:1008C0000307012F01D0022F16D187684FEA420893
:1008D00006FA08FC27EA0C07D1F80CC00CFA08FC51
:1008E0004CEA070CC0F808C04768A7430C79C4F36A
:1008F000001494403C4344600C79E443A4070AD0BC
:10090000C4684FEA420C06FA0CF7BC438F6807FA3A
:100910000CF72743C7600C7904F00304022C12D1B2
:10092000D40800EB840CDCF820405707FF0E09FACE
:1009300007F824EA0804D1F8108008FA07F848EA12
:100940000408CCF8208004684FEA420C06FA0CF741
:10095000BC430F7907F0030707FA0CF7274307603A
:100960004C6814F4403F70D03C4C276847F48047F3
:100970002760246822F0030704F480440094384C74
:1009800007EB040CDCF8084897074FEA177809FAD8
:1009900008F7BC43334FB84202D1002724E054E0AB
:1009A000314FB84201D101271EE0304FB84201D18A
:1009B000022719E02E4FB84201D1032714E02D4F32
:1009C000B84201D104270FE02B4FB84201D10527CF
:1009D0000AE02A4FB84201D1062705E0284FB84265
:1009E00001D1072700E0082707FA08F72743CCF8CA
:1009F0000878DAF800405746D1F804C09C435FEA13
:100A0000CC2C00D51C433C60DBF800405F46D1F89D
:100A100004C09C435FEA8C2C00D51C433C60DEF88C
:100A200000407746D1F804C09C435FEA8C3C00D577
:100A30001C433C60084F083F3C68D1F804C09C430D
:100A40005FEACC3C00D51C433C60521C102AFFF4EA
:100A50002FAFBDE8F88F0000083C01404438024049
:100A60000030014000000240000402400008024043
:100A7000000C024000100240001402400018024026
:100A8000001C02400069084000D0012070470AB1F4
:100A9000816170470904FBE70148806870470000E6
:100AA000F400002002488168027811448160704798
:100AB000F40000200B4810B5016841F4007101609A
:100AC000016841F480610160016841F48071016056
:100AD000032000F06FF80F2000F006F800F024F873
:100AE000002010BD003C024070B50D4D04464FF48F
:100AF0007A712878B1FBF0F00A490968B1FBF0F08F
:100B000000F00CFB48B9102C07D200222146501EE1
:100B100000F030F800206C6070BD012070BD000056
:100B2000F4000020000100200A4808B5016841F4E3
:100B300080410160006800F4804000900548001F7B
:100B4000016841F080510160006800F08050009021
:100B500008BD000044380240002809DB00F01F02F5
:100B6000012191404009800000F1E020C0F800110F
:100B700070470000F0B40E4B1B680C46C3F3022311
:100B8000C3F10705042D00D90425191D072901D239
:100B9000002300E0DB1E012606FA05F1491E214074
:100BA00099409E40761E16403143F0BC01F033BBA5
:100BB0000CED00E0064900F0070208684FF6FF035D
:100BC000184040EA0220034A1043086070470000C2
:100BD0000CED00E00000FA052DE9F0470E46050097
:100BE00065D0DFF81481D8F80000F7B200F00700F4
:100BF000B04207D288F80070D8F8000000F0070073
:100C0000B04254D128683D4C810712D5400703D526
:100C1000206840F4E05020602878000703D5206861
:100C200040F4604020602068A96820F0F00008438C
:100C300020602878C0072DD030496868083901281D
:100C400012D0022813D0032811D00968890700297F
:100C50002DDA216821F0030101432160FFF71CFF19
:100C6000814641F2883A0EE009688903EFE7096896
:100C70008901ECE7FFF710FFA0EB0901514502D90C
:100C80000320BDE8F0872068696800F00C00B0EB35
:100C9000810FEFD1D8F80010404601F00701B142B2
:100CA00007D90770006800F00700B04201D00120AA
:100CB000E7E72878400705D52068E96820F4E05088
:100CC000084320602878000706D52068296920F4A9
:100CD000604040EAC100206000F038F82168084A0E
:100CE000C1F30311515CC84006490860064800681A
:100CF000FFF7FAFE0020C4E7003C0240083802403B
:100D0000E257000800010020F800002004480549CF
:100D100000680968044AC1F38221515CC8407047E9
:100D20000001002008380240F25700080448054935
:100D300000680968044AC1F34231515CC8407047F9
:100D40000001002008380240F2570008154810B58D
:100D5000006810F00C02144813D01449042A0FD074
:100D6000082A0ED10F4C241F2268236802F03F028C
:100D70005B0207D52068C0F38810A0FB010106E0E4
:100D8000084610BD2168C1F38811A1FB00010023B2
:100D9000FFF76AFA2168C1F30141491C4900B0FB21
:100DA000F1F010BD083802400024F40040787D01C5
:100DB0002DE9F84F04006ED02078DFF84C93C0077F
:100DC000A9F104054AD009F104000168C1F38101C9
:100DD000012908D00068C0F3810002280AD1D9F89F
:100DE0000000400206D52868800337D560680028D7
:100DF000E1D033E06068B0F5803F10D0B0F5A02FAF
:100E0000286810D020F480302860286820F48020E2
:100E100028606068A8B1FFF73FFE06460DE028682D
:100E200040F48030F4E740F480202860F7E700BF0A
:100E3000FFF732FE801B642873D828688003F7D53B
:100E40000CE0FFF729FE064605E000BFFFF724FE91
:100E5000801B6428F0D828688003F7D42078DFF856
:100E6000AC8280074FF0000A3ED5A748001D0168FC
:100E700011F00C0F08D00068C0F3810002280BD1DC
:100E8000D9F80000400207D42868800716D5E0682A
:100E9000012800D112E033E1E068B8B10120C8F8C0
:100EA0000000FFF7F9FD064605E000BFFFF7F4FD7F
:100EB000801B0228C0D828688007F7D528682169D8
:100EC00020F0F80040EAC10028600DE0C8F800A05A
:100ED000FFF7E2FD064604E0FFF7DEFD801B022877
:100EE0001FD828688007F7D42078000722D5864FBE
:100EF00087486169703771B101210160FFF7CCFD4E
:100F0000064604E0FFF7C8FD801B022809D83868B0
:100F10008007F7D50EE0C0F800A0FFF7BDFD06463C
:100F200005E082E0FFF7B8FD801B02287DD8386815
:100F30008007F7D42078400768D5DFF8CCB10027C8
:100F40000BF13C0BDBF80000C0000BD4DBF8001009
:100F500041F08051CBF80010DBF80000012700F0D1
:100F6000805000906B4E3068C00510D4306840F45B
:100F700080703060FFF790FD009005E0FFF78CFD7A
:100F80000099401A022850D83068C005F6D55E4E48
:100F9000A0686C3601280FD00528306810D020F0EA
:100FA00001003060306820F004003060A068B8B103
:100FB000FFF772FD00900FE0306840F00100F4E7A9
:100FC00040F004003060F7E7FFF766FD0099411A32
:100FD00041F28830814266D830688007F4D50EE04F
:100FE000FFF75AFD009007E0FFF756FD0099411A00
:100FF00041F28830814256D830688007F4D42FB14E
:10100000DBF8001021F08051CBF80010A069C8B3C4
:101010003D49091D0968C1F3810102294AD002280E
:10102000504607D0C8F8600000E03CE0FFF734FD10
:1010300004463BE04746C8F86000FFF72DFD064632
:1010400005E000BFFFF728FD801B02282BD8286889
:101050008001F7D4D4E907010843A16A2E4A490860
:1010600002EB0141626A41EA8211084394F82C10B4
:1010700040EA0161C9F8001001203866FFF70CFD55
:10108000044606E03EE000BFFFF706FD001B022815
:1010900009D828688001F7D534E000BFFFF7FCFCD1
:1010A000001B022802D90320BDE8F88F28688001C0
:1010B000F4D427E00128F7D0D9F80000E26900F461
:1010C000800191421CD1226A00F03F01914217D168
:1010D00047F6C071626A0140B1EB821F10D1A26A6B
:1010E0004FF0FF3300F4403103EB5202B1EB024FFB
:1010F00006D194F82C1000F07060B0EB016F01D0B5
:101100000120D1E70020CFE7043802400000474229
:10111000800E4742007000400000FFFF10B5401EE7
:10112000B0F1807F01D3012010BD4FF0E024606159
:101130000F21601701F06FF80020A06107202061E7
:10114000002010BD70B590F83C20012A32D0012457
:1011500080F83C40022280F83D2003685A689D6870
:1011600022F070060A6832435A60134B02689A42B2
:1011700014D0B2F1804F11D0104B9A420ED0104BC8
:101180009A420BD00F4B9A4208D00F4B9A4205D08F
:101190000E4B9A4202D00E4B9A4204D1496825F078
:1011A00080031943916080F83D40002180F83C1095
:1011B000084670BD022070BD0000014000040040E0
:1011C00000080040000C00400004014000400140C5
:1011D0000018004010B5040003D094F83D0010B191
:1011E00007E0012010BD002084F83C00204600F0FC
:1011F0001FF8022084F83D00211D206800F02CFC1F
:10120000012084F8460084F83E0084F83F0084F80A
:10121000400084F8410084F8420084F8430084F8D8
:10122000440084F8450084F83D00002010BD000013
:1012300008B500680649884208D10648016841F0AF
:1012400001010160006800F00100009008BD00008D
:10125000000001404438024070B5044690F83C005C
:101260000025012817D0012684F83C60022084F86C
:101270003D002068826822F0770222F47F4282607B
:101280000868502838D00DDC20284FD005DC90B3FA
:10129000102811D14AE0022070BD302846D04028E5
:1012A0000AD13BE060282FD070280DD0B0F5805FC8
:1012B00003D0B0F5005F12D0012584F83D60002016
:1012C00084F83C00284670BDCB68D1E90121206834
:1012D00000F02EFC2068816841F0770109E0CB68BE
:1012E000D1E90121206800F023FC2068816841F4E5
:1012F00080418160E1E719E0CA684968206800F030
:1013000029FC5021206806E0CA684968206800F07E
:1013100032FC6021206800F015FCCEE7CA684968FD
:10132000206800F017FC40212068F4E7226801469D
:101330001046F0E7704710B504460068406994F81D
:101340004110C0F3C010212911D180B120681430A0
:1013500050E8001F21F0800140E80012002AF5D17A
:10136000A06B08B1FFF7C9F8204600F0BCFC20686C
:10137000406994F84210C0F38010222911D180B145
:101380002068143050E8001F21F0400140E80012AE
:10139000002AF5D1E06B08B1FFF7AFF8204600F066
:1013A0007BFC002010BD7047F8B501680446086852
:1013B000CA684B6910F00F0F4FF000055AD003F0C8
:1013C000010602F49077374365D0C10705D0D105F7
:1013D00003D5616C41F001016164410705D5D9076E
:1013E00003D0616C41F002016164810705D5D90722
:1013F00003D0616C41F004016164010707D502F07C
:101400002001314303D0616C41F008016164616CDB
:1014100000293BD0800604D5900602D5204600F076
:1014200070FC20684069616CC0F3801001F0080115
:10143000014320462BD000F02FFC20684069400675
:1014400021D52068143050E8001F21F0400140E809
:101450000012002AF5D1E06BA8B16E490165E06B7E
:10146000FFF794F8002811D0E06B016D01B0BDE8E2
:10147000F040084783060ED593060CD52046BDE8FC
:10148000F84000F03EBC2046FFF78DFFF8BDFFF7A7
:101490008AFF6564F8BD266B2023012E7DD1C60628
:1014A0007BD5D60679D508684868009048694FF022
:1014B0000206400641D5E16B086840680004000C54
:1014C000E8D0A28D8242E5D9E085C869B0F5807F79
:1014D0002DD020680C3050E8001F21F4807140E8C6
:1014E0000012002AF5D12168143151E8000F20F0D4
:1014F000010041E80002002AF5D12068143050E8CC
:10150000001F21F0400140E80012002AF5D184F8C4
:101510004230256320680C3050E8001F21F0100194
:1015200040E80012002AF5D1E06BFEF7E6FF6663A3
:10153000A08DE18D401A81B22AE0A08DE18D401A84
:1015400081B2E08D0028A5D00029A3D022680C32FA
:1015500052E8000F20F4907042E80007002FF5D108
:101560002068143050E8002F22F0010240E80027E4
:10157000002FF5D184F84230256320680C3050E804
:10158000002F22F0100240E80023002BF5D1666303
:101590002046FFF7CFFEF8BDFFE705062BD5150661
:1015A00029D594F841002128F5D1A068B0F5805FD5
:1015B00001D12069B0B1206A411C21622168007804
:1015C0004860E08C401E0004000CE084E3D12068F9
:1015D000C16821F08001C1602068C16841F040010C
:1015E000C160D8E7206A0088C0F308004860206A1C
:1015F000801C2062E5E74006CDD55006CBD5CA68F1
:10160000204622F04002CA6084F8413000F0B8F869
:10161000C1E700009B1B000870B5040004D094F8DB
:101620004100002510B106E0012070BD84F8405053
:10163000204600F023F8242084F841002068C16887
:1016400021F40051C160204600F0BCFB2068016914
:1016500021F4904101612068416921F02A01416132
:101660002068C16841F40051C1606564202084F89D
:10167000410084F842006563002070BD2DE9F0410F
:1016800086B0064614216846FEF765FE2F4930688D
:10169000884258D12E480024016841F010010160B1
:1016A000006800F01000059029481438016841F0E6
:1016B000020101600068694600F002000590C02048
:1016C00000900220CDE9010403200390072004903C
:1016D0002048FFF7DFF8214D1F484FF000672860D2
:1016E000C5E901744FF48068C5E903486C61AC61D9
:1016F000EC612C6228466C62FFF72AF808B1FEF70D
:10170000FAFEF563AE63154D134860357830E5E8B1
:1017100002074020A5E81101104845F8144960303F
:10172000AC61EC612C626C62FFF712F808B1FEF755
:10173000E2FEB563002211462520AE63FFF71AFAD8
:101740002520FFF709FA06B0BDE8F081001001403E
:10175000443802400004024040640240F801002086
:1017600090F84230202B01D00220704721B11AB1ED
:101770000023036300F0ACBB012070477047704743
:101780007047FEE70D4808B5016841F4800101602B
:101790000068002200F48000009011463A20FFF714
:1017A000E9F93A20FFF7D8F9002211464620FFF761
:1017B000E1F9BDE808404620FFF7CEB930380240D5
:1017C0002DE9F04F87B014216846FEF7C4FD474865
:1017D0000024016841F010010160016801F010016E
:1017E0000591016841F004010160016801F0040104
:1017F0000591016841F080010160016801F08001FC
:101800000591016841F001010160016801F00101E9
:101810000591016841F002010160016801F00201D7
:101820000591016841F0080101600068DFF8C0908F
:1018300000F008004FF46F650590002229464846E5
:10184000FFF725F9DFF8ACA04FF46C7600223146A3
:101850005046FFF71CF9DFF8A0B04FF40047002214
:1018600039465846FFF713F94FF4406800224146C5
:101870002248FFF70CF900221C212148FFF707F945
:101880007C20CDE90004694658460294FFF702F82F
:1018900000950125CDE90154694648460394FEF7B9
:1018A000F9FF0096CDE90154694650460394FEF7CE
:1018B000F1FF0097CDE90154694658460394FEF7BD
:1018C000E9FFCDF80080CDE9015469460B48039447
:1018D000FEF7E0FF1C200090CDE90154694608485E
:1018E0000394FEF7D7FF07B0BDE8F08F3038024011
:1018F00000000240000802400010024000040240C4
:10190000000C024010B586B00024174800940194E2
:10191000029403940494134905940160A721C0E93B
:10192000011442F20F71C0E9031444618461FFF7AE
:1019300051FC08B1FEF7DFFD4FF48050009069467E
:101940000948FFF789FC08B1FEF7D5FD049404A906
:1019500005480594FFF7F6FB002801D0FEF7CBFD04
:1019600006B010BD00000140680100200C4810B511
:101970000A4901604FF4E1314160002181600C228D
:10198000C160C0E904128161C161FFF745FE002812
:1019900003D0BDE81040FEF7AEBD10BD0010014001
:1019A000B0010020FEE7FEE770477047FFF77AB806
:1019B00030B593B030216846FEF7CDFC14210CA859
:1019C000FEF7C9FC1E480025016841F08051016006
:1019D000006800F0805011901A48016841F480417D
:1019E00001600068022400F4804011900120009002
:1019F000000401908001CDE90640192008904FF4C1
:101A0000A870CDE9090404200B906846FFF7D0F9CF
:101A100008B172B6FEE70CA90F2081E831004FF43F
:101A2000A0500F904FF48050109005210CA8FFF7A4
:101A3000D3F8002801D072B6FEE713B030BD000025
:101A400040380240007000400248016841F47001D3
:101A50000160704788ED00E0F0B50268294C2A4D1E
:101A60002A4E2B4F2B4B4FF0804CA04209D06045A3
:101A700007D0A84205D0B04203D0B84201D0984266
:101A800004D122F0700E4A6842EA0E02A0421BD036
:101A9000604519D0A84217D0B04215D0B84213D033
:101AA000984211D01C4DA8420ED01C4DA8420BD01C
:101AB0001B4DA84208D01B4DA84205D01A4DA84284
:101AC00002D01A4DA84203D122F44075CA682A43B5
:101AD0004D6922F080022A4302608A68C2620A6865
:101AE0008262A04201D0984201D1096901630121BB
:101AF00041610169C90703D0016921F00101016158
:101B0000F0BD00000000014000040040000800405B
:101B1000000C00400004014000400140004401402E
:101B20000048014000180040001C00400020004018
:101B300010B5846842EA032224F47F440A43224316
:101B4000826010BD826822F070020A4342F00701F1
:101B50008160704710B5036A046A24F001040462CE
:101B6000846924F0F00444EA021423F00A020A43D0
:101B70008461026210BD10B5036A046A24F0100487
:101B80000462846923F0A00324F4704444EA02321E
:101B900043EA01118261016210BD10B5806B002122
:101BA000C185C184FFF7FFFB10BD70B5846B206851
:101BB000406994F84110C0F3C0100025212904D1D8
:101BC00018B1E584204600F08EF82068406994F84A
:101BD0004210C0F38010222904D118B1E5852046B7
:101BE00000F05AF8606C40F0100060642046FFF787
:101BF000DAFB70BD10B50146806B096809684FF0CB
:101C00000002C9052ED4C28501680C3151E8003F9D
:101C100023F4807341E80034002CF5D101681431BD
:101C200051E8003F23F0010341E80034002CF5D1D6
:101C30000168143151E8003F23F0400341E80034CB
:101C4000002CF5D1202180F84210016B012909D127
:101C500001680C3151E8003F23F0100341E80034E3
:101C6000002CF5D14263016B012902D0FFF786FDFC
:101C700010BD818DFFF75EFB10BD10B5806B01219B
:101C80004163016B012902D0FFF779FD10BD818D01
:101C90004908FFF74FFB10BD01680C3151E8002FD8
:101CA00022F4907241E80023002BF5D10168143131
:101CB00051E8002F22F0010241E80023002BF5D16A
:101CC000016B012909D101680C3151E8002F22F084
:101CD000100241E80023002BF5D1202180F84210AA
:101CE00000210163704701680C3151E8002F22F098
:101CF000C00241E80023002BF5D1202180F84110DB
:101D0000704708B590F84210222901D0022008BD82
:101D100082684FF480539A4201D1016921B1816AEE
:101D20009A421BD04AB10AE00268816A5268C2F343
:101D300008020A80816A891C08E0026972B102689F
:101D4000526802F07F020A70816A491C8162C18D6B
:101D5000491E0904090CC18503D01BE002685268C2
:101D6000F1E70168CA6822F02002CA600168CA6807
:101D700022F48072CA6001684A6922F001024A6155
:101D8000202180F8421000214163026B012A03D018
:101D9000FFF7F4FC002008BD016301680C3151E835
:101DA000002F22F0100241E80023002BF5D101683A
:101DB0000A68D20602D50A6849680091818DFFF74A
:101DC000B9FAE7E770B5044600680169E26821F4F2
:101DD0004051114301612169A068E26908436169CA
:101DE000114308432168CA6849F20C639A430243CD
:101DF000CA6020684169A26921F4407111434161C0
:101E000031492068884202D03049884202D1FEF729
:101E10008DFF01E0FEF77AFFE269002319216425B6
:101E20003226B2F5004F626828D0A0FB0101930F63
:101E30009200FEF719FA0146B0FBF5F06FF01802B8
:101E4000504301EB800006EB0010B0FBF5F000F012
:101E5000F002B1FBF5F002EB0012B1FBF5F06FF010
:101E60001803584301EB800006EB0010B0FBF5F0BF
:101E700000F00F0021681044886070BDA0FB0101D4
:101E800092185B41FEF7F0F90146B0FBF5F0020154
:101E9000B1FBF5F06FF01803584301EB800006EB3F
:101EA000C000B0FBF5F000F0F80002EB4002B1FB1F
:101EB000F5F0584301EB800006EBC000B0FBF5F0F5
:101EC00000F00700D6E700000010014000140140B8
:101ED00038B5816204468285002013466064222260
:101EE00084F84220E56B1B4AEA63E56B1A4A2A64D0
:101EF000E56B1A4AEA64E26B10650A462168E06BFA
:101F0000091DFEF78FFC2068016840680090206979
:101F100048B120680C3050E8001F41F4807140E85F
:101F20000012002AF5D12068143050E8001F41F05B
:101F3000010140E80012002AF5D12068143050E871
:101F4000001F41F0400140E80012002AF5D10020B6
:101F500038BD0000F51B00087B1C0008AB1B000807
:101F600070B595482DED068B82B0FFF71DFA924CA7
:101F700020680168C943C9067ED4016840680090A2
:101F80002046FFF7D8F9E06B006840688B4DC0F140
:101F90006400C0B28A4C287002280AD120785228E6
:101FA0006BD160785328FBD1864A8749874800F077
:101FB0004BFE28780D287CD12078854E372845D1D6
:101FC000A078844930384843E17840F2712211FB0F
:101FD00002F100EB0110217901EB4102C2EBC111CA
:101FE00000EBC100617901EBC10202EB011100EBD2
:101FF0008100A17901EB810100EB4100E179084406
:10200000304403F09CF841EC180B607A217B3038A7
:1020100000EB4002C2EBC01001EBC000A17A6422C9
:1020200011FB02F1E27A02EB820201EB4201084469
:10203000A0F5A050D03803F082F841EC110B6648AF
:10204000B0EE480AF0EE680A00F098FD20783828D3
:102050004AD1A0785F4930384843E17840F2712294
:1020600011FB02F100EB0110217901EB4102C2EBFF
:10207000C11100EBC10001E099E08EE0617901EB54
:10208000C10202EB011100EB8100A17901EB81019A
:1020900000EB4100E1790844304403F050F841EC92
:1020A000180B607A217B303800EB4002C2EBC01085
:1020B00000E019E001EBC000A17A642211FB02F1FB
:1020C000E27A02EB820201EB42010844A0F5A05043
:1020D000D03803F034F841EC110B4048B0EE480A18
:1020E000F0EE680A00F04AFD28780E2855D12078D5
:1020F0003B4D522812D16078E178303800EBC002B5
:1021000002EB001001EB8000A17801EB810105EBEF
:102110004101084403F013F841EC1A0B607954288C
:1021200014D1A079217A303800EBC00202EB001004
:1021300001EB8000E1792A4A01EB81015A3A02EB76
:102140004101084402F0FBFF41EC190BA07A48283A
:1021500012D1E07A617B303800EBC00202EB001054
:1021600001EB8000217B01EB810105EB410108447B
:1021700002F0E5FF41EC180B124A13491348B0EE88
:10218000482AF0EE682AB0EE491AF0EE691AB0EE6D
:102190004A0AF0EE6A0A00F0DFFC02B06422BDECED
:1021A000068BBDE8704006490348FFF7D9BA02B074
:1021B000BDEC068B70BD0000B0010020F0000020D7
:1021C00004010020000000206000002030000020FA
:1021D000B0DCF7FFA086010090000020C0000020C6
:1021E000F0FDFFFFFEE703B401984100009850EABC
:1021F000C12018BF04204A0D18BF40F0010040F272
:10220000FF72B2EB515F08BF40F00200012808BF27
:10221000052002B070470907090E002804DB00F111
:10222000E02080F80014704700F00F0000F1E0207B
:1022300080F8141D7047000070B5C1482DED020BE9
:102240002DED0E8B82B0119D25F000449FEDBEDB7D
:102250009FEDBFEB84423EDBA4F140511098A1F109
:102260007F6108430FD0BC48844202DC28D110981B
:1022700030B39DED100B02B0BDEC0E8B02B0BDE88B
:10228000704000F042BA9DED100B53EC1D2B51EC49
:10229000100B02F0A7FF9DED100B41EC180B53EC57
:1022A0001E2B51EC100B02F09DFF53EC182B02F08B
:1022B0000BFD41EC100B02B0BDEC0E8B02B070BDFB
:1022C0000120FEF777F802B0BDEC0E8B02B0BDE83E
:1022D000704000F025BAA1489FEDA18B844256DAE8
:1022E0009DED100BB4F1795F0ADA51EC100BFFF79A
:1022F0007AFF042808BF00F023FA9DED100BDAE7FF
:1023000053EC102B51EC100B02F06CFF41EC190B4D
:1023100095480621B0EE490AF0EE690A784400F0CB
:1023200078F953EC192B51EC100B02F05BFF41ECE8
:102330001A0B8E48B0EE490AF0EE690A042178447F
:1023400000F067F953EC192B51EC100B02F04AFF27
:1023500053EC182B02F0B8FC41EC100B51EC1A0BAB
:1023600053EC102B02F064FDCDE900019DED000B54
:1023700053EC102B9DED100B51EC100B02F032FFC3
:102380009DED101B53EC112B02F09EFCD2E09DED55
:10239000100B51EC100B00F0ADFB53EC182B03F0BD
:1023A00055F89FED730BCDE9000153EC102B9DED1B
:1023B000000B51EC100B02F015FF41EC190B6E48AD
:1023C0000621B0EE490AF0EE690A784400F021F9DE
:1023D00053EC192B51EC100B02F004FF41EC1B0BDA
:1023E0006648B0EE490AF0EE690A0421784400F02C
:1023F00010F953EC192B51EC100B02F0F3FE53ECD7
:10240000182B02F061FC41EC1C0B51EC190B00F095
:10241000C9FC41EC180B5A489FED5BABA04222DC93
:1024200053EC1C2B51EC1B0B02F002FDCDE900011B
:102430009DED000B51EC180B53EC102B02F0D2FE6B
:1024400053EC182B02F040FC53EC1A2B02F0CAFE9E
:1024500053EC1D2B03F0D2F853EC1E2B02F0F6FFC9
:1024600041EC100B5FE08DED008B002000909DEDA6
:10247000000B51EC180B53EC102B02F025FC9DEDDA
:10248000000B41EC1E0B53EC102B51EC100B02F027
:10249000A9FE53EC192B02F0D9FF53EC1E2B02F0CE
:1024A000C7FC41EC190B53EC1C2B51EC1B0B02F03D
:1024B000BFFC41EC1B0B53EC1A2B51EC190B02F037
:1024C00091FE53EC1D2B02F0C1FF41EC190B53ECB4
:1024D0001A2B51EC180B02F085FE53EC1B2B02F06B
:1024E00081FE53EC192B03F089F89DED000B41ECB4
:1024F000180B53EC1A2B51EC100B02F073FE9FEDEE
:10250000249B53EC192B02F0A1FF41EC100B51EC72
:10251000180B53EC102B03F071F853EC192B02F04D
:1025200095FF41EC100B002D3FF7C5AE51EC100BA1
:1025300002F0BEFB41EC100BBDE600000000000005
:102540000000F03F00000000075C143326A6913C19
:10255000182D4454FB21F93F0000F07F0000E03FBC
:10256000000000000000F03FE0340000EE34000006
:10257000000000000000E03F323400004034000062
:102580003333EF3F00000000000000000000004077
:10259000182D4454FB21E93F00B52DED048BB0EE1E
:1025A000409AF0EE609A83B051EC190B02F05AFF9A
:1025B00041EC180B18EE100A18EE901A8DED008BF6
:1025C000002818BF0120084320F00040C0F17F60C0
:1025D00000F1E040C00F14D019EE101A19EE900A65
:1025E0008DED009B002918BF0121084320F0004019
:1025F000C0F17F6000F1E040C00F04BF0120FDF793
:10260000D9FEB0EE480A03B0F0EE680ABDEC048BC8
:1026100000BD70B504462DED028B4D1E00EBC500CC
:10262000B0EE408AF0EE608A90ED000B35F00600C7
:1026300017D053EC182B51EC100B02F0D3FD41ECEA
:10264000100B6D1E04EBC50090ED001B51EC100B40
:1026500053EC112B02F038FB41EC100B35F0060067
:10266000E7D1022D36D0042D1CD0062D1CBFBDECA9
:10267000028B70BD53EC182B51EC100B02F0B2FD25
:1026800094ED0A1B53EC112B02F01EFB53EC182B9C
:1026900002F0A8FD94ED081B53EC112B02F014FB83
:1026A00041EC100B53EC182B51EC100B02F09AFD7F
:1026B00094ED061B53EC112B02F006FB53EC182B88
:1026C00002F090FD94ED040B53EC102B02F0FCFA99
:1026D00041EC100B53EC182B51EC100B02F082FD67
:1026E00094ED021B53EC112B02F0EEFA53EC182B75
:1026F00002F078FD94ED001B53EC112B02F0E4FA8C
:10270000BDEC028B41EC100B70BD10B553EC102BDF
:1027100051EC100B02F0D8FA41EC100B10BD000088
:102720009FED050B10B553EC102B51EC100B02F084
:102730007FFB41EC100B10BD00000000000000000A
:102740009FED050B10B553EC102B51EC100B02F064
:1027500049FD41EC100B10BD00000000000000100E
:102760002DE9F04114462DED108B0D460646B0EED6
:10277000429AF0EE629AB0EE41DAF0EE61DAB0EE33
:1027800040BAF0EE60BA9FED75AB9FED76EB9FED32
:1027900077FB9FED788B51EC1B0B53EC182B02F061
:1027A0001FFE7DD39FED750B51EC1B0B53EC102BD3
:1027B00002F0DCFC74D353EC1A2B51EC1D0B02F02D
:1027C0000FFE6DD353EC1E2B51EC1D0B02F0CEFC13
:1027D00066D353EC182B51EC190B02F001FE5FD3BA
:1027E00053EC1F2B51EC190B02F0C0FC58D353ECE7
:1027F000182B51EC1B0B02F01BFB41EC100BFFF7ED
:102800001BFD53EC182B51EC100B02F0EBFC9FED71
:102810005D1B53EC112B02F00BFB41EC1C0B9FEDED
:102820005B0B53EC102B02F0DDFC884648EC100BE0
:10283000074653EC182B51EC100B02F007FE41EC4D
:102840001B0B9FED460B51EC1C0B53EC102B02F0B5
:10285000D5FE53EC1D2B02F037FA41EC1A0B9FED1D
:102860003F0B53EC102B02F0BBFD28D353EC1E2B77
:1028700051EC1A0B02F07AFC21D39FED460B51EC80
:102880001B0B53EC102B02F0ABFD18D39FED430B49
:1028900051EC1B0B53EC102B02F068FC0FD300E043
:1028A00057E053EC182B51EC190B02F099FD06D3AD
:1028B00053EC1F2B51EC190B02F058FC43D248EC9F
:1028C000107B53EC182B51EC100B02F097FE53ECDD
:1028D0001C2B9FED22CB41EC1B0B51EC1C0B02F08F
:1028E0008DFE53EC1D2B02F0EFF941EC1A0B53EC6B
:1028F0001C2B02F075FD2CD353EC1E2B51EC1A0B44
:1029000002F034FC25D351EC1B0B9FED220B53EC52
:10291000102B02F065FD1CD351EC1B0B9FED1F0B20
:1029200053EC102B02F022FC13D353EC182B51EC78
:10293000190B02F055FD0CD353EC1F2B51EC190B66
:1029400002F014FC05D386ED00AB85ED00BB84EDF1
:10295000009BBDEC108BBDE8F08100000000000082
:102960000080564000000000008056C000000000BB
:10297000000054400000000000806640000000009D
:1029800000005240182D4454FB2109400000000073
:10299000000000400000000000A0604000000000B7
:1029A00000A060C010B590ED020B90ED041B53EC3D
:1029B000102B51EC110B02F021FE9FED0B1B53EC81
:1029C000112B02F00FFC9FED0A1B53EC112B02F0B0
:1029D00009FC9FED091B53EC112B02F029FABDE80D
:1029E000104002F07DBB00000000000000003E40EF
:1029F0000000000000002040CDCCCCCCCCCCFC3F73
:102A000010B590ED020B90ED041B53EC102B51EC24
:102A1000110B02F0F3FD9FED0E1B53EC112B02F096
:102A200007FA9FED0D1B53EC112B02F0DBFB9FED22
:102A30000C1B53EC112B02F0D5FB9FED0B1B53EC41
:102A4000112B02F0F5F9BDE8104002F049BB00007F
:102A50008FC2F5285C8FEA3F0000000000003E4076
:102A60000000000000002040CDCCCCCCCCCCFC3F02
:102A700010B590ED020B90ED041B53EC102B51ECB4
:102A8000110B02F0BBFDBDE8104002F029BB0000B5
:102A9000F0B5002541F2111642F20F741449B71037
:102AA00023E02346984200D803460A6855620A6824
:102AB000D2F800C04CF0010CC2F800C0D1F80020E0
:102AC000D2F824C09C45FBD3D2F820C01CEA060FE4
:102AD0000AD1D2F820C01CEA070F05D1D2F800C0F5
:102AE0002CF0010CC2F800C0C01A0028D9D1F0BDEA
:102AF0006801002082B0CDE9000121F00040019082
:102B00009DED000B02B051EC100B7047FDF7D2FFAA
:102B1000FEF74EFFFEF754FEFEF734FEFEF7F2FE20
:102B2000FEF724FF09480068C16841F01001C16048
:102B3000642207490548FEF713FE064A02F16001C8
:102B4000A1F1300000F080F8FEE70000B0010020A5
:102B5000040100200000002070B514460D46064612
:102B6000103210311030FFF7FBFD204601F09AFFC4
:102B700029463046BDE8704001F0CCBA10B5044695
:102B80002DED088BB0EE408AF0EE608AB0EE41BACF
:102B9000F0EE61BA9FED26AB9FED279B53EC1A2B0D
:102BA00051EC180B02F01CFC06D953EC192B51EC1C
:102BB000180B02F0DBFA02D884ED08BB12E053ECEC
:102BC0001A2B51EC180B02F0D1FA02D284ED08ABAB
:102BD00008E053EC192B51EC180B02F001FC01D268
:102BE00084ED089B9FED160B84ED048B84ED020BA6
:102BF000206804280AD007280FD0082814D1BDEC7B
:102C0000088B2046BDE8104000F0AEBEBDEC088B3E
:102C10002046BDE8104000F031BABDEC088B2046DC
:102C2000BDE8104000F068BCBDEC088B10BD000092
:102C300000000000000049400000000000409F40EC
:102C400000000000000000002DE9F05F4B4F14462B
:102C50000D460646002210213846FDF718FFDFF822
:102C600020A10022F9145046FDF711FFDFF814915E
:102C70004FF40078002241464846FDF708FF012244
:102C800004213846FDF703FF002241465046FDF778
:102C9000FEFE012280214846FDF7F9FEBB46DFF823
:102CA000E8804FF4FA770FE0012208215846FDF73B
:102CB000EEFE3846FFF7ECFE002208215846FDF7ED
:102CC000E6FE3846FFF7E4FE10214046FDF7DAFE47
:102CD0000028E9D04FF4807708214046FDF7D2FE66
:102CE00050B34FF4806704214046FDF7CBFE4FF010
:102CF000010290B310215846FDF7C9FE0122D1020E
:102D00005046FDF7C4FE012251024846FDF7BFFEC2
:102D10009FED1E0B86ED040B86ED020B9FED1D0B48
:102D200085ED040B85ED020B9FED1C0B84ED040B70
:102D300084ED020BBDE8F09F012239464846FDF7BD
:102D4000A6FEC820FFF7A4FE002239464846FDF73C
:102D50009EFEC820FFF79CFEBEE7FFE739465046BF
:102D6000FDF795FEC820FFF793FE00223946504636
:102D7000FDF78DFEC820FFF78BFEB4E7000C024084
:102D80000000024000080240001002400000000065
:102D9000004059C00000000000A06040000000009A
:102DA0000080664000B52DED048B83B041EC190B1B
:102DB00002F058FB41EC180B18EE100A18EE901AAE
:102DC0008DED008B002818BF0120084320F0004043
:102DD000C0F17F6000F1E040C00F14D019EE101A6E
:102DE00019EE900A8DED009B002918BF01210843C0
:102DF00020F00040C0F17F6000F1E040C00F04BF50
:102E00000120FDF7D7FA51EC180B03B0BDEC048B91
:102E100000BD00002DE9F04F924C16462DED0A8BB7
:102E20000F4605464FF4006B81B0B0EE40BAF0EEAD
:102E300060BA002259462046FDF729FE8A484FF421
:102E40000041012D02D06D1C02D004E0012200E0FF
:102E50000022FDF71CFE9FED859B9FED86AB4FF496
:102E60008068B7427ADA384602F069F941EC100B13
:102E700051EC190B53EC102B01F0DAFF41EC180B5D
:102E8000304602F05CF941EC100B51EC190B53EC9D
:102E9000102B01F0CDFF41EC1C0B53EC1A2B51EC25
:102EA0001B0B02F09FF9814641EC1A0B009153EC89
:102EB0001C2B51EC1C0B02F095F941EC1B0B53EC55
:102EC000182B51EC180B02F08DF953EC1B2B02F070
:102ED00095FB53EC1A2B01F0ABFF02F001F907460A
:102EE000002637E0012241462046FDF7D0FD53EC95
:102EF000182B51EC190B01F09BFF8A464AEC100B82
:102F0000054651EC100B02F0EBF8FFF7C1FD002273
:102F100041462046FDF7BBFD4AEC105B51EC100B1F
:102F200002F0DEF8FFF7B4FD009953EC182B41ECEA
:102F30001A9B51EC180B02F055F953EC1A2B02F0C6
:102F40005DFB41EC100BFFF727FBB0EE408AF0EE83
:102F5000608A761CBE42C5DB7AE0FFE778DD384642
:102F600002F0EDF841EC100B51EC190B53EC102B67
:102F700001F05EFF41EC180B304602F0E0F841EC46
:102F8000100B51EC190B53EC102B01F051FF41ECDD
:102F90001C0B53EC1A2B51EC1B0B02F023F981464E
:102FA00041EC1A0B009153EC182B51EC180B02F06A
:102FB00019F941EC1B0B53EC1C2B51EC1C0B02F0D0
:102FC00011F953EC1B2B02F019FB53EC1A2B01F0F7
:102FD0002FFF02F085F80746002637E00122414620
:102FE0002046FDF754FD53EC182B51EC190B01F062
:102FF0001FFF8A464AEC100B054651EC100B02F0FD
:103000006FF8FFF745FD002241462046FDF73FFDE2
:103010004AEC105B51EC100B02F062F8FFF738FD40
:10302000009953EC182B41EC1A9B51EC180B02F051
:10303000D9F853EC1A2B01F047FE41EC100BFFF7C7
:10304000ABFAB0EE408AF0EE608A761CBE42C5DB79
:1030500001B05946BDEC0A8B20460122BDE8F04F75
:10306000FDF715BD00040240001002400000000002
:103070000000E03F00000000000000402DE9F04F9C
:1030800005462DED0C8B81B04668FFF7F1FC04007E
:1030900095ED08BB95ED06ABD5F828A0204601D5E7
:1030A000764244429FED5ACB51EC1A0B53EC1C2B49
:1030B00002F098F8834641EC190B5046009102F05B
:1030C0003EF8894649EC110B804653EC112B4746DC
:1030D0009FED518B51EC180B01F0AAFE49EC107BCF
:1030E00041EC1D0B53EC102B51EC180B01F0A0FE22
:1030F00053EC1D2B02F076F841EC1D0B53EC1B2B0F
:1031000051EC180B01F094FE41EC110B53EC112B18
:1031100002F068F853EC1D2B02F070FA53EC192BF7
:1031200001F086FE01F0DCFF404204EB4007002F77
:1031300002DD51EC1B0B3FE053EC1C2B51EC1B0B45
:1031400002F050F841EC190B009949EC108B41EC5E
:103150001BBB53EC102B51EC180B01F069FE49EC32
:10316000108B41EC1C0B53EC102B51EC180B01F0A5
:103170005FFE53EC1C2B02F035F841EC1C0B53ECBA
:10318000192B51EC180B01F053FE41EC110B53ECD1
:10319000112B02F027F853EC1C2B02F02FFA53EC02
:1031A0001B2B01F045FE01F09BFF404204EB400762
:1031B000002F1CDD51EC190B01F092FF0446224652
:1031C00051463046B0EE4A0AF0EE6A0AFFF722FE98
:1031D00022463946304600F027F82146524630460E
:1031E000B0EE4A0AF0EE6A0AFFF714FE04E0524617
:1031F0002146304600F018F89FED090B85ED040BD1
:1032000085ED020B01B0BDEC0C8BBDE8F08F00002A
:103210000000000000000040000000000000E03F4F
:1032200000000000000000002DE9F0471A4D914613
:103230000E4604464FF40068002241462846FDF73A
:1032400026FC16484FF40041012C02D0641C02D029
:1032500004E0012200E00022FDF719FC00244FF4F5
:1032600080670FE039462846FDF711FC4846FFF716
:103270000FFC002239462846FDF709FC4846FFF7B7
:1032800007FC641CB4424FF00102EBDB41462846C8
:10329000BDE8F047FDF7FBBB000402400010024010
:1032A0002DE9F0478E4C16462DED0A8B0F4605464C
:1032B000B0EE40BAF0EE60BA002220212046FDF7C1
:1032C000E6FB8848012D02D06D1C02D005E00122EA
:1032D00000E000228021FDF7DAFB9FED839B9FED4C
:1032E00084ABB74279DA384601F029FF41EC100B84
:1032F00051EC190B53EC102B01F09AFD41EC180B1B
:10330000304601F01CFF41EC100B51EC190B53EC53
:10331000102B01F08DFD41EC1C0B53EC1A2B51ECE2
:103320001B0B01F05FFF8A4680464AEC1A0B53ECF8
:103330001C2B51EC1C0B01F055FF41EC1B0B53EC0B
:10334000182B51EC180B01F04DFF53EC1B2B02F026
:1033500055F953EC1A2B01F06BFD01F0C1FE074645
:10336000002636E0012210212046FDF790FB53ECA9
:10337000182B51EC190B01F05BFD894649EC100B41
:10338000054651EC100B01F0ABFEFFF781FB00226C
:1033900010212046FDF77BFB49EC105B51EC100B34
:1033A00001F09EFEFFF774FB4AEC1A8B53EC182BCE
:1033B00051EC180B01F016FF53EC1A2B02F01EF91A
:1033C00041EC100BFFF7E8F8B0EE408AF0EE608AAF
:1033D000761CBE42C6DB79E0FFE777DD384601F0B8
:1033E000AEFE41EC100B51EC190B53EC102B01F01D
:1033F0001FFD41EC180B304601F0A1FE41EC100B13
:1034000051EC190B53EC102B01F012FD41EC1C0B8D
:1034100053EC1A2B51EC1B0B01F0E4FE8A4680465C
:103420004AEC1A0B53EC182B51EC180B01F0DAFE96
:1034300041EC1B0B53EC1C2B51EC1C0B01F0D2FE8E
:1034400053EC1B2B02F0DAF853EC1A2B01F0F0FCD2
:1034500001F046FE0746002636E0012210212046F4
:10346000FDF715FB53EC182B51EC190B01F0E0FCA8
:10347000894649EC100B054651EC100B01F030FE6B
:10348000FFF706FB002210212046FDF700FB49EC68
:10349000105B51EC100B01F023FEFFF7F9FA4AEC38
:1034A0001A8B53EC182B51EC180B01F09BFE53ECCC
:1034B0001A2B01F009FC41EC100BFFF76DF8B0EE90
:1034C000408AF0EE608A761CBE42C6DBBDEC0A8BF9
:1034D000204601222021BDE8F047FDF7D8BA0000C0
:1034E0000008024000000240000000000000E03F31
:1034F00000000000000000402DE9F04F05462DEDD2
:103500000C8B81B04668FFF7B3FA040095ED08BB59
:1035100095ED06ABD5F828A0204601D57642444269
:103520009FED5ACB51EC1A0B53EC1C2B01F05AFEB9
:10353000834641EC190B5046009101F000FE89468C
:1035400049EC110B804653EC112B47469FED518BF4
:1035500051EC180B01F06CFC49EC107B41EC1D0B9D
:1035600053EC102B51EC180B01F062FC53EC1D2BAB
:1035700001F038FE41EC1D0B53EC1B2B51EC180BEA
:1035800001F056FC41EC110B53EC112B01F02AFE1B
:1035900053EC1D2B02F032F853EC192B01F048FCD0
:1035A00001F09EFD404204EB4007002F02DD51EC8C
:1035B0001B0B3FE053EC1C2B51EC1B0B01F012FEDC
:1035C00041EC190B009949EC108B41EC1BBB53ECFF
:1035D000102B51EC180B01F02BFC49EC108B41EC3B
:1035E0001C0B53EC102B51EC180B01F021FC53EC8D
:1035F0001C2B01F0F7FD41EC1C0B53EC192B51EC8B
:10360000180B01F015FC41EC110B53EC112B01F0E0
:10361000E9FD53EC1C2B01F0F1FF53EC1B2B01F0E7
:1036200007FC01F05DFD404204EB4007002F1CDD6C
:1036300051EC190B01F054FD044622465146304628
:10364000B0EE4A0AF0EE6A0AFFF72AFE2246394631
:10365000304600F027F8214652463046B0EE4A0A7E
:10366000F0EE6A0AFFF71CFE04E05246214630469F
:1036700000F018F89FED090B85ED040B85ED020BAA
:1036800001B0BDEC0C8BBDE8F08F00000000000025
:1036900000000040000000000000E03F00000000CB
:1036A000000000002DE9F041184D17460E46044673
:1036B000002220212846FDF7EAF91548012C02D006
:1036C000641C02D005E0012200E000228021FDF709
:1036D000DEF900240FE010212846FDF7D8F938461E
:1036E000FFF7D6F9002210212846FDF7D0F9384619
:1036F000FFF7CEF9641CB4424FF00102EBDB284621
:10370000BDE8F0412021FDF7C2B9000000080240E9
:10371000000002402DE9F0478E4C16462DED0A8B35
:103720000F460546B0EE40BAF0EE60BA00224021E6
:103730002046FDF7ACF9012D02D06D1C02D006E049
:10374000012200E0002210212046FDF7A0F99FEDA4
:10375000829B9FED83ABB74279DA384601F0EFFCEC
:1037600041EC100B51EC190B53EC102B01F060FBEA
:1037700041EC180B304601F0E2FC41EC100B51EC2F
:10378000190B53EC102B01F053FB41EC1C0B53ECC9
:103790001A2B51EC1B0B01F025FD8A4680464AECA2
:1037A0001A0B53EC1C2B51EC1C0B01F01BFD41ECD4
:1037B0001B0B53EC182B51EC180B01F013FD53ECC1
:1037C0001B2B01F01BFF53EC1A2B01F031FB01F016
:1037D00087FC0746002636E0012220212046FDF71F
:1037E00056F953EC182B51EC190B01F021FB8946CB
:1037F00049EC100B054651EC100B01F071FCFFF782
:1038000047F9002220212046FDF741F949EC105BE1
:1038100051EC100B01F064FCFFF73AF94AEC1A8BFB
:1038200053EC182B51EC180B01F0DCFC53EC1A2B69
:1038300001F0E4FE41EC100BFEF7AEFEB0EE408A64
:10384000F0EE608A761CBE42C6DB79E0FFE777DDEA
:10385000384601F074FC41EC100B51EC190B53ECA1
:10386000102B01F0E5FA41EC180B304601F067FC33
:1038700041EC100B51EC190B53EC102B01F0D8FA62
:1038800041EC1C0B53EC1A2B51EC1B0B01F0AAFC66
:103890008A4680464AEC1A0B53EC182B51EC180B55
:1038A00001F0A0FC41EC1B0B53EC1C2B51EC1C0B4E
:1038B00001F098FC53EC1B2B01F0A0FE53EC1A2BEB
:1038C00001F0B6FA01F00CFC0746002636E00122B2
:1038D00020212046FDF7DBF853EC182B51EC190B97
:1038E00001F0A6FA894649EC100B054651EC100B85
:1038F00001F0F6FBFFF7CCF8002220212046FDF76F
:10390000C6F849EC105B51EC100B01F0E9FBFFF736
:10391000BFF84AEC1A8B53EC182B51EC180B01F042
:1039200061FC53EC1A2B01F0CFF941EC100BFEF7C0
:1039300033FEB0EE408AF0EE608A761CBE42C6DBF3
:10394000BDEC0A8B204601224021BDE8F047FDF77F
:103950009EB8000000000240000000000000E03FB0
:1039600000000000000000402DE9F04F05462DED5D
:103970000C8B81B04668FFF77BF8040095ED08BB1F
:1039800095ED06ABD5F828A0204601D576424442F5
:103990009FED5ACB51EC1A0B53EC1C2B01F022FC7F
:1039A000834641EC190B5046009101F0C8FB894653
:1039B00049EC110B804653EC112B47469FED518B80
:1039C00051EC180B01F034FA49EC107B41EC1D0B63
:1039D00053EC102B51EC180B01F02AFA53EC1D2B71
:1039E00001F000FC41EC1D0B53EC1B2B51EC180BB0
:1039F00001F01EFA41EC110B53EC112B01F0F2FB1C
:103A000053EC1D2B01F0FAFD53EC192B01F010FAC9
:103A100001F066FB404204EB4007002F02DD51EC51
:103A20001B0B3FE053EC1C2B51EC1B0B01F0DAFBA2
:103A300041EC190B009949EC108B41EC1BBB53EC8A
:103A4000102B51EC180B01F0F3F949EC108B41EC01
:103A50001C0B53EC102B51EC180B01F0E9F953EC53
:103A60001C2B01F0BFFB41EC1C0B53EC192B51EC50
:103A7000180B01F0DDF941EC110B53EC112B01F0A7
:103A8000B1FB53EC1C2B01F0B9FD53EC1B2B01F0E7
:103A9000CFF901F025FB404204EB4007002F1CDD6D
:103AA00051EC190B01F01CFB0446224651463046EE
:103AB000B0EE4A0AF0EE6A0AFFF72CFE22463946BB
:103AC000304600F027F8214652463046B0EE4A0A0A
:103AD000F0EE6A0AFFF71EFE04E052462146304629
:103AE00000F018F89FED090B85ED040B85ED020B36
:103AF00001B0BDEC0C8BBDE8F08F000000000000B1
:103B000000000040000000000000E03F0000000056
:103B1000000000002DE9F041184D17460E460446FE
:103B2000002240212846FCF7B2FF012C02D0641C81
:103B300002D006E0012200E0002210212846FCF716
:103B4000A6FF00240FE020212846FCF7A0FF3846FE
:103B5000FEF79EFF002220212846FCF798FF3846FA
:103B6000FEF796FF641CB4424FF00102EBDB2846DF
:103B7000BDE8F0414021FCF78ABF00000000024090
:103B80002DE9F04F924C16462DED0A8B0F46054657
:103B90004FF4006B81B0B0EE40BAF0EE60BA002294
:103BA00059462046FCF773FF6115012D02D06D1CAC
:103BB00002D005E0012200E000222046FCF767FF6A
:103BC0009FED849B9FED85AB4FF48068B7427ADA16
:103BD000384601F0B4FA41EC100B51EC190B53ECE0
:103BE000102B01F025F941EC180B304601F0A7FA33
:103BF00041EC100B51EC190B53EC102B01F018F9A0
:103C000041EC1C0B53EC1A2B51EC1B0B01F0EAFAA4
:103C1000814641EC1A0B009153EC1C2B51EC1C0B10
:103C200001F0E0FA41EC1B0B53EC182B51EC180B94
:103C300001F0D8FA53EC1B2B01F0E0FC53EC1A2BEB
:103C400001F0F6F801F04CFA0746002637E00122B1
:103C500041462046FCF71BFF53EC182B51EC190B87
:103C600001F0E6F88A464AEC100B054651EC100BC1
:103C700001F036FAFEF70CFF002241462046FCF721
:103C800006FF4AEC105B51EC100B01F029FAFEF72D
:103C9000FFFE009953EC182B41EC1A9B51EC180BCA
:103CA00001F0A0FA53EC1A2B01F0A8FC41EC100B28
:103CB000FEF772FCB0EE408AF0EE608A761CBE42DF
:103CC000C5DB7AE0FFE778DD384601F038FA41ECF1
:103CD000100B51EC190B53EC102B01F0A9F841EC2F
:103CE000180B304601F02BFA41EC100B51EC190B7C
:103CF00053EC102B01F09CF841EC1C0B53EC1A2BED
:103D000051EC1B0B01F06EFA814641EC1A0B00914D
:103D100053EC182B51EC180B01F064FA41EC1B0B1F
:103D200053EC1C2B51EC1C0B01F05CFA53EC1B2BDD
:103D300001F064FC53EC1A2B01F07AF801F0D0F991
:103D40000746002637E0012241462046FCF79FFE49
:103D500053EC182B51EC190B01F06AF88A464AEC27
:103D6000100B054651EC100B01F0BAF9FEF790FE6E
:103D7000002241462046FCF78AFE4AEC105B51ECDB
:103D8000100B01F0ADF9FEF783FE009953EC182BF0
:103D900041EC1A9B51EC180B01F024FA53EC1A2B4E
:103DA00000F092FF41EC100BFEF7F6FBB0EE408AFC
:103DB000F0EE608A761CBE42C5DB01B05946BDEC10
:103DC0000A8B20460122BDE8F04FFCF760BE0000E0
:103DD00000000240000000000000E03F0000000082
:103DE000000000402DE9F0471A4D91460E4604466A
:103DF0004FF40068002241462846FCF748FE69154A
:103E0000012C02D0641C02D005E0012200E0002257
:103E10002846FCF73CFE00244FF480670FE039464B
:103E20002846FCF734FE4846FEF732FE00223946AB
:103E30002846FCF72CFE4846FEF72AFE641CB442D6
:103E40004FF00102EBDB41462846BDE8F047FCF7A6
:103E50001EBE0000000002402DE9F04FA74C934623
:103E60002DED0A8B0D46064683B01F46B0EE40BAD4
:103E7000F0EE60BA00224FF400612046FCF707FE26
:103E8000DFF87C82002261154046FCF700FE012E1F
:103E900002D0761C02D007E0012200E000224FF49D
:103EA00000712046FCF7F3FD012D02D06D1C02D0FD
:103EB00006E0012200E0002280214046FCF7E7FDF9
:103EC00058469FED909B9FED91AB4FF480694FF466
:103ED000807ABB457EDA01F032F941EC100B51ECEF
:103EE000190B53EC102B00F0A3FF41EC180B3846D4
:103EF00001F025F941EC100B51EC190B53EC102B90
:103F000000F096FF41EC1C0B53EC1A2B51EC1B0BF1
:103F100001F068F9834641EC1A0B019153EC1C2B1C
:103F200051EC1C0B01F05EF941EC1B0B53EC182B10
:103F300051EC180B01F056F953EC1B2B01F05EFB12
:103F400053EC1A2B00F074FF01F0CAF80746002664
:103F50003EE0012249462046FCF799FD01225146E8
:103F60004046FCF794FD53EC182B51EC190B00F074
:103F70005FFF0546009101F0B3F8FEF789FD0022CE
:103F800049462046FCF783FD002251464046FCF797
:103F90007EFD009941EC105B51EC100B01F0A0F894
:103FA000FEF776FD019953EC182B41EC1ABB51EC4E
:103FB000180B01F017F953EC1A2B01F01FFB41EC21
:103FC000100BFEF7E9FAB0EE408AF0EE608A761C3C
:103FD000BE4200E001E0BCDB81E07DDD01F0AFF836
:103FE00041EC100B51EC190B53EC102B00F020FF9F
:103FF00041EC180B384601F0A2F841EC100B51ECE3
:10400000190B53EC102B00F013FF41EC1C0B53EC7D
:104010001A2B51EC1B0B01F0E5F8834641EC1A0B0F
:10402000019153EC182B51EC180B01F0DBF841EC2B
:104030001B0B53EC1C2B51EC1C0B01F0D3F853EC75
:104040001B2B01F0DBFA53EC1A2B00F0F1FE01F010
:1040500047F8074600263EE0012249462046FCF785
:1040600016FD012251464046FCF711FD53EC182B7A
:1040700051EC190B00F0DCFE0546009101F030F820
:10408000FEF706FD002249462046FCF700FD00220F
:1040900051464046FCF7FBFC009941EC105B51ECAB
:1040A000100B01F01DF8FEF7F3FC019953EC182BEF
:1040B00041EC1ABB51EC180B01F094F853EC1A2B9D
:1040C00000F002FE41EC100BFEF766FAB0EE408AFB
:1040D000F0EE608A761C00E001E0BE42BCDB01220B
:1040E000D1022046FCF7D3FC03B04046BDEC0A8B5E
:1040F00001225102BDE8F04FFCF7C9BC00000240AC
:1041000000080240000000000000E03F0000000046
:10411000000000402DE9F05F0E462DED108B0746A4
:10412000D0F804A0D1F80490FEF73CFC05463046D8
:10413000FEF738FC97ED08CB96ED08DB04469FEDC3
:10414000D0EB97ED06FB96ED069B002D02DACAF147
:10415000000A6D42002C02DAC9F1000964429FEDA9
:10416000CABB9FEDCB0B51EC100B00F0B9FF4042E6
:104170004FF47A789FEDC88B9FEDC9AB9FEDCA0BCA
:10418000A5426FDB04EB400BB0EE409AF0EE609A74
:10419000BBF1000F11DD3C23424649465046B0EECC
:1041A0004E0AF0EE6E0AFFF757FE3C235A46494688
:1041B000504600F07DF93C201AE051EC1B0B00F05A
:1041C0008FFF414204EB410BBBF1000F1BDD782355
:1041D000424649465046B0EE4E0AF0EE6E0AFFF7F0
:1041E0003BFE78235A464946504600F061F9782054
:1041F0000246434649465046B0EE4E0AF0EE6E0A7D
:10420000FFF72AFE05E0434622464946504600F0A5
:104210004FF92C1B53EC182B51EC1F0B00F0E2FF55
:104220008B4681464BEC1B0B53EC1C2B51EC1A0BB1
:1042300000F0FEFD41EC100B53EC102B00F0D2FF10
:1042400053EC192B01F0DAF953EC1B2B00F0F0FDC5
:1042500000F046FF404204EB4005002D03DD51EC29
:104260001C0B27E048E053EC182B51EC1C0B00F022
:10427000B9FF41EC180B4BEC1B9B53EC182B51EC8A
:104280001A0B00F0D5FD41EC100B53EC102B00F095
:10429000A9FF53EC192B01F0B1F953EC1B2B00F0E3
:1042A000C7FD00F01DFF404204EB4005002D1DDD61
:1042B00051EC180B00F014FF81464A464446414633
:1042C0005046B0EE4F0AF0EE6F0AFFF759FC4A462F
:1042D00029465046FFF786FD494622465046B0EE35
:1042E0004F0AF0EE6F0AFFF74BFCBDE04246214655
:1042F0005046FFF777FDB7E005EB400BB0EE40CA44
:10430000F0EE60CABBF1000F12DD3C234246494685
:104310005046B0EE4E0AF0EE6E0AFFF79DFD3C23CC
:104320005A464946504600F0C3F83C2243461BE03B
:1043300051EC1B0B00F0D4FE414205EB410BBBF1ED
:10434000000F1ADD7823424649465046B0EE4E0A29
:10435000F0EE6E0AFFF780FD78235A464946504634
:1043600000F0A6F87822434649465046B0EE4E0A81
:10437000F0EE6E0AFFF770FD05E043462A46494617
:10438000504600F095F8641B53EC182B51EC190BB8
:1043900000F028FF8B4682464BEC1B0B53EC1D2B89
:1043A00051EC1A0B00F044FD41EC100B53EC102BB8
:1043B00000F018FF53EC1C2B01F020F953EC1B2BE1
:1043C00000F036FD00F08CFE404204EB4005002D6D
:1043D00002DD51EC1D0B26E053EC182B51EC1D0BAC
:1043E00000F000FF41EC180B4BEC1BAB53EC182B0F
:1043F00051EC1A0B00F01CFD41EC100B53EC102B90
:1044000000F0F0FE53EC1C2B01F0F8F853EC1B2BE2
:1044100000F00EFD00F064FE404204EB4005002D6C
:104420001DDD51EC180B00F05BFE824652464446FF
:1044300041464846B0EE490AF0EE690A00F09CF8A1
:1044400052462946484600F0C9F951462246484698
:10445000B0EE490AF0EE690A00F08EF804E0424638
:104460002146484600F0BAF997ED040B87ED020BA0
:1044700096ED040B86ED020BBDEC108BBDE8F09FB2
:104480003A8C30E28E79453EC7711CC771BC8A40B8
:10449000C6711CC77107AB4000000000000000405F
:1044A000000000000000E03F8DEDB5A0F7C6903E93
:1044B0002DE9FF5F2E4D17460C4606464FF4006A65
:1044C000002251462846FCF7E2FADFF8A8804FF4B4
:1044D000007B002259464046FCF7D9FA012E02D053
:1044E000761C02D006E0012200E000225946284650
:1044F000FCF7CDFA012C02D0641C02D006E00122A8
:1045000000E0002280214046FCF7C1FA4646002424
:104510004FF480694FF4807819E049462846FCF74B
:10452000B6FA012241463046FCF7B1FA0398FEF78D
:10453000AFFA002249462846FCF7A9FA0022414674
:104540003046FCF7A4FA0398FEF7A2FA641CBC42BA
:104550004FF00102E1DB51462846FCF798FA04B01F
:1045600059463046BDE8F05F0122FCF790BA0000E2
:1045700000000240000802402DE9F04F924C164620
:104580002DED0A8B0F4605464FF4007B81B0B0EE4F
:1045900040BAF0EE60BA002259462046FCF777FA9E
:1045A000012D02D06D1C02D006E0012200E00022A5
:1045B00080212046FCF76BFA9FED849B9FED85AB35
:1045C0004FF48078B7427ADA384600F0B8FD41EC13
:1045D000100B51EC190B53EC102B00F029FC41ECA3
:1045E000180B304600F0ABFD41EC100B51EC190BF1
:1045F00053EC102B00F01CFC41EC1C0B53EC1A2B61
:1046000051EC1B0B00F0EEFD814641EC1A0B0091C2
:1046100053EC1C2B51EC1C0B00F0E4FD41EC1B0B8C
:1046200053EC182B51EC180B00F0DCFD53EC1B2B5A
:1046300000F0E4FF53EC1A2B00F0FAFB00F050FD01
:104640000746002637E0012241462046FCF71FFAC4
:1046500053EC182B51EC190B00F0EAFB8A464AEC9C
:10466000100B054651EC100B00F03AFDFEF710FA66
:10467000002241462046FCF70AFA4AEC105B51EC56
:10468000100B00F02DFDFEF703FA009953EC182BE8
:1046900041EC1A9B51EC180B00F0A4FD53EC1A2BC3
:1046A00000F0ACFF41EC100BFDF776FFB0EE408A56
:1046B000F0EE608A761CBE42C5DB7AE0FFE778DD6B
:1046C000384600F03CFD41EC100B51EC190B53EC5B
:1046D000102B00F0ADFB41EC180B304600F02FFD25
:1046E00041EC100B51EC190B53EC102B00F0A0FB1C
:1046F00041EC1C0B53EC1A2B51EC1B0B00F072FD20
:10470000814641EC1A0B009153EC182B51EC180B1D
:1047100000F068FD41EC1B0B53EC1C2B51EC1C0B07
:1047200000F060FD53EC1B2B00F068FF53EC1A2BDC
:1047300000F07EFB00F0D4FC0746002637E00122A3
:1047400041462046FCF7A3F953EC182B51EC190B0A
:1047500000F06EFB8A464AEC100B054651EC100B3C
:1047600000F0BEFCFEF794F9002241462046FCF71B
:104770008EF94AEC105B51EC100B00F0B1FCFEF727
:1047800087F9009953EC182B41EC1A9B51EC180B4C
:1047900000F028FD53EC1A2B00F096FA41EC100BB8
:1047A000FDF7FAFEB0EE408AF0EE608A761CBE425B
:1047B000C5DB01B05946BDEC0A8B20460122BDE89D
:1047C000F04FFCF764B90000000802400000000050
:1047D0000000E03F00000000000000402DE9F0472D
:1047E0001A4D91460E4604464FF400780022414689
:1047F0002846FCF74CF9012C02D0641C02D006E0DC
:10480000012200E0002280212846FCF740F9002424
:104810004FF480770FE039462846FCF738F94846D0
:10482000FEF736F9002239462846FCF730F94846AB
:10483000FEF72EF9641CB4424FF00102EBDB414657
:104840002846BDE8F047FCF722B900000008024006
:104850002DE9F0478E4C16462DED0A8B0F46054686
:10486000B0EE40BAF0EE60BA002210212046FCF70C
:104870000EF9012D02D06D1C02D006E0012200E0ED
:10488000002204212046FCF702F99FED829B9FED58
:1048900083ABB74279DA384600F051FC41EC100B9B
:1048A00051EC190B53EC102B00F0C2FA41EC180B31
:1048B000304600F044FC41EC100B51EC190B53EC6A
:1048C000102B00F0B5FA41EC1C0B53EC1A2B51ECF9
:1048D0001B0B00F087FC8A4680464AEC1A0B53EC0F
:1048E0001C2B51EC1C0B00F07DFC41EC1B0B53EC22
:1048F000182B51EC180B00F075FC53EC1B2B00F03F
:104900007DFE53EC1A2B00F093FA00F0E9FB07460A
:10491000002636E0012208212046FCF7B8F853ECC7
:10492000182B51EC190B00F083FA894649EC100B57
:10493000054651EC100B00F0D3FBFEF7A9F800225E
:1049400008212046FCF7A3F849EC105B51EC100B52
:1049500000F0C6FBFEF79CF84AEC1A8B53EC182BC0
:1049600051EC180B00F03EFC53EC1A2B00F046FE05
:1049700041EC100BFDF710FEB0EE408AF0EE608ABD
:10498000761CBE42C6DB79E0FFE777DD384600F0F3
:10499000D6FB41EC100B51EC190B53EC102B00F033
:1049A00047FA41EC180B304600F0C9FB41EC100B04
:1049B00051EC190B53EC102B00F03AFA41EC1C0BA4
:1049C00053EC1A2B51EC1B0B00F00CFC8A46804672
:1049D0004AEC1A0B53EC182B51EC180B00F002FCAC
:1049E00041EC1B0B53EC1C2B51EC1C0B00F0FAFBA5
:1049F00053EC1B2B00F002FE53EC1A2B00F018FABC
:104A000000F06EFB0746002636E001220821204612
:104A1000FCF73DF853EC182B51EC190B00F008FA99
:104A2000894649EC100B054651EC100B00F058FB81
:104A3000FEF72EF8002208212046FCF728F849EC62
:104A4000105B51EC100B00F04BFBFEF721F84AEC29
:104A50001A8B53EC182B51EC180B00F0C3FB53ECE2
:104A60001A2B00F031F941EC100BFDF795FDB0EE7B
:104A7000408AF0EE608A761CBE42C6DBBDEC0A8B33
:104A8000204601221021BDE8F047FCF700B80000E5
:104A9000000C0240000000000000E03F00000000A9
:104AA000000000402DE9F04F05462DED0C8B81B044
:104AB0004668FDF7A5FF040095ED08BB95ED06AB34
:104AC000D5F828A0204601D5764244429FED59CB27
:104AD00051EC1A0B53EC1C2B00F084FB834641EC89
:104AE000190B5046009100F02AFB894649EC110B46
:104AF000804653EC112B47469FED508B51EC180B21
:104B000000F096F949EC107B41EC1D0B53EC102B97
:104B100051EC180B00F08CF953EC1D2B00F062FBEC
:104B200041EC1D0B53EC1B2B51EC180B00F080F9E2
:104B300041EC110B53EC112B00F054FB53EC1D2BEB
:104B400000F05CFD53EC192B00F072F900F0C8FA8C
:104B5000404204EB4007002F02DD51EC1B0B3FE00D
:104B600053EC1C2B51EC1B0B00F03CFB41EC190BE4
:104B7000009949EC108B41EC1BBB53EC102B51EC12
:104B8000180B00F055F949EC108B41EC1C0B53EC61
:104B9000102B51EC180B00F04BF953EC1C2B00F0D0
:104BA00021FB41EC1C0B53EC192B51EC180B00F0C2
:104BB0003FF941EC110B53EC112B00F013FB53ECBC
:104BC0001C2B00F01BFD53EC1B2B00F031F900F007
:104BD00087FA404204EB4007002F1CDD51EC190B13
:104BE00000F07EFA0446224651463046B0EE4A0AAC
:104BF000F0EE6A0AFFF72CFE22463946304600F0F6
:104C000021F8214652463046B0EE4A0AF0EE6A0AD2
:104C1000FFF71EFE04E052462146304600F012F82F
:104C200095ED040B85ED020B01B0BDEC0C8BBDE8DE
:104C3000F08F0000000000000000004000000000B5
:104C40000000E03F2DE9F041184D17460E4604469E
:104C5000002210212846FBF71AFF012C02D0641C09
:104C600002D006E0012200E0002204212846FBF7E2
:104C70000EFF00240FE008212846FBF708FF384606
:104C8000FDF706FF002208212846FBF700FF384603
:104C9000FDF7FEFE641CB4424FF00102EBDB284638
:104CA000BDE8F0411021FBF7F2BE0000000C02400D
:104CB00081F00041704780F00040704721F00041D2
:104CC000704720F00040704710B591EA030F48BFCD
:104CD00083F0004300F19A84841A71EB030C05D22F
:104CE000121943EB0C03001B61EB0C01DFF824E10C
:104CF0004FEA1154A4EB135C1EEA430F18BF9EEA5F
:104D0000445F73D023EA0E03DCF1200E21EA045144
:104D100043F4801332D322FA0CFE10EB0E0023FA78
:104D20000CFE41EB0E01CCF1200E03FA0EFE10EB4F
:104D30000E0051F10001B1F5801FCCF1200E32D2EE
:104D400001EB045112FA0EF2BDE8104058BF704753
:104D5000401C38BF5FEA420218BF7047002814BFEA
:104D600020F0010041F100014FEA410313F5001F5B
:104D700038BF7047A1F1C04100F02CBB012A43EBC2
:104D80000302ACF1200CDCF11F0E32BF4FF0000E1D
:104D900023FA0CF310EB030041EB0451B4EB115F69
:104DA000D0D0A1EB045101F5801149085FEA300031
:104DB00001EB04510ED350F1000038BF12FA0EFE81
:104DC00008D1BDE81040C9E7401C38BF5FEA420285
:104DD000CAD1C3E7BDE810404FEA410313F5001FF5
:104DE00038BF7047A1F1C04100F0F4BA9EEA445FB9
:104DF00008D011EA5E0FBDE8104004BF01F0004189
:104E000000207047BDE8104070B500F095FA00BF73
:104E100064FBBE3E0000E0FF491058BFC1F14041B5
:104E20005B1058BFC3F140438B42EFF300807047E3
:104E30002DE9C04130B4DFF8A0C23CEA111418BF1C
:104E40003CEA131400F0EC8081EA03051CEA11141B
:104E500044EAD57418BF1CEA131500F0C780A4EB10
:104E600005044FF0004545EAC12145EAC32341EA64
:104E7000505143EA525304F17F74994204F50034CF
:104E80004FEAC0204FEAC22208BF904200F09C8047
:104E90004FEA13650FF24016765D4FEA134506FBA5
:104EA00005F7C7F1807706FB07F74FEAD737A7FB6F
:104EB00003687642C8F58038A7FB06CE38BFA8F154
:104EC000010807FB08E64FF0000EA6FB028CE6FB8C
:104ED00003CEDCF1000CCEF1004E38BFAEF1010E76
:104EE000A6FB0C584FF000074FF00005E6FB0E87BD
:104EF000A1FB08C6A0FB07CE16EB0E0645F1000588
:104F0000E1FB076515F1E04E7EBFA4F580345FEA52
:104F100046066D4116F1800745F100054FEA172757
:104F20004FEA066647EA0567A6F1DE46B6F1805FFE
:104F30004FEA15251FD9384624F0010C05EBC47142
:104F4000BCF1FE6F01EB0C1102D8F0BCBDE8008192
:104F500024425CBF01F5801E9EEAC47F02D4F0BCEF
:104F6000BDE80081244238D4F0BCA1F1C041BDE8C5
:104F7000004100F02FBA4FEAD22242EA43524FEAF0
:104F8000D323A7FB02864FEAD02040EA415007FB1B
:104F900003661EEA0E0F4FEAD12105FB026658BFD9
:104FA000A6EB0056B6EB00564FEA520E4EEAC37E11
:104FB00018EB0E0E56EB530EBDD518EB02085E41F2
:104FC0007F1C55F10005B6E74FF480154FF0000740
:104FD0004FF000064FF00008ADE7F0BC4FF00000C6
:104FE00001F1C04101F00041BDE8008111EA0C1F50
:104FF0000CEA131500D00CE013EA0C1F00F025801A
:105000004FF00000F0BC81EA030101F00041BDE86F
:105010000081F0BCBDE8004181EA030100F0DAB98B
:10502000F0BCBDE8004170B500F086F9097EFC3E99
:1050300000F007B881EA03014FF0000001F00041E1
:10504000704781EA030100F0C5B9F0BCBDE800413A
:105050004FF0000021497047FFFDFBF9F7F5F4F22E
:10506000F0EEEDEBE9E8E6E4E3E1E0DEDDDBDAD803
:10507000D7D5D4D3D1D0CFCDCCCBCAC8C7C6C5C461
:10508000C2C1C0BFBEBDBCBBBAB9B8B7B6B5B4B378
:10509000B2B1B0AFAEADACABAAA9A8A8A7A6A5A463
:1050A000A3A3A2A1A09F9F9E9D9C9C9B9A99999827
:1050B0009797969595949393929191908F8F8E8ECA
:1050C0008D8C8C8B8B8A8989888887878685858457
:1050D00084838382828181800000FF070000F87F43
:1050E0004FEA41034FEA5353A3F58063D3F11E0304
:1050F000C8BFD3F1210C0CDD4FF0004242EAC122BF
:1051000042EA505232FA03FC8CEAE17CACEBE170EB
:105110007047102BC4BF0020704703F5787CBCF1AA
:10512000FF3F04D06FF0004282EA2100704770B563
:1051300000F002F94992248000207047F2E710F055
:10514000004248BF4042B0FA80F310FA03F10AD09F
:10515000C3F11D0303F580634FEA415002EB035294
:1051600002EBD12170474FF00000704751EA030C69
:1051700017D41CF5801F58BFBCF5801F00F10680B6
:10518000994218BF704708BF9042704707D711F582
:10519000801F58BF13F5801F19D499427047894268
:1051A00070471CF5801F08D5BCF5801FF7D58B42D2
:1051B00018BF704708BF824270474FF4001C1CEBB9
:1051C000410F38BF1CEB430F01D28B42704770B5C3
:1051D00000F0B2F8922449004FF000514FF0805394
:1051E000FFF71ABEDFF848C170B51CEA111E1EBFDA
:1051F0001CEA13159EEA0C0F95EA0C0F00F06F8065
:1052000081EA030423EA4C134EEAD47E21EA4C11CE
:1052100041F4801143F48013AE44A1FB024CA0FB87
:105220000365AEF17F7E361955EB0C05A1FB034CEF
:105230004CF10003A0FB021C16EB0C06654153F178
:105240000003094218BF46F0010613F4007F0BD19A
:105250004FEA03314FEA0530340341EA155140EA81
:1052600016506FF003020AE04FEAC3214FEAC5204F
:10527000F40241EA555140EA56506FF0020202EB47
:105280002E4201EB025585EACE710AD05FEA440C4A
:1052900018BF24F0004450F1000041F1000120EA61
:1052A000D47040F2FE7C624500D270BDA84214BFAB
:1052B0004FF080444FF04044002E08BF0024BEF160
:1052C000806FA8BFA1F1C041BDE8704080F282802C
:1052D0004FF0000001F1C04101F0004170479EEA2B
:1052E0000C0F0CEA131518BF95EA0C0F06D04FF0FF
:1052F000000081EA030E0EF0004170BD00F01CF8C2
:105300008900013E00F007B800F009B84FEA430CED
:105310005FEA5C5C08D081EA030100F05BB84FEA09
:10532000410C5FEA5C5CF6D14FF000000149704728
:105330000000FF070000F87F0EF1020E2EF0030EB2
:105340005EF8046B364205D4012A43EB030515F5DC
:10535000001F12D8012841EB010C1CF5001F0CD8CE
:105360000ED14FEAD17C15F5001F0CEB4C0C0CF163
:10537000020C08BF4CEBD37C04E04FF0080C01E0BA
:105380004FEAD37C0CEB4C0526FA05F606F007062F
:10539000B6F1040C06D20EEB860CBDE870404CF062
:1053A000010C6047DFE80CF0090B02024FF00041EE
:1053B0004FF00000A1F5002170BD194610460128EC
:1053C00051EB010418BFD4F5001484BF002001F094
:1053D000004170BD0808A0F500114FEA3101704787
:1053E00053EA010C17D41CF5801F58BFBCF5801F71
:1053F00000F106808B4218BF704708BF8242704799
:1054000007D713F5801F58BF11F5801F19D48B42A1
:1054100070479B4270471CF5801F08D5BCF5801F64
:10542000F7D5994218BF704708BF904270474FF4B4
:10543000001C1CEB430F38BF1CEB410F01D29942FB
:1054400070470FB40CBC03BCFFF7C1BE91EA030F59
:1054500010B581F000413FF53FAC83F0004300F010
:10546000D5B800002DE9F04101F5801CBCF5001F06
:10547000C0F2A9804FEA115C21EA0C510CF1FD0C3D
:1054800041F480115FEA5C0C0CF5C07C01D3400054
:10549000494130A4890241EA905187028E0E0A0CDC
:1054A000A45D04FB04F602FB06F6C6F14046A4FB2D
:1054B0000662F60D46EA422606FB06F4A4FB01232B
:1054C0005242C3F1404338BF5B1EA6FB0242002498
:1054D000E6FB0324D20B42EA4446A6FB0623A1FBCB
:1054E00002E2A3FB07E4E3FB61426442C2F1404EE7
:1054F00038BFAEF1010EA6FB04234FF00002E6FB1D
:105500000E32A2FB03463400E2FB6264A1FB06E616
:10551000A4FB07E8E4FB61687642C8F1405838BF55
:10552000A8F10108A2FB06E4A3FB08E5E2FB68542E
:10553000A1FB05E6A7FB04E8E1FB648618F1200562
:1055400056F10006A809A8F11B08B10908F03F08A8
:10555000B8F10A0F40EA86601CD901EB0C51BDE896
:10556000F08100BFFCF5EEE8E2DDD8D3CFCBC7C3B6
:10557000C0BDB9B6B4B1AEACA9A7A5A3A19F9D9B70
:105580009A9896959392908F8D8C8B898887868533
:1055900084838281A0FB006800FB01F208EB4208D3
:1055A000B8EB872807D5341858EB0104D5D5401C33
:1055B00051F10001D1E7341A78EB0104CDD4401E3B
:1055C00071F10001C9E75FEA4C0C5FEA9C5C0DD108
:1055D00005D34FF0000001F00041BDE8F081BDE8C7
:1055E000F04170B5FFF7A8FE6DDBFFBEBDE8F041EE
:1055F0004FF00000004970470000F87F10B591EAB5
:10560000030F48BF83F000433FF566AB841A71EB8C
:10561000030C07D212198CF0004C43EB0C03001B57
:1056200061EB0C01DFF8A4E14FEA1154A4EB135C29
:105630001EEA430F18BF9EEA445F00F0B08023EAE1
:105640006E03524221EA0451C3EB6E0338BF5B1E66
:10565000DCF1200E25D322FA0CFE10EB0E0043FAEB
:105660000CFE41EB0E01CCF1200E03FA0EFE10EB06
:105670000E0051F10001CCF1200E29D412FA0EF2E5
:1056800001EB0451BDE8104058BF7047401C1CBFDF
:10569000B2F1004F704700280CBF491C20F00100F8
:1056A000704712EB020E43EB030218BF4FF0010EDE
:1056B0004EEA4202ACF1200CDCF11E0E54D943FA42
:1056C0000CFE10EB0E0051F1FF31CCF11E0ED5D5C2
:1056D0000EF1010E12FA0EFE404141EB010101EB09
:1056E000445C5FEA5C5C10D910EBDE7001EB0451A6
:1056F00038BFBEF1004FBDE8104018BF704700280A
:105700000CBF491C20F00100704730D24FEAD42C66
:1057100011F5001124F400641BD0B1FA81F20B3AA8
:10572000A41AA41ED2F12003914030FA03F31943C6
:10573000904001EBCC71002C01EB0451BDE810400E
:10574000A8BF704701F1C0414FF0000001F00041D7
:105750007047B0FA80F310FA03F100D110BDE41ADB
:10576000173C4805C90AE4E701EB045110BD491094
:1057700001EB0451BDE810404FEA300002E04FF069
:10578000000170474A0008BF0042F8D0B2F5001F80
:1057900028BF704701F000414FF0000070479EEABB
:1057A000445F07D011EA5E0FBDE8104004BF00213E
:1057B00000207047BDE8104070B5FFF7BDFD00BF89
:1057C00040DFF63E83F00041104670470000E0FFE6
:1057D0004FF04070E1EE100A704700061016000608
:1057E000101600000000000000000102030406077C
:1057F000080900000000010203040000000000008E
:10580000555555555555C53F7D6FEB0312D6D4BF41
:105810005544880E55C1C93F3B8F68B52882A4BF47
:1058200088B20175E0EF493F09F7FD0DE13D023F08
:105830004B2D8A1C273A03C0C88A599CE52A004090
:1058400059018D1B6C06E6BF82922EB1C5B8B33FDD
:10585000705800080000002004010000C401000886
:10586000745900080401002014080000E001000839
:105870000100000001000000000000000080664000
:10588000000000000080664095D626E80B2E213EE1
:105890000000000000C06240D007000000000000CF
:1058A000020000000100000000000000004059C09C
:1058B00000000000004059C03A8C30E28E79453E2D
:1058C0000000000000004E40E8030000000000005F
:1058D00003000000010000000000000000A0604084
:1058E0000000000000A060403A8C30E28E79453E16
:1058F0000000000000004E40E8030000000000002F
:10590000070000000100000000000000000000008F
:10591000000000000000000095D626E80B2E213E76
:105920000000000000C06240D0070000000000003E
:10593000080000000100000000000000000000005E
:10594000000000000000000095D626E80B2E213E46
:105950000000000000C06240D0070000000000000E
:105960000000000001000000100000000000000026
:045970000024F4001B
:040000050800018965
:00000001FF
