:020000040800F2
:10000000B806002029020008B7100008050F0008F4
:10001000B51000089B040008AB12000800000000A7
:10002000000000000000000000000000BB100008FD
:100030009D04000800000000B9100008BD10000871
:10004000430200084302000843020008430200087C
:10005000430200084302000843020008430200086C
:10006000430200084302000843020008430200085C
:10007000430200084302000843020008430200084C
:10008000430200084302000843020008430200083C
:10009000430200084302000843020008430200082C
:1000A000430200084302000843020008430200081C
:1000B000430200084302000843020008430200080C
:1000C00043020008430200084302000843020008FC
:1000D00043020008430200084302000843020008EC
:1000E00043020008430200084302000843020008DC
:1000F00043020008430200084302000843020008CC
:1001000043020008430200084302000843020008BB
:1001100043020008430200084302000843020008AB
:10012000430200084302000843020008430200089B
:10013000430200084302000843020008430200088B
:10014000430200084302000843020008430200087B
:10015000430200084302000843020008430200086B
:10016000430200084302000843020008430200085B
:100170004302000843020008430200080000000098
:10018000430200084302000800F002F800F03CF8C7
:100190000AA090E8000C82448344AAF10107DA45E2
:1001A00001D100F031F8AFF2090EBAE80F0013F0F8
:1001B000010F18BFFB1A43F001031847F42B00008E
:1001C000142C0000103A24BF78C878C1FAD852071E
:1001D00024BF30C830C144BF04680C6070470000C1
:1001E0000023002400250026103A28BF78C1FBD840
:1001F000520728BF30C148BF0B6070471FB502F0DF
:10020000AFFD1FBD10B510BD00F014F91146FFF78A
:10021000F5FF01F0D9F800F032F903B4FFF7F2FF6F
:1002200003BC00F033F90000094880470948004743
:10023000FEE7FEE7FEE7FEE7FEE7FEE7FEE7FEE796
:10024000FEE7FEE704480549054A064B70470000F3
:100250005911000889010008B8000020B8060020E4
:10026000B8020020B802002053EA020C00F06980B6
:100270002DE9F04B4FF00006002B1FBFB3FA83F5BA
:1002800003FA05F424FA05F65E4012BF1643B2FAEB
:1002900082F502FA05F4C5F120051EBF22FA05FC1D
:1002A00044EA0C04203556EA044C4FEA144418BFC3
:1002B000641C4FF000084FF00009904271EB030CF2
:1002C00039D3002919BFB1FA81F701FA07F6B0FA5C
:1002D00080F700FA07F6C7F120071EBF20FA07FCD7
:1002E00046EA0C062037B6FBF4FCA7EB0507103FE7
:1002F00007F01F0BCBF120060CFA0BFB2CFA06F6CD
:1003000044BFB3460026202FA4BF5E464FF0000B2B
:100310005BEA060C08BF4FF0010B19EB0B09ABFBB6
:10032000027C48EB0608C01B06FB02CC0BFB03CC8F
:1003300071EB0C01C1E70B46024641464846BDE859
:10034000F08B13B54FF000004FF00001AFF30080C9
:10035000BDE81C40704710B5203AC0F00B80B1E8F2
:100360001850203AA0E81850B1E81850A0E81850EA
:10037000BFF4F5AF5FEA027C24BFB1E81850A0E8F3
:10038000185044BF18C918C0BDE810405FEA827C0D
:1003900024BF51F8043B40F8043B08BF7047D20724
:1003A00028BF31F8023B48BF11F8012B28BF20F8C5
:1003B000023B48BF00F8012B70474FF0000200B528
:1003C000134694469646203922BFA0E80C50A0E878
:1003D0000C50B1F12001BFF4F7AF090728BFA0E826
:1003E0000C5048BF0CC05DF804EB890028BF40F8F2
:1003F000042B08BF704748BF20F8022B11F0804F34
:1004000018BF00F8012B704770477047704710B550
:1004100000F008F8006810BD10B5044600F002F8BE
:10042000046010BD00487047580000200048704725
:10043000580000207546FFF7F9FFAE4605006946F3
:10044000534620F00700854618B020B5FFF7FAFEA6
:10045000BDE820404FF000064FF000074FF00008C5
:100460004FF0000B21F00701AC46ACE8C009ACE846
:10047000C009ACE8C009ACE8C0098D467047044625
:10048000AFF300802046FFF7C8FE000001491820A6
:10049000ABBEFEE7260002007047FEE7704772B66B
:1004A000FEE7000070B5044600F00CF90546601C3C
:1004B00002D004480078044400F004F9401BA04234
:1004C000FAD370BD000000202DE9F84FDFF8BCA181
:1004D0000022012503264FF00F090AF1040BAAF1AF
:1004E000040E00BF0B6805FA02F42340A34270D14A
:1004F0000F7907F00307012F01D0022F16D187686B
:100500004FEA420806FA08FC27EA0C07D1F80CC0AB
:100510000CFA08FC4CEA070CC0F808C04768A7436F
:100520000C79C4F3001494403C4344600C79E443D8
:10053000A4070AD0C4684FEA420C06FA0CF7BC4381
:100540008F6807FA0CF72743C7600C7904F003049F
:10055000022C12D1D40800EB840CDCF820405707A1
:10056000FF0E09FA07F824EA0804D1F8108008FA07
:1005700007F848EA0408CCF8208004684FEA420CE7
:1005800006FA0CF7BC430F7907F0030707FA0CF7DC
:10059000274307604C6814F4403F70D03C4C2768F8
:1005A00047F480472760246822F0030704F480445E
:1005B0000094384C07EB040CDCF8084897074FEA26
:1005C000177809FA08F7BC43334FB84202D1002725
:1005D00024E054E0314FB84201D101271EE0304FF2
:1005E000B84201D1022719E02E4FB84201D10327AA
:1005F00014E02D4FB84201D104270FE02B4FB84231
:1006000001D105270AE02A4FB84201D1062705E0AB
:10061000284FB84201D1072700E0082707FA08F75A
:100620002743CCF80878DAF800405746D1F804C0E0
:100630009C435FEACC2C00D51C433C60DBF80040B7
:100640005F46D1F804C09C435FEA8C2C00D51C4364
:100650003C60DEF800407746D1F804C09C435FEA76
:100660008C3C00D51C433C60084F083F3C68D1F8E7
:1006700004C09C435FEACC3C00D51C433C60521C48
:10068000102AFFF42FAFBDE8F88F0000083C0140AE
:1006900044380240003001400000024000040240A3
:1006A00000080240000C024000100240001402400A
:1006B00000180240001C02400AB181617047090421
:1006C000FBE7000001488068704700000000002040
:1006D0000248816802781144816070470000002060
:1006E0000B4810B5016841F400710160016841F4E4
:1006F00080610160016841F480710160032000F0B5
:1007000061F80F2000F006F800F024F8002010BD7A
:10071000003C024070B50D4D04464FF47A712878C4
:10072000B1FBF0F00A490968B1FBF0F000F0DEFA25
:1007300048B9102C07D200222146501E00F022F8A2
:1007400000206C6070BD012070BD00000000002022
:100750000C0000200A4808B5016841F4804101609E
:10076000006800F4804000900548001F016841F0D7
:1007700080510160006800F08050009008BD0000CA
:1007800044380240F0B40E4B1B680C46C3F30223FE
:10079000C3F10705042D00D90425191D072901D22D
:1007A000002300E0DB1E012606FA05F1491E214068
:1007B00099409E40761E16403143F0BC00F076BD55
:1007C0000CED00E0064900F0070208684FF6FF0351
:1007D000184040EA0220034A1043086070470000B6
:1007E0000CED00E00000FA052DE9F0470E4605008B
:1007F00065D0DFF81481D8F80000F7B200F00700E8
:10080000B04207D288F80070D8F8000000F0070066
:10081000B04254D128683D4C810712D5400703D51A
:10082000206840F4E05020602878000703D5206855
:1008300040F4604020602068A96820F0F000084380
:1008400020602878C0072DD0304968680839012811
:1008500012D0022813D0032811D009688907002973
:100860002DDA216821F0030101432160FFF72AFFFF
:10087000814641F2883A0EE009688903EFE709688A
:100880008901ECE7FFF71EFFA0EB0901514502D9F2
:100890000320BDE8F0872068696800F00C00B0EB29
:1008A000810FEFD1D8F80010404601F00701B142A6
:1008B00007D90770006800F00700B04201D001209E
:1008C000E7E72878400705D52068E96820F4E0507C
:1008D000084320602878000706D52068296920F49D
:1008E000604040EAC100206000F018F82168084A22
:1008F000C1F30311515CC84006490860064800680E
:10090000FFF708FF0020C4E7003C0240083802401F
:10091000A02D00080C00002004000020154810B590
:10092000006810F00C02144813D01449042A0FD0A8
:10093000082A0ED10F4C241F2268236802F03F02C0
:100940005B0207D52068C0F38810A0FB010106E018
:10095000084610BD2168C1F38811A1FB00010023E6
:10096000FFF782FC2168C1F30141491C4900B0FB3B
:10097000F1F010BD083802400024F40040787D01F9
:100980002DE9F84F04006ED02078DFF84C93C007B3
:10099000A9F104054AD009F104000168C1F38101FD
:1009A000012908D00068C0F3810002280AD1D9F8D3
:1009B0000000400206D52868800337D5606800280B
:1009C000E1D033E06068B0F5803F10D0B0F5A02FE3
:1009D000286810D020F480302860286820F4802017
:1009E00028606068A8B1FFF76DFE06460DE0286834
:1009F00040F48030F4E740F480202860F7E700BF3F
:100A0000FFF760FE801B642873D828688003F7D541
:100A10000CE0FFF757FE064605E000BFFFF752FE69
:100A2000801B6428F0D828688003F7D42078DFF88A
:100A3000AC8280074FF0000A3ED5A748001D016830
:100A400011F00C0F08D00068C0F3810002280BD110
:100A5000D9F80000400207D42868800716D5E0685E
:100A6000012800D112E033E1E068B8B10120C8F8F4
:100A70000000FFF727FE064605E000BFFFF722FE55
:100A8000801B0228C0D828688007F7D5286821690C
:100A900020F0F80040EAC10028600DE0C8F800A08E
:100AA000FFF710FE064604E0FFF70CFE801B02284D
:100AB0001FD828688007F7D42078000722D5864FF2
:100AC00087486169703771B101210160FFF7FAFD54
:100AD000064604E0FFF7F6FD801B022809D83868B7
:100AE0008007F7D50EE0C0F800A0FFF7EBFD064643
:100AF00005E082E0FFF7E6FD801B02287DD838681C
:100B00008007F7D42078400768D5DFF8CCB10027FC
:100B10000BF13C0BDBF80000C0000BD4DBF800103D
:100B200041F08051CBF80010DBF80000012700F005
:100B3000805000906B4E3068C00510D4306840F48F
:100B400080703060FFF7BEFD009005E0FFF7BAFD52
:100B50000099401A022850D83068C005F6D55E4E7C
:100B6000A0686C3601280FD00528306810D020F01E
:100B700001003060306820F004003060A068B8B137
:100B8000FFF7A0FD00900FE0306840F00100F4E7AF
:100B900040F004003060F7E7FFF794FD0099411A38
:100BA00041F28830814266D830688007F4D50EE083
:100BB000FFF788FD009007E0FFF784FD0099411AD8
:100BC00041F28830814256D830688007F4D42FB182
:100BD000DBF8001021F08051CBF80010A069C8B3F9
:100BE0003D49091D0968C1F3810102294AD0022843
:100BF000504607D0C8F8600000E03CE0FFF762FD17
:100C000004463BE04746C8F86000FFF75BFD064638
:100C100005E000BFFFF756FD801B02282BD828688F
:100C20008001F7D4D4E907010843A16A2E4A490894
:100C300002EB0141626A41EA8211084394F82C10E8
:100C400040EA0161C9F8001001203866FFF73AFD5B
:100C5000044606E03EE000BFFFF734FD001B02281B
:100C600009D828688001F7D534E000BFFFF72AFDD6
:100C7000001B022802D90320BDE8F88F28688001F4
:100C8000F4D427E00128F7D0D9F80000E26900F495
:100C9000800191421CD1226A00F03F01914217D19C
:100CA00047F6C071626A0140B1EB821F10D1A26A9F
:100CB0004FF0FF3300F4403103EB5202B1EB024F2F
:100CC00006D194F82C1000F07060B0EB016F01D0E9
:100CD0000120D1E70020CFE704380240000047425E
:100CE000800E4742007000400000FFFF10B5401E1C
:100CF000B0F1807F01D3012010BD4FF0E02460618E
:100D00000F21601700F0D2FA0020A06107202061B7
:100D1000002010BD70B590F83C20012A32D001248B
:100D200080F83C40022280F83D2003685A689D68A4
:100D300022F070060A6832435A60134B02689A42E6
:100D400014D0B2F1804F11D0104B9A420ED0104BFC
:100D50009A420BD00F4B9A4208D00F4B9A4205D0C3
:100D60000E4B9A4202D00E4B9A4204D1496825F0AC
:100D700080031943916080F83D40002180F83C10C9
:100D8000084670BD022070BD000001400004004014
:100D900000080040000C00400004014000400140F9
:100DA0000018004010B5040003D094F83D0010B1C5
:100DB00007E0012010BD002084F83C00204600F030
:100DC0001FF8022084F83D00211D206800F0CCF9B6
:100DD000012084F8460084F83E0084F83F0084F83F
:100DE000400084F8410084F8420084F8430084F80D
:100DF000440084F8450084F83D00002010BD000048
:100E000008B500680649884208D10648016841F0E3
:100E100001010160006800F00100009008BD0000C1
:100E2000000001404438024070B5044690F83C0090
:100E30000025012817D0012684F83C60022084F8A0
:100E40003D002068826822F0770222F47F428260AF
:100E50000868502838D00DDC20284FD005DC90B32E
:100E6000102811D14AE0022070BD302846D0402819
:100E70000AD13BE060282FD070280DD0B0F5805FFC
:100E800003D0B0F5005F12D0012584F83D6000204A
:100E900084F83C00284670BDCB68D1E90121206868
:100EA00000F0CEF92068816841F0770109E0CB6855
:100EB000D1E90121206800F0C3F92068816841F47C
:100EC00080418160E1E719E0CA684968206800F064
:100ED000C9F95021206806E0CA684968206800F016
:100EE000D2F96021206800F0B5F9CEE7CA684968F8
:100EF000206800F0B7F940212068F4E72268014635
:100F00001046F0E7FEE700002DE9F04F87B014210E
:100F10006846FFF752FA47480024016841F0100183
:100F20000160016801F010010591016841F00401C0
:100F30000160016801F004010591016841F0800140
:100F40000160016801F080010591016841F0010133
:100F50000160016801F001010591016841F00201A1
:100F60000160016801F002010591016841F008018A
:100F700001600068DFF8C09000F008004FF46F6572
:100F80000590002229464846FFF796FBDFF8ACA003
:100F90004FF46C76002231465046FFF78DFBDFF8A8
:100FA000A0B04FF40047002239465846FFF784FBB3
:100FB0004FF44068002241462248FFF77DFB0022A3
:100FC0001C212148FFF778FB7C20CDE9000469460D
:100FD00058460294FFF778FA00950125CDE90154AF
:100FE000694648460394FFF76FFA0096CDE901542D
:100FF000694650460394FFF767FA0097CDE901541C
:10100000694658460394FFF75FFACDF80080CDE9B2
:10101000015469460B480394FFF756FA1C200090D0
:10102000CDE90154694608480394FFF74DFA07B02B
:10103000BDE8F08F30380240000002400008024056
:101040000010024000040240000C024010B586B0BF
:1010500000241748009401940294039404941349C3
:1010600005940160A721C0E9011442F20F71C0E9A3
:10107000031444618461FFF795FE08B1FFF70FFA8E
:101080004FF48050009069460948FFF7CDFE08B143
:10109000FFF705FA049404A905480594FFF73AFE02
:1010A000002801D0FFF7FBF906B010BD0000014099
:1010B00010000020FEE7FEE770477047FFF708BB0F
:1010C00030B593B030216846FFF777F914210CA8AA
:1010D000FFF773F91E480025016841F08051016057
:1010E000006800F0805011901A48016841F4804176
:1010F00001600068022400F48040119001200090FB
:10110000000401908001CDE90640192008904FF4B9
:10111000A870CDE9090404200B906846FFF730FC65
:1011200008B172B6FEE70CA90F2081E831004FF438
:10113000A0500F904FF48050109005210CA8FFF79D
:1011400053FB002801D072B6FEE713B030BD00009B
:1011500040380240007000400248016841F47001CC
:101160000160704788ED00E0F0B50268294C2A4D17
:101170002A4E2B4F2B4B4FF0804CA04209D060459C
:1011800007D0A84205D0B04203D0B84201D098425F
:1011900004D122F0700E4A6842EA0E02A0421BD02F
:1011A000604519D0A84217D0B04215D0B84213D02C
:1011B000984211D01C4DA8420ED01C4DA8420BD015
:1011C0001B4DA84208D01B4DA84205D01A4DA8427D
:1011D00002D01A4DA84203D122F44075CA682A43AE
:1011E0004D6922F080022A4302608A68C2620A685E
:1011F0008262A04201D0984201D1096901630121B4
:1012000041610169C90703D0016921F00101016150
:10121000F0BD000000000140000400400008004054
:10122000000C004000040140004001400044014027
:101230000048014000180040001C00400020004011
:1012400010B5846842EA032224F47F440A4322430F
:10125000826010BD826822F070020A4342F00701EA
:101260008160704710B5036A046A24F001040462C7
:10127000846924F0F00444EA021423F00A020A43C9
:101280008461026210BD10B5036A046A24F0100480
:101290000462846923F0A00324F4704444EA023217
:1012A00043EA01118261016210BDFEE70907090EE0
:1012B000002804DB00F1E02080F80014704700F003
:1012C0000F0000F1E02080F8141D704700B52DEDEF
:1012D000048BB0EE409AF0EE609A83B051EC190B9B
:1012E00001F088FB41EC180B18EE100A18EE901A6A
:1012F0008DED008B002818BF0120084320F000402E
:10130000C0F17F6000F1E040C00F14D019EE101A58
:1013100019EE900A8DED009B002918BF01210843AA
:1013200020F00040C0F17F6000F1E040C00F04BF3A
:101330000120FFF771F8B0EE480A03B0F0EE680A3A
:10134000BDEC048B00BD10B590ED020B90ED041BBD
:1013500053EC102B51EC110B01F018FCBDE81040C0
:1013600001F092B9F0B5002541F2111642F20F7466
:101370001449B71023E02346984200D803460A6870
:1013800055620A68D2F800C04CF0010CC2F800C0E7
:10139000D1F80020D2F824C09C45FBD3D2F820C05D
:1013A0001CEA060F0AD1D2F820C01CEA070F05D1AB
:1013B000D2F800C02CF0010CC2F800C0C01A0028FE
:1013C000D9D1F0BD100000202DED028B8CB0FFF7BD
:1013D00087F9FFF775FEFFF797FDFFF737FE30221D
:1013E0000E496846FEF7B7FF9FED0D8B68469FEDEF
:1013F0000E0BB0EE481AF0EE681A00F01DF84FF42C
:10140000FA70FFF74FF86846B0EE481AF0EE681A27
:101410009FED070B00F010F8FEE70000702D0008AC
:101420000000000000C06240000000000040AF402B
:10143000000000000040AFC010B504462DED088B41
:10144000B0EE408AF0EE608AB0EE41BAF0EE61BADA
:101450009FED26AB9FED279B53EC1A2B51EC180BFD
:1014600001F092FA06D953EC192B51EC180B01F04C
:1014700051F902D884ED08BB12E053EC1A2B51EC61
:10148000180B01F047F902D284ED08AB08E053ECE9
:10149000192B51EC180B01F077FA01D284ED089B5F
:1014A0009FED160B84ED048B84ED020B206804285D
:1014B0000AD007280FD0082814D1BDEC088B20468D
:1014C000BDE8104000F0C8BDBDEC088B2046BDE86B
:1014D000104000F04BB9BDEC088B2046BDE8104031
:1014E00000F082BBBDEC088B10BD000000000000C6
:1014F000000049400000000000409F400000000044
:10150000000000002DE9F04F924C16462DED0A8B9D
:101510000F4605464FF4006B81B0B0EE40BAF0EED6
:1015200060BA002259462046FFF7C6F88A484FF4B1
:101530000041012D02D06D1C02D004E0012200E028
:101540000022FFF7B9F89FED859B9FED86AB4FF426
:101550008068B7427ADA384601F0C5F841EC100BE2
:1015600051EC190B53EC102B00F036FF41EC180B2B
:10157000304601F0B8F841EC100B51EC190B53EC6C
:10158000102B00F029FF41EC1C0B53EC1A2B51ECF3
:101590001B0B01F0FBF8814641EC1A0B009153EC58
:1015A0001C2B51EC1C0B01F0F1F841EC1B0B53EC24
:1015B000182B51EC180B01F0E9F853EC1B2B01F040
:1015C000E5FA53EC1A2B00F007FF01F05DF807462F
:1015D000002637E0012241462046FFF76DF853EC24
:1015E000182B51EC190B00F0F7FE8A464AEC100B51
:1015F000054651EC100B01F047F8FFF7B3FE00224F
:1016000041462046FFF758F84AEC105B51EC100BAE
:1016100001F03AF8FFF7A6FE009953EC182B41ECC5
:101620001A9B51EC180B01F0B1F853EC1A2B01F096
:10163000ADFA41EC100BFFF749FEB0EE408AF0EE38
:10164000608A761CBE42C5DB7AE0FFE778DD38466B
:1016500001F049F841EC100B51EC190B53EC102B35
:1016600000F0BAFE41EC180B304601F03CF841ECBA
:10167000100B51EC190B53EC102B00F0ADFE41ECAC
:101680001C0B53EC1A2B51EC1B0B01F07FF881461D
:1016900041EC1A0B009153EC182B51EC180B01F094
:1016A00075F841EC1B0B53EC1C2B51EC1C0B01F09F
:1016B0006DF853EC1B2B01F069FA53EC1A2B00F078
:1016C0008BFE00F0E1FF0746002637E0012241468D
:1016D0002046FEF7F1FF53EC182B51EC190B00F0EC
:1016E0007BFE8A464AEC100B054651EC100B00F0CD
:1016F000CBFFFFF737FE002241462046FEF7DCFF16
:101700004AEC105B51EC100B00F0BEFFFFF72AFE15
:10171000009953EC182B41EC1A9B51EC180B01F07B
:1017200035F853EC1A2B00F0A3FD41EC100BFFF73A
:10173000CDFDB0EE408AF0EE608A761CBE42C5DB7D
:1017400001B05946BDEC0A8B20460122BDE8F04F9E
:10175000FEF7B2BF0004024000100240000000008B
:101760000000E03F00000000000000402DE9F04FC5
:1017700005462DED0C8B81B04668FFF7E4FD0400B3
:1017800095ED08BB95ED06ABD5F828A0204601D510
:10179000764244429FED5ACB51EC1A0B53EC1C2B72
:1017A00000F0F4FF834641EC190B5046009100F025
:1017B0009AFF894649EC110B804653EC112B4746A2
:1017C0009FED518B51EC180B00F006FE49EC107B9D
:1017D00041EC1D0B53EC102B51EC180B00F0FCFDF1
:1017E00053EC1D2B00F0D2FF41EC1D0B53EC1B2BD7
:1017F00051EC180B00F0F0FD41EC110B53EC112BE8
:1018000000F0C4FF53EC1D2B01F0C0F953EC192B71
:1018100000F0E2FD00F038FF404204EB4007002FEB
:1018200002DD51EC1B0B3FE053EC1C2B51EC1B0B6E
:1018300000F0ACFF41EC190B009949EC108B41EC26
:101840001BBB53EC102B51EC180B00F0C5FD49EC01
:10185000108B41EC1C0B53EC102B51EC180B00F0CF
:10186000BBFD53EC1C2B00F091FF41EC1C0B53EC27
:10187000192B51EC180B00F0AFFD41EC110B53ECA0
:10188000112B00F083FF53EC1C2B01F07FF953EC7C
:101890001B2B00F0A1FD00F0F7FE404204EB4007D7
:1018A000002F1CDD51EC190B00F0EEFE0446224621
:1018B00051463046B0EE4A0AF0EE6A0AFFF722FEC1
:1018C00022463946304600F027F821465246304637
:1018D000B0EE4A0AF0EE6A0AFFF714FE04E0524640
:1018E0002146304600F018F89FED090B85ED040BFA
:1018F00085ED020B01B0BDEC0C8BBDE8F08F000054
:101900000000000000000040000000000000E03F78
:1019100000000000000000002DE9F0471A4D91463C
:101920000E4604464FF40068002241462846FEF762
:10193000C3FE16484FF40041012C02D0641C02D0B3
:1019400004E0012200E00022FEF7B6FE00244FF47E
:1019500080670FE039462846FEF7AEFE4846FFF79F
:1019600001FD002239462846FEF7A6FE4846FFF74D
:10197000F9FC641CB4424FF00102EBDB41462846FF
:10198000BDE8F047FEF798BE000402400010024098
:101990002DE9F0478E4C16462DED0A8B0F46054675
:1019A000B0EE40BAF0EE60BA002220212046FEF7E9
:1019B00083FE8848012D02D06D1C02D005E0012273
:1019C00000E000228021FEF777FE9FED839B9FEDD4
:1019D00084ABB74279DA384600F085FE41EC100B53
:1019E00051EC190B53EC102B00F0F6FC41EC180BEA
:1019F000304600F078FE41EC100B51EC190B53EC23
:101A0000102B00F0E9FC41EC1C0B53EC1A2B51ECB1
:101A10001B0B00F0BBFE8A4680464AEC1A0B53ECC7
:101A20001C2B51EC1C0B00F0B1FE41EC1B0B53ECDA
:101A3000182B51EC180B00F0A9FE53EC1B2B01F0F6
:101A4000A5F853EC1A2B00F0C7FC00F01DFE07466A
:101A5000002636E0012210212046FEF72DFE53EC31
:101A6000182B51EC190B00F0B7FC894649EC100B10
:101A7000054651EC100B00F007FEFFF773FC002247
:101A800010212046FEF718FE49EC105B51EC100BBC
:101A900000F0FAFDFFF766FC4AEC1A8B53EC182BAA
:101AA00051EC180B00F072FE53EC1A2B01F06EF89B
:101AB00041EC100BFFF70AFCB0EE408AF0EE608AB2
:101AC000761CBE42C6DB79E0FFE777DD384600F0E2
:101AD0000AFE41EC100B51EC190B53EC102B00F0EB
:101AE0007BFC41EC180B304600F0FDFD41EC100B87
:101AF00051EC190B53EC102B00F06EFC41EC1C0B5D
:101B000053EC1A2B51EC1B0B00F040FE8A4680462A
:101B10004AEC1A0B53EC182B51EC180B00F036FE64
:101B200041EC1B0B53EC1C2B51EC1C0B00F02EFE5C
:101B300053EC1B2B01F02AF853EC1A2B00F04CFC51
:101B400000F0A2FD0746002636E0012210212046C3
:101B5000FEF7B2FD53EC182B51EC190B00F03CFCD6
:101B6000894649EC100B054651EC100B00F08CFD3A
:101B7000FFF7F8FB002210212046FEF79DFD49ECFF
:101B8000105B51EC100B00F07FFDFFF7EBFB4AEC14
:101B90001A8B53EC182B51EC180B00F0F7FD53EC9B
:101BA0001A2B00F065FB41EC100BFFF78FFBB0EE3A
:101BB000408AF0EE608A761CBE42C6DBBDEC0A8B22
:101BC000204601222021BDE8F047FEF775BD000048
:101BD0000008024000000240000000000000E03F5A
:101BE00000000000000000402DE9F04F05462DEDFB
:101BF0000C8B81B04668FFF7A6FB040095ED08BB8F
:101C000095ED06ABD5F828A0204601D57642444292
:101C10009FED5ACB51EC1A0B53EC1C2B00F0B6FD88
:101C2000834641EC190B5046009100F05CFD89465B
:101C300049EC110B804653EC112B47469FED518B1D
:101C400051EC180B00F0C8FB49EC107B41EC1D0B6C
:101C500053EC102B51EC180B00F0BEFB53EC1D2B7A
:101C600000F094FD41EC1D0B53EC1B2B51EC180BB9
:101C700000F0B2FB41EC110B53EC112B00F086FD90
:101C800053EC1D2B00F082FF53EC192B00F0A4FB4A
:101C900000F0FAFC404204EB4007002F02DD51EC5B
:101CA0001B0B3FE053EC1C2B51EC1B0B00F06EFDAB
:101CB00041EC190B009949EC108B41EC1BBB53EC28
:101CC000102B51EC180B00F087FB49EC108B41EC0A
:101CD0001C0B53EC102B51EC180B00F07DFB53EC5C
:101CE0001C2B00F053FD41EC1C0B53EC192B51EC59
:101CF000180B00F071FB41EC110B53EC112B00F0B1
:101D000045FD53EC1C2B00F041FF53EC1B2B00F066
:101D100063FB00F0B9FC404204EB4007002F1CDDE0
:101D200051EC190B00F0B0FC0446224651463046F7
:101D3000B0EE4A0AF0EE6A0AFFF72AFE224639465A
:101D4000304600F027F8214652463046B0EE4A0AA7
:101D5000F0EE6A0AFFF71CFE04E0524621463046C8
:101D600000F018F89FED090B85ED040B85ED020BD3
:101D700001B0BDEC0C8BBDE8F08F0000000000004E
:101D800000000040000000000000E03F00000000F4
:101D9000000000002DE9F041184D17460E4604469C
:101DA000002220212846FEF787FC1548012C02D08E
:101DB000641C02D005E0012200E000228021FEF731
:101DC0007BFC00240FE010212846FEF775FC384606
:101DD000FFF7C8FA002210212846FEF76DFC3846AE
:101DE000FFF7C0FA641CB4424FF00102EBDB284657
:101DF000BDE8F0412021FEF75FBC00000008024072
:101E0000000002402DE9F0478E4C16462DED0A8B5E
:101E10000F460546B0EE40BAF0EE60BA002240210F
:101E20002046FEF749FC012D02D06D1C02D006E0D1
:101E3000012200E0002210212046FEF73DFC9FED2C
:101E4000829B9FED83ABB74279DA384600F04BFCBA
:101E500041EC100B51EC190B53EC102B00F0BCFAB9
:101E600041EC180B304600F03EFC41EC100B51ECFD
:101E7000190B53EC102B00F0AFFA41EC1C0B53EC98
:101E80001A2B51EC1B0B00F081FC8A4680464AEC71
:101E90001A0B53EC1C2B51EC1C0B00F077FC41ECA3
:101EA0001B0B53EC182B51EC180B00F06FFC53EC90
:101EB0001B2B00F06BFE53EC1A2B00F08DFA00F098
:101EC000E3FB0746002636E0012220212046FEF7EC
:101ED000F3FB53EC182B51EC190B00F07DFA8946FB
:101EE00049EC100B054651EC100B00F0CDFBFFF751
:101EF00039FA002220212046FEF7DEFB49EC105B78
:101F000051EC100B00F0C0FBFFF72CFA4AEC1A8BD7
:101F100053EC182B51EC180B00F038FC53EC1A2B37
:101F200000F034FE41EC100BFFF7D0F9B0EE408A20
:101F3000F0EE608A761CBE42C6DB79E0FFE777DD13
:101F4000384600F0D0FB41EC100B51EC190B53EC70
:101F5000102B00F041FA41EC180B304600F0C3FBA7
:101F600041EC100B51EC190B53EC102B00F034FA30
:101F700041EC1C0B53EC1A2B51EC1B0B00F006FC34
:101F80008A4680464AEC1A0B53EC182B51EC180B7E
:101F900000F0FCFB41EC1B0B53EC1C2B51EC1C0B1D
:101FA00000F0F4FB53EC1B2B00F0F0FD53EC1A2B6C
:101FB00000F012FA00F068FB0746002636E0012226
:101FC00020212046FEF778FB53EC182B51EC190B1F
:101FD00000F002FA894649EC100B054651EC100B53
:101FE00000F052FBFFF7BEF9002220212046FEF749
:101FF00063FB49EC105B51EC100B00F045FBFFF765
:10200000B1F94AEC1A8B53EC182B51EC180B00F079
:10201000BDFB53EC1A2B00F02BF941EC100BFFF732
:1020200055F9B0EE408AF0EE608A761CBE42C6DBFF
:10203000BDEC0A8B204601224021BDE8F047FEF7A7
:102040003BBB000000000240000000000000E03F39
:1020500000000000000000402DE9F04F05462DED86
:102060000C8B81B04668FFF76EF9040095ED08BB54
:1020700095ED06ABD5F828A0204601D5764244421E
:102080009FED5ACB51EC1A0B53EC1C2B00F07EFB4E
:10209000834641EC190B5046009100F024FB894621
:1020A00049EC110B804653EC112B47469FED518BA9
:1020B00051EC180B00F090F949EC107B41EC1D0B32
:1020C00053EC102B51EC180B00F086F953EC1D2B40
:1020D00000F05CFB41EC1D0B53EC1B2B51EC180B7F
:1020E00000F07AF941EC110B53EC112B00F04EFB90
:1020F00053EC1D2B00F04AFD53EC192B00F06CF94A
:1021000000F0C2FA404204EB4007002F02DD51EC20
:102110001B0B3FE053EC1C2B51EC1B0B00F036FB70
:1021200041EC190B009949EC108B41EC1BBB53ECB3
:10213000102B51EC180B00F04FF949EC108B41ECCF
:102140001C0B53EC102B51EC180B00F045F953EC21
:102150001C2B00F01BFB41EC1C0B53EC192B51EC1E
:10216000180B00F039F941EC110B53EC112B00F076
:102170000DFB53EC1C2B00F009FD53EC1B2B00F066
:102180002BF900F081FA404204EB4007002F1CDDE0
:1021900051EC190B00F078FA0446224651463046BD
:1021A000B0EE4A0AF0EE6A0AFFF72CFE22463946E4
:1021B000304600F027F8214652463046B0EE4A0A33
:1021C000F0EE6A0AFFF71EFE04E052462146304652
:1021D00000F018F89FED090B85ED040B85ED020B5F
:1021E00001B0BDEC0C8BBDE8F08F000000000000DA
:1021F00000000040000000000000E03F0000000080
:10220000000000002DE9F041184D17460E46044627
:10221000002240212846FEF74FFA012C02D0641C10
:1022200002D006E0012200E0002210212846FEF73D
:1022300043FA00240FE020212846FEF73DFA3846F5
:10224000FFF790F8002220212846FEF735FA38469D
:10225000FFF788F8641CB4424FF00102EBDB28461C
:10226000BDE8F0414021FEF727BA0000000002401F
:1022700010B591EA030F48BF83F0004300F18E844C
:10228000841A71EB030C05D2121943EB0C03001BEB
:1022900061EB0C01DFF824E14FEA1154A4EB135C6D
:1022A0001EEA430F18BF9EEA445F73D023EA0E0371
:1022B000DCF1200E21EA045143F4801332D322FAD8
:1022C0000CFE10EB0E0023FA0CFE41EB0E01CCF1DC
:1022D000200E03FA0EFE10EB0E0051F10001B1F5D5
:1022E000801FCCF1200E32D201EB045112FA0EF213
:1022F000BDE8104058BF7047401C38BF5FEA42023B
:1023000018BF7047002814BF20F0010041F1000100
:102310004FEA410313F5001F38BF7047A1F1C041D8
:1023200000F02CBB012A43EB0302ACF1200CDCF1E2
:102330001F0E32BF4FF0000E23FA0CF310EB030018
:1023400041EB0451B4EB115FD0D0A1EB045101F586
:10235000801149085FEA300001EB04510ED350F1BF
:10236000000038BF12FA0EFE08D1BDE81040C9E7E0
:10237000401C38BF5FEA4202CAD1C3E7BDE8104043
:102380004FEA410313F5001F38BF7047A1F1C04168
:1023900000F0F4BA9EEA445F08D011EA5E0FBDE88F
:1023A000104004BF01F0004100207047BDE810401C
:1023B00070B500F095FA00BF64FBBE3E0000E0FF80
:1023C000491058BFC1F140415B1058BFC3F14043B1
:1023D0008B42EFF3008070472DE9C04130B4DFF845
:1023E000A0C23CEA111418BF3CEA131400F0EC80C0
:1023F00081EA03051CEA111444EAD57418BF1CEAEB
:10240000131500F0C780A4EB05044FF0004545EA22
:10241000C12145EAC32341EA505143EA525304F132
:102420007F74994204F500344FEAC0204FEAC2227B
:1024300008BF904200F09C804FEA13650FF24016EF
:10244000765D4FEA134506FB05F7C7F1807706FB7B
:1024500007F74FEAD737A7FB03687642C8F58038FD
:10246000A7FB06CE38BFA8F1010807FB08E64FF02E
:10247000000EA6FB028CE6FB03CEDCF1000CCEF1D5
:10248000004E38BFAEF1010EA6FB0C584FF000070E
:102490004FF00005E6FB0E87A1FB08C6A0FB07CEA8
:1024A00016EB0E0645F10005E1FB076515F1E04E60
:1024B0007EBFA4F580345FEA46066D4116F18007C1
:1024C00045F100054FEA17274FEA066647EA056718
:1024D000A6F1DE46B6F1805F4FEA15251FD93846D2
:1024E00024F0010C05EBC471BCF1FE6F01EB0C1183
:1024F00002D8F0BCBDE8008124425CBF01F5801E1B
:102500009EEAC47F02D4F0BCBDE80081244238D4E6
:10251000F0BCA1F1C041BDE8004100F02FBA4FEA84
:10252000D22242EA43524FEAD323A7FB02864FEA64
:10253000D02040EA415007FB03661EEA0E0F4FEA27
:10254000D12105FB026658BFA6EB0056B6EB00563C
:102550004FEA520E4EEAC37E18EB0E0E56EB530EA8
:10256000BDD518EB02085E417F1C55F10005B6E7AA
:102570004FF480154FF000074FF000064FF00008B1
:10258000ADE7F0BC4FF0000001F1C04101F00041A7
:10259000BDE8008111EA0C1F0CEA131500D00CE015
:1025A00013EA0C1F00F025804FF00000F0BC81EA18
:1025B000030101F00041BDE80081F0BCBDE800412D
:1025C00081EA030100F0DAB9F0BCBDE8004170B562
:1025D00000F086F9097EFC3E00F007B881EA0301AD
:1025E0004FF0000001F00041704781EA030100F064
:1025F000C5B9F0BCBDE800414FF00000214970476B
:10260000FFFDFBF9F7F5F4F2F0EEEDEBE9E8E6E4B7
:10261000E3E1E0DEDDDBDAD8D7D5D4D3D1D0CFCD3E
:10262000CCCBCAC8C7C6C5C4C2C1C0BFBEBDBCBB77
:10263000BAB9B8B7B6B5B4B3B2B1B0AFAEADACAB72
:10264000AAA9A8A8A7A6A5A4A3A3A2A1A09F9F9E4C
:102650009D9C9C9B9A9999989797969595949393FE
:10266000929191908F8F8E8E8D8C8C8B8B8A898995
:102670008888878786858584848383828281818018
:102680000000FF070000F87F4FEA41034FEA535371
:10269000A3F58063D3F11E03C8BFD3F1210C0CDD79
:1026A0004FF0004242EAC12242EA505232FA03FCA1
:1026B0008CEAE17CACEBE1707047102BC4BF0020CA
:1026C000704703F5787CBCF1FF3F04D06FF0004207
:1026D00082EA2100704770B500F002F94992248027
:1026E00000207047F2E710F0004248BF4042B0FAC5
:1026F00080F310FA03F10AD0C3F11D0303F58063E0
:102700004FEA415002EB035202EBD12170474FF0E8
:102710000000704751EA030C17D41CF5801F58BF06
:10272000BCF5801F00F10680994218BF704708BFB2
:102730009042704707D711F5801F58BF13F5801FCF
:1027400019D499427047894270471CF5801F08D5FB
:10275000BCF5801FF7D58B4218BF704708BF824277
:1027600070474FF4001C1CEB410F38BF1CEB430FAC
:1027700001D28B42704770B500F0B2F89224490044
:102780004FF000514FF08053FFF71ABEDFF848C1F9
:1027900070B51CEA111E1EBF1CEA13159EEA0C0F31
:1027A00095EA0C0F00F06F8081EA030423EA4C13D2
:1027B0004EEAD47E21EA4C1141F4801143F4801397
:1027C000AE44A1FB024CA0FB0365AEF17F7E36193F
:1027D00055EB0C05A1FB034C4CF10003A0FB021CC4
:1027E00016EB0C06654153F10003094218BF46F091
:1027F000010613F4007F0BD14FEA03314FEA053095
:10280000340341EA155140EA16506FF003020AE022
:102810004FEAC3214FEAC520F40241EA555140EA8C
:1028200056506FF0020202EB2E4201EB025585EA90
:10283000CE710AD05FEA440C18BF24F0004450F176
:10284000000041F1000120EAD47040F2FE7C6245B4
:1028500000D270BDA84214BF4FF080444FF04044F6
:10286000002E08BF0024BEF1806FA8BFA1F1C041B7
:10287000BDE8704080F282804FF0000001F1C0415D
:1028800001F0004170479EEA0C0F0CEA131518BFC7
:1028900095EA0C0F06D04FF0000081EA030E0EF00F
:1028A000004170BD00F01CF88900013E00F007B83F
:1028B00000F009B84FEA430C5FEA5C5C08D081EA9B
:1028C000030100F05BB84FEA410C5FEA5C5CF6D1B3
:1028D0004FF00000014970470000FF070000F87F3B
:1028E0000EF1020E2EF0030E5EF8046B364205D494
:1028F000012A43EB030515F5001F12D8012841EB0F
:10290000010C1CF5001F0CD80ED14FEAD17C15F537
:10291000001F0CEB4C0C0CF1020C08BF4CEBD37CF1
:1029200004E04FF0080C01E04FEAD37C0CEB4C05BF
:1029300026FA05F606F00706B6F1040C06D20EEBF1
:10294000860CBDE870404CF0010C6047DFE80CF0ED
:10295000090B02024FF000414FF00000A1F50021E9
:1029600070BD19461046012851EB010418BFD4F57B
:10297000001484BF002001F0004170BD0808A0F5DC
:1029800000114FEA3101704753EA010C17D41CF5CE
:10299000801F58BFBCF5801F00F106808B4218BF16
:1029A000704708BF8242704707D713F5801F58BF92
:1029B00011F5801F19D48B4270479B4270471CF55C
:1029C000801F08D5BCF5801FF7D5994218BF704706
:1029D00008BF904270474FF4001C1CEB430F38BFF8
:1029E0001CEB410F01D2994270470FB40CBC03BCE1
:1029F000FFF7C1BE2DE9F04101F5801CBCF5001FB9
:102A0000C0F2A9804FEA115C21EA0C510CF1FD0CD7
:102A100041F480115FEA5C0C0CF5C07C01D34000EE
:102A2000494130A4890241EA905187028E0E0A0C76
:102A3000A45D04FB04F602FB06F6C6F14046A4FBC7
:102A40000662F60D46EA422606FB06F4A4FB0123C5
:102A50005242C3F1404338BF5B1EA6FB0242002432
:102A6000E6FB0324D20B42EA4446A6FB0623A1FB65
:102A700002E2A3FB07E4E3FB61426442C2F1404E81
:102A800038BFAEF1010EA6FB04234FF00002E6FBB7
:102A90000E32A2FB03463400E2FB6264A1FB06E6B1
:102AA000A4FB07E8E4FB61687642C8F1405838BFF0
:102AB000A8F10108A2FB06E4A3FB08E5E2FB6854C9
:102AC000A1FB05E6A7FB04E8E1FB648618F12005FD
:102AD00056F10006A809A8F11B08B10908F03F0843
:102AE000B8F10A0F40EA86601CD901EB0C51BDE831
:102AF000F08100BFFCF5EEE8E2DDD8D3CFCBC7C351
:102B0000C0BDB9B6B4B1AEACA9A7A5A3A19F9D9B0A
:102B10009A9896959392908F8D8C8B8988878685CD
:102B200084838281A0FB006800FB01F208EB42086D
:102B3000B8EB872807D5341858EB0104D5D5401CCD
:102B400051F10001D1E7341A78EB0104CDD4401ED5
:102B500071F10001C9E75FEA4C0C5FEA9C5C0DD1A2
:102B600005D34FF0000001F00041BDE8F081BDE861
:102B7000F04170B5FFF7B4FE6DDBFFBEBDE8F0417C
:102B80004FF00000004970470000F87F10B591EA4F
:102B9000030F48BF83F000433FF572AB841A71EB1B
:102BA000030C07D212198CF0004C43EB0C03001BF2
:102BB00061EB0C01DFF8A4E14FEA1154A4EB135CC4
:102BC0001EEA430F18BF9EEA445F00F0B08023EA7C
:102BD0006E03524221EA0451C3EB6E0338BF5B1E01
:102BE000DCF1200E25D322FA0CFE10EB0E0043FA86
:102BF0000CFE41EB0E01CCF1200E03FA0EFE10EBA1
:102C00000E0051F10001CCF1200E29D412FA0EF27F
:102C100001EB0451BDE8104058BF7047401C1CBF79
:102C2000B2F1004F704700280CBF491C20F0010092
:102C3000704712EB020E43EB030218BF4FF0010E78
:102C40004EEA4202ACF1200CDCF11E0E54D943FADC
:102C50000CFE10EB0E0051F1FF31CCF11E0ED5D55C
:102C60000EF1010E12FA0EFE404141EB010101EBA3
:102C7000445C5FEA5C5C10D910EBDE7001EB045140
:102C800038BFBEF1004FBDE8104018BF70470028A4
:102C90000CBF491C20F00100704730D24FEAD42C01
:102CA00011F5001124F400641BD0B1FA81F20B3A43
:102CB000A41AA41ED2F12003914030FA03F3194361
:102CC000904001EBCC71002C01EB0451BDE81040A9
:102CD000A8BF704701F1C0414FF0000001F0004172
:102CE0007047B0FA80F310FA03F100D110BDE41A76
:102CF000173C4805C90AE4E701EB045110BD49102F
:102D000001EB0451BDE810404FEA300002E04FF003
:102D1000000170474A0008BF0042F8D0B2F5001F1A
:102D200028BF704701F000414FF0000070479EEA55
:102D3000445F07D011EA5E0FBDE8104004BF0021D8
:102D400000207047BDE8104070B5FFF7C9FD00BF17
:102D500040DFF63E83F00041104670470000E0FF80
:102D60004FF04070E1EE100A7047000000000000D4
:102D7000040000000100000000000000000000004E
:102D8000000000000000000095D626E80B2E213E32
:102D90000000000000C06240D007000000000000FA
:102DA00000000000000000000102030406070809FB
:102DB000D02D00080000002010000000C401000811
:102DC000E02D000810000020A8060000E001000827
:102DD0000100000010000000000000000024F400CA
:040000050800018965
:00000001FF
