:020000040800F2
:10000000B806002029020008DB100008390F00089C
:10001000D91000089B040008CF120008000000005F
:10002000000000000000000000000000DF100008D9
:100030009D04000800000000DD100008E110000829
:10004000430200084302000843020008430200087C
:10005000430200084302000843020008430200086C
:100060009F040008A5040008AB0400084302000830
:10007000430200084302000843020008430200084C
:10008000430200084302000843020008430200083C
:10009000430200084302000843020008B1040008BC
:1000A000430200084302000843020008430200081C
:1000B000430200084302000843020008430200080C
:1000C00043020008430200084302000843020008FC
:1000D00043020008430200084302000843020008EC
:1000E00043020008430200084302000843020008DC
:1000F00043020008430200084302000843020008CC
:1001000043020008430200084302000843020008BB
:1001100043020008430200084302000843020008AB
:10012000430200084302000843020008430200089B
:10013000430200084302000843020008430200088B
:10014000430200084302000843020008430200087B
:10015000430200084302000843020008430200086B
:10016000430200084302000843020008430200085B
:100170004302000843020008430200080000000098
:10018000430200084302000800F002F800F03CF8C7
:100190000AA090E8000C82448344AAF10107DA45E2
:1001A00001D100F031F8AFF2090EBAE80F0013F0F8
:1001B000010F18BFFB1A43F0010318475C39000018
:1001C0007C390000103A24BF78C878C1FAD85207A9
:1001D00024BF30C830C144BF04680C6070470000C1
:1001E0000023002400250026103A28BF78C1FBD840
:1001F000520728BF30C148BF0B6070471FB503F0DE
:100200000DFC1FBD10B510BD00F014F91146FFF72D
:10021000F5FF01F0E9FC00F032F903B4FFF7F2FF5B
:1002200003BC00F033F90000094880470948004743
:10023000FEE7FEE7FEE7FEE7FEE7FEE7FEE7FEE796
:10024000FEE7FEE704480549054A064B70470000F3
:100250007D11000889010008B8000020B8060020C0
:10026000B8020020B802002053EA020C00F06980B6
:100270002DE9F04B4FF00006002B1FBFB3FA83F5BA
:1002800003FA05F424FA05F65E4012BF1643B2FAEB
:1002900082F502FA05F4C5F120051EBF22FA05FC1D
:1002A00044EA0C04203556EA044C4FEA144418BFC3
:1002B000641C4FF000084FF00009904271EB030CF2
:1002C00039D3002919BFB1FA81F701FA07F6B0FA5C
:1002D00080F700FA07F6C7F120071EBF20FA07FCD7
:1002E00046EA0C062037B6FBF4FCA7EB0507103FE7
:1002F00007F01F0BCBF120060CFA0BFB2CFA06F6CD
:1003000044BFB3460026202FA4BF5E464FF0000B2B
:100310005BEA060C08BF4FF0010B19EB0B09ABFBB6
:10032000027C48EB0608C01B06FB02CC0BFB03CC8F
:1003300071EB0C01C1E70B46024641464846BDE859
:10034000F08B13B54FF000004FF00001AFF30080C9
:10035000BDE81C40704710B5203AC0F00B80B1E8F2
:100360001850203AA0E81850B1E81850A0E81850EA
:10037000BFF4F5AF5FEA027C24BFB1E81850A0E8F3
:10038000185044BF18C918C0BDE810405FEA827C0D
:1003900024BF51F8043B40F8043B08BF7047D20724
:1003A00028BF31F8023B48BF11F8012B28BF20F8C5
:1003B000023B48BF00F8012B70474FF0000200B528
:1003C000134694469646203922BFA0E80C50A0E878
:1003D0000C50B1F12001BFF4F7AF090728BFA0E826
:1003E0000C5048BF0CC05DF804EB890028BF40F8F2
:1003F000042B08BF704748BF20F8022B11F0804F34
:1004000018BF00F8012B704770477047704710B550
:1004100000F008F8006810BD10B5044600F002F8BE
:10042000046010BD00487047580000200048704725
:10043000580000207546FFF7F9FFAE4605006946F3
:10044000534620F00700854618B020B5FFF7FAFEA6
:10045000BDE820404FF000064FF000074FF00008C5
:100460004FF0000B21F00701AC46ACE8C009ACE846
:10047000C009ACE8C009ACE8C0098D467047044625
:10048000AFF300802046FFF7C8FE000001491820A6
:10049000ABBEFEE7260002007047FEE7704704206F
:1004A00000F012B8082000F00FB8102000F00CB8CF
:1004B00010B5202000F008F8BDE81040402000F002
:1004C00003B872B6FEE77047044910B50A680242E5
:1004D00002D00860FFF7F7FF10BD0000143C014098
:1004E0002DE9F84FDFF8BCA10022012503264FF0CB
:1004F0000F090AF1040BAAF1040E00BF0B6805FAFC
:1005000002F42340A34270D10F7907F00307012FB3
:1005100001D0022F16D187684FEA420806FA08FC7C
:1005200027EA0C07D1F80CC00CFA08FC4CEA070CBF
:10053000C0F808C04768A7430C79C4F3001494407E
:100540003C4344600C79E443A4070AD0C4684FEAF2
:10055000420C06FA0CF7BC438F6807FA0CF72743E6
:10056000C7600C7904F00304022C12D1D40800EB0C
:10057000840CDCF820405707FF0E09FA07F824EA3C
:100580000804D1F8108008FA07F848EA0408CCF803
:10059000208004684FEA420C06FA0CF7BC430F793E
:1005A00007F0030707FA0CF7274307604C6814F4B9
:1005B000403F70D03C4C276847F480472760246850
:1005C00022F0030704F480440094384C07EB040C39
:1005D000DCF8084897074FEA177809FA08F7BC4390
:1005E000334FB84202D1002724E054E0314FB842E3
:1005F00001D101271EE0304FB84201D1022719E096
:100600002E4FB84201D1032714E02D4FB84201D13B
:1006100004270FE02B4FB84201D105270AE02A4FEB
:10062000B84201D1062705E0284FB84201D107277B
:1006300000E0082707FA08F72743CCF80878DAF82B
:1006400000405746D1F804C09C435FEACC2C00D54B
:100650001C433C60DBF800405F46D1F804C09C437B
:100660005FEA8C2C00D51C433C60DEF800407746E6
:10067000D1F804C09C435FEA8C3C00D51C433C602D
:10068000084F083F3C68D1F804C09C435FEACC3C6B
:1006900000D51C433C60521C102AFFF42FAFBDE86C
:1006A000F88F0000083C014044380240003001400F
:1006B000000002400004024000080240000C02401A
:1006C000001002400014024000180240001C0240CA
:1006D0000AB1816170470904FBE7000001488068A6
:1006E0007047000000000020024881680278114431
:1006F00081607047000000200B4810B5016841F48C
:1007000000710160016841F480610160016841F499
:1007100080710160032000F06FF80F2000F006F8F0
:1007200000F024F8002010BD003C024070B50D4DD3
:1007300004464FF47A712878B1FBF0F00A49096851
:10074000B1FBF0F000F0ECFA48B9102C07D200220F
:100750002146501E00F030F800206C6070BD012072
:1007600070BD0000000000200C0000200A4808B501
:10077000016841F480410160006800F4804000900D
:100780000548001F016841F080510160006800F0D9
:100790008050009008BD000044380240002809DB6A
:1007A00000F01F02012191404009800000F1E0208B
:1007B000C0F8001170470000F0B40E4B1B680C46E7
:1007C000C3F30223C3F10705042D00D90425191D25
:1007D000072901D2002300E0DB1E012606FA05F1FD
:1007E000491E214099409E40761E16403143F0BC80
:1007F00000F086BD0CED00E0064900F00702086835
:100800004FF6FF03184040EA0220034A10430860F5
:10081000704700000CED00E00000FA052DE9F047FC
:100820000E46050065D0DFF81481D8F80000F7B255
:1008300000F00700B04207D288F80070D8F8000036
:1008400000F00700B04254D128683D4C810712D512
:10085000400703D5206840F4E05020602878000766
:1008600003D5206840F4604020602068A96820F02B
:10087000F000084320602878C0072DD03049686810
:100880000839012812D0022813D0032811D0096892
:10089000890700292DDA216821F003010143216035
:1008A000FFF71CFF814641F2883A0EE00968890390
:1008B000EFE709688901ECE7FFF710FFA0EB0901FA
:1008C000514502D90320BDE8F0872068696800F02F
:1008D0000C00B0EB810FEFD1D8F80010404601F0CA
:1008E0000701B14207D90770006800F00700B04265
:1008F00001D00120E7E72878400705D52068E9689E
:1009000020F4E050084320602878000706D52068CE
:10091000296920F4604040EAC100206000F018F826
:100920002168084AC1F30311515CC84006490860B8
:1009300006480068FFF7FAFE0020C4E7003C0240CA
:1009400008380240B83A00080C00002004000020DB
:10095000154810B5006810F00C02144813D0144963
:10096000042A0FD0082A0ED10F4C241F22682368B6
:1009700002F03F025B0207D52068C0F38810A0FB9D
:10098000010106E0084610BD2168C1F38811A1FBF2
:1009900000010023FFF768FC2168C1F30141491CF5
:1009A0004900B0FBF1F010BD083802400024F4000B
:1009B00040787D012DE9F84F04006ED02078DFF8F3
:1009C0004C93C007A9F104054AD009F1040001685D
:1009D000C1F38101012908D00068C0F38100022819
:1009E0000AD1D9F80000400206D52868800337D51F
:1009F00060680028E1D033E06068B0F5803F10D037
:100A0000B0F5A02F286810D020F480302860286826
:100A100020F4802028606068A8B1FFF75FFE0646DA
:100A20000DE0286840F48030F4E740F4802028602E
:100A3000F7E700BFFFF752FE801B642873D82868D1
:100A40008003F7D50CE0FFF749FE064605E000BF3E
:100A5000FFF744FE801B6428F0D828688003F7D491
:100A60002078DFF8AC8280074FF0000A3ED5A74817
:100A7000001D016811F00C0F08D00068C0F3810060
:100A800002280BD1D9F80000400207D4286880075B
:100A900016D5E068012800D112E033E1E068B8B172
:100AA0000120C8F80000FFF719FE064605E000BF68
:100AB000FFF714FE801B0228C0D828688007F7D5EE
:100AC0002868216920F0F80040EAC10028600DE0A4
:100AD000C8F800A0FFF702FE064604E0FFF7FEFD9F
:100AE000801B02281FD828688007F7D420780007C9
:100AF00022D5864F87486169703771B10121016045
:100B0000FFF7ECFD064604E0FFF7E8FD801B022836
:100B100009D838688007F7D50EE0C0F800A0FFF7C5
:100B2000DDFD064605E082E0FFF7D8FD801B0228C8
:100B30007DD838688007F7D42078400768D5DFF87B
:100B4000CCB100270BF13C0BDBF80000C0000BD44C
:100B5000DBF8001041F08051CBF80010DBF800000A
:100B6000012700F0805000906B4E3068C00510D413
:100B7000306840F480703060FFF7B0FD009005E011
:100B8000FFF7ACFD0099401A022850D83068C00524
:100B9000F6D55E4EA0686C3601280FD00528306867
:100BA00010D020F001003060306820F00400306088
:100BB000A068B8B1FFF792FD00900FE0306840F0F8
:100BC0000100F4E740F004003060F7E7FFF786FD2E
:100BD0000099411A41F28830814266D83068800716
:100BE000F4D50EE0FFF77AFD009007E0FFF776FD01
:100BF0000099411A41F28830814256D83068800706
:100C0000F4D42FB1DBF8001021F08051CBF80010A4
:100C1000A069C8B33D49091D0968C1F381010229D2
:100C20004AD00228504607D0C8F8600000E03CE0F7
:100C3000FFF754FD04463BE04746C8F86000FFF765
:100C40004DFD064605E000BFFFF748FD801B02286A
:100C50002BD828688001F7D4D4E907010843A16A9A
:100C60002E4A490802EB0141626A41EA82110843B7
:100C700094F82C1040EA0161C9F800100120386690
:100C8000FFF72CFD044606E03EE000BFFFF726FD1F
:100C9000001B022809D828688001F7D534E000BF7E
:100CA000FFF71CFD001B022802D90320BDE8F88FC6
:100CB00028688001F4D427E00128F7D0D9F8000093
:100CC000E26900F4800191421CD1226A00F03F01E8
:100CD000914217D147F6C071626A0140B1EB821FA1
:100CE00010D1A26A4FF0FF3300F4403103EB5202FF
:100CF000B1EB024F06D194F82C1000F07060B0EB0D
:100D0000016F01D00120D1E70020CFE70438024075
:100D100000004742800E4742007000400000FFFF85
:100D200010B5401EB0F1807F01D3012010BD4FF0FF
:100D3000E02460610F21601700F0E2FA0020A0615A
:100D400007202061002010BD70B590F83C20012ADA
:100D500032D0012480F83C40022280F83D20036814
:100D60005A689D6822F070060A6832435A60134B35
:100D700002689A4214D0B2F1804F11D0104B9A42BF
:100D80000ED0104B9A420BD00F4B9A4208D00F4B0B
:100D90009A4205D00E4B9A4202D00E4B9A4204D191
:100DA000496825F080031943916080F83D40002197
:100DB00080F83C10084670BD022070BD0000014064
:100DC0000004004000080040000C00400004014006
:100DD000004001400018004010B5040003D094F812
:100DE0003D0010B107E0012010BD002084F83C0058
:100DF000204600F01FF8022084F83D00211D2068E5
:100E000000F0C4F9012084F8460084F83E0084F81C
:100E10003F0084F8400084F8410084F8420084F8E0
:100E2000430084F8440084F8450084F83D00002025
:100E300010BD000008B500680649884208D1064880
:100E4000016841F001010160006800F001000090BC
:100E500008BD0000000001404438024070B504465F
:100E600090F83C000025012817D0012684F83C604A
:100E7000022084F83D002068826822F0770222F484
:100E80007F4282600868502838D00DDC20284FD07F
:100E900005DC90B3102811D14AE0022070BD302843
:100EA00046D040280AD13BE060282FD070280DD0D2
:100EB000B0F5805F03D0B0F5005F12D0012584F853
:100EC0003D60002084F83C00284670BDCB68D1E925
:100ED0000121206800F0C6F92068816841F077019F
:100EE00009E0CB68D1E90121206800F0BBF9206856
:100EF000816841F480418160E1E719E0CA6849688E
:100F0000206800F0C1F95021206806E0CA684968ED
:100F1000206800F0CAF96021206800F0ADF9CEE742
:100F2000CA684968206800F0AFF940212068F4E7FA
:100F3000226801461046F0E7FEE700002DE9F04385
:100F400087B014216846FFF738FA44480024016846
:100F500041F010010160016801F010010591016884
:100F600041F004010160016801F00401059101688C
:100F700041F080010160016801F080010591016884
:100F800041F001010160016801F001010591016872
:100F900041F0080101600068314F00F008004FF493
:100FA00060750590002229463846FFF791FBDFF86F
:100FB000B480AE00002231464046FFF789FBDFF8DF
:100FC000A89000221C214846FFF782FB7C2000905D
:100FD0004FF4881001900220029069462348FFF7E1
:100FE0007FFA00950125CDE90154694638460394FE
:100FF000FFF776FA0096CDE901546946404603941E
:10100000FFF76EFA1C200090CDE90154694648466E
:101010000394FFF765FA002211460820FFF7CCFB86
:101020000820FFF7BBFB002211460920FFF7C4FB95
:101030000920FFF7B3FB002211460A20FFF7BCFB93
:101040000A20FFF7ABFB002211461720FFF7B4FB85
:101050001720FFF7A3FB07B0BDE8F083303802404C
:101060000008024000000240000C02400010024054
:1010700010B586B00024174800940194029403949C
:101080000494134905940160A721C0E9011442F2B8
:101090000F71C0E9031444618461FFF79DFE08B13C
:1010A000FFF70FFA4FF48050009069460948FFF7A8
:1010B000D5FE08B1FFF705FA049404A90548059484
:1010C000FFF742FE002801D0FFF7FBF906B010BD84
:1010D0000000014010000020FEE7FEE77047704767
:1010E000FFF702BB30B593B030216846FFF765F9D2
:1010F00014210CA8FFF761F91E480025016841F092
:1011000080510160006800F0805011901A48016819
:1011100041F4804101600068022400F48040119095
:1011200001200090000401908001CDE906401920C3
:1011300008904FF4A870CDE9090404200B9068468C
:10114000FFF738FC08B172B6FEE70CA90F2081E862
:1011500031004FF4A0500F904FF4805010900521B3
:101160000CA8FFF75BFB002801D072B6FEE713B0B6
:1011700030BD000040380240007000400248016865
:1011800041F470010160704788ED00E0F0B502683D
:10119000294C2A4D2A4E2B4F2B4B4FF0804CA0420E
:1011A00009D0604507D0A84205D0B04203D0B8426C
:1011B00001D0984204D122F0700E4A6842EA0E0231
:1011C000A0421BD0604519D0A84217D0B04215D01C
:1011D000B84213D0984211D01C4DA8420ED01C4DDD
:1011E000A8420BD01B4DA84208D01B4DA84205D0E9
:1011F0001A4DA84202D01A4DA84203D122F44075DC
:10120000CA682A434D6922F080022A4302608A6834
:10121000C2620A688262A04201D0984201D1096983
:101220000163012141610169C90703D0016921F00E
:1012300001010161F0BD0000000001400004004018
:1012400000080040000C0040000401400040014044
:10125000004401400048014000180040001C0040CC
:101260000020004010B5846842EA032224F47F4441
:101270000A432243826010BD826822F070020A4352
:1012800042F007018160704710B5036A046A24F0D8
:1012900001040462846924F0F00444EA021423F097
:1012A0000A020A438461026210BD10B5036A046A2F
:1012B00024F010040462846923F0A00324F4704431
:1012C00044EA023243EA01118261016210BDFEE785
:1012D00003B401984100009850EAC12018BF0420CF
:1012E0004A0D18BF40F0010040F2FF72B2EB515FAF
:1012F00008BF40F00200012808BF052002B0704777
:101300000907090E002804DB00F1E02080F8001432
:10131000704700F00F0000F1E02080F8141D7047C6
:1013200070B5C1482DED020B2DED0E8B82B0119DD5
:1013300025F000449FEDBEDB9FEDBFEB84423EDB1A
:10134000A4F140511098A1F17F6108430FD0BC482F
:10135000844202DC28D1109830B39DED100B02B00E
:10136000BDEC0E8B02B0BDE8704000F042BA9DEDBE
:10137000100B53EC1D2B51EC100B02F059F89DEDA6
:10138000100B41EC180B53EC1E2B51EC100B02F020
:101390004FF853EC182B01F0BDFD41EC100B02B0DF
:1013A000BDEC0E8B02B070BD0120FFF735F802B026
:1013B000BDEC0E8B02B0BDE8704000F025BAA1482C
:1013C0009FEDA18B844256DA9DED100BB4F1795F4D
:1013D0000ADA51EC100BFFF77BFF042808BF00F07E
:1013E00023FA9DED100BDAE753EC102B51EC100BA8
:1013F00002F01EF841EC190B95480621B0EE490A9F
:10140000F0EE690A784400F078F953EC192B51ECAE
:10141000100B02F00DF841EC1A0B8E48B0EE490AA1
:10142000F0EE690A0421784400F067F953EC192BB7
:1014300051EC100B01F0FCFF53EC182B01F06AFD8E
:1014400041EC100B51EC1A0B53EC102B01F016FE73
:10145000CDE900019DED000B53EC102B9DED100B21
:1014600051EC100B01F0E4FF9DED101B53EC112B20
:1014700001F050FDD2E09DED100B51EC100B00F08F
:10148000A7FB53EC182B02F007F99FED730BCDE986
:10149000000153EC102B9DED000B51EC100B01F0F3
:1014A000C7FF41EC190B6E480621B0EE490AF0EE79
:1014B000690A784400F021F953EC192B51EC100B18
:1014C00001F0B6FF41EC1B0B6648B0EE490AF0EEA6
:1014D000690A0421784400F010F953EC192B51ECFF
:1014E000100B01F0A5FF53EC182B01F013FD41EC9C
:1014F0001C0B51EC190B00F015FC41EC180B5A4871
:101500009FED5BABA04222DC53EC1C2B51EC1B0B80
:1015100001F0B4FDCDE900019DED000B51EC180B7D
:1015200053EC102B01F084FF53EC182B01F0F2FC6C
:1015300053EC1A2B01F07CFF53EC1D2B02F084F9C5
:1015400053EC1E2B02F0A8F841EC100B5FE08DED80
:10155000008B002000909DED000B51EC180B53EC1C
:10156000102B01F0D7FC9DED000B41EC1E0B53EC52
:10157000102B51EC100B01F05BFF53EC192B02F018
:101580008BF853EC1E2B01F079FD41EC190B53EC59
:101590001C2B51EC1B0B01F071FD41EC1B0B53ECB0
:1015A0001A2B51EC190B01F043FF53EC1D2B02F0E9
:1015B00073F841EC190B53EC1A2B51EC180B01F09A
:1015C00037FF53EC1B2B01F033FF53EC192B02F0C8
:1015D0003BF99DED000B41EC180B53EC1A2B51EC31
:1015E000100B01F025FF9FED249B53EC192B02F00B
:1015F00053F841EC100B51EC180B53EC102B02F08C
:1016000023F953EC192B02F047F841EC100B002D95
:101610003FF7C5AE51EC100B01F070FC41EC100B24
:10162000BDE60000000000000000F03F00000000E8
:10163000075C143326A6913C182D4454FB21F93F36
:101640000000F07F0000E03F000000000000F03FDD
:10165000C0260000CE260000000000000000E03F91
:1016600012260000202600003333EF3F0000000068
:101670000000000000000040182D4454FB21E93F09
:1016800000B52DED048BB0EE409AF0EE609A83B079
:1016900051EC190B02F00CF841EC180B18EE100A83
:1016A00018EE901A8DED008B002818BF012008431A
:1016B00020F00040C0F17F6000F1E040C00F14D086
:1016C00019EE101A19EE900A8DED009B002918BF33
:1016D0000121084320F00040C0F17F6000F1E040AC
:1016E000C00F04BF0120FEF797FEB0EE480A03B01A
:1016F000F0EE680ABDEC048B00BD70B504462DED1C
:10170000028B4D1E00EBC500B0EE408AF0EE608A01
:1017100090ED000B35F0060017D053EC182B51EC70
:10172000100B01F085FE41EC100B6D1E04EBC500A3
:1017300090ED001B51EC100B53EC112B01F0EAFB68
:1017400041EC100B35F00600E7D1022D36D0042D08
:101750001CD0062D1CBFBDEC028B70BD53EC182BAA
:1017600051EC100B01F064FE94ED0A1B53EC112BAD
:1017700001F0D0FB53EC182B01F05AFE94ED081B3E
:1017800053EC112B01F0C6FB41EC100B53EC182B62
:1017900051EC100B01F04CFE94ED061B53EC112B99
:1017A00001F0B8FB53EC182B01F042FE94ED040B52
:1017B00053EC102B01F0AEFB41EC100B53EC182B4B
:1017C00051EC100B01F034FE94ED021B53EC112B85
:1017D00001F0A0FB53EC182B01F02AFE94ED001B46
:1017E00053EC112B01F096FBBDEC028B41EC100B7E
:1017F00070BD10B553EC102B51EC100B01F08AFBAF
:1018000041EC100B10BD00009FED050B10B553EC23
:10181000102B51EC100B01F031FC41EC100B10BD02
:1018200000000000000000009FED050B10B553EC18
:10183000102B51EC100B01F0FBFD41EC100B10BD17
:1018400000000000000000102DE9F04114462DEDCD
:10185000108B0D460646B0EE40BAF0EE60BAB0EE20
:10186000428AF0EE628AB0EE41CAF0EE61CA9FEDA4
:1018700078AB9FED799B9FED7ADB9FED7BEB9FED46
:101880007CFB53EC1A2B51EC1B0B01F0CFFE7CD3ED
:101890009FED790B51EC1B0B53EC102B01F08CFDE1
:1018A00073D353EC192B51EC1C0B01F0BFFE6CD31E
:1018B00053EC1D2B51EC1C0B01F07EFD65D353EC5A
:1018C0001E2B51EC180B01F0B1FE5ED353EC1F2B15
:1018D00051EC180B01F070FD57D39FED5DAB51EC4F
:1018E0001B0B53EC1A2B01F0C9FB41EC100BFFF75B
:1018F00017FD53EC1A2B51EC100B01F099FD9FEDE5
:10190000601B53EC112B01F0B9FB41EC1B0B9FED5D
:101910005E0B53EC102B01F08BFD884648EC100B4E
:10192000074653EC1A2B51EC100B01F0B5FE41ECBD
:101930001A0B9FED490B51EC1B0B53EC102B01F0D4
:1019400083FF53EC1C2B01F0E5FA41EC190B9FEDE2
:10195000420B53EC102B01F069FE28D353EC1D2BE6
:1019600051EC190B01F028FD21D39FED490B51ECEF
:101970001A0B53EC102B01F059FE18D39FED460BB8
:1019800051EC1A0B53EC102B00E05CE001F014FD5D
:101990000DD353EC1E2B51EC180B01F047FE06D370
:1019A00053EC1F2B51EC180B01F006FD45D248EC0F
:1019B000107B9FED271B51EC100B53EC112B01F00A
:1019C00043FF53EC1B2B9FED24BB41EC1A0B51EC56
:1019D0001B0B01F039FF53EC1C2B01F09BFA41EC7F
:1019E000190B53EC1B2B01F021FE2CD353EC1D2BB8
:1019F00051EC190B01F0E0FC25D351EC1A0B9FEDD3
:101A0000240B53EC102B01F011FE1CD351EC1A0BDC
:101A10009FED210B53EC102B01F0CEFC13D353ECB4
:101A20001E2B51EC180B01F001FE0CD353EC1F2BB5
:101A300051EC180B01F0C0FC05D386ED009B85ED41
:101A400000AB84ED008BBDEC108BBDE8F081000095
:101A5000000000000080664000000000008056404A
:101A600000000000008056C000000000000054404C
:101A700000000000000000000000000000004940DD
:101A8000182D4454FB2109400000000000000040D4
:101A90000000000000C062400000000000C062C002
:101AA00010B590ED020B90ED041B53EC102B51EC94
:101AB000110B01F0C9FE9FED0B1B53EC112B01F034
:101AC000B7FC9FED0A1B53EC112B01F0B1FC9FED0D
:101AD000091B53EC112B01F0D1FABDE8104001F0C5
:101AE00025BC00000000000000003E400000000097
:101AF00000002040CDCCCCCCCCCCFC3F10B590ED40
:101B0000020B90ED041B53EC102B51EC110B01F068
:101B10009BFE9FED0E1B53EC112B01F0AFFA9FEDD6
:101B20000D1B53EC112B01F083FC9FED0C1B53ECB0
:101B3000112B01F07DFC9FED0B1B53EC112B01F0E1
:101B40009DFABDE8104001F0F1BB00008FC2F528FE
:101B50005C8FEA3F0000000000003E4000000000F3
:101B600000002040CDCCCCCCCCCCFC3FF0B5002547
:101B700041F2111642F20F741449B71023E02346C4
:101B8000984200D803460A6855620A68D2F800C035
:101B90004CF0010CC2F800C0D1F80020D2F824C0EB
:101BA0009C45FBD3D2F820C01CEA060F0AD1D2F81C
:101BB00020C01CEA070F05D1D2F800C02CF0010CA0
:101BC000C2F800C0C01A0028D9D1F0BD1000002012
:101BD00082B0CDE9000121F0004001909DED000BA5
:101BE00002B051EC100B70472DED028BA4B0FEF744
:101BF00083FDFFF777FAFFF7A1F9FFF739FA3022F3
:101C00001F496846FEF7A7FB1D49302230310CA85A
:101C1000FEF7A1FB1A493022603118A8FEF79BFBA2
:101C20009FED188B6A4618A90CA8B0EE482AF0EE72
:101C3000682A9FED161B9FED170B00F03FF86A46D0
:101C400018A90CA8B0EE482AF0EE682A9FED131BE5
:101C50009FED140B00F032F86A4618A90CA8B0EEFC
:101C6000482AF0EE682A9FED111B9FED120B00F041
:101C700025F86A4618A90CA800F032F8FEE7000023
:101C8000283A000800000000000049400000000061
:101C9000000044C0000000000000594000000000A7
:101CA000000034400000000000004E400000000032
:101CB000000044400000000000005E4070B5144683
:101CC0000D460646103210311030FFF7BDFD20469C
:101CD00000F060F829463046BDE8704000F010BCC6
:101CE00010B59FED0A0B144680ED040B9FED090B18
:101CF00081ED040B9FED090B82ED040B00F000FC5D
:101D00002046BDE8104000F045B80000000000008B
:101D1000008056C00000000000C0624000000000CB
:101D20000000000000B52DED048B83B041EC190BD1
:101D300001F0BEFC41EC180B18EE100A18EE901AD8
:101D40008DED008B002818BF0120084320F00040D3
:101D5000C0F17F6000F1E040C00F14D019EE101AFE
:101D600019EE900A8DED009B002918BF0121084350
:101D700020F00040C0F17F6000F1E040C00F04BFE0
:101D80000120FEF749FB51EC180B03B0BDEC048BAE
:101D900000BD00002DE9F04F05462DED0C8B002411
:101DA00081B0D5E90006012804D0022806D0032816
:101DB00004D007E02846FFF7A1FE02E02846FFF71F
:101DC0006FFE044695ED089B95ED06ABD5F828A06F
:101DD000002C01DA764264429FED60CB51EC1A0B85
:101DE00053EC1C2B01F024FB834641EC1B0B5046AB
:101DF000009101F0CAFA894649EC110B804653EC78
:101E0000112B47469FED578B51EC180B01F036F91B
:101E100049EC107B41EC1D0B53EC102B51EC180BD3
:101E200001F02CF953EC1D2B01F002FB41EC1D0BD2
:101E300053EC192B51EC180B01F020F941EC110B6C
:101E400053EC112B01F0F4FA53EC1D2B01F0FCFCC8
:101E500053EC1B2B01F012F901F068FA404204EB3D
:101E60004007002F10DD51EC190B01F05FFA04461A
:101E7000224651463046B0EE4A0AF0EE6A0A00F0B9
:101E8000DDFE394622464DE053EC1C2B51EC190B7C
:101E900001F0CEFA41EC190B009949EC108B41ECA2
:101EA0001BBB53EC102B51EC180B01F0E7F849EC7D
:101EB000108B41EC1C0B53EC102B51EC180B01F068
:101EC000DDF853EC1C2B01F0B3FA41EC1C0B53EC86
:101ED000192B51EC180B01F0D1F841EC110B53EC1C
:101EE000112B01F0A5FA53EC1C2B01F0ADFC53ECC7
:101EF0001B2B01F0C3F801F019FA404204EB400734
:101F0000002F1CDD51EC190B01F010FA044622469B
:101F100051463046B0EE4A0AF0EE6A0A00F08EFEF4
:101F200022463946304600F0B3FF2146524630463D
:101F3000B0EE4A0AF0EE6A0A00F080FE04E0524673
:101F40002146304600F0A4FF95ED040B85ED020B11
:101F500001B0BDEC0C8BBDE8F08F0000000000006C
:101F600000000040000000000000E03F2DE9F04FBD
:101F7000924C16462DED0A8B0F4605464FF4006B2A
:101F800081B0B0EE40BAF0EE60BA00225946204669
:101F9000FEF79EFB6115012D02D06D1C02D005E0FD
:101FA000012200E000222046FEF792FB9FED849B79
:101FB0009FED85AB4FF48068B7427ADA384601F07E
:101FC000E4F941EC100B51EC190B53EC102B01F020
:101FD00055F841EC180B304601F0D7F941EC100BE5
:101FE00051EC190B53EC102B01F048F841EC1C0B91
:101FF00053EC1A2B51EC1B0B01F01AFA814641EC01
:102000001A0B009153EC1C2B51EC1C0B01F010FA35
:1020100041EC1B0B53EC182B51EC180B01F008FA98
:1020200053EC1B2B01F010FC53EC1A2B01F026F89B
:1020300001F07CF90746002637E0012241462046A0
:10204000FEF746FB53EC182B51EC190B01F016F878
:102050008A464AEC100B054651EC100B01F066F96C
:10206000FFF784FD002241462046FEF731FB4AEC93
:10207000105B51EC100B01F059F9FFF777FD009957
:1020800053EC182B41EC1A9B51EC180B01F0D0F9D2
:1020900053EC1A2B01F0D8FB41EC100BFFF7F0FAD0
:1020A000B0EE408AF0EE608A761CBE42C5DB7AE074
:1020B000FFE778DD384601F068F941EC100B51EC90
:1020C000190B53EC102B00F0D9FF41EC180B3046E4
:1020D00001F05BF941EC100B51EC190B53EC102B98
:1020E00000F0CCFF41EC1C0B53EC1A2B51EC1B0BFA
:1020F00001F09EF9814641EC1A0B009153EC182B2C
:1021000051EC180B01F094F941EC1B0B53EC1C2B18
:1021100051EC1C0B01F08CF953EC1B2B01F094FBE0
:1021200053EC1A2B00F0AAFF01F000F90746002635
:1021300037E0012241462046FEF7CAFA53EC182B3D
:1021400051EC190B00F09AFF8A464AEC100B054639
:1021500051EC100B01F0EAF8FFF708FD00224146B0
:102160002046FEF7B5FA4AEC105B51EC100B01F07B
:10217000DDF8FFF7FBFC009953EC182B41EC1A9BA0
:1021800051EC180B01F054F953EC1A2B00F0C2FE7D
:1021900041EC100BFFF774FAB0EE408AF0EE608A63
:1021A000761CBE42C5DB01B05946BDEC0A8B204609
:1021B0000122BDE8F04FFEF78BBA0000000002409C
:1021C000000000000000E03F0000000000000040B0
:1021D0002DE9F0471A4D91460E4604464FF400682B
:1021E000002241462846FEF773FA6915012C02D0F9
:1021F000641C02D005E0012200E000222846FEF720
:1022000067FA00244FF480670FE039462846FEF74E
:102210005FFA4846FFF7AAFC002239462846FEF737
:1022200057FA4846FFF7A2FC641CB4424FF0010283
:10223000EBDB41462846BDE8F047FEF749BA00000F
:10224000000002402DE9F04FA74C93462DED0A8B7C
:102250000D46064683B01F46B0EE40BAF0EE60BAB7
:1022600000224FF400612046FEF732FADFF87C824C
:10227000002261154046FEF72BFA012E02D0761C93
:1022800002D007E0012200E000224FF40071204656
:10229000FEF71EFA012D02D06D1C02D006E00122CD
:1022A00000E0002280214046FEF712FA58469FEDDA
:1022B000909B9FED91AB4FF480694FF4807ABB45C2
:1022C0007EDA01F062F841EC100B51EC190B53EC83
:1022D000102B00F0D3FE41EC180B384601F055F8F6
:1022E00041EC100B51EC190B53EC102B00F0C6FE17
:1022F00041EC1C0B53EC1A2B51EC1B0B01F098F822
:10230000834641EC1A0B019153EC1C2B51EC1C0B36
:1023100001F08EF841EC1B0B53EC182B51EC180B11
:1023200001F086F853EC1B2B01F08EFA53EC1A2BBC
:1023300000F0A4FE00F0FAFF074600263EE001226E
:1023400049462046FEF7C4F9012251464046FEF7B1
:10235000BFF953EC182B51EC190B00F08FFE05461A
:10236000009100F0E3FFFFF701FC00224946204600
:10237000FEF7AEF9002251464046FEF7A9F9009952
:1023800041EC105B51EC100B00F0D0FFFFF7EEFBBF
:10239000019953EC182B41EC1ABB51EC180B01F0CE
:1023A00047F853EC1A2B01F04FFA41EC100BFFF7F2
:1023B00067F9B0EE408AF0EE608A761CBE4200E01B
:1023C00001E0BCDB81E07DDD00F0DFFF41EC100BC4
:1023D00051EC190B53EC102B00F050FE41EC180B94
:1023E000384600F0D2FF41EC100B51EC190B53ECC6
:1023F000102B00F043FE41EC1C0B53EC1A2B51EC5C
:102400001B0B01F015F8834641EC1A0B019153ECBC
:10241000182B51EC180B01F00BF841EC1B0B53EC93
:102420001C2B51EC1C0B01F003F853EC1B2B01F09F
:102430000BFA53EC1A2B00F021FE00F077FF074651
:1024400000263EE0012249462046FEF741F90122DE
:1024500051464046FEF73CF953EC182B51EC190B52
:1024600000F00CFE0546009100F060FFFFF77EFBD8
:10247000002249462046FEF72BF9002251464046ED
:10248000FEF726F9009941EC105B51EC100B00F0BF
:102490004DFFFFF76BFB019953EC182B41EC1ABB76
:1024A00051EC180B00F0C4FF53EC1A2B00F032FD76
:1024B00041EC100BFFF7E4F8B0EE408AF0EE608AD2
:1024C000761C00E001E0BE42BCDB0122D1022046C6
:1024D000FEF7FEF803B04046BDEC0A8B0122510224
:1024E000BDE8F04FFEF7F4B80000024000080240DB
:1024F000000000000000E03F00000000000000407D
:102500002DE9F05F0E462DED108B0746D0F804A0A4
:10251000D1F80490FFF7C4FA05463046FFF7C0FA39
:1025200097ED08CB96ED08DB04469FEDD0EB97EDD9
:1025300006FB96ED069B002D02DACAF1000A6D42F9
:10254000002C02DAC9F1000964429FEDCABB9FED7D
:10255000CB0B51EC100B00F0E9FE40424FF47A78BF
:102560009FEDC88B9FEDC9AB9FEDCA0BA5426FDBFA
:1025700004EB400BB0EE409AF0EE609ABBF1000F16
:1025800011DD3C23424649465046B0EE4E0AF0EE7D
:102590006E0AFFF757FE3C235A464946504600F064
:1025A0007DF93C201AE051EC1B0B00F0BFFE4142CC
:1025B00004EB410BBBF1000F1BDD7823424649467B
:1025C0005046B0EE4E0AF0EE6E0AFFF73BFE78235F
:1025D0005A464946504600F061F978200246434683
:1025E00049465046B0EE4E0AF0EE6E0AFFF72AFE5C
:1025F00005E0434622464946504600F04FF92C1B61
:1026000053EC182B51EC1F0B00F012FF8B46814648
:102610004BEC1B0B53EC1C2B51EC1A0B00F02EFD5A
:1026200041EC100B53EC102B00F002FF53EC192B74
:1026300001F00AF953EC1B2B00F020FD00F076FEB0
:10264000404204EB4005002D03DD51EC1C0B27E05C
:1026500048E053EC182B51EC1C0B00F0E9FE41EC68
:10266000180B4BEC1B9B53EC182B51EC1A0B00F086
:1026700005FD41EC100B53EC102B00F0D9FE53EC90
:10268000192B01F0E1F853EC1B2B00F0F7FC00F0E4
:102690004DFE404204EB4005002D1DDD51EC180BB2
:1026A00000F044FE81464A46444641465046B0EE5C
:1026B0004F0AF0EE6F0AFFF759FC4A46294650468A
:1026C000FFF786FD494622465046B0EE4F0AF0EE2F
:1026D0006F0AFFF74BFCBDE0424621465046FFF72C
:1026E00077FDB7E005EB400BB0EE40CAF0EE60CAF4
:1026F000BBF1000F12DD3C23424649465046B0EE86
:102700004E0AF0EE6E0AFFF79DFD3C235A464946FD
:10271000504600F0C3F83C2243461BE051EC1B0B33
:1027200000F004FE414205EB410BBBF1000F1ADD46
:102730007823424649465046B0EE4E0AF0EE6E0A05
:10274000FFF780FD78235A464946504600F0A6F828
:102750007822434649465046B0EE4E0AF0EE6E0AE5
:10276000FFF770FD05E043462A464946504600F013
:1027700095F8641B53EC182B51EC190B00F058FE24
:102780008B4682464BEC1B0B53EC1D2B51EC1A0B6A
:1027900000F074FC41EC100B53EC102B00F048FEE1
:1027A00053EC1C2B01F050F853EC1B2B00F066FC93
:1027B00000F0BCFD404204EB4005002D02DD51EC71
:1027C0001D0B26E053EC182B51EC1D0B00F030FED6
:1027D00041EC180B4BEC1BAB53EC182B51EC1A0BC8
:1027E00000F04CFC41EC100B53EC102B00F020FEE1
:1027F00053EC1C2B01F028F853EC1B2B00F03EFC93
:1028000000F094FD404204EB4005002D1DDD51EC2D
:10281000180B00F08BFD824652464446414648461E
:10282000B0EE490AF0EE690A00F09CF852462946DB
:10283000484600F0C9F9514622464846B0EE490ADA
:10284000F0EE690A00F08EF804E042462146484660
:1028500000F0BAF997ED040B87ED020B96ED040B2F
:1028600086ED020BBDEC108BBDE8F09F3A8C30E298
:102870008E79453EC7711CC771BC8A40C6711CC7A2
:102880007107AB40000000000000004000000000A5
:102890000000E03F8DEDB5A0F7C6903E2DE9FF5F4B
:1028A0002E4D17460C4606464FF4006A002251464C
:1028B0002846FDF70DFFDFF8A8804FF4007B0022CB
:1028C00059464046FDF704FF012E02D0761C02D087
:1028D00006E0012200E0002259462846FDF7F8FEF6
:1028E000012C02D0641C02D006E0012200E000228C
:1028F00080214046FDF7ECFE464600244FF48069F7
:102900004FF4807819E049462846FDF7E1FE0122A0
:1029100041463046FDF7DCFE0398FFF727F9002219
:1029200049462846FDF7D4FE002241463046FDF7D1
:10293000CFFE0398FFF71AF9641CBC424FF0010266
:10294000E1DB51462846FDF7C3FE04B05946304648
:10295000BDE8F05F0122FDF7BBBE000000000240B1
:10296000000802402DE9F04F924C16462DED0A8BDF
:102970000F4605464FF4007B81B0B0EE40BAF0EE52
:1029800060BA002259462046FDF7A2FE012D02D072
:102990006D1C02D006E0012200E0002280212046CA
:1029A000FDF796FE9FED849B9FED85AB4FF48078FD
:1029B000B7427ADA384600F0E8FC41EC100B51ECF3
:1029C000190B53EC102B00F059FB41EC180B30465F
:1029D00000F0DBFC41EC100B51EC190B53EC102B0D
:1029E00000F04CFB41EC1C0B53EC1A2B51EC1B0B75
:1029F00000F01EFD814641EC1A0B009153EC1C2B9C
:102A000051EC1C0B00F014FD41EC1B0B53EC182B8C
:102A100051EC180B00F00CFD53EC1B2B00F014FFD5
:102A200053EC1A2B00F02AFB00F080FC074600262E
:102A300037E0012241462046FDF74AFE53EC182BB1
:102A400051EC190B00F01AFB8A464AEC100B0546B4
:102A500051EC100B00F06AFCFFF788F800224146A9
:102A60002046FDF735FE4AEC105B51EC100B00F0F0
:102A70005DFCFFF77BF8009953EC182B41EC1A9B97
:102A800051EC180B00F0D4FC53EC1A2B00F0DCFED8
:102A900041EC100BFEF7F4FDB0EE408AF0EE608AD8
:102AA000761CBE42C5DB7AE0FFE778DD384600F0F1
:102AB0006CFC41EC100B51EC190B53EC102B00F09B
:102AC000DDFA41EC180B304600F05FFC41EC100BD6
:102AD00051EC190B53EC102B00F0D0FA41EC1C0B0D
:102AE00053EC1A2B51EC1B0B00F0A2FC814641EC7D
:102AF0001A0B009153EC182B51EC180B00F098FCBA
:102B000041EC1B0B53EC1C2B51EC1C0B00F090FC0C
:102B100053EC1B2B00F098FE53EC1A2B00F0AEFA8E
:102B200000F004FC0746002637E00122414620461B
:102B3000FDF7CEFD53EC182B51EC190B00F09EFA6B
:102B40008A464AEC100B054651EC100B00F0EEFBE8
:102B5000FFF70CF8002241462046FDF7B9FD4AEC8C
:102B6000105B51EC100B00F0E1FBFEF7FFFF00994A
:102B700053EC182B41EC1A9B51EC180B00F058FC4D
:102B800053EC1A2B00F0C6F941EC100BFEF778FD60
:102B9000B0EE408AF0EE608A761CBE42C5DB01B022
:102BA0005946BDEC0A8B20460122BDE8F04FFDF7E7
:102BB0008FBD000000080240000000000000E03F60
:102BC00000000000000000402DE9F0471A4D91463A
:102BD0000E4604464FF40078002241462846FDF791
:102BE00077FD012C02D0641C02D006E0012200E037
:102BF000002280212846FDF76BFD00244FF48077EA
:102C00000FE039462846FDF763FD4846FEF7AEFF64
:102C1000002239462846FDF75BFD4846FEF7A6FF31
:102C2000641CB4424FF00102EBDB41462846BDE88C
:102C3000F047FDF74DBD0000000802402DE9F047C8
:102C40008E4C16462DED0A8B0F460546B0EE40BA67
:102C5000F0EE60BA002210212046FDF739FD012D6B
:102C600002D06D1C02D006E0012200E00022042107
:102C70002046FDF72DFD9FED829B9FED83ABB74274
:102C800079DA384600F081FB41EC100B51EC190B5E
:102C900053EC102B00F0F2F941EC180B304600F029
:102CA00074FB41EC100B51EC190B53EC102B00F0A2
:102CB000E5F941EC1C0B53EC1A2B51EC1B0B00F00B
:102CC000B7FB8A4680464AEC1A0B53EC1C2B51EC9E
:102CD0001C0B00F0ADFB41EC1B0B53EC182B51EC23
:102CE000180B00F0A5FB53EC1B2B00F0ADFD53ECD3
:102CF0001A2B00F0C3F900F019FB0746002636E056
:102D0000012208212046FDF7E3FC53EC182B51EC7F
:102D1000190B00F0B3F9894649EC100B054651EC4C
:102D2000100B00F003FBFEF721FF002208212046D4
:102D3000FDF7CEFC49EC105B51EC100B00F0F6FAFD
:102D4000FEF714FF4AEC1A8B53EC182B51EC180BBE
:102D500000F06EFB53EC1A2B00F076FD41EC100BEB
:102D6000FEF78EFCB0EE408AF0EE608A761CBE4222
:102D7000C6DB79E0FFE777DD384600F006FB41EC83
:102D8000100B51EC190B53EC102B00F077F941ECC0
:102D9000180B304600F0F9FA41EC100B51EC190B0E
:102DA00053EC102B00F06AF941EC1C0B53EC1A2B7E
:102DB00051EC1B0B00F03CFB8A4680464AEC1A0B98
:102DC00053EC182B51EC180B00F032FB41EC1B0BB1
:102DD00053EC1C2B51EC1C0B00F02AFB53EC1B2B6F
:102DE00000F032FD53EC1A2B00F048F900F09EFA87
:102DF0000746002636E0012208212046FDF768FC40
:102E000053EC182B51EC190B00F038F9894649ECBA
:102E1000100B054651EC100B00F088FAFEF7A6FEE9
:102E2000002208212046FDF753FC49EC105B51ECD1
:102E3000100B00F07BFAFEF799FE4AEC1A8B53EC6C
:102E4000182B51EC180B00F0F3FA53EC1A2B00F08E
:102E500061F841EC100BFEF713FCB0EE408AF0EE87
:102E6000608A761CBE42C6DBBDEC0A8B204601227E
:102E70001021BDE8F047FDF72BBC0000000C02401C
:102E8000000000000000E03F0000000000000040E3
:102E90002DE9F041184D17460E4604460022102138
:102EA0002846FDF715FC012C02D0641C02D006E078
:102EB000012200E0002204212846FDF709FC00243D
:102EC0000FE008212846FDF703FC3846FEF74EFECA
:102ED000002208212846FDF7FBFB3846FEF746FE98
:102EE000641CB4424FF00102EBDB2846BDE8F04120
:102EF0001021FDF7EDBB0000000C024081F0004105
:102F0000704780F00040704721F00041704720F08A
:102F10000040704710B591EA030F48BF83F00043AB
:102F200000F19A84841A71EB030C05D2121943EB59
:102F30000C03001B61EB0C01DFF824E14FEA115494
:102F4000A4EB135C1EEA430F18BF9EEA445F73D0E4
:102F500023EA0E03DCF1200E21EA045143F480132E
:102F600032D322FA0CFE10EB0E0023FA0CFE41EBDA
:102F70000E01CCF1200E03FA0EFE10EB0E0051F103
:102F80000001B1F5801FCCF1200E32D201EB0451CB
:102F900012FA0EF2BDE8104058BF7047401C38BF0F
:102FA0005FEA420218BF7047002814BF20F00100FA
:102FB00041F100014FEA410313F5001F38BF70478C
:102FC000A1F1C04100F02CBB012A43EB0302ACF19C
:102FD000200CDCF11F0E32BF4FF0000E23FA0CF371
:102FE00010EB030041EB0451B4EB115FD0D0A1EB27
:102FF000045101F5801149085FEA300001EB0451EA
:103000000ED350F1000038BF12FA0EFE08D1BDE811
:103010001040C9E7401C38BF5FEA4202CAD1C3E78B
:10302000BDE810404FEA410313F5001F38BF704759
:10303000A1F1C04100F0F4BA9EEA445F08D011EA61
:103040005E0FBDE8104004BF01F000410020704752
:10305000BDE8104070B500F095FA00BF64FBBE3EBD
:103060000000E0FF491058BFC1F140415B1058BF5C
:10307000C3F140438B42EFF3008070472DE9C0411C
:1030800030B4DFF8A0C23CEA111418BF3CEA1314B4
:1030900000F0EC8081EA03051CEA111444EAD574BF
:1030A00018BF1CEA131500F0C780A4EB05044FF00D
:1030B000004545EAC12145EAC32341EA505143EAAC
:1030C000525304F17F74994204F500344FEAC02052
:1030D0004FEAC22208BF904200F09C804FEA13657D
:1030E0000FF24016765D4FEA134506FB05F7C7F170
:1030F000807706FB07F74FEAD737A7FB03687642CE
:10310000C8F58038A7FB06CE38BFA8F1010807FB39
:1031100008E64FF0000EA6FB028CE6FB03CEDCF1C6
:10312000000CCEF1004E38BFAEF1010EA6FB0C58DC
:103130004FF000074FF00005E6FB0E87A1FB08C625
:10314000A0FB07CE16EB0E0645F10005E1FB076577
:1031500015F1E04E7EBFA4F580345FEA46066D416E
:1031600016F1800745F100054FEA17274FEA06667A
:1031700047EA0567A6F1DE46B6F1805F4FEA1525FE
:103180001FD9384624F0010C05EBC471BCF1FE6F69
:1031900001EB0C1102D8F0BCBDE8008124425CBFF9
:1031A00001F5801E9EEAC47F02D4F0BCBDE8008118
:1031B000244238D4F0BCA1F1C041BDE8004100F088
:1031C0002FBA4FEAD22242EA43524FEAD323A7FB57
:1031D00002864FEAD02040EA415007FB03661EEA10
:1031E0000E0F4FEAD12105FB026658BFA6EB005631
:1031F000B6EB00564FEA520E4EEAC37E18EB0E0EA7
:1032000056EB530EBDD518EB02085E417F1C55F1FD
:103210000005B6E74FF480154FF000074FF00006A9
:103220004FF00008ADE7F0BC4FF0000001F1C041E5
:1032300001F00041BDE8008111EA0C1F0CEA1315F2
:1032400000D00CE013EA0C1F00F025804FF00000C6
:10325000F0BC81EA030101F00041BDE80081F0BC4F
:10326000BDE8004181EA030100F0DAB9F0BCBDE835
:10327000004170B500F086F9097EFC3E00F007B809
:1032800081EA03014FF0000001F00041704781EA3C
:10329000030100F0C5B9F0BCBDE800414FF00000EB
:1032A00021497047FFFDFBF9F7F5F4F2F0EEEDEB85
:1032B000E9E8E6E4E3E1E0DEDDDBDAD8D7D5D4D334
:1032C000D1D0CFCDCCCBCAC8C7C6C5C4C2C1C0BF80
:1032D000BEBDBCBBBAB9B8B7B6B5B4B3B2B1B0AF86
:1032E000AEADACABAAA9A8A8A7A6A5A4A3A3A2A16A
:1032F000A09F9F9E9D9C9C9B9A9999989797969525
:1033000095949393929191908F8F8E8E8D8C8C8BC0
:103310008B8A898988888787868585848483838248
:10332000828181800000FF070000F87F4FEA41039F
:103330004FEA5353A3F58063D3F11E03C8BFD3F103
:10334000210C0CDD4FF0004242EAC12242EA505209
:1033500032FA03FC8CEAE17CACEBE1707047102B95
:10336000C4BF0020704703F5787CBCF1FF3F04D058
:103370006FF0004282EA2100704770B500F002F958
:103380004992248000207047F2E710F0004248BFC5
:103390004042B0FA80F310FA03F10AD0C3F11D03E2
:1033A00003F580634FEA415002EB035202EBD12157
:1033B00070474FF00000704751EA030C17D41CF51A
:1033C000801F58BFBCF5801F00F10680994218BFCE
:1033D000704708BF9042704707D711F5801F58BF4C
:1033E00013F5801F19D499427047894270471CF524
:1033F000801F08D5BCF5801FF7D58B4218BF7047DA
:1034000008BF824270474FF4001C1CEB410F38BFCD
:103410001CEB430F01D28B42704770B500F0B2F83D
:10342000922449004FF000514FF08053FFF71ABE2D
:10343000DFF848C170B51CEA111E1EBF1CEA131547
:103440009EEA0C0F95EA0C0F00F06F8081EA0304EE
:1034500023EA4C134EEAD47E21EA4C1141F4801148
:1034600043F48013AE44A1FB024CA0FB0365AEF114
:103470007F7E361955EB0C05A1FB034C4CF1000384
:10348000A0FB021C16EB0C06654153F10003094238
:1034900018BF46F0010613F4007F0BD14FEA033149
:1034A0004FEA0530340341EA155140EA16506FF0F7
:1034B00003020AE04FEAC3214FEAC520F40241EAC1
:1034C000555140EA56506FF0020202EB2E4201EBDA
:1034D000025585EACE710AD05FEA440C18BF24F089
:1034E000004450F1000041F1000120EAD47040F2A4
:1034F000FE7C624500D270BDA84214BF4FF08044EC
:103500004FF04044002E08BF0024BEF1806FA8BFDA
:10351000A1F1C041BDE8704080F282804FF0000010
:1035200001F1C04101F0004170479EEA0C0F0CEA26
:10353000131518BF95EA0C0F06D04FF0000081EA72
:10354000030E0EF0004170BD00F01CF88900013E32
:1035500000F007B800F009B84FEA430C5FEA5C5C82
:1035600008D081EA030100F05BB84FEA410C5FEA42
:103570005C5CF6D14FF00000014970470000FF0786
:103580000000F87F0EF1020E2EF0030E5EF8046BC1
:10359000364205D4012A43EB030515F5001F12D866
:1035A000012841EB010C1CF5001F0CD80ED14FEA8D
:1035B000D17C15F5001F0CEB4C0C0CF1020C08BF74
:1035C0004CEBD37C04E04FF0080C01E04FEAD37CD5
:1035D0000CEB4C0526FA05F606F00706B6F1040CCE
:1035E00006D20EEB860CBDE870404CF0010C604733
:1035F000DFE80CF0090B02024FF000414FF0000031
:10360000A1F5002170BD19461046012851EB0104B7
:1036100018BFD4F5001484BF002001F0004170BD34
:103620000808A0F500114FEA3101704753EA010C78
:1036300017D41CF5801F58BFBCF5801F00F1068011
:103640008B4218BF704708BF8242704707D713F5F7
:10365000801F58BF11F5801F19D48B4270479B42C1
:1036600070471CF5801F08D5BCF5801FF7D599421F
:1036700018BF704708BF904270474FF4001C1CEB06
:10368000430F38BF1CEB410F01D2994270470FB472
:103690000CBC03BCFFF7C1BE91EA030F10B581F06B
:1036A00000413FF53FAC83F0004300F0D5B8000087
:1036B0002DE9F04101F5801CBCF5001FC0F2A98086
:1036C0004FEA115C21EA0C510CF1FD0C41F4801120
:1036D0005FEA5C0C0CF5C07C01D34000494130A48A
:1036E000890241EA905187028E0E0A0CA45D04FB08
:1036F00004F602FB06F6C6F14046A4FB0662F60D90
:1037000046EA422606FB06F4A4FB01235242C3F11B
:10371000404338BF5B1EA6FB02420024E6FB0324A5
:10372000D20B42EA4446A6FB0623A1FB02E2A3FB1E
:1037300007E4E3FB61426442C2F1404E38BFAEF1A0
:10374000010EA6FB04234FF00002E6FB0E32A2FBA3
:1037500003463400E2FB6264A1FB06E6A4FB07E833
:10376000E4FB61687642C8F1405838BFA8F101080F
:10377000A2FB06E4A3FB08E5E2FB6854A1FB05E617
:10378000A7FB04E8E1FB648618F1200556F100066A
:10379000A809A8F11B08B10908F03F08B8F10A0F01
:1037A00040EA86601CD901EB0C51BDE8F08100BFF6
:1037B000FCF5EEE8E2DDD8D3CFCBC7C3C0BDB9B6C8
:1037C000B4B1AEACA9A7A5A3A19F9D9B9A989695CD
:1037D0009392908F8D8C8B89888786858483828154
:1037E000A0FB006800FB01F208EB4208B8EB872859
:1037F00007D5341858EB0104D5D5401C51F1000110
:10380000D1E7341A78EB0104CDD4401E71F10001E8
:10381000C9E75FEA4C0C5FEA9C5C0DD105D34FF021
:10382000000001F00041BDE8F081BDE8F04170B555
:10383000FFF7A8FE6DDBFFBEBDE8F0414FF00000D2
:10384000004970470000F87F10B591EA030F48BFA8
:1038500083F000433FF566AB841A71EB030C07D28B
:1038600012198CF0004C43EB0C03001B61EB0C01B4
:10387000DFF8A4E14FEA1154A4EB135C1EEA430FF6
:1038800018BF9EEA445F00F0B08023EA6E03524204
:1038900021EA0451C3EB6E0338BF5B1EDCF1200E3E
:1038A00025D322FA0CFE10EB0E0043FA0CFE41EB7E
:1038B0000E01CCF1200E03FA0EFE10EB0E0051F1BA
:1038C0000001CCF1200E29D412FA0EF201EB0451C2
:1038D000BDE8104058BF7047401C1CBFB2F1004FFC
:1038E000704700280CBF491C20F00100704712EB04
:1038F000020E43EB030218BF4FF0010E4EEA4202E4
:10390000ACF1200CDCF11E0E54D943FA0CFE10EB86
:103910000E0051F1FF31CCF11E0ED5D50EF1010E86
:1039200012FA0EFE404141EB010101EB445C5FEAFB
:103930005C5C10D910EBDE7001EB045138BFBEF1B6
:10394000004FBDE8104018BF704700280CBF491C4D
:1039500020F00100704730D24FEAD42C11F500114D
:1039600024F400641BD0B1FA81F20B3AA41AA41E0D
:10397000D2F12003914030FA03F31943904001EB58
:10398000CC71002C01EB0451BDE81040A8BF70477A
:1039900001F1C0414FF0000001F000417047B0FA62
:1039A00080F310FA03F100D110BDE41A173C48056A
:1039B000C90AE4E701EB045110BD491001EB0451C1
:1039C000BDE810404FEA300002E04FF000017047C0
:1039D0004A0008BF0042F8D0B2F5001F28BF704768
:1039E00001F000414FF0000070479EEA445F07D0AD
:1039F00011EA5E0FBDE8104004BF002100207047AF
:103A0000BDE8104070B5FFF7BDFD00BF40DFF63EDA
:103A100083F00041104670470000E0FF4FF0407017
:103A2000E1EE100A704700000100000001000000F4
:103A30000000000000000000000000000000000086
:103A400095D626E80B2E213E0000000000C0624003
:103A5000D00700000000000002000000010000008C
:103A600000000000008056C000000000008056C02A
:103A70003A8C30E28E79453E0000000000004E4056
:103A8000E803000000000000030000000100000047
:103A90000000000000C062400000000000C0624062
:103AA0003A8C30E28E79453E0000000000004E4026
:103AB000E80300000000000000000000000000001B
:103AC0000102030406070809555555555555C53FCC
:103AD0007D6FEB0312D6D4BF5544880E55C1C93F44
:103AE0003B8F68B52882A4BF88B20175E0EF493FDB
:103AF00009F7FD0DE13D023F4B2D8A1C273A03C01B
:103B0000C88A599CE52A004059018D1B6C06E6BF06
:103B100082922EB1C5B8B33F383B000800000020A8
:103B200010000000C4010008483B000810000020FD
:103B3000A8060000E00100080100000010000000DD
:083B4000000000000024F40065
:040000050800018965
:00000001FF
