:020000040800F2
:10000000180B002069020008A71A00083D18000814
:10001000A51A000877040008C923000800000000A2
:10002000000000000000000000000000AB1A000803
:100030003505000800000000A91A0008AD1A0008E4
:10004000830200088302000883020008830200087C
:10005000830200088302000883020008830200086C
:10006000830200088302000883020008830200085C
:10007000830200088302000883020008830200084C
:10008000830200088302000883020008830200083C
:10009000830200088302000883020008830200082C
:1000A000830200088302000883020008830200081C
:1000B000830200088302000883020008830200080C
:1000C00083020008830200088302000883020008FC
:1000D00083020008AD2000088302000883020008A4
:1000E00083020008830200088302000883020008DC
:1000F00083020008830200088302000883020008CC
:1001000083020008830200088302000883020008BB
:1001100083020008830200088302000883020008AB
:1001200083020008830200087904000883020008A3
:10013000830200088302000883020008830200088B
:10014000830200088302000883020008830200087B
:100150008302000883020008850400088302000867
:10016000830200088302000883020008830200085B
:1001700083020008830200088302000800000000D8
:10018000830200088302000800F002F800F05CF827
:100190000AA090E8000C82448344AAF10107DA45E2
:1001A00001D100F051F8AFF2090EBAE80F0013F0D8
:1001B000010F18BFFB1A43F0010318471C5C000035
:1001C0003C5C00000A444FF0000C10F8013B13F0B7
:1001D000070408BF10F8014B1D1108BF10F8015BA0
:1001E000641E05D010F8016B641E01F8016BF9D193
:1001F00013F0080F1EBF10F8014BAD1C0C1B09D1EA
:100200006D1E58BF01F801CBFAD505E014F8016B5B
:1002100001F8016B6D1EF9D59142D6D370470000ED
:100220000023002400250026103A28BF78C1FBD8FF
:10023000520728BF30C148BF0B6070471FB505F09B
:100240008BFD1FBD10B510BD00F0E2F81146FFF7A1
:10025000F5FF02F087FD00F000F903B4FFF7F2FFAD
:1002600003BC00F001F90000094880470948004735
:10027000FEE7FEE7FEE7FEE7FEE7FEE7FEE7FEE756
:10028000FEE7FEE704480549054A064B70470000B3
:10029000491B00088901000818050020180B0020E0
:1002A000180700201807002053EA020C00F06980AC
:1002B0002DE9F04B4FF00006002B1FBFB3FA83F57A
:1002C00003FA05F424FA05F65E4012BF1643B2FAAB
:1002D00082F502FA05F4C5F120051EBF22FA05FCDD
:1002E00044EA0C04203556EA044C4FEA144418BF83
:1002F000641C4FF000084FF00009904271EB030CB2
:1003000039D3002919BFB1FA81F701FA07F6B0FA1B
:1003100080F700FA07F6C7F120071EBF20FA07FC96
:1003200046EA0C062037B6FBF4FCA7EB0507103FA6
:1003300007F01F0BCBF120060CFA0BFB2CFA06F68C
:1003400044BFB3460026202FA4BF5E464FF0000BEB
:100350005BEA060C08BF4FF0010B19EB0B09ABFB76
:10036000027C48EB0608C01B06FB02CC0BFB03CC4F
:1003700071EB0C01C1E70B46024641464846BDE819
:10038000F08B13B54FF000004FF00001AFF3008089
:10039000BDE81C4070474FF0000200B5134694467C
:1003A0009646203922BFA0E80C50A0E80C50B1F1CD
:1003B0002001BFF4F7AF090728BFA0E80C5048BFE1
:1003C0000CC05DF804EB890028BF40F8042B08BF7F
:1003D000704748BF20F8022B11F0804F18BF00F87B
:1003E000012B704770477047704710B500F008F850
:1003F000006810BD10B5044600F002F8046010BD9E
:1004000000487047B804002000487047B804002036
:100410007546FFF7F9FFAE4605006946534620F0E2
:100420000700854618B020B5FFF72CFFBDE8204037
:100430004FF000064FF000074FF000084FF0000BA0
:1004400021F00701AC46ACE8C009ACE8C009ACE853
:10045000C009ACE8C0098D4670470446AFF3008080
:100460002046FFF7FAFE000001491820ABBEFEE768
:10047000260002007047FEE7014800F0B9B800000E
:10048000F8030020014800F0B3B800005804002031
:1004900001681823CAB2103AB2FBF3F2054B6FF3AE
:1004A0000901032A9B5CC36500D9091D81650846C3
:1004B00070470000625D000810B5014600208B699E
:1004C0008A6A4FF0C07453B1B3F5005F15D072B1B2
:1004D000012A0CD0022A0AD0032A09D104E01AB159
:1004E000012A06D0022A03D1C96AC90100D5012018
:1004F00010BDC96AA142FAD010BD002AF7D0012A66
:10050000F2D0022AF3D0032AF3D010BD30B504682C
:10051000256825F480252560046863608368402B86
:10052000036803D099600068C26030BD9A600068BB
:10053000C16030BD704772B6FEE72DE9F041044658
:10054000876D00F0C9FA064694F8350000250228A8
:1005500006D08020606584F834500120BDE8F08129
:100560002068016821F0160101602068416921F0CE
:1005700080014161206C08B9A06C20B1206801683D
:1005800021F0080101602068016821F0010101608B
:100590000CE000F0A1FA801B052807D92020606537
:1005A000032084F8350084F83450D7E720680068C9
:1005B000C007EED194F85C103F208840B86001205D
:1005C00084F8350084F834500020C7E790F83510DF
:1005D000022903D08021416501207047052180F860
:1005E00035100068016821F00101016000207047AA
:1005F0002DE9F84304464FF00009CDF80090634818
:100600004FF41651A56D0068B0FBF1F72E6894F811
:100610005C10082000FA01F131420FD021680A680D
:1006200052070BD50A6822F004020A6094F85C10A5
:100630008840A860606D40F00100606594F85C102F
:100640004FF0010808FA01F0304208D021684969EA
:10065000090604D5A860606D40F00200606594F85A
:100660005C1004208840304208D02168096889075E
:1006700004D5A860606D40F00400606594F85C10DB
:1006800010208840304218D021680968090714D525
:10069000A86020680168490304D50068000308D5F4
:1006A000A16C07E00168C90503D4016821F00801C5
:1006B0000160216C09B12046884794F85C10202025
:1006C0008840304231D021680968C9062DD5A8601C
:1006D00094F8350005282068016806D0490347D5FD
:1006E000006800031DD4616C1CE021F0160101605C
:1006F0002068416921F080014161206C08B9A06C3B
:1007000020B12068016821F00801016094F85C10B4
:100710003F208840A86084F8358084F83490216DAB
:100720001FE0E16B09B120468847606D00282BD09F
:10073000606DC00714D0052084F83500206801687A
:1007400021F0010101600098401C0090B84203D8DC
:1007500020680068C007F6D184F8358084F83490AA
:10076000E16C002910D001B02046BDE8F0430847F5
:100770000168C905D5D4016821F01001016084F831
:10078000358084F83490CCE7BDE8F883000300207E
:100790002DE9F041044600F09FF906465CB10220C5
:1007A00084F83500002584F834502068016821F071
:1007B000010101600DE00120BDE8F08100F08CF93D
:1007C000801B052805D920206065032084F83500AA
:1007D000F2E720680068C007F0D12268116820485D
:1007E0000140D4E901031843D4E9033633431843E5
:1007F00063691843A3691843E3691843236A1843DC
:100800000843616A042903D1D4E90B13194308434F
:10081000106020684069666A20F0070130460E4388
:10082000012704280CD1A06A0643E06A40B12046A3
:10083000FFF742FE20B14020606584F83570BAE7CA
:10084000206846612046FFF723FE94F85C203F2194
:1008500091408160656584F835700020ACE7000048
:100860003F8010F02DE9F0410446866D90F8340089
:10087000002501280DD0012084F8340094F835704B
:100880000020012F07D084F8340002252846BDE857
:10089000F0810220FBE7022784F83570606520466E
:1008A000FFF734FE94F85C103F208840B060206869
:1008B000016841F016010160206C20B120680168D8
:1008C00041F0080101602068016841F00101016008
:1008D000DCE700002DE9F84FDFF8BCA1002201257C
:1008E00003264FF00F090AF1040BAAF1040E00BF12
:1008F0000B6805FA02F42340A34270D10F7907F088
:100900000307012F01D0022F16D187684FEA420852
:1009100006FA08FC27EA0C07D1F80CC00CFA08FC10
:100920004CEA070CC0F808C04768A7430C79C4F329
:10093000001494403C4344600C79E443A4070AD07B
:10094000C4684FEA420C06FA0CF7BC438F6807FAFA
:100950000CF72743C7600C7904F00304022C12D172
:10096000D40800EB840CDCF820405707FF0E09FA8E
:1009700007F824EA0804D1F8108008FA07F848EAD2
:100980000408CCF8208004684FEA420C06FA0CF701
:10099000BC430F7907F0030707FA0CF727430760FA
:1009A0004C6814F4403F70D03C4C276847F48047B3
:1009B0002760246822F0030704F480440094384C34
:1009C00007EB040CDCF8084897074FEA177809FA98
:1009D00008F7BC43334FB84202D1002724E054E06B
:1009E000314FB84201D101271EE0304FB84201D14A
:1009F000022719E02E4FB84201D1032714E02D4FF2
:100A0000B84201D104270FE02B4FB84201D105278E
:100A10000AE02A4FB84201D1062705E0284FB84224
:100A200001D1072700E0082707FA08F72743CCF889
:100A30000878DAF800405746D1F804C09C435FEAD2
:100A4000CC2C00D51C433C60DBF800405F46D1F85D
:100A500004C09C435FEA8C2C00D51C433C60DEF84C
:100A600000407746D1F804C09C435FEA8C3C00D537
:100A70001C433C60084F083F3C68D1F804C09C43CD
:100A80005FEACC3C00D51C433C60521C102AFFF4AA
:100A90002FAFBDE8F88F0000083C01404438024009
:100AA0000030014000000240000402400008024003
:100AB000000C0240001002400014024000180240E6
:100AC000001C02400069084000D0012070470AB1B4
:100AD000816170470904FBE70148806870470000A6
:100AE000F402002002488168027811448160704756
:100AF000F40200200B4810B5016841F40071016058
:100B0000016841F480610160016841F48071016015
:100B1000032000F06FF80F2000F006F800F024F832
:100B2000002010BD003C024070B50D4D04464FF44E
:100B30007A712878B1FBF0F00A490968B1FBF0F04E
:100B400000F00CFB48B9102C07D200222146501EA1
:100B500000F030F800206C6070BD012070BD000016
:100B6000F4020020000300200A4808B5016841F49F
:100B700080410160006800F4804000900548001F3B
:100B8000016841F080510160006800F080500090E1
:100B900008BD000044380240002809DB00F01F02B5
:100BA000012191404009800000F1E020C0F80011CF
:100BB00070470000F0B40E4B1B680C46C3F30223D1
:100BC000C3F10705042D00D90425191D072901D2F9
:100BD000002300E0DB1E012606FA05F1491E214034
:100BE00099409E40761E16403143F0BC01F005BC92
:100BF0000CED00E0064900F0070208684FF6FF031D
:100C0000184040EA0220034A104308607047000081
:100C10000CED00E00000FA052DE9F0470E46050056
:100C200065D0DFF81481D8F80000F7B200F00700B3
:100C3000B04207D288F80070D8F8000000F0070032
:100C4000B04254D128683D4C810712D5400703D5E6
:100C5000206840F4E05020602878000703D5206821
:100C600040F4604020602068A96820F0F00008434C
:100C700020602878C0072DD03049686808390128DD
:100C800012D0022813D0032811D00968890700293F
:100C90002DDA216821F0030101432160FFF71CFFD9
:100CA000814641F2883A0EE009688903EFE7096856
:100CB0008901ECE7FFF710FFA0EB0901514502D9CC
:100CC0000320BDE8F0872068696800F00C00B0EBF5
:100CD000810FEFD1D8F80010404601F00701B14272
:100CE00007D90770006800F00700B04201D001206A
:100CF000E7E72878400705D52068E96820F4E05048
:100D0000084320602878000706D52068296920F468
:100D1000604040EAC100206000F038F82168084ACD
:100D2000C1F30311515CC8400649086006480068D9
:100D3000FFF7FAFE0020C4E7003C024008380240FA
:100D40006A5D000800030020F802002004480549FD
:100D500000680968044AC1F38221515CC8407047A9
:100D600000030020083802407A5D00080448054965
:100D700000680968044AC1F34231515CC8407047B9
:100D800000030020083802407A5D0008154810B5BD
:100D9000006810F00C02144813D01449042A0FD034
:100DA000082A0ED10F4C241F2268236802F03F024C
:100DB0005B0207D52068C0F38810A0FB010106E0A4
:100DC000084610BD2168C1F38811A1FB0001002372
:100DD000FFF76AFA2168C1F30141491C4900B0FBE1
:100DE000F1F010BD083802400024F40040787D0185
:100DF0002DE9F84F04006ED02078DFF84C93C0073F
:100E0000A9F104054AD009F104000168C1F3810188
:100E1000012908D00068C0F3810002280AD1D9F85E
:100E20000000400206D52868800337D56068002896
:100E3000E1D033E06068B0F5803F10D0B0F5A02F6E
:100E4000286810D020F480302860286820F48020A2
:100E500028606068A8B1FFF73FFE06460DE02868ED
:100E600040F48030F4E740F480202860F7E700BFCA
:100E7000FFF732FE801B642873D828688003F7D5FB
:100E80000CE0FFF729FE064605E000BFFFF724FE51
:100E9000801B6428F0D828688003F7D42078DFF816
:100EA000AC8280074FF0000A3ED5A748001D0168BC
:100EB00011F00C0F08D00068C0F3810002280BD19C
:100EC000D9F80000400207D42868800716D5E068EA
:100ED000012800D112E033E1E068B8B10120C8F880
:100EE0000000FFF7F9FD064605E000BFFFF7F4FD3F
:100EF000801B0228C0D828688007F7D52868216998
:100F000020F0F80040EAC10028600DE0C8F800A019
:100F1000FFF7E2FD064604E0FFF7DEFD801B022836
:100F20001FD828688007F7D42078000722D5864F7D
:100F300087486169703771B101210160FFF7CCFD0D
:100F4000064604E0FFF7C8FD801B022809D8386870
:100F50008007F7D50EE0C0F800A0FFF7BDFD0646FC
:100F600005E082E0FFF7B8FD801B02287DD83868D5
:100F70008007F7D42078400768D5DFF8CCB1002788
:100F80000BF13C0BDBF80000C0000BD4DBF80010C9
:100F900041F08051CBF80010DBF80000012700F091
:100FA000805000906B4E3068C00510D4306840F41B
:100FB00080703060FFF790FD009005E0FFF78CFD3A
:100FC0000099401A022850D83068C005F6D55E4E08
:100FD000A0686C3601280FD00528306810D020F0AA
:100FE00001003060306820F004003060A068B8B1C3
:100FF000FFF772FD00900FE0306840F00100F4E769
:1010000040F004003060F7E7FFF766FD0099411AF1
:1010100041F28830814266D830688007F4D50EE00E
:10102000FFF75AFD009007E0FFF756FD0099411ABF
:1010300041F28830814256D830688007F4D42FB10D
:10104000DBF8001021F08051CBF80010A069C8B384
:101050003D49091D0968C1F3810102294AD00228CE
:10106000504607D0C8F8600000E03CE0FFF734FDD0
:1010700004463BE04746C8F86000FFF72DFD0646F2
:1010800005E000BFFFF728FD801B02282BD8286849
:101090008001F7D4D4E907010843A16A2E4A490820
:1010A00002EB0141626A41EA8211084394F82C1074
:1010B00040EA0161C9F8001001203866FFF70CFD15
:1010C000044606E03EE000BFFFF706FD001B0228D5
:1010D00009D828688001F7D534E000BFFFF7FCFC91
:1010E000001B022802D90320BDE8F88F2868800180
:1010F000F4D427E00128F7D0D9F80000E26900F421
:10110000800191421CD1226A00F03F01914217D127
:1011100047F6C071626A0140B1EB821F10D1A26A2A
:101120004FF0FF3300F4403103EB5202B1EB024FBA
:1011300006D194F82C1000F07060B0EB016F01D074
:101140000120D1E70020CFE70438024000004742E9
:10115000800E4742007000400000FFFF10B5401EA7
:10116000B0F1807F01D3012010BD4FF0E024606119
:101170000F21601701F041F90020A06107202061D4
:10118000002010BD70B590F83C20012A32D0012417
:1011900080F83C40022280F83D2003685A689D6830
:1011A00022F070060A6832435A60134B02689A4272
:1011B00014D0B2F1804F11D0104B9A420ED0104B88
:1011C0009A420BD00F4B9A4208D00F4B9A4205D04F
:1011D0000E4B9A4202D00E4B9A4204D1496825F038
:1011E00080031943916080F83D40002180F83C1055
:1011F000084670BD022070BD0000014000040040A0
:1012000000080040000C0040000401400040014084
:101210000018004010B5040003D094F83D0010B150
:1012200007E0012010BD002084F83C00204600F0BB
:101230001FF8022084F83D00211D206800F08CFC7E
:10124000012084F8460084F83E0084F83F0084F8CA
:10125000400084F8410084F8420084F8430084F898
:10126000440084F8450084F83D00002010BD0000D3
:1012700008B500680649884208D10648016841F06F
:1012800001010160006800F00100009008BD00004D
:10129000000001404438024070B5044690F83C001C
:1012A0000025012817D0012684F83C60022084F82C
:1012B0003D002068826822F0770222F47F4282603B
:1012C0000868502838D00DDC20284FD005DC90B3BA
:1012D000102811D14AE0022070BD302846D04028A5
:1012E0000AD13BE060282FD070280DD0B0F5805F88
:1012F00003D0B0F5005F12D0012584F83D600020D6
:1013000084F83C00284670BDCB68D1E901212068F3
:1013100000F08EFC2068816841F0770109E0CB681D
:10132000D1E90121206800F083FC2068816841F444
:1013300080418160E1E719E0CA684968206800F0EF
:1013400089FC5021206806E0CA684968206800F0DE
:1013500092FC6021206800F075FCCEE7CA684968FD
:10136000206800F077FC40212068F4E722680146FD
:101370001046F0E7704710B504460068406994F8DD
:101380004110C0F3C010212911D180B12068143060
:1013900050E8001F21F0800140E80012002AF5D13A
:1013A000A06B08B1FFF7C9F8204600F042FD2068A5
:1013B000406994F84210C0F38010222911D180B105
:1013C0002068143050E8001F21F0400140E800126E
:1013D000002AF5D1E06B08B1FFF7AFF8204600F026
:1013E00001FD002010BD7047F8B50168044608688B
:1013F000CA684B6910F00F0F4FF000055AD003F088
:10140000010602F49077374365D0C10705D0D105B6
:1014100003D5616C41F001016164410705D5D9072D
:1014200003D0616C41F002016164810705D5D907E1
:1014300003D0616C41F004016164010707D502F03B
:101440002001314303D0616C41F008016164616C9B
:1014500000293BD0800604D5900602D5204600F036
:10146000F6FC20684069616CC0F3801001F008014F
:10147000014320462BD000F0B5FC206840694006AF
:1014800021D52068143050E8001F21F0400140E8C9
:101490000012002AF5D1E06BA8B16E490165E06B3E
:1014A000FFF794F8002811D0E06B016D01B0BDE8A2
:1014B000F040084783060ED593060CD52046BDE8BC
:1014C000F84000F0C4BC2046FFF78DFFF8BDFFF7E1
:1014D0008AFF6564F8BD266B2023012E7DD1C606E8
:1014E0007BD5D60679D508684868009048694FF0E2
:1014F0000206400641D5E16B086840680004000C14
:10150000E8D0A28D8242E5D9E085C869B0F5807F38
:101510002DD020680C3050E8001F21F4807140E885
:101520000012002AF5D12168143151E8000F20F093
:10153000010041E80002002AF5D12068143050E88B
:10154000001F21F0400140E80012002AF5D184F884
:101550004230256320680C3050E8001F21F0100154
:1015600040E80012002AF5D1E06BFEF7E6FF666363
:10157000A08DE18D401A81B22AE0A08DE18D401A44
:1015800081B2E08D0028A5D00029A3D022680C32BA
:1015900052E8000F20F4907042E80007002FF5D1C8
:1015A0002068143050E8002F22F0010240E80027A4
:1015B000002FF5D184F84230256320680C3050E8C4
:1015C000002F22F0100240E80023002BF5D16663C3
:1015D0002046FFF7CFFEF8BDFFE705062BD5150621
:1015E00029D594F841002128F5D1A068B0F5805F95
:1015F00001D12069B0B1206A411C216221680078C4
:101600004860E08C401E0004000CE084E3D12068B8
:10161000C16821F08001C1602068C16841F04001CB
:10162000C160D8E7206A0088C0F308004860206ADB
:10163000801C2062E5E74006CDD55006CBD5CA68B0
:10164000204622F04002CA6084F8413000F0F4F8ED
:10165000C1E700009B1C000870B5040004D094F89A
:101660004100002510B106E0012070BD84F8405013
:10167000204600F023F8242084F841002068C16847
:1016800021F40051C160204600F042FC206801694D
:1016900021F4904101612068416921F02A014161F2
:1016A0002068C16841F40051C1606564202084F85D
:1016B000410084F842006563002070BD2DE9F041CF
:1016C00086B0064614216846FEF765FE2F4930684D
:1016D000884258D12E480024016841F01001016071
:1016E000006800F01000059029481438016841F0A6
:1016F000020101600068694600F002000590C02008
:1017000000900220CDE901040320039007200490FB
:101710002048FFF7DFF8214D1F484FF00067286091
:10172000C5E901744FF48068C5E903486C61AC6198
:10173000EC612C6228466C62FFF72AF808B1FEF7CC
:10174000FAFEF563AE63154D134860357830E5E871
:1017500002074020A5E81101104845F814496030FF
:10176000AC61EC612C626C62FFF712F808B1FEF715
:10177000E2FEB563002211462520AE63FFF71AFA98
:101780002520FFF709FA06B0BDE8F08100100140FE
:10179000443802400004024040640240F803002044
:1017A00090F84230202B01D00220704721B11AB1AD
:1017B0000023036300F032BC01207047704770477C
:1017C00070B5044690F84100202801D0022070BD79
:1017D00049B342B32162A284E284002060642123E1
:1017E00084F84130A56B114BEB63A56B104B2B6458
:1017F000A56B104BEB64A36B1865256813462A1D77
:10180000A06BFFF72FF821686FF040000860206898
:10181000143050E8001F41F0800140E80012002A17
:10182000F5D1002070BD012070BD0000991D000899
:10183000DB1D0008AB1C000870477047FEE7000086
:101840000D4808B5016841F480010160006800227C
:1018500000F48000009011463A20FFF7ABF93A20DF
:10186000FFF79AF9002211464620FFF7A3F9BDE8D9
:1018700008404620FFF790B9303802402DE9F04F7C
:1018800087B014216846FEF786FD58480024016899
:1018900041F010010160016801F01001059101683B
:1018A00041F004010160016801F004010591016843
:1018B00041F080010160016801F08001059101683B
:1018C00041F001010160016801F001010591016829
:1018D00041F002010160016801F002010591016817
:1018E00041F0080101600068DFF804A100F0080081
:1018F00040F6F6650590002229465046FFF7E7F8C6
:10190000DFF8F0B04FF46C76002231465846FFF70E
:10191000DEF84FF40047002239463748FFF7D7F882
:10192000DFF8D8904FF44068002241464846FFF760
:10193000CEF800221C213248FFF7C9F87C20CDE9FF
:10194000000469462C480294FEF7C4FF40F60140AB
:10195000CDE90004694658460294FEF7BBFF0095A6
:101960000125CDE90154694650460394FEF7B2FFC4
:101970000096CDE90154694658460394FEF7AAFF44
:10198000CDE90054694648460294FEF7A3FF00974C
:10199000CDE90154694618480394FEF79BFFCDF842
:1019A0000080CDE90154694648460394FEF792FF52
:1019B0004FF41040CDE90004694611480294FEF747
:1019C00089FF2802CDE90004694650460294FEF7DB
:1019D00081FF1C200090CDE901546946084803941A
:1019E000FEF778FF07B0BDE8F08F00003038024006
:1019F00000000240000802400010024000040240C3
:101A0000000C024010B586B00024174800940194E1
:101A1000029403940494134905940160A721C0E93A
:101A2000011442F20F71C0E9031444618461FFF7AD
:101A3000F1FB08B1FEF77FFD4FF48050009069463E
:101A40000948FFF729FC08B1FEF775FD049404A9C5
:101A500005480594FFF796FB002801D0FEF76BFDC3
:101A600006B010BD00000140680300200C4810B50E
:101A70000A4901604FF4E1314160002181600C228C
:101A8000C160C0E904128161C161FFF7E5FD002872
:101A900003D0BDE81040FEF74EBD10BD0010014060
:101AA000B0030020FEE7FEE770477047FFF71AB863
:101AB00030B593B030216846FEF76DFC14210CA8B8
:101AC000FEF769FC1E480025016841F08051016065
:101AD000006800F0805011901A48016841F480417C
:101AE00001600068022400F4804011900120009001
:101AF000000401908001CDE90640192008904FF4C0
:101B0000A870CDE9090404200B906846FFF770F92E
:101B100008B172B6FEE70CA90F2081E831004FF43E
:101B2000A0500F904FF48050109005210CA8FFF7A3
:101B300073F8002801D072B6FEE713B030BD000084
:101B400040380240007000400248016841F47001D2
:101B50000160704788ED00E0F0B50268294C2A4D1D
:101B60002A4E2B4F2B4B4FF0804CA04209D06045A2
:101B700007D0A84205D0B04203D0B84201D0984265
:101B800004D122F0700E4A6842EA0E02A0421BD035
:101B9000604519D0A84217D0B04215D0B84213D032
:101BA000984211D01C4DA8420ED01C4DA8420BD01B
:101BB0001B4DA84208D01B4DA84205D01A4DA84283
:101BC00002D01A4DA84203D122F44075CA682A43B4
:101BD0004D6922F080022A4302608A68C2620A6864
:101BE0008262A04201D0984201D1096901630121BA
:101BF00041610169C90703D0016921F00101016157
:101C0000F0BD00000000014000040040000800405A
:101C1000000C00400004014000400140004401402D
:101C20000048014000180040001C00400020004017
:101C300010B5846842EA032224F47F440A43224315
:101C4000826010BD826822F070020A4342F00701F0
:101C50008160704710B5036A046A24F001040462CD
:101C6000846924F0F00444EA021423F00A020A43CF
:101C70008461026210BD10B5036A046A24F0100486
:101C80000462846923F0A00324F4704444EA02321D
:101C900043EA01118261016210BD10B5806B002121
:101CA000C185C184FFF79FFB10BD70B5846B2068B0
:101CB000406994F84110C0F3C0100025212904D1D7
:101CC00018B1E584204600F0B4F82068406994F823
:101CD0004210C0F38010222904D118B1E5852046B6
:101CE00000F080F8606C40F0100060642046FFF760
:101CF0007AFB70BD10B50146806B096809684FF02A
:101D00000002C9052ED4C28501680C3151E8003F9C
:101D100023F4807341E80034002CF5D101681431BC
:101D200051E8003F23F0010341E80034002CF5D1D5
:101D30000168143151E8003F23F0400341E80034CA
:101D4000002CF5D1202180F84210016B012909D126
:101D500001680C3151E8003F23F0100341E80034E2
:101D6000002CF5D14263016B012902D0FFF726FD5B
:101D700010BD818DFFF7FEFA10BD10B5806B0121FB
:101D80004163016B012902D0FFF719FD10BD818D60
:101D90004908FFF7EFFA10BD10B50146806B0968DE
:101DA0000968C90516D40021C1840168143151E8BD
:101DB000002F22F0800241E80023002BF5D10168BA
:101DC0000C3151E8002F42F0400241E80023002B83
:101DD000F5D110BDFFF730FD10BD10B5806BFFF7DA
:101DE0002CFD10BD01680C3151E8002F22F49072D7
:101DF00041E80023002BF5D10168143151E8002F90
:101E000022F0010241E80023002BF5D1016B0129EA
:101E100009D101680C3151E8002F22F0100241E88D
:101E20000023002BF5D1202180F84210002101630E
:101E3000704701680C3151E8002F22F0C00241E8E0
:101E40000023002BF5D1202180F84110704708B500
:101E500090F84210222901D0022008BD82684FF478
:101E600080539A4201D1016921B1816A9A421BD003
:101E70004AB10AE00268816A5268C2F308020A8025
:101E8000816A891C08E0026972B10268526802F036
:101E90007F020A70816A491C8162C18D491E090452
:101EA000090CC18503D01BE002685268F1E70168A4
:101EB000CA6822F02002CA600168CA6822F48072EF
:101EC000CA6001684A6922F001024A61202180F853
:101ED000421000214163026B012A03D0FFF76EFC20
:101EE000002008BD016301680C3151E8002F22F089
:101EF000100241E80023002BF5D101680A68D206E0
:101F000002D50A6849680091818DFFF733FAE7E747
:101F100070B5044600680169E26821F4405111433C
:101F200001612169A068E2690843616911430843BE
:101F30002168CA6849F20C639A430243CA60206868
:101F40004169A26921F4407111434161314920681E
:101F5000884202D03049884202D1FEF707FF01E0F3
:101F6000FEF7F4FEE2690023192164253226B2F55A
:101F7000004F626828D0A0FB0101930F9200FEF78A
:101F800093F90146B0FBF5F06FF01802504301EBF6
:101F9000800006EB0010B0FBF5F000F0F002B1FBA2
:101FA000F5F002EB0012B1FBF5F06FF018035843A7
:101FB00001EB800006EB0010B0FBF5F000F00F0025
:101FC00021681044886070BDA0FB010192185B413C
:101FD000FEF76AF90146B0FBF5F00201B1FBF5F03E
:101FE0006FF01803584301EB800006EBC000B0FB14
:101FF000F5F000F0F80002EB4002B1FBF5F05843B9
:1020000001EB800006EBC000B0FBF5F000F007002C
:10201000D6E70000001001400014014038B581628D
:1020200004468285002013466064222284F8422000
:10203000E56B1B4AEA63E56B1A4A2A64E56B1A4AA8
:10204000EA64E26B10650A462168E06B091DFEF741
:1020500009FC2068016840680090206948B1206848
:102060000C3050E8001F41F4807140E80012002A53
:10207000F5D12068143050E8001F41F0010140E81C
:102080000012002AF5D12068143050E8001F41F0FA
:10209000400140E80012002AF5D1002038BD0000C0
:1020A000F51C00087B1D0008AB1C000810B5B348E8
:1020B0002DED068B86B0FFF797F9B04C20680168CC
:1020C000C943C9067DD40168406800902046FFF7E7
:1020D00052F9E06B00684068AA4CC0F16400C1B2DC
:1020E000A7480170207888426CD1204600F0DDFDC1
:1020F000002867D06078062864D2DFE800F0630328
:1021000015CAE2FDA078012804D19F4A9F49A04842
:1021100000F08AFE9FA000680090684600F014FC62
:1021200001469DF8002017E12079E17800EB0120BD
:1021300003F0CCFA41EC180BA0789FED97AB9FED24
:10214000989B01280AD0022824D0032841D09FED73
:1021500096AB112859D0122874D090E053EC192B6B
:1021600051EC180B03F0C6FA03D2B0EE498AF0EE38
:10217000698AB0EE4A9AF0EE6A9A53EC192B51EC48
:10218000180B03F0F1FB03D2B0EE498AF0EE698A36
:102190007D4872E053EC192B51EC180B03F0AAFAAE
:1021A00003D2B0EE498AF0EE698AB0EE4A9AF0EEB8
:1021B0006A9A53EC192B51EC180B03F0D5FB06D29D
:1021C00001E0D6E0CBE0B0EE498AF0EE698A7048D3
:1021D00053E053EC192B51EC180B03F08BFA03D29C
:1021E000B0EE498AF0EE698AB0EE4A9AF0EE6A9A49
:1021F00053EC192B51EC180B03F0B6FB03D2B0EEE5
:10220000498AF0EE698A614837E053EC192B51ECAA
:10221000180B03F06FFA03D2B0EE498AF0EE698A28
:10222000B0EE4A9AF0EE6A9A53EC192B51EC180B67
:1022300003F09AFB03D2B0EE498AF0EE698A5C485B
:102240001BE0FFE753EC192B51EC180B03F052FA8B
:1022500003D2B0EE498AF0EE698AB0EE4A9AF0EE07
:102260006A9A53EC192B51EC180B03F07DFB03D247
:10227000B0EE498AF0EE698A4E4880ED088B4EA098
:102280000068019001A800F05FFB01469DF8042062
:1022900062E0A07801280AD1E078012802D0022863
:1022A00003D004E000F0B0FD01E000F0B5FD43A074
:1022B0000068029002A800F047FB01469DF8082044
:1022C0004AE0A07803F002FA41EC180BE07803F042
:1022D000FDF941EC190B207903F0F8F941EC120BF0
:1022E000294A2A492A48B0EE491AF0EE691AB0EE96
:1022F000480AF0EE680A00E00BE000F05BFD30A059
:102300000068039003A800F01FFB01469DF80C2015
:1023100022E0E078012816D0022814D0032812D138
:102320006079217900EB012003F0D0F941EC100B2A
:10233000A078112802D0122802D004E01C4800E046
:102340001C4800F049FD1FA00068049004A800F09C
:10235000FBFA9DF8102001460848FFF731FA06B055
:102360006422BDEC068BBDE8104006490348FFF728
:1023700017BA06B0BDEC068B10BD0000B0030020FC
:10238000F000002004030020000000206000002076
:1023900030000020050101000000000000407F40E7
:1023A00000000000000049400000000000409F4085
:1023B00090000020C000002005020100050301007C
:1023C0000504010005050100FEE703B40198410082
:1023D000009850EAC12018BF04204A0D18BF40F0F1
:1023E000010040F2FF72B2EB515F08BF40F0020003
:1023F000012808BF052002B070470907090E002810
:1024000004DB00F1E02080F80014704700F00F00BA
:1024100000F1E02080F8141D70470000000000006B
:1024200070B5C1482DED020B2DED0E8B82B0119DC4
:1024300025F000449FEDBEDB9FEDBFEB84423EDB09
:10244000A4F140511098A1F17F6108430FD0BC481E
:10245000844202DC28D1109830B39DED100B02B0FD
:10246000BDEC0E8B02B0BDE8704000F042BA9DEDAD
:10247000100B53EC1D2B51EC100B03F077F99DED75
:10248000100B41EC180B53EC1E2B51EC100B03F00E
:102490006DF953EC182B02F0C7FE41EC100B02B0A3
:1024A000BDEC0E8B02B070BD0120FDF7A3FF02B0A2
:1024B000BDEC0E8B02B0BDE8704000F025BAA1481B
:1024C0009FEDA18B844256DA9DED100BB4F1795F3C
:1024D0000ADA51EC100BFFF778FF042808BF00F070
:1024E00023FA9DED100BDAE753EC102B51EC100B97
:1024F00003F03CF941EC190B95480621B0EE490A6E
:10250000F0EE690A784400F078F953EC192B51EC9D
:10251000100B03F02BF941EC1A0B8E48B0EE490A70
:10252000F0EE690A0421784400F067F953EC192BA6
:1025300051EC100B03F01AF953EC182B02F074FE57
:1025400041EC100B51EC1A0B53EC102B02F020FF56
:10255000CDE900019DED000B53EC102B9DED100B10
:1025600051EC100B03F002F99DED101B53EC112BF5
:1025700002F05AFED2E09DED100B51EC100B00F072
:10258000E5FB53EC182B03F025FA9FED730BCDE917
:10259000000153EC102B9DED000B51EC100B03F0E0
:1025A000E5F841EC190B6E480621B0EE490AF0EE51
:1025B000690A784400F021F953EC192B51EC100B07
:1025C00003F0D4F841EC1B0B6648B0EE490AF0EE7C
:1025D000690A0421784400F010F953EC192B51ECEE
:1025E000100B03F0C3F853EC182B02F01DFE41EC66
:1025F0001C0B51EC190B00F013FD41EC180B5A4861
:102600009FED5BABA04222DC53EC1C2B51EC1B0B6F
:1026100002F0BEFECDE900019DED000B51EC180B60
:1026200053EC102B03F0A2F853EC182B02F0FCFD36
:1026300053EC1A2B03F09AF853EC1D2B03F0A2FA7B
:1026400053EC1E2B03F0C6F941EC100B5FE08DED4F
:10265000008B002000909DED000B51EC180B53EC0B
:10266000102B02F0E1FD9DED000B41EC1E0B53EC35
:10267000102B51EC100B03F079F853EC192B03F0ED
:10268000A9F953EC1E2B02F083FE41EC190B53EC1D
:102690001C2B51EC1B0B02F07BFE41EC1B0B53EC93
:1026A0001A2B51EC190B03F061F853EC1D2B03F0BE
:1026B00091F941EC190B53EC1A2B51EC180B03F068
:1026C00055F853EC1B2B03F051F853EC192B03F086
:1026D00059FA9DED000B41EC180B53EC1A2B51EC01
:1026E000100B03F043F89FED249B53EC192B03F0E0
:1026F00071F941EC100B51EC180B53EC102B03F05B
:1027000041FA53EC192B03F065F941EC100B002D45
:102710003FF7C5AE51EC100B02F07AFD41EC100B07
:10272000BDE60000000000000000F03F00000000D7
:10273000075C143326A6913C182D4454FB21F93F25
:102740000000F07F0000E03F000000000000F03FCC
:10275000803800008E380000000000000000E03FDC
:10276000D2370000E03700003333EF3F00000000B5
:102770000000000000000040182D4454FB21E93FF8
:1027800000B52DED048BB0EE409AF0EE609A83B068
:1027900051EC190B03F02AF941EC180B18EE100A52
:1027A00018EE901A8DED008B002818BF0120084309
:1027B00020F00040C0F17F6000F1E040C00F14D075
:1027C00019EE101A19EE900A8DED009B002918BF22
:1027D0000121084320F00040C0F17F6000F1E0409B
:1027E000C00F04BF0120FDF705FEB0EE480A03B09C
:1027F000F0EE680ABDEC048B00BD70B504462DED0B
:10280000028B4D1E00EBC500B0EE408AF0EE608AF0
:1028100090ED000B35F0060017D053EC182B51EC5F
:10282000100B02F0A3FF41EC100B6D1E04EBC50072
:1028300090ED001B51EC100B53EC112B02F0F4FC4B
:1028400041EC100B35F00600E7D1022D36D0042DF7
:102850001CD0062D1CBFBDEC028B70BD53EC182B99
:1028600051EC100B02F082FF94ED0A1B53EC112B7C
:1028700002F0DAFC53EC182B02F078FF94ED081B01
:1028800053EC112B02F0D0FC41EC100B53EC182B45
:1028900051EC100B02F06AFF94ED061B53EC112B68
:1028A00002F0C2FC53EC182B02F060FF94ED040B15
:1028B00053EC102B02F0B8FC41EC100B53EC182B2E
:1028C00051EC100B02F052FF94ED021B53EC112B54
:1028D00002F0AAFC53EC182B02F048FF94ED001B09
:1028E00053EC112B02F0A0FCBDEC028B41EC100B61
:1028F00070BD10B553EC102B51EC100B02F094FC92
:1029000041EC100B10BD00009FED050B10B553EC12
:10291000102B51EC100B02F03BFD41EC100B10BDE5
:1029200000000000000000009FED050B10B553EC07
:10293000102B51EC100B02F019FF41EC100B10BDE5
:10294000000000000000001030B599B000246D4672
:1029500002E0015D2955641C0178891EA142F8DC62
:102960000078801EC1B2284600F0A8F9010A295556
:1029700029194870684619B030BD00002DE9F041B2
:1029800014462DED108B0D460646B0EE429AF0EE41
:10299000629AB0EE41DAF0EE61DAB0EE40BAF0EEF3
:1029A00060BA9FED75AB9FED76EB9FED77FB9FEDEA
:1029B000788B51EC1B0B53EC182B02F0D5FF7DD319
:1029C0009FED750B51EC1B0B53EC102B02F092FE9C
:1029D00074D353EC1A2B51EC1D0B02F0C5FF6DD3D1
:1029E00053EC1E2B51EC1D0B02F084FE66D353EC0E
:1029F000182B51EC190B02F0B7FF5FD353EC1F2BD0
:102A000051EC190B02F076FE58D353EC182B51EC15
:102A10001B0B02F0BDFC41EC100BFFF701FD53EC6A
:102A2000182B51EC100B02F0A1FE9FED5D1B53EC37
:102A3000112B02F0ADFC41EC1C0B9FED5B0B53EC3A
:102A4000102B02F093FE884648EC100B074653EC1F
:102A5000182B51EC100B02F0BDFF41EC1B0B9FED4E
:102A6000460B51EC1C0B53EC102B03F08BF853EC82
:102A70001D2B02F0D9FB41EC1A0B9FED3F0B53ECE1
:102A8000102B02F071FF28D353EC1E2B51EC1A0BC4
:102A900002F030FE21D39FED460B51EC1B0B53ECA3
:102AA000102B02F061FF18D39FED430B51EC1B0B71
:102AB00053EC102B02F01EFE0FD300E057E053EC56
:102AC000182B51EC190B02F04FFF06D353EC1F2BC0
:102AD00051EC190B02F00EFE43D248EC107B53EC84
:102AE000182B51EC100B03F04DF853EC1C2B9FED01
:102AF00022CB41EC1B0B51EC1C0B03F043F853ECC5
:102B00001D2B02F091FB41EC1A0B53EC1C2B02F035
:102B10002BFF2CD353EC1E2B51EC1A0B02F0EAFDC9
:102B200025D351EC1B0B9FED220B53EC102B02F025
:102B30001BFF1CD351EC1B0B9FED1F0B53EC102BF9
:102B400002F0D8FD13D353EC182B51EC190B02F003
:102B50000BFF0CD353EC1F2B51EC190B02F0CAFDE9
:102B600005D386ED00AB85ED00BB84ED009BBDEC8D
:102B7000108BBDE8F081000000000000008056408E
:102B800000000000008056C000000000000054401B
:102B9000000000000080664000000000000052407D
:102BA000182D4454FB2109400000000000000040A3
:102BB0000000000000A060400000000000A060C015
:102BC00010B590ED020B90ED041B53EC102B51EC63
:102BD000110B02F0D7FF9FED0B1B53EC112B02F0F2
:102BE000C5FD9FED0A1B53EC112B02F0BFFD9FEDBD
:102BF000091B53EC112B02F0CBFBBDE8104002F097
:102C00001FBD00000000000000003E40000000006A
:102C100000002040CDCCCCCCCCCCFC3F10B590ED0E
:102C2000020B90ED041B53EC102B51EC110B02F036
:102C3000A9FF9FED0E1B53EC112B02F0A9FB9FED9A
:102C40000D1B53EC112B02F091FD9FED0C1B53EC6F
:102C5000112B02F08BFD9FED0B1B53EC112B02F09F
:102C600097FBBDE8104002F0EBBC00008FC2F528D6
:102C70005C8FEA3F0000000000003E4000000000C2
:102C800000002040CDCCCCCCCCCCFC3F10B590ED9E
:102C9000020B90ED041B53EC102B51EC110B02F0C6
:102CA00071FFBDE8104002F0CBBC00B500F006F8A3
:102CB00008B1002000BD012000BD000070B5094D25
:102CC000FF22134605F5807606E000BF10F8014BA1
:102CD00054402A5D5A40335D491EC9B2F6D243EAD8
:102CE000022070BDF1000020F0B5002541F2111660
:102CF00042F20F741449B71023E02346984200D8DB
:102D000003460A6855620A68D2F800C04CF0010C0C
:102D1000C2F800C0D1F80020D2F824C09C45FBD3F3
:102D2000D2F820C01CEA060F0AD1D2F820C01CEA53
:102D3000070F05D1D2F800C02CF0010CC2F800C07A
:102D4000C01A0028D9D1F0BD6803002082B0CDE9B7
:102D5000000121F0004001909DED000B02B051EC0C
:102D6000100B7047FDF7C6FEFEF7A2FEFEF786FDCC
:102D7000FEF766FDFEF746FEFEF778FE0A4800689D
:102D8000C16841F01001C160642208490648FEF79D
:102D900007FD00F041F8064A02F16001A1F13000A0
:102DA00000F042F8FEE70000B0030020040300201A
:102DB0000000002070B514460D4606461032103152
:102DC0001030FFF7DBFD204602F01CF929463046A3
:102DD000BDE8704001F0DCBA80ED040B9FED080BFC
:102DE00080ED020B0168042905D0072905D00829C8
:102DF00005D100F0F7BE00F07FBA00F0BBBC704711
:102E00000000000000000000012202210148FDF73F
:102E10005EBE000000000240002202210148FDF7D2
:102E200056BE0000000002402DE9F05F704E924651
:102E30008B4605462DED028B002210213046FDF712
:102E400046FEDFF8B0810022F11447464046FDF708
:102E50003EFEDFF8A4917415002221464846FDF796
:102E600036FE012204213046FDF731FE00222146C4
:102E70003846FDF72CFE012280214846FDF727FE4B
:102E80005E4C12E05A4F012208213846FDF71FFE22
:102E90004FF4FA763046FFF727FF00220821384624
:102EA000FDF715FE3046FFF71FFF10212046FDF706
:102EB00009FE9FED538B4FF48066B7100028E1D0D8
:102EC00095ED020B53EC182B51EC100B02F012FC99
:102ED0002FD811E0012211024F464846FDF7F7FDB9
:102EE000C820FFF701FF00224FF480713846FDF73C
:102EF000EEFDC820FFF7F8FE08212046FDF7E2FDB1
:102F00000028E7D0474604212046FDF7DBFDC0BB83
:102F1000012231463846FDF7DAFDC820FFF7E4FE0E
:102F2000002231463846FDF7D2FDC820FFF7DCFE0F
:102F3000E9E795ED020B53EC182B51EC100B02F066
:102F400013FD1ED211E00122910246464046FDF7D4
:102F5000BEFDC820FFF7C8FE00224FF48061304656
:102F6000FDF7B5FDC820FFF7BFFE04212046FDF7A1
:102F7000A9FD0028E7D04E4608212046FDF7A2FD16
:102F800020B3012210211A48FDF7A1FD0122D10230
:102F90004046FDF79CFD012251024846FDF797FD92
:102FA0009FED190B85ED040B85ED020B9FED180BC2
:102FB0008BED040B8BED020B9FED170B8AED040BD1
:102FC0008AED020BBDEC028BBDE8F09F0122394671
:102FD0003046FDF77CFDC820FFF786FE002239460B
:102FE0003046FDF774FDC820FFF77EFEC4E7000001
:102FF000000C0240000002400008024000100240A5
:10300000000000000000000000000000004059C067
:103010000000000000A0604000000000008066404A
:1030200000B52DED048B83B041EC190B02F0DEFCF2
:1030300041EC180B18EE100A18EE901A8DED008B6B
:10304000002818BF0120084320F00040C0F17F6035
:1030500000F1E040C00F14D019EE101A19EE900ADA
:103060008DED009B002918BF0121084320F000408E
:10307000C0F17F6000F1E040C00F04BF0120FDF708
:10308000B9F951EC180B03B0BDEC048B00BD000086
:103090002DE9F04F924C16462DED0A8B0F46054652
:1030A0004FF4006B81B0B0EE40BAF0EE60BA00228F
:1030B00059462046FDF70BFD8A484FF40041012D8B
:1030C00002D06D1C02D004E0012200E00022FDF7D6
:1030D000FEFC9FED859B9FED86AB4FF48068B74269
:1030E0007ADA384602F0DBFA41EC100B51EC190B9E
:1030F00053EC102B02F04CF941EC180B304602F067
:10310000CEFA41EC100B51EC190B53EC102B02F0E2
:103110003FF941EC1C0B53EC1A2B51EC1B0B02F04A
:1031200025FB814641EC1A0B009153EC1C2B51EC12
:103130001C0B02F01BFB41EC1B0B53EC182B51EC4E
:10314000180B02F013FB53EC1B2B02F01BFD53EC8E
:103150001A2B02F01DF902F073FA0746002637E039
:10316000012241462046FDF7B2FC53EC182B51ECEE
:10317000190B02F00DF98A464AEC100B054651EC8A
:10318000100B02F05DFAFFF7AFFD0022414620462A
:10319000FDF79DFC4AEC105B51EC100B02F050FA6D
:1031A000FFF7A2FD009953EC182B41EC1A9B51EC50
:1031B000180B02F0DBFA53EC1A2B02F0E3FC41ECA3
:1031C000100BFFF7DDFAB0EE408AF0EE608A761C55
:1031D000BE42C5DB7AE0FFE778DD384602F05FFAF1
:1031E00041EC100B51EC190B53EC102B02F0D0F802
:1031F00041EC180B304602F052FA41EC100B51EC46
:10320000190B53EC102B02F0C3F841EC1C0B53ECE0
:103210001A2B51EC1B0B02F0A9FA814641EC1A0B58
:10322000009153EC182B51EC180B02F09FFA41EC73
:103230001B0B53EC1C2B51EC1C0B02F097FA53ECBC
:103240001B2B02F09FFC53EC1A2B02F0A1F802F0AA
:10325000F7F90746002637E0012241462046FDF7F0
:1032600036FC53EC182B51EC190B02F091F88A46FE
:103270004AEC100B054651EC100B02F0E1F9FFF798
:1032800033FD002241462046FDF721FC4AEC105B4D
:1032900051EC100B02F0D4F9FFF726FD009953EC26
:1032A000182B41EC1A9B51EC180B02F05FFA53EC0F
:1032B0001A2B01F0B9FF41EC100BFFF761FAB0EEE9
:1032C000408AF0EE608A761CBE42C5DB01B05946EA
:1032D000BDEC0A8B20460122BDE8F04FFDF7F7BB9D
:1032E0000004024000100240000000000000E03F27
:1032F00000000000000000402DE9F04F05462DEDD4
:103300000C8B81B04668FFF7C1FC040095ED08BB4B
:1033100095ED06ABD5F828A0204601D5764244426B
:103320009FED5ACB51EC1A0B53EC1C2B02F01EFAFA
:10333000834641EC190B5046009102F0B0F98946E2
:1033400049EC110B804653EC112B47469FED518BF6
:1033500051EC180B02F01CF849EC107B41EC1D0BF2
:1033600053EC102B51EC180B02F012F853EC1D2B00
:1033700002F0FCF941EC1D0B53EC1B2B51EC180B2C
:1033800002F006F841EC110B53EC112B02F0EEF9B0
:1033900053EC1D2B02F0F6FB53EC192B01F0F8FF58
:1033A00002F04EF9404204EB4007002F02DD51ECE1
:1033B0001B0B3FE053EC1C2B51EC1B0B02F0D6F91E
:1033C00041EC190B009949EC108B41EC1BBB53EC01
:1033D000102B51EC180B01F0DBFF49EC108B41EC8A
:1033E0001C0B53EC102B51EC180B01F0D1FF53ECDC
:1033F0001C2B02F0BBF941EC1C0B53EC192B51ECCC
:10340000180B01F0C5FF41EC110B53EC112B02F02E
:10341000ADF953EC1C2B02F0B5FB53EC1B2B01F068
:10342000B7FF02F00DF9404204EB4007002F1CDD0E
:1034300051EC190B02F004F904462246514630467D
:10344000B0EE4A0AF0EE6A0AFFF722FE224639463B
:10345000304600F027F8214652463046B0EE4A0A80
:10346000F0EE6A0AFFF714FE04E0524621463046A9
:1034700000F018F89FED090B85ED040B85ED020BAC
:1034800001B0BDEC0C8BBDE8F08F00000000000027
:1034900000000040000000000000E03F00000000CD
:1034A000000000002DE9F0471A4D91460E460446F3
:1034B0004FF40068002241462846FDF708FB1648F5
:1034C0004FF40041012C02D0641C02D004E0012220
:1034D00000E00022FDF7FBFA00244FF480670FE0C4
:1034E00039462846FDF7F3FA4846FFF7FDFB002270
:1034F00039462846FDF7EBFA4846FFF7F5FB641C12
:10350000B4424FF00102EBDB41462846BDE8F047EC
:10351000FDF7DDBA00040240001002402DE9F0473B
:103520008E4C16462DED0A8B0F460546B0EE40BA7E
:10353000F0EE60BA002220212046FDF7C8FA884844
:10354000012D02D06D1C02D005E0012200E0002216
:103550008021FDF7BCFA9FED839B9FED84ABB742C2
:1035600079DA384602F09BF841EC100B51EC190B5C
:1035700053EC102B01F00CFF41EC180B304602F01D
:103580008EF841EC100B51EC190B53EC102B01F0A1
:10359000FFFE41EC1C0B53EC1A2B51EC1B0B02F001
:1035A000E5F88A4680464AEC1A0B53EC1C2B51EC8A
:1035B0001C0B02F0DBF841EC1B0B53EC182B51EC0D
:1035C000180B02F0D3F853EC1B2B02F0DBFA53EC90
:1035D0001A2B01F0DDFE02F033F80746002636E034
:1035E000012210212046FDF772FA53EC182B51EC02
:1035F000190B01F0CDFE894649EC100B054651EC44
:10360000100B02F01DF8FFF76FFB0022102120467F
:10361000FDF75DFA49EC105B51EC100B02F010F86D
:10362000FFF762FB4AEC1A8B53EC182B51EC180B8A
:1036300002F09CF853EC1A2B02F0A4FA41EC100BA8
:10364000FFF79EF8B0EE408AF0EE608A761CBE422C
:10365000C6DB79E0FFE777DD384602F020F841EC81
:10366000100B51EC190B53EC102B01F091FE41ECB7
:10367000180B304602F013F841EC100B51EC190B0B
:1036800053EC102B01F084FE41EC1C0B53EC1A2B75
:1036900051EC1B0B02F06AF88A4680464AEC1A0B82
:1036A00053EC182B51EC180B02F060F841EC1B0B9B
:1036B00053EC1C2B51EC1C0B02F058F853EC1B2B59
:1036C00002F060FA53EC1A2B01F062FE01F0B8FF31
:1036D0000746002636E0012210212046FDF7F7F9C3
:1036E00053EC182B51EC190B01F052FE894649ECB2
:1036F000100B054651EC100B01F0A2FFFFF7F4FA96
:10370000002210212046FDF7E2F949EC105B51EC54
:10371000100B01F095FFFFF7E7FA4AEC1A8B53EC18
:10372000182B51EC180B02F021F853EC1A2B01F076
:103730007BFD41EC100BFFF723F8B0EE408AF0EE72
:10374000608A761CBE42C6DBBDEC0A8B2046012295
:103750002021BDE8F047FDF7BAB90000000802409B
:1037600000000240000000000000E03F00000000F8
:10377000000000402DE9F04F05462DED0C8B81B087
:103780004668FFF783FA040095ED08BB95ED06AB9C
:10379000D5F828A0204601D5764244429FED5ACB69
:1037A00051EC1A0B53EC1C2B01F0E0FF834641EC6B
:1037B000190B5046009101F072FF894649EC110B3C
:1037C000804653EC112B47469FED518B51EC180B63
:1037D00001F0DEFD49EC107B41EC1D0B53EC102B8E
:1037E00051EC180B01F0D4FD53EC1D2B01F0BEFF82
:1037F00041EC1D0B53EC1B2B51EC180B01F0C8FDD9
:1038000041EC110B53EC112B01F0B0FF53EC1D2BCD
:1038100002F0B8F953EC192B01F0BAFD01F010FFDA
:10382000404204EB4007002F02DD51EC1B0B3FE050
:1038300053EC1C2B51EC1B0B01F098FF41EC190BC6
:10384000009949EC108B41EC1BBB53EC102B51EC55
:10385000180B01F09DFD49EC108B41EC1C0B53EC57
:10386000102B51EC180B01F093FD53EC1C2B01F0C5
:103870007DFF41EC1C0B53EC192B51EC180B01F0A4
:1038800087FD41EC110B53EC112B01F06FFF53EC52
:103890001C2B02F077F953EC1B2B01F079FD01F0A2
:1038A000CFFE404204EB4007002F1CDD51EC190B0A
:1038B00001F0C6FE0446224651463046B0EE4A0AA2
:1038C000F0EE6A0AFFF72AFE22463946304600F03B
:1038D00027F8214652463046B0EE4A0AF0EE6A0A10
:1038E000FFF71CFE04E052462146304600F018F86F
:1038F0009FED090B85ED040B85ED020B01B0BDECCE
:103900000C8BBDE8F08F00000000000000000040BC
:10391000000000000000E03F000000000000000088
:103920002DE9F041184D17460E460446002220218D
:103930002846FDF7CCF81548012C02D0641C02D0B3
:1039400005E0012200E000228021FDF7C0F80024FC
:103950000FE010212846FDF7BAF83846FFF7C4F902
:10396000002210212846FDF7B2F83846FFF7BCF9CF
:10397000641CB4424FF00102EBDB2846BDE8F04185
:103980002021FDF7A4B8000000080240000002401A
:103990002DE9F0478E4C16462DED0A8B0F46054655
:1039A000B0EE40BAF0EE60BA002240212046FDF7AA
:1039B0008EF8012D02D06D1C02D006E0012200E03D
:1039C000002210212046FDF782F89FED829B9FED9B
:1039D00083ABB74279DA384601F061FE41EC100B57
:1039E00051EC190B53EC102B01F0D2FC41EC180BED
:1039F000304601F054FE41EC100B51EC190B53EC26
:103A0000102B01F0C5FC41EC1C0B53EC1A2B51ECB4
:103A10001B0B01F0ABFE8A4680464AEC1A0B53ECB6
:103A20001C2B51EC1C0B01F0A1FE41EC1B0B53ECC9
:103A3000182B51EC180B01F099FE53EC1B2B02F0E4
:103A4000A1F853EC1A2B01F0A3FC01F0F9FD074695
:103A5000002636E0012220212046FDF738F853ECFD
:103A6000182B51EC190B01F093FC894649EC100B13
:103A7000054651EC100B01F0E3FDFFF735F900228C
:103A800020212046FDF723F849EC105B51EC100B88
:103A900001F0D6FDFFF728F94AEC1A8B53EC182BEE
:103AA00051EC180B01F062FE53EC1A2B02F06AF88D
:103AB00041EC100BFEF764FEB0EE408AF0EE608A37
:103AC000761CBE42C6DB79E0FFE777DD384601F0C1
:103AD000E6FD41EC100B51EC190B53EC102B01F0EF
:103AE00057FC41EC180B304601F0D9FD41EC100BAE
:103AF00051EC190B53EC102B01F04AFC41EC1C0B60
:103B000053EC1A2B51EC1B0B01F030FE8A46804619
:103B10004AEC1A0B53EC182B51EC180B01F026FE53
:103B200041EC1B0B53EC1C2B51EC1C0B01F01EFE4B
:103B300053EC1B2B02F026F853EC1A2B01F028FC57
:103B400001F07EFD0746002636E0012220212046B6
:103B5000FCF7BDFF53EC182B51EC190B01F018FCCE
:103B6000894649EC100B054651EC100B01F068FD3D
:103B7000FFF7BAF8002220212046FCF7A8FF49EC05
:103B8000105B51EC100B01F05BFDFFF7ADF84AEC58
:103B90001A8B53EC182B51EC180B01F0E7FD53EC8A
:103BA0001A2B01F041FB41EC100BFEF7E9FDB0EEE2
:103BB000408AF0EE608A761CBE42C6DBBDEC0A8B02
:103BC000204601224021BDE8F047FCF780BF0000FD
:103BD00000000240000000000000E03F0000000084
:103BE000000000402DE9F04F05462DED0C8B81B013
:103BF0004668FFF74BF8040095ED08BB95ED06AB62
:103C0000D5F828A0204601D5764244429FED5ACBF4
:103C100051EC1A0B53EC1C2B01F0A8FD834641EC30
:103C2000190B5046009101F03AFD894649EC110B01
:103C3000804653EC112B47469FED518B51EC180BEE
:103C400001F0A6FB49EC107B41EC1D0B53EC102B53
:103C500051EC180B01F09CFB53EC1D2B01F086FD81
:103C600041EC1D0B53EC1B2B51EC180B01F090FB9E
:103C700041EC110B53EC112B01F078FD53EC1D2B93
:103C800001F080FF53EC192B01F082FB01F0D8FC0E
:103C9000404204EB4007002F02DD51EC1B0B3FE0DC
:103CA00053EC1C2B51EC1B0B01F060FD41EC190B8C
:103CB000009949EC108B41EC1BBB53EC102B51ECE1
:103CC000180B01F065FB49EC108B41EC1C0B53EC1D
:103CD000102B51EC180B01F05BFB53EC1C2B01F08B
:103CE00045FD41EC1C0B53EC192B51EC180B01F06A
:103CF0004FFB41EC110B53EC112B01F037FD53EC52
:103D00001C2B01F03FFF53EC1B2B01F041FB01F09A
:103D100097FC404204EB4007002F1CDD51EC190BCF
:103D200001F08EFC0446224651463046B0EE4A0A67
:103D3000F0EE6A0AFFF72CFE22463946304600F0C4
:103D400027F8214652463046B0EE4A0AF0EE6A0A9B
:103D5000FFF71EFE04E052462146304600F018F8F8
:103D60009FED090B85ED040B85ED020B01B0BDEC59
:103D70000C8BBDE8F08F0000000000000000004048
:103D8000000000000000E03F000000000000000014
:103D90002DE9F041184D17460E46044600224021F9
:103DA0002846FCF794FE012C02D0641C02D006E0E9
:103DB000012200E0002210212846FCF788FE0024A2
:103DC0000FE020212846FCF782FE3846FEF78CFFE4
:103DD000002220212846FCF77AFE3846FEF784FFB1
:103DE000641CB4424FF00102EBDB2846BDE8F04111
:103DF0004021FCF76CBE0000000002402DE9F04FAE
:103E0000924C16462DED0A8B0F4605464FF4006B7B
:103E100081B0B0EE40BAF0EE60BA002259462046BA
:103E2000FCF755FE6115012D02D06D1C02D005E096
:103E3000012200E000222046FCF749FE9FED849B12
:103E40009FED85AB4FF48068B7427ADA384601F0CF
:103E500026FC41EC100B51EC190B53EC102B01F02C
:103E600097FA41EC180B304601F019FC41EC100BAD
:103E700051EC190B53EC102B01F08AFA41EC1C0B9E
:103E800053EC1A2B51EC1B0B01F070FC814641ECFA
:103E90001A0B009153EC1C2B51EC1C0B01F066FC2F
:103EA00041EC1B0B53EC182B51EC180B01F05EFC92
:103EB00053EC1B2B01F066FE53EC1A2B01F068FA51
:103EC00001F0BEFB0746002637E0012241462046AE
:103ED000FCF7FDFD53EC182B51EC190B01F058FACF
:103EE0008A464AEC100B054651EC100B01F0A8FB7A
:103EF000FEF7FAFE002241462046FCF7E8FD4AECB8
:103F0000105B51EC100B01F09BFBFEF7EDFE0099EE
:103F100053EC182B41EC1A9B51EC180B01F026FCCA
:103F200053EC1A2B01F02EFE41EC100BFEF728FC8F
:103F3000B0EE408AF0EE608A761CBE42C5DB7AE0C5
:103F4000FFE778DD384601F0AAFB41EC100B51EC9D
:103F5000190B53EC102B01F01BFA41EC180B3046F7
:103F600001F09DFB41EC100B51EC190B53EC102BA5
:103F700001F00EFA41EC1C0B53EC1A2B51EC1B0B0D
:103F800001F0F4FB814641EC1A0B009153EC182B25
:103F900051EC180B01F0EAFB41EC1B0B53EC1C2B12
:103FA00051EC1C0B01F0E2FB53EC1B2B01F0EAFD82
:103FB00053EC1A2B01F0ECF901F042FB0746002606
:103FC00037E0012241462046FCF781FD53EC182BD7
:103FD00051EC190B01F0DCF98A464AEC100B05464E
:103FE00051EC100B01F02CFBFEF77EFE0022414647
:103FF0002046FCF76CFD4AEC105B51EC100B01F015
:104000001FFBFEF771FE009953EC182B41EC1A9B35
:1040100051EC180B01F0AAFB53EC1A2B01F004F938
:1040200041EC100BFEF7ACFBB0EE408AF0EE608A7C
:10403000761CBE42C5DB01B05946BDEC0A8B20465A
:104040000122BDE8F04FFCF742BD00000000024035
:10405000000000000000E03F000000000000004001
:104060002DE9F0471A4D91460E4604464FF400687C
:10407000002241462846FCF72AFD6915012C02D092
:10408000641C02D005E0012200E000222846FCF773
:104090001EFD00244FF480670FE039462846FCF7E8
:1040A00016FD4846FEF720FE002239462846FCF75A
:1040B0000EFD4846FEF718FE641CB4424FF00102A4
:1040C000EBDB41462846BDE8F047FCF700BD0000A9
:1040D000000002402DE9F04FA74C93462DED0A8BCE
:1040E0000D46064683B01F46B0EE40BAF0EE60BA09
:1040F00000224FF400612046FCF7E9FCDFF87C82E7
:10410000002261154046FCF7E2FC012E02D0761C2D
:1041100002D007E0012200E000224FF400712046A7
:10412000FCF7D5FC012D02D06D1C02D006E0012267
:1041300000E0002280214046FCF7C9FC58469FED74
:10414000909B9FED91AB4FF480694FF4807ABB4513
:104150007EDA01F0A4FA41EC100B51EC190B53EC90
:10416000102B01F015F941EC180B384601F097FAC5
:1041700041EC100B51EC190B53EC102B01F008F92A
:1041800041EC1C0B53EC1A2B51EC1B0B01F0EEFA1B
:10419000834641EC1A0B019153EC1C2B51EC1C0B88
:1041A00001F0E4FA41EC1B0B53EC182B51EC180B0B
:1041B00001F0DCFA53EC1B2B01F0E4FC53EC1A2B5E
:1041C00001F0E6F801F03CFA074600263EE0012245
:1041D00049462046FCF77BFC012251464046FCF74D
:1041E00076FC53EC182B51EC190B01F0D1F8054675
:1041F000009101F025FAFEF777FD0022494620469E
:10420000FCF765FC002251464046FCF760FC009933
:1042100041EC105B51EC100B01F012FAFEF764FD5B
:10422000019953EC182B41EC1ABB51EC180B01F01F
:104230009DFA53EC1A2B01F0A5FC41EC100BFEF794
:104240009FFAB0EE408AF0EE608A761CBE4200E033
:1042500001E0BCDB81E07DDD01F021FA41EC100BD7
:1042600051EC190B53EC102B01F092F841EC180BA8
:10427000384601F014FA41EC100B51EC190B53ECD9
:10428000102B01F085F841EC1C0B53EC1A2B51EC70
:104290001B0B01F06BFA834641EC1A0B019153ECB6
:1042A000182B51EC180B01F061FA41EC1B0B53EC8D
:1042B0001C2B51EC1C0B01F059FA53EC1B2B01F099
:1042C00061FC53EC1A2B01F063F801F0B9F90746D1
:1042D00000263EE0012249462046FCF7F8FB012279
:1042E00051464046FCF7F3FB53EC182B51EC190BED
:1042F00001F04EF80546009101F0A2F9FEF7F4FC3A
:10430000002249462046FCF7E2FB00225146404687
:10431000FCF7DDFB009941EC105B51EC100B01F058
:104320008FF9FEF7E1FC019953EC182B41EC1ABB15
:1043300051EC180B01F01AFA53EC1A2B00F074FF31
:1043400041EC100BFEF71CFAB0EE408AF0EE608AEA
:10435000761C00E001E0BE42BCDB0122D102204617
:10436000FCF7B5FB03B04046BDEC0A8B01225102BD
:10437000BDE8F04FFCF7ABBB000002400008024074
:10438000000000000000E03F0000000000000040CE
:104390002DE9F04F0E462DED108B87B00746D0F873
:1043A00004B0D1F804A0FEF70BFC05463046FEF73A
:1043B00007FC97ED08CB96ED08BB044653EC1B2B8E
:1043C00051EC1C0B01F0D0FA04D2B0EE4CAAF0EE86
:1043D0006CAA03E0B0EE4BAAF0EE6BAA97ED06FBD9
:1043E00096ED06DB51EC1F0B53EC1D2B01F0BCFAD4
:1043F00004D2B0EE4DEAF0EE6DEA03E0B0EE4FEA23
:10440000F0EE6FEAD7F82880D6F82890C84501DD8D
:10441000404600E048460090002D02DACBF1000B48
:104420006D42002C02DACAF1000A64429FEDFD9B46
:104430009FEDFE8B53EC192B51EC1E0BA5427CDB40
:1044400001F094F9CDE9030141EC1B0B009801F058
:1044500026F9CDE9011041EC100B8146059153EC92
:10446000102B51EC180B00F093FF41EC1D0B05993C
:1044700041EC109B51EC180B53EC102B00F088FF13
:1044800053EC1D2B01F072F941EC1D0B53EC1A2B70
:1044900051EC180B00F07CFF41EC100B53EC102B8F
:1044A00001F064F953EC1D2B01F06CFB53EC1B2B5A
:1044B00000F06EFF01F0C4F8404204EB4009B9F18E
:1044C000000F45DC53EC192B51EC1A0B01F04EF99F
:1044D00041EC1A0BDDE9030141EC1D0BDDE90101A3
:1044E00040EC101B51EC180B53EC102B00F050FF5C
:1044F00041EC1B0BDDE9010140EC101B51EC180BEA
:1045000053EC102B00F044FF53EC1B2B01F02EF961
:1045100041EC1B0B53EC1A2B51EC180B00F038FF3D
:1045200041EC100B53EC102B01F020F953EC1B2B3A
:1045300001F028FB53EC1D2B00E0D8E000F028FF31
:1045400001F07EF8414204EB4109B9F1000F1FDD93
:1045500051EC1A0B01F074F803460190514658468D
:10456000B0EE4E0AF0EE6E0A009AFFF7B3FD4A462F
:1045700051465846019B00F04BFADDE900325146A6
:104580005846B0EE4E0AF0EE6E0AFFF7A3FD05E0C6
:10459000224651465846009B00F03AFA2C1B53EC39
:1045A000192B51EC1F0B01F0E1F8CDE9000141ECB2
:1045B0001A0B404601F073F88946824649EC100B0D
:1045C000554653EC102B51EC180B00F0E1FE49EC72
:1045D000105B41EC1B0B53EC102B51EC180B00F053
:1045E000D7FE53EC1B2B01F0C1F841EC1B0B53EC35
:1045F0001C2B51EC180B00F0CBFE41EC100B53ECD4
:10460000102B01F0B3F853EC1B2B01F0BBFA53EC69
:104610001A2B00F0BDFE01F013F8404204EB4005F8
:10462000002D02DD51EC1C0B40E053EC192B51EC3A
:104630001C0B01F09BF841EC190BDDE9000149EC82
:1046400010AB41EC1A0B53EC102B51EC180B00F093
:104650009FFE49EC10AB41EC1B0B53EC102B51ECC3
:10466000180B00F095FE53EC1B2B01F07FF841EC8A
:104670001B0B53EC192B51EC180B00F089FE41EC8D
:10468000100B53EC102B01F071F853EC1B2B01F0C5
:1046900079FA53EC1A2B00F07BFE00F0D1FF404278
:1046A00004EB4005002D1CDD51EC190B00F0C8FF98
:1046B0000446224641465846B0EE4F0AF0EE6F0AD5
:1046C000FFF79CFB224629465846FFF7C9FC2146C6
:1046D00042465846B0EE4F0AF0EE6F0AFFF78EFBE7
:1046E00089E1424621465846FFF7BAFC83E101F0D2
:1046F0003DF8CDE9030141EC1C0B009800F0CFFF21
:10470000CDE9010141EC100B8046059153EC102BD3
:1047100051EC180B00F03CFE41EC1F0B059941ECED
:10472000108B51EC180B53EC102B00F031FE53ECB6
:104730001F2B01F01BF841EC1F0B53EC1A2B51EC13
:10474000180B00F025FE41EC100B53EC102B01F080
:104750000DF853EC1F2B01F015FA53EC1C2B00F055
:1047600017FE00F06DFF404205EB4008B8F1000F66
:1047700018DD51EC1A0B00F063FF0346019051461F
:104780005846B0EE4E0AF0EE6E0A009AFFF7A2FC11
:10479000424651465846019B00F03AF9DDE90030A7
:1047A000024663E053EC192B51EC1A0B00F0DEFFCC
:1047B00041EC1A0BDDE9030141EC1F0BDDE90101BE
:1047C00041EC100B51EC180B53EC102B00F0E0FDFA
:1047D00041EC1C0BDDE9010141EC100B51EC180B15
:1047E00053EC102B00F0D4FD53EC1C2B00F0BEFF5B
:1047F00041EC1C0B53EC1A2B51EC180B00F0C8FDCC
:1048000041EC100B53EC102B00F0B0FF53EC1C2BC1
:1048100001F0B8F953EC1F2B00F0BAFD00F010FFC7
:10482000414207E0000000000000004000000000DE
:104830000000E03F05EB4108B8F1000F1FDD51EC2F
:104840001A0B00F0FDFE0346019051465846B0EEAB
:104850004E0AF0EE6E0A009AFFF73CFC42465146C3
:104860005846019B00F0D4F8DDE900325146584625
:10487000B0EE4E0AF0EE6E0AFFF72CFC05E02A4679
:1048800051465846009B00F0C3F8641B53EC192BAB
:1048900051EC1D0B00F06AFFCDE9000141EC1A0B51
:1048A000484600F0FCFE8846834648EC100B5D4607
:1048B00053EC102B51EC180B00F06AFD48EC105B28
:1048C00041EC1C0B53EC102B51EC180B00F060FD6D
:1048D00053EC1C2B00F04AFF41EC1C0B53EC1B2B40
:1048E00051EC180B00F054FD41EC100B53EC102B65
:1048F00000F03CFF53EC1C2B01F044F953EC1A2B55
:1049000000F046FD00F09CFE404204EB4005002D07
:1049100010DD51EC1B0B00F093FE04462246494685
:104920005046B0EE4D0AF0EE6D0A00F0D5F829467B
:1049300022464EE053EC192B51EC1B0B00F016FFF6
:1049400041EC190BDDE9000148EC10BB41EC1A0BFE
:1049500053EC102B51EC180B00F01AFD48EC10BB77
:1049600041EC1B0B53EC102B51EC180B00F010FD1D
:1049700053EC1B2B00F0FAFE41EC1B0B53EC192BF4
:1049800051EC180B00F004FD41EC100B53EC102B14
:1049900000F0ECFE53EC1B2B01F0F4F853EC1A2B57
:1049A00000F0F6FC00F04CFE404204EB4005002D08
:1049B0001CDD51EC190B00F043FE0446224649462B
:1049C0005046B0EE4D0AF0EE6D0A00F085F8224632
:1049D0002946504600F0B2F921464A465046B0EE0C
:1049E0004D0AF0EE6D0A00F077F804E04A462146E1
:1049F000504600F0A3F997ED040B87ED020B96EDFE
:104A0000040B86ED020B07B0BDEC108BBDE8F08FF8
:104A10002DE9FF5F2E4D17460C4606464FF4006AFF
:104A2000002251462846FCF752F8DFF8A8804FF4E0
:104A3000007B002259464046FCF749F8012E02D07F
:104A4000761C02D006E0012200E0002259462846EA
:104A5000FCF73DF8012C02D0641C02D006E00122D4
:104A600000E0002280214046FCF731F84646002451
:104A70004FF480694FF4807819E049462846FCF7E6
:104A800026F8012241463046FCF721F80398FEF74C
:104A90002BF9002249462846FCF719F80022414626
:104AA0003046FCF714F80398FEF71EF9641CBC426C
:104AB0004FF00102E1DB51462846FCF708F804B04C
:104AC00059463046BDE8F05F0122FCF700B800000F
:104AD00000000240000802402DE9F04F924C1646BB
:104AE0002DED0A8B0F4605464FF4007B81B0B0EEEA
:104AF00040BAF0EE60BA002259462046FBF7E7FFC5
:104B0000012D02D06D1C02D006E0012200E000223F
:104B100080212046FBF7DBFF9FED849B9FED85AB5B
:104B20004FF48078B7427ADA384600F0B8FD41ECAD
:104B3000100B51EC190B53EC102B00F029FC41EC3D
:104B4000180B304600F0ABFD41EC100B51EC190B8B
:104B500053EC102B00F01CFC41EC1C0B53EC1A2BFB
:104B600051EC1B0B00F002FE814641EC1A0B009148
:104B700053EC1C2B51EC1C0B00F0F8FD41EC1B0B13
:104B800053EC182B51EC180B00F0F0FD53EC1B2BE1
:104B900000F0F8FF53EC1A2B00F0FAFB00F050FD88
:104BA0000746002637E0012241462046FBF78FFFEB
:104BB00053EC182B51EC190B00F0EAFB8A464AEC37
:104BC000100B054651EC100B00F03AFDFEF78CF887
:104BD000002241462046FBF77AFF4AEC105B51EC7D
:104BE000100B00F02DFDFEF77FF8009953EC182B09
:104BF00041EC1A9B51EC180B00F0B8FD53EC1A2B4A
:104C000000F0C0FF41EC100BFDF7BAFDB0EE408A9A
:104C1000F0EE608A761CBE42C5DB7AE0FFE778DD05
:104C2000384600F03CFD41EC100B51EC190B53ECF5
:104C3000102B00F0ADFB41EC180B304600F02FFDBF
:104C400041EC100B51EC190B53EC102B00F0A0FBB6
:104C500041EC1C0B53EC1A2B51EC1B0B00F086FDA6
:104C6000814641EC1A0B009153EC182B51EC180BB8
:104C700000F07CFD41EC1B0B53EC1C2B51EC1C0B8E
:104C800000F074FD53EC1B2B00F07CFF53EC1A2B4F
:104C900000F07EFB00F0D4FC0746002637E001223E
:104CA00041462046FBF713FF53EC182B51EC190B30
:104CB00000F06EFB8A464AEC100B054651EC100BD7
:104CC00000F0BEFCFEF710F8002241462046FBF73C
:104CD000FEFE4AEC105B51EC100B00F0B1FCFEF74D
:104CE00003F8009953EC182B41EC1A9B51EC180B6C
:104CF00000F03CFD53EC1A2B00F096FA41EC100B3F
:104D0000FDF73EFDB0EE408AF0EE608A761CBE42B2
:104D1000C5DB01B05946BDEC0A8B20460122BDE837
:104D2000F04FFBF7D4BE0000000802400000000076
:104D30000000E03F00000000000000402DE9F047C7
:104D40001A4D91460E4604464FF400780022414623
:104D50002846FBF7BCFE012C02D0641C02D006E002
:104D6000012200E0002280212846FBF7B0FE00244B
:104D70004FF480770FE039462846FBF7A8FE4846F7
:104D8000FDF7B2FF002239462846FBF7A0FE484651
:104D9000FDF7AAFF641CB4424FF00102EBDB414671
:104DA0002846BDE8F047FBF792BE0000000802402D
:104DB0002DE9F0478E4C16462DED0A8B0F46054621
:104DC000B0EE40BAF0EE60BA002210212046FBF7A8
:104DD0007EFE012D02D06D1C02D006E0012200E013
:104DE000002204212046FBF772FE9FED829B9FED7F
:104DF00083ABB74279DA384600F051FC41EC100B36
:104E000051EC190B53EC102B00F0C2FA41EC180BCB
:104E1000304600F044FC41EC100B51EC190B53EC04
:104E2000102B00F0B5FA41EC1C0B53EC1A2B51EC93
:104E30001B0B00F09BFC8A4680464AEC1A0B53EC95
:104E40001C2B51EC1C0B00F091FC41EC1B0B53ECA8
:104E5000182B51EC180B00F089FC53EC1B2B00F0C5
:104E600091FE53EC1A2B00F093FA00F0E9FB074691
:104E7000002636E0012208212046FBF728FE53ECED
:104E8000182B51EC190B00F083FA894649EC100BF2
:104E9000054651EC100B00F0D3FBFDF725FF002277
:104EA00008212046FBF713FE49EC105B51EC100B78
:104EB00000F0C6FBFDF718FF4AEC1A8B53EC182BD9
:104EC00051EC180B00F052FC53EC1A2B00F05AFE78
:104ED00041EC100BFDF754FCB0EE408AF0EE608A16
:104EE000761CBE42C6DB79E0FFE777DD384600F08E
:104EF000D6FB41EC100B51EC190B53EC102B00F0CE
:104F000047FA41EC180B304600F0C9FB41EC100B9E
:104F100051EC190B53EC102B00F03AFA41EC1C0B3E
:104F200053EC1A2B51EC1B0B00F020FC8A468046F8
:104F30004AEC1A0B53EC182B51EC180B00F016FC32
:104F400041EC1B0B53EC1C2B51EC1C0B00F00EFC2A
:104F500053EC1B2B00F016FE53EC1A2B00F018FA42
:104F600000F06EFB0746002636E0012208212046AD
:104F7000FBF7ADFD53EC182B51EC190B00F008FAC0
:104F8000894649EC100B054651EC100B00F058FB1C
:104F9000FDF7AAFE002208212046FBF798FD49EC08
:104FA000105B51EC100B00F04BFBFDF79DFE4AEC43
:104FB0001A8B53EC182B51EC180B00F0D7FB53EC69
:104FC0001A2B00F031F941EC100BFDF7D9FBB0EED4
:104FD000408AF0EE608A761CBE42C6DBBDEC0A8BCE
:104FE000204601221021BDE8F047FBF770BD00000C
:104FF000000C0240000000000000E03F0000000044
:10500000000000402DE9F04F05462DED0C8B81B0DE
:105010004668FDF703FE040095ED08BB95ED06AB71
:10502000D5F828A0204601D5764244429FED59CBC1
:1050300051EC1A0B53EC1C2B00F098FB834641EC0F
:10504000190B5046009100F02AFB894649EC110BE0
:10505000804653EC112B47469FED508B51EC180BBB
:1050600000F096F949EC107B41EC1D0B53EC102B32
:1050700051EC180B00F08CF953EC1D2B00F076FB73
:1050800041EC1D0B53EC1B2B51EC180B00F080F97D
:1050900041EC110B53EC112B00F068FB53EC1D2B72
:1050A00000F070FD53EC192B00F072F900F0C8FA13
:1050B000404204EB4007002F02DD51EC1B0B3FE0A8
:1050C00053EC1C2B51EC1B0B00F050FB41EC190B6B
:1050D000009949EC108B41EC1BBB53EC102B51ECAD
:1050E000180B00F055F949EC108B41EC1C0B53ECFC
:1050F000102B51EC180B00F04BF953EC1C2B00F06B
:1051000035FB41EC1C0B53EC192B51EC180B00F048
:105110003FF941EC110B53EC112B00F027FB53EC42
:105120001C2B00F02FFD53EC1B2B00F031F900F08D
:1051300087FA404204EB4007002F1CDD51EC190BAD
:1051400000F07EFA0446224651463046B0EE4A0A46
:10515000F0EE6A0AFFF72CFE22463946304600F090
:1051600021F8214652463046B0EE4A0AF0EE6A0A6D
:10517000FFF71EFE04E052462146304600F012F8CA
:1051800095ED040B85ED020B01B0BDEC0C8BBDE879
:10519000F08F000000000000000000400000000050
:1051A0000000E03F2DE9F041184D17460E46044639
:1051B000002210212846FBF78AFC012C02D0641C37
:1051C00002D006E0012200E0002204212846FBF77D
:1051D0007EFC00240FE008212846FBF778FC3846C7
:1051E000FDF782FD002208212846FBF770FC3846B7
:1051F000FDF77AFD641CB4424FF00102EBDB284658
:10520000BDE8F0411021FBF762BC0000000C024039
:1052100081F00041704780F00040704721F000416C
:10522000704720F00040704710B591EA030F48BF67
:1052300083F0004300F1AE84841A71EB030C05D2B5
:10524000121943EB0C03001B61EB0C01DFF824E1A6
:105250004FEA1154A4EB135C1EEA430F18BF9EEAF9
:10526000445F73D023EA0E03DCF1200E21EA0451DF
:1052700043F4801332D322FA0CFE10EB0E0023FA13
:105280000CFE41EB0E01CCF1200E03FA0EFE10EBEA
:105290000E0051F10001B1F5801FCCF1200E32D289
:1052A00001EB045112FA0EF2BDE8104058BF7047EE
:1052B000401C38BF5FEA420218BF7047002814BF85
:1052C00020F0010041F100014FEA410313F5001FF6
:1052D00038BF7047A1F1C04100F040BB012A43EB49
:1052E0000302ACF1200CDCF11F0E32BF4FF0000EB8
:1052F00023FA0CF310EB030041EB0451B4EB115F04
:10530000D0D0A1EB045101F5801149085FEA3000CB
:1053100001EB04510ED350F1000038BF12FA0EFE1B
:1053200008D1BDE81040C9E7401C38BF5FEA42021F
:10533000CAD1C3E7BDE810404FEA410313F5001F8F
:1053400038BF7047A1F1C04100F008BB9EEA445F3E
:1053500008D011EA5E0FBDE8104004BF01F0004123
:1053600000207047BDE8104070B500F0A9FA00BFFA
:1053700064FBBE3E0000E0FF491058BFC1F1404150
:105380005B1058BFC3F140438B42EFF3008070477E
:105390002DE9C04130B4DFF8A0C23CEA111418BFB7
:1053A0003CEA131400F0EC8081EA03051CEA1114B6
:1053B00044EAD57418BF1CEA131500F0C780A4EBAB
:1053C00005044FF0004545EAC12145EAC32341EAFF
:1053D000505143EA525304F17F74994204F500346A
:1053E0004FEAC0204FEAC22208BF904200F09C80E2
:1053F0004FEA13650FF24016765D4FEA134506FB40
:1054000005F7C7F1807706FB07F74FEAD737A7FB09
:1054100003687642C8F58038A7FB06CE38BFA8F1EE
:10542000010807FB08E64FF0000EA6FB028CE6FB26
:1054300003CEDCF1000CCEF1004E38BFAEF1010E10
:10544000A6FB0C584FF000074FF00005E6FB0E8757
:10545000A1FB08C6A0FB07CE16EB0E0645F1000522
:10546000E1FB076515F1E04E7EBFA4F580345FEAED
:1054700046066D4116F1800745F100054FEA1727F2
:105480004FEA066647EA0567A6F1DE46B6F1805F99
:105490004FEA15251FD9384624F0010C05EBC471DD
:1054A000BCF1FE6F01EB0C1102D8F0BCBDE800812D
:1054B00024425CBF01F5801E9EEAC47F02D4F0BC8A
:1054C000BDE80081244238D4F0BCA1F1C041BDE860
:1054D000004100F043BA4FEAD22242EA43524FEA77
:1054E000D323A7FB02864FEAD02040EA415007FBB6
:1054F00003661EEA0E0F4FEAD12105FB026658BF74
:10550000A6EB0056B6EB00564FEA520E4EEAC37EAB
:1055100018EB0E0E56EB530EBDD518EB02085E418C
:105520007F1C55F10005B6E74FF480154FF00007DA
:105530004FF000064FF00008ADE7F0BC4FF0000060
:1055400001F1C04101F00041BDE8008111EA0C1FEA
:105550000CEA131500D00CE013EA0C1F00F02580B4
:105560004FF00000F0BC81EA030101F00041BDE80A
:105570000081F0BCBDE8004181EA030100F0EEB912
:10558000F0BCBDE8004170B500F09AF9097EFC3E20
:1055900000F007B881EA03014FF0000001F000417C
:1055A000704781EA030100F0D9B9F0BCBDE80041C1
:1055B0004FF0000021497047FFFDFBF9F7F5F4F2C9
:1055C000F0EEEDEBE9E8E6E4E3E1E0DEDDDBDAD89E
:1055D000D7D5D4D3D1D0CFCDCCCBCAC8C7C6C5C4FC
:1055E000C2C1C0BFBEBDBCBBBAB9B8B7B6B5B4B313
:1055F000B2B1B0AFAEADACABAAA9A8A8A7A6A5A4FE
:10560000A3A3A2A1A09F9F9E9D9C9C9B9A999998C1
:105610009797969595949393929191908F8F8E8E64
:105620008D8C8C8B8B8A89898888878786858584F1
:1056300084838382828181800000FF070000F87FDD
:105640004FEA41034FEA5353A3F58063D3F11E039E
:10565000C8BFD3F1210C0CDD4FF0004242EAC12259
:1056600042EA505232FA03FC8CEAE17CACEBE17086
:105670007047102BC4BF0020704703F5787CBCF145
:10568000FF3F04D06FF0004282EA2100704770B5FE
:1056900000F016F94992248000207047F2E710F0DC
:1056A000004248BF4042B0FA80F310FA03F10AD03A
:1056B000C3F11D0303F580634FEA415002EB03522F
:1056C00002EBD12170474FF000007047B0FA80F331
:1056D00010FA03F10AD0C3F11D0303F580634FEA0A
:1056E00041504FEA035202EBD12170474FF00000C6
:1056F0007047000051EA030C17D41CF5801F58BFF7
:10570000BCF5801F00F10680994218BF704708BFA2
:105710009042704707D711F5801F58BF13F5801FBF
:1057200019D499427047894270471CF5801F08D5EB
:10573000BCF5801FF7D58B4218BF704708BF824267
:1057400070474FF4001C1CEB410F38BF1CEB430F9C
:1057500001D28B42704770B500F0B2F89224490034
:105760004FF000514FF08053FFF706BEDFF848C1FD
:1057700070B51CEA111E1EBF1CEA13159EEA0C0F21
:1057800095EA0C0F00F06F8081EA030423EA4C13C2
:105790004EEAD47E21EA4C1141F4801143F4801387
:1057A000AE44A1FB024CA0FB0365AEF17F7E36192F
:1057B00055EB0C05A1FB034C4CF10003A0FB021CB4
:1057C00016EB0C06654153F10003094218BF46F081
:1057D000010613F4007F0BD14FEA03314FEA053085
:1057E000340341EA155140EA16506FF003020AE013
:1057F0004FEAC3214FEAC520F40241EA555140EA7D
:1058000056506FF0020202EB2E4201EB025585EA80
:10581000CE710AD05FEA440C18BF24F0004450F166
:10582000000041F1000120EAD47040F2FE7C6245A4
:1058300000D270BDA84214BF4FF080444FF04044E6
:10584000002E08BF0024BEF1806FA8BFA1F1C041A7
:10585000BDE8704080F282804FF0000001F1C0414D
:1058600001F0004170479EEA0C0F0CEA131518BFB7
:1058700095EA0C0F06D04FF0000081EA030E0EF0FF
:10588000004170BD00F01CF88900013E00F007B82F
:1058900000F009B84FEA430C5FEA5C5C08D081EA8B
:1058A000030100F05BB84FEA410C5FEA5C5CF6D1A3
:1058B0004FF00000014970470000FF070000F87F2B
:1058C0000EF1020E2EF0030E5EF8046B364205D484
:1058D000012A43EB030515F5001F12D8012841EBFF
:1058E000010C1CF5001F0CD80ED14FEAD17C15F528
:1058F000001F0CEB4C0C0CF1020C08BF4CEBD37CE2
:1059000004E04FF0080C01E04FEAD37C0CEB4C05AF
:1059100026FA05F606F00706B6F1040C06D20EEBE1
:10592000860CBDE870404CF0010C6047DFE80CF0DD
:10593000090B02024FF000414FF00000A1F50021D9
:1059400070BD19461046012851EB010418BFD4F56B
:10595000001484BF002001F0004170BD0808A0F5CC
:1059600000114FEA3101704753EA010C17D41CF5BE
:10597000801F58BFBCF5801F00F106808B4218BF06
:10598000704708BF8242704707D713F5801F58BF82
:1059900011F5801F19D48B4270479B4270471CF54C
:1059A000801F08D5BCF5801FF7D5994218BF7047F6
:1059B00008BF904270474FF4001C1CEB430F38BFE8
:1059C0001CEB410F01D2994270470FB40CBC03BCD1
:1059D000FFF7C1BE91EA030F10B581F000413FF51A
:1059E0002BAC83F0004300F0D5B800002DE9F04166
:1059F00001F5801CBCF5001FC0F2A9804FEA115CC4
:105A000021EA0C510CF1FD0C41F480115FEA5C0CB1
:105A10000CF5C07C01D34000494130A4890241EA21
:105A2000905187028E0E0A0CA45D04FB04F602FB63
:105A300006F6C6F14046A4FB0662F60D46EA42268B
:105A400006FB06F4A4FB01235242C3F1404338BFD6
:105A50005B1EA6FB02420024E6FB0324D20B42EAB3
:105A60004446A6FB0623A1FB02E2A3FB07E4E3FBFB
:105A700061426442C2F1404E38BFAEF1010EA6FB56
:105A800004234FF00002E6FB0E32A2FB0346340073
:105A9000E2FB6264A1FB06E6A4FB07E8E4FB6168A5
:105AA0007642C8F1405838BFA8F10108A2FB06E4CD
:105AB000A3FB08E5E2FB6854A1FB05E6A7FB04E8AD
:105AC000E1FB648618F1200556F10006A809A8F14B
:105AD0001B08B10908F03F08B8F10A0F40EA8660D8
