:020000040800F2
:100000001809002029020008671A0008FD170008D7
:10001000651A0008370400084D240008000000009D
:100020000000000000000000000000006B1A000843
:10003000F504000800000000691A00086D1A0008A5
:10004000430200084302000843020008430200087C
:10005000430200084302000843020008430200086C
:10006000430200084302000843020008430200085C
:10007000430200084302000843020008430200084C
:10008000430200084302000843020008430200083C
:10009000430200084302000843020008430200082C
:1000A000430200084302000843020008430200081C
:1000B000430200084302000843020008430200080C
:1000C00043020008430200084302000843020008FC
:1000D000430200086D2000084302000843020008A4
:1000E00043020008430200084302000843020008DC
:1000F00043020008430200084302000843020008CC
:1001000043020008430200084302000843020008BB
:1001100043020008430200084302000843020008AB
:1001200043020008430200083904000843020008A3
:10013000430200084302000843020008430200088B
:10014000430200084302000843020008430200087B
:100150004302000843020008450400084302000867
:10016000430200084302000843020008430200085B
:100170004302000843020008430200080000000098
:10018000430200084302000800F002F800F03CF8C7
:100190000AA090E8000C82448344AAF10107DA45E2
:1001A00001D100F031F8AFF2090EBAE80F0013F0F8
:1001B000010F18BFFB1A43F001031847745C0000DD
:1001C000945C0000103A24BF78C878C1FAD852076E
:1001D00024BF30C830C144BF04680C6070470000C1
:1001E0000023002400250026103A28BF78C1FBD840
:1001F000520728BF30C148BF0B6070471FB505F0DC
:10020000D9FD1FBD10B510BD00F0E2F81146FFF793
:10021000F5FF02F0AFFD00F000F903B4FFF7F2FFC5
:1002200003BC00F001F90000094880470948004775
:10023000FEE7FEE7FEE7FEE7FEE7FEE7FEE7FEE796
:10024000FEE7FEE704480549054A064B70470000F3
:10025000091B000889010008180300201809002064
:10026000180500201805002053EA020C00F06980F0
:100270002DE9F04B4FF00006002B1FBFB3FA83F5BA
:1002800003FA05F424FA05F65E4012BF1643B2FAEB
:1002900082F502FA05F4C5F120051EBF22FA05FC1D
:1002A00044EA0C04203556EA044C4FEA144418BFC3
:1002B000641C4FF000084FF00009904271EB030CF2
:1002C00039D3002919BFB1FA81F701FA07F6B0FA5C
:1002D00080F700FA07F6C7F120071EBF20FA07FCD7
:1002E00046EA0C062037B6FBF4FCA7EB0507103FE7
:1002F00007F01F0BCBF120060CFA0BFB2CFA06F6CD
:1003000044BFB3460026202FA4BF5E464FF0000B2B
:100310005BEA060C08BF4FF0010B19EB0B09ABFBB6
:10032000027C48EB0608C01B06FB02CC0BFB03CC8F
:1003300071EB0C01C1E70B46024641464846BDE859
:10034000F08B13B54FF000004FF00001AFF30080C9
:10035000BDE81C4070474FF0000200B513469446BC
:100360009646203922BFA0E80C50A0E80C50B1F10D
:100370002001BFF4F7AF090728BFA0E80C5048BF21
:100380000CC05DF804EB890028BF40F8042B08BFBF
:10039000704748BF20F8022B11F0804F18BF00F8BB
:1003A000012B704770477047704710B500F008F890
:1003B000006810BD10B5044600F002F8046010BDDE
:1003C00000487047B802002000487047B80200207B
:1003D0007546FFF7F9FFAE4605006946534620F023
:1003E0000700854618B020B5FFF72CFFBDE8204078
:1003F0004FF000064FF000074FF000084FF0000BE1
:1004000021F00701AC46ACE8C009ACE8C009ACE893
:10041000C009ACE8C0098D4670470446AFF30080C0
:100420002046FFF7FAFE000001491820ABBEFEE7A8
:10043000260002007047FEE7014800F0B9B800004E
:10044000F8010020014800F0B3B800005802002075
:1004500001681823CAB2103AB2FBF3F2054B6FF3EE
:100460000901032A9B5CC36500D9091D8165084603
:1004700070470000BE5D000810B5014600208B6982
:100480008A6A4FF0C07453B1B3F5005F15D072B1F2
:10049000012A0CD0022A0AD0032A09D104E01AB199
:1004A000012A06D0022A03D1C96AC90100D5012058
:1004B00010BDC96AA142FAD010BD002AF7D0012AA6
:1004C000F2D0022AF3D0032AF3D010BD30B504686D
:1004D000256825F480252560046863608368402BC7
:1004E000036803D099600068C26030BD9A600068FC
:1004F000C16030BD704772B6FEE72DE9F041044699
:10050000876D00F0C9FA064694F8350000250228E8
:1005100006D08020606584F834500120BDE8F08169
:100520002068016821F0160101602068416921F00E
:1005300080014161206C08B9A06C20B1206801687D
:1005400021F0080101602068016821F001010160CB
:100550000CE000F0A1FA801B052807D92020606577
:10056000032084F8350084F83450D7E72068006809
:10057000C007EED194F85C103F208840B86001209D
:1005800084F8350084F834500020C7E790F835101F
:10059000022903D08021416501207047052180F8A0
:1005A00035100068016821F00101016000207047EA
:1005B0002DE9F84304464FF00009CDF80090634858
:1005C0004FF41651A56D0068B0FBF1F72E6894F852
:1005D0005C10082000FA01F131420FD021680A684E
:1005E00052070BD50A6822F004020A6094F85C10E6
:1005F0008840A860606D40F00100606594F85C1070
:100600004FF0010808FA01F0304208D0216849692A
:10061000090604D5A860606D40F00200606594F89A
:100620005C1004208840304208D02168096889079E
:1006300004D5A860606D40F00400606594F85C101B
:1006400010208840304218D021680968090714D565
:10065000A86020680168490304D50068000308D534
:10066000A16C07E00168C90503D4016821F0080105
:100670000160216C09B12046884794F85C10202065
:100680008840304231D021680968C9062DD5A8605C
:1006900094F8350005282068016806D0490347D53D
:1006A000006800031DD4616C1CE021F0160101609C
:1006B0002068416921F080014161206C08B9A06C7B
:1006C00020B12068016821F00801016094F85C10F5
:1006D0003F208840A86084F8358084F83490216DEC
:1006E0001FE0E16B09B120468847606D00282BD0E0
:1006F000606DC00714D0052084F8350020680168BB
:1007000021F0010101600098401C0090B84203D81C
:1007100020680068C007F6D184F8358084F83490EA
:10072000E16C002910D001B02046BDE8F043084735
:100730000168C905D5D4016821F01001016084F871
:10074000358084F83490CCE7BDE8F88300010020C0
:100750002DE9F041044600F09FF906465CB1022005
:1007600084F83500002584F834502068016821F0B1
:10077000010101600DE00120BDE8F08100F08CF97D
:10078000801B052805D920206065032084F83500EA
:10079000F2E720680068C007F0D12268116820489D
:1007A0000140D4E901031843D4E903363343184325
:1007B00063691843A3691843E3691843236A18431C
:1007C0000843616A042903D1D4E90B131943084390
:1007D000106020684069666A20F0070130460E43C9
:1007E000012704280CD1A06A0643E06A40B12046E4
:1007F000FFF742FE20B14020606584F83570BAE70B
:10080000206846612046FFF723FE94F85C203F21D4
:1008100091408160656584F835700020ACE7000088
:100820003F8010F02DE9F0410446866D90F83400C9
:10083000002501280DD0012084F8340094F835708B
:100840000020012F07D084F8340002252846BDE897
:10085000F0810220FBE7022784F8357060652046AE
:10086000FFF734FE94F85C103F208840B0602068A9
:10087000016841F016010160206C20B12068016818
:1008800041F0080101602068016841F00101016048
:10089000DCE700002DE9F84FDFF8BCA100220125BC
:1008A00003264FF00F090AF1040BAAF1040E00BF52
:1008B0000B6805FA02F42340A34270D10F7907F0C8
:1008C0000307012F01D0022F16D187684FEA420893
:1008D00006FA08FC27EA0C07D1F80CC00CFA08FC51
:1008E0004CEA070CC0F808C04768A7430C79C4F36A
:1008F000001494403C4344600C79E443A4070AD0BC
:10090000C4684FEA420C06FA0CF7BC438F6807FA3A
:100910000CF72743C7600C7904F00304022C12D1B2
:10092000D40800EB840CDCF820405707FF0E09FACE
:1009300007F824EA0804D1F8108008FA07F848EA12
:100940000408CCF8208004684FEA420C06FA0CF741
:10095000BC430F7907F0030707FA0CF7274307603A
:100960004C6814F4403F70D03C4C276847F48047F3
:100970002760246822F0030704F480440094384C74
:1009800007EB040CDCF8084897074FEA177809FAD8
:1009900008F7BC43334FB84202D1002724E054E0AB
:1009A000314FB84201D101271EE0304FB84201D18A
:1009B000022719E02E4FB84201D1032714E02D4F32
:1009C000B84201D104270FE02B4FB84201D10527CF
:1009D0000AE02A4FB84201D1062705E0284FB84265
:1009E00001D1072700E0082707FA08F72743CCF8CA
:1009F0000878DAF800405746D1F804C09C435FEA13
:100A0000CC2C00D51C433C60DBF800405F46D1F89D
:100A100004C09C435FEA8C2C00D51C433C60DEF88C
:100A200000407746D1F804C09C435FEA8C3C00D577
:100A30001C433C60084F083F3C68D1F804C09C430D
:100A40005FEACC3C00D51C433C60521C102AFFF4EA
:100A50002FAFBDE8F88F0000083C01404438024049
:100A60000030014000000240000402400008024043
:100A7000000C024000100240001402400018024026
:100A8000001C02400069084000D0012070470AB1F4
:100A9000816170470904FBE70148806870470000E6
:100AA000F400002002488168027811448160704798
:100AB000F40000200B4810B5016841F4007101609A
:100AC000016841F480610160016841F48071016056
:100AD000032000F06FF80F2000F006F800F024F873
:100AE000002010BD003C024070B50D4D04464FF48F
:100AF0007A712878B1FBF0F00A490968B1FBF0F08F
:100B000000F00CFB48B9102C07D200222146501EE1
:100B100000F030F800206C6070BD012070BD000056
:100B2000F4000020000100200A4808B5016841F4E3
:100B300080410160006800F4804000900548001F7B
:100B4000016841F080510160006800F08050009021
:100B500008BD000044380240002809DB00F01F02F5
:100B6000012191404009800000F1E020C0F800110F
:100B700070470000F0B40E4B1B680C46C3F3022311
:100B8000C3F10705042D00D90425191D072901D239
:100B9000002300E0DB1E012606FA05F1491E214074
:100BA00099409E40761E16403143F0BC01F067BC70
:100BB0000CED00E0064900F0070208684FF6FF035D
:100BC000184040EA0220034A1043086070470000C2
:100BD0000CED00E00000FA052DE9F0470E46050097
:100BE00065D0DFF81481D8F80000F7B200F00700F4
:100BF000B04207D288F80070D8F8000000F0070073
:100C0000B04254D128683D4C810712D5400703D526
:100C1000206840F4E05020602878000703D5206861
:100C200040F4604020602068A96820F0F00008438C
:100C300020602878C0072DD030496868083901281D
:100C400012D0022813D0032811D00968890700297F
:100C50002DDA216821F0030101432160FFF71CFF19
:100C6000814641F2883A0EE009688903EFE7096896
:100C70008901ECE7FFF710FFA0EB0901514502D90C
:100C80000320BDE8F0872068696800F00C00B0EB35
:100C9000810FEFD1D8F80010404601F00701B142B2
:100CA00007D90770006800F00700B04201D00120AA
:100CB000E7E72878400705D52068E96820F4E05088
:100CC000084320602878000706D52068296920F4A9
:100CD000604040EAC100206000F038F82168084A0E
:100CE000C1F30311515CC84006490860064800681A
:100CF000FFF7FAFE0020C4E7003C0240083802403B
:100D0000C65D000800010020F800002004480549E5
:100D100000680968044AC1F38221515CC8407047E9
:100D20000001002008380240D65D0008044805494B
:100D300000680968044AC1F34231515CC8407047F9
:100D40000001002008380240D65D0008154810B5A3
:100D5000006810F00C02144813D01449042A0FD074
:100D6000082A0ED10F4C241F2268236802F03F028C
:100D70005B0207D52068C0F38810A0FB010106E0E4
:100D8000084610BD2168C1F38811A1FB00010023B2
:100D9000FFF76AFA2168C1F30141491C4900B0FB21
:100DA000F1F010BD083802400024F40040787D01C5
:100DB0002DE9F84F04006ED02078DFF84C93C0077F
:100DC000A9F104054AD009F104000168C1F38101C9
:100DD000012908D00068C0F3810002280AD1D9F89F
:100DE0000000400206D52868800337D560680028D7
:100DF000E1D033E06068B0F5803F10D0B0F5A02FAF
:100E0000286810D020F480302860286820F48020E2
:100E100028606068A8B1FFF73FFE06460DE028682D
:100E200040F48030F4E740F480202860F7E700BF0A
:100E3000FFF732FE801B642873D828688003F7D53B
:100E40000CE0FFF729FE064605E000BFFFF724FE91
:100E5000801B6428F0D828688003F7D42078DFF856
:100E6000AC8280074FF0000A3ED5A748001D0168FC
:100E700011F00C0F08D00068C0F3810002280BD1DC
:100E8000D9F80000400207D42868800716D5E0682A
:100E9000012800D112E033E1E068B8B10120C8F8C0
:100EA0000000FFF7F9FD064605E000BFFFF7F4FD7F
:100EB000801B0228C0D828688007F7D528682169D8
:100EC00020F0F80040EAC10028600DE0C8F800A05A
:100ED000FFF7E2FD064604E0FFF7DEFD801B022877
:100EE0001FD828688007F7D42078000722D5864FBE
:100EF00087486169703771B101210160FFF7CCFD4E
:100F0000064604E0FFF7C8FD801B022809D83868B0
:100F10008007F7D50EE0C0F800A0FFF7BDFD06463C
:100F200005E082E0FFF7B8FD801B02287DD8386815
:100F30008007F7D42078400768D5DFF8CCB10027C8
:100F40000BF13C0BDBF80000C0000BD4DBF8001009
:100F500041F08051CBF80010DBF80000012700F0D1
:100F6000805000906B4E3068C00510D4306840F45B
:100F700080703060FFF790FD009005E0FFF78CFD7A
:100F80000099401A022850D83068C005F6D55E4E48
:100F9000A0686C3601280FD00528306810D020F0EA
:100FA00001003060306820F004003060A068B8B103
:100FB000FFF772FD00900FE0306840F00100F4E7A9
:100FC00040F004003060F7E7FFF766FD0099411A32
:100FD00041F28830814266D830688007F4D50EE04F
:100FE000FFF75AFD009007E0FFF756FD0099411A00
:100FF00041F28830814256D830688007F4D42FB14E
:10100000DBF8001021F08051CBF80010A069C8B3C4
:101010003D49091D0968C1F3810102294AD002280E
:10102000504607D0C8F8600000E03CE0FFF734FD10
:1010300004463BE04746C8F86000FFF72DFD064632
:1010400005E000BFFFF728FD801B02282BD8286889
:101050008001F7D4D4E907010843A16A2E4A490860
:1010600002EB0141626A41EA8211084394F82C10B4
:1010700040EA0161C9F8001001203866FFF70CFD55
:10108000044606E03EE000BFFFF706FD001B022815
:1010900009D828688001F7D534E000BFFFF7FCFCD1
:1010A000001B022802D90320BDE8F88F28688001C0
:1010B000F4D427E00128F7D0D9F80000E26900F461
:1010C000800191421CD1226A00F03F01914217D168
:1010D00047F6C071626A0140B1EB821F10D1A26A6B
:1010E0004FF0FF3300F4403103EB5202B1EB024FFB
:1010F00006D194F82C1000F07060B0EB016F01D0B5
:101100000120D1E70020CFE7043802400000474229
:10111000800E4742007000400000FFFF10B5401EE7
:10112000B0F1807F01D3012010BD4FF0E024606159
:101130000F21601701F0A3F90020A06107202061B2
:10114000002010BD70B590F83C20012A32D0012457
:1011500080F83C40022280F83D2003685A689D6870
:1011600022F070060A6832435A60134B02689A42B2
:1011700014D0B2F1804F11D0104B9A420ED0104BC8
:101180009A420BD00F4B9A4208D00F4B9A4205D08F
:101190000E4B9A4202D00E4B9A4204D1496825F078
:1011A00080031943916080F83D40002180F83C1095
:1011B000084670BD022070BD0000014000040040E0
:1011C00000080040000C00400004014000400140C5
:1011D0000018004010B5040003D094F83D0010B191
:1011E00007E0012010BD002084F83C00204600F0FC
:1011F0001FF8022084F83D00211D206800F08CFCBF
:10120000012084F8460084F83E0084F83F0084F80A
:10121000400084F8410084F8420084F8430084F8D8
:10122000440084F8450084F83D00002010BD000013
:1012300008B500680649884208D10648016841F0AF
:1012400001010160006800F00100009008BD00008D
:10125000000001404438024070B5044690F83C005C
:101260000025012817D0012684F83C60022084F86C
:101270003D002068826822F0770222F47F4282607B
:101280000868502838D00DDC20284FD005DC90B3FA
:10129000102811D14AE0022070BD302846D04028E5
:1012A0000AD13BE060282FD070280DD0B0F5805FC8
:1012B00003D0B0F5005F12D0012584F83D60002016
:1012C00084F83C00284670BDCB68D1E90121206834
:1012D00000F08EFC2068816841F0770109E0CB685E
:1012E000D1E90121206800F083FC2068816841F485
:1012F00080418160E1E719E0CA684968206800F030
:1013000089FC5021206806E0CA684968206800F01E
:1013100092FC6021206800F075FCCEE7CA6849683D
:10132000206800F077FC40212068F4E7226801463D
:101330001046F0E7704710B504460068406994F81D
:101340004110C0F3C010212911D180B120681430A0
:1013500050E8001F21F0800140E80012002AF5D17A
:10136000A06B08B1FFF7C9F8204600F042FD2068E5
:10137000406994F84210C0F38010222911D180B145
:101380002068143050E8001F21F0400140E80012AE
:10139000002AF5D1E06B08B1FFF7AFF8204600F066
:1013A00001FD002010BD7047F8B5016804460868CB
:1013B000CA684B6910F00F0F4FF000055AD003F0C8
:1013C000010602F49077374365D0C10705D0D105F7
:1013D00003D5616C41F001016164410705D5D9076E
:1013E00003D0616C41F002016164810705D5D90722
:1013F00003D0616C41F004016164010707D502F07C
:101400002001314303D0616C41F008016164616CDB
:1014100000293BD0800604D5900602D5204600F076
:10142000F6FC20684069616CC0F3801001F008018F
:10143000014320462BD000F0B5FC206840694006EF
:1014400021D52068143050E8001F21F0400140E809
:101450000012002AF5D1E06BA8B16E490165E06B7E
:10146000FFF794F8002811D0E06B016D01B0BDE8E2
:10147000F040084783060ED593060CD52046BDE8FC
:10148000F84000F0C4BC2046FFF78DFFF8BDFFF721
:101490008AFF6564F8BD266B2023012E7DD1C60628
:1014A0007BD5D60679D508684868009048694FF022
:1014B0000206400641D5E16B086840680004000C54
:1014C000E8D0A28D8242E5D9E085C869B0F5807F79
:1014D0002DD020680C3050E8001F21F4807140E8C6
:1014E0000012002AF5D12168143151E8000F20F0D4
:1014F000010041E80002002AF5D12068143050E8CC
:10150000001F21F0400140E80012002AF5D184F8C4
:101510004230256320680C3050E8001F21F0100194
:1015200040E80012002AF5D1E06BFEF7E6FF6663A3
:10153000A08DE18D401A81B22AE0A08DE18D401A84
:1015400081B2E08D0028A5D00029A3D022680C32FA
:1015500052E8000F20F4907042E80007002FF5D108
:101560002068143050E8002F22F0010240E80027E4
:10157000002FF5D184F84230256320680C3050E804
:10158000002F22F0100240E80023002BF5D1666303
:101590002046FFF7CFFEF8BDFFE705062BD5150661
:1015A00029D594F841002128F5D1A068B0F5805FD5
:1015B00001D12069B0B1206A411C21622168007804
:1015C0004860E08C401E0004000CE084E3D12068F9
:1015D000C16821F08001C1602068C16841F040010C
:1015E000C160D8E7206A0088C0F308004860206A1C
:1015F000801C2062E5E74006CDD55006CBD5CA68F1
:10160000204622F04002CA6084F8413000F0F4F82D
:10161000C1E700005B1C000870B5040004D094F81A
:101620004100002510B106E0012070BD84F8405053
:10163000204600F023F8242084F841002068C16887
:1016400021F40051C160204600F042FC206801698D
:1016500021F4904101612068416921F02A01416132
:101660002068C16841F40051C1606564202084F89D
:10167000410084F842006563002070BD2DE9F0410F
:1016800086B0064614216846FEF765FE2F4930688D
:10169000884258D12E480024016841F010010160B1
:1016A000006800F01000059029481438016841F0E6
:1016B000020101600068694600F002000590C02048
:1016C00000900220CDE9010403200390072004903C
:1016D0002048FFF7DFF8214D1F484FF000672860D2
:1016E000C5E901744FF48068C5E903486C61AC61D9
:1016F000EC612C6228466C62FFF72AF808B1FEF70D
:10170000FAFEF563AE63154D134860357830E5E8B1
:1017100002074020A5E81101104845F8144960303F
:10172000AC61EC612C626C62FFF712F808B1FEF755
:10173000E2FEB563002211462520AE63FFF71AFAD8
:101740002520FFF709FA06B0BDE8F081001001403E
:10175000443802400004024040640240F801002086
:1017600090F84230202B01D00220704721B11AB1ED
:101770000023036300F032BC0120704770477047BC
:1017800070B5044690F84100202801D0022070BDB9
:1017900049B342B32162A284E28400206064212321
:1017A00084F84130A56B114BEB63A56B104B2B6498
:1017B000A56B104BEB64A36B1865256813462A1DB7
:1017C000A06BFFF72FF821686FF0400008602068D9
:1017D000143050E8001F41F0800140E80012002A58
:1017E000F5D1002070BD012070BD0000591D00081A
:1017F0009B1D00086B1C000870477047FEE7000047
:101800000D4808B5016841F48001016000680022BC
:1018100000F48000009011463A20FFF7ABF93A201F
:10182000FFF79AF9002211464620FFF7A3F9BDE819
:1018300008404620FFF790B9303802402DE9F04FBC
:1018400087B014216846FEF786FD584800240168D9
:1018500041F010010160016801F01001059101687B
:1018600041F004010160016801F004010591016883
:1018700041F080010160016801F08001059101687B
:1018800041F001010160016801F001010591016869
:1018900041F002010160016801F002010591016857
:1018A00041F0080101600068DFF804A100F00800C1
:1018B00040F6F6650590002229465046FFF7E7F806
:1018C000DFF8F0B04FF46C76002231465846FFF74F
:1018D000DEF84FF40047002239463748FFF7D7F8C3
:1018E000DFF8D8904FF44068002241464846FFF7A1
:1018F000CEF800221C213248FFF7C9F87C20CDE940
:10190000000469462C480294FEF7C4FF40F60140EB
:10191000CDE90004694658460294FEF7BBFF0095E6
:101920000125CDE90154694650460394FEF7B2FF04
:101930000096CDE90154694658460394FEF7AAFF84
:10194000CDE90054694648460294FEF7A3FF00978C
:10195000CDE90154694618480394FEF79BFFCDF882
:101960000080CDE90154694648460394FEF792FF92
:101970004FF41040CDE90004694611480294FEF787
:1019800089FF2802CDE90004694650460294FEF71B
:1019900081FF1C200090CDE901546946084803945A
:1019A000FEF778FF07B0BDE8F08F00003038024046
:1019B0000000024000080240001002400004024003
:1019C000000C024010B586B0002417480094019422
:1019D000029403940494134905940160A721C0E97B
:1019E000011442F20F71C0E9031444618461FFF7EE
:1019F000F1FB08B1FEF77FFD4FF48050009069467F
:101A00000948FFF729FC08B1FEF775FD049404A905
:101A100005480594FFF796FB002801D0FEF76BFD03
:101A200006B010BD00000140680100200C4810B550
:101A30000A4901604FF4E1314160002181600C22CC
:101A4000C160C0E904128161C161FFF7E5FD0028B2
:101A500003D0BDE81040FEF74EBD10BD00100140A0
:101A6000B0010020FEE7FEE770477047FFF71AB8A5
:101A700030B593B030216846FEF76DFC14210CA8F8
:101A8000FEF769FC1E480025016841F080510160A5
:101A9000006800F0805011901A48016841F48041BC
:101AA00001600068022400F4804011900120009041
:101AB000000401908001CDE90640192008904FF400
:101AC000A870CDE9090404200B906846FFF770F96F
:101AD00008B172B6FEE70CA90F2081E831004FF47F
:101AE000A0500F904FF48050109005210CA8FFF7E4
:101AF00073F8002801D072B6FEE713B030BD0000C5
:101B000040380240007000400248016841F4700112
:101B10000160704788ED00E0F0B50268294C2A4D5D
:101B20002A4E2B4F2B4B4FF0804CA04209D06045E2
:101B300007D0A84205D0B04203D0B84201D09842A5
:101B400004D122F0700E4A6842EA0E02A0421BD075
:101B5000604519D0A84217D0B04215D0B84213D072
:101B6000984211D01C4DA8420ED01C4DA8420BD05B
:101B70001B4DA84208D01B4DA84205D01A4DA842C3
:101B800002D01A4DA84203D122F44075CA682A43F4
:101B90004D6922F080022A4302608A68C2620A68A4
:101BA0008262A04201D0984201D1096901630121FA
:101BB00041610169C90703D0016921F00101016197
:101BC000F0BD00000000014000040040000800409B
:101BD000000C00400004014000400140004401406E
:101BE0000048014000180040001C00400020004058
:101BF00010B5846842EA032224F47F440A43224356
:101C0000826010BD826822F070020A4342F0070130
:101C10008160704710B5036A046A24F0010404620D
:101C2000846924F0F00444EA021423F00A020A430F
:101C30008461026210BD10B5036A046A24F01004C6
:101C40000462846923F0A00324F4704444EA02325D
:101C500043EA01118261016210BD10B5806B002161
:101C6000C185C184FFF79FFB10BD70B5846B2068F0
:101C7000406994F84110C0F3C0100025212904D117
:101C800018B1E584204600F0B4F82068406994F863
:101C90004210C0F38010222904D118B1E5852046F6
:101CA00000F080F8606C40F0100060642046FFF7A0
:101CB0007AFB70BD10B50146806B096809684FF06A
:101CC0000002C9052ED4C28501680C3151E8003FDD
:101CD00023F4807341E80034002CF5D101681431FD
:101CE00051E8003F23F0010341E80034002CF5D116
:101CF0000168143151E8003F23F0400341E800340B
:101D0000002CF5D1202180F84210016B012909D166
:101D100001680C3151E8003F23F0100341E8003422
:101D2000002CF5D14263016B012902D0FFF726FD9B
:101D300010BD818DFFF7FEFA10BD10B5806B01213B
:101D40004163016B012902D0FFF719FD10BD818DA0
:101D50004908FFF7EFFA10BD10B50146806B09681E
:101D60000968C90516D40021C1840168143151E8FD
:101D7000002F22F0800241E80023002BF5D10168FA
:101D80000C3151E8002F42F0400241E80023002BC3
:101D9000F5D110BDFFF730FD10BD10B5806BFFF71A
:101DA0002CFD10BD01680C3151E8002F22F4907217
:101DB00041E80023002BF5D10168143151E8002FD0
:101DC00022F0010241E80023002BF5D1016B01292B
:101DD00009D101680C3151E8002F22F0100241E8CE
:101DE0000023002BF5D1202180F84210002101634F
:101DF000704701680C3151E8002F22F0C00241E821
:101E00000023002BF5D1202180F84110704708B540
:101E100090F84210222901D0022008BD82684FF4B8
:101E200080539A4201D1016921B1816A9A421BD043
:101E30004AB10AE00268816A5268C2F308020A8065
:101E4000816A891C08E0026972B10268526802F076
:101E50007F020A70816A491C8162C18D491E090492
:101E6000090CC18503D01BE002685268F1E70168E4
:101E7000CA6822F02002CA600168CA6822F480722F
:101E8000CA6001684A6922F001024A61202180F893
:101E9000421000214163026B012A03D0FFF76EFC60
:101EA000002008BD016301680C3151E8002F22F0C9
:101EB000100241E80023002BF5D101680A68D20620
:101EC00002D50A6849680091818DFFF733FAE7E788
:101ED00070B5044600680169E26821F4405111437D
:101EE00001612169A068E2690843616911430843FF
:101EF0002168CA6849F20C639A430243CA602068A9
:101F00004169A26921F4407111434161314920685E
:101F1000884202D03049884202D1FEF707FF01E033
:101F2000FEF7F4FEE2690023192164253226B2F59A
:101F3000004F626828D0A0FB0101930F9200FEF7CA
:101F400093F90146B0FBF5F06FF01802504301EB36
:101F5000800006EB0010B0FBF5F000F0F002B1FBE2
:101F6000F5F002EB0012B1FBF5F06FF018035843E7
:101F700001EB800006EB0010B0FBF5F000F00F0065
:101F800021681044886070BDA0FB010192185B417C
:101F9000FEF76AF90146B0FBF5F00201B1FBF5F07E
:101FA0006FF01803584301EB800006EBC000B0FB54
:101FB000F5F000F0F80002EB4002B1FBF5F05843F9
:101FC00001EB800006EBC000B0FBF5F000F007006D
:101FD000D6E70000001001400014014038B58162CE
:101FE00004468285002013466064222284F8422041
:101FF000E56B1B4AEA63E56B1A4A2A64E56B1A4AE9
:10200000EA64E26B10650A462168E06B091DFEF781
:1020100009FC2068016840680090206948B1206888
:102020000C3050E8001F41F4807140E80012002A93
:10203000F5D12068143050E8001F41F0010140E85C
:102040000012002AF5D12068143050E8001F41F03A
:10205000400140E80012002AF5D1002038BD000000
:10206000B51C00083B1D00086B1C000870B5E24859
:102070002DED068B82B0FFF797F9DF4C20680168E1
:10208000C943C9067ED40168406800902046FFF726
:1020900052F9E06B00684068D84DC0F16400C0B2EE
:1020A000D74C2870032832D1207852280FD160787D
:1020B00053281FD1A078542865D1D24AD249D34899
:1020C00000F008FF0322D2A1CB48FFF759FB20788C
:1020D00041280CD16078542819D1A078542816D101
:1020E00000F0E8FE0322CBA1C348FFF749FB2078AC
:1020F00052280CD160784C2809D1A078532806D1F9
:1021000000F0E0FE0322C4A1BB48FFF739FB2878AA
:102110000F2859D120784D28CED160784F28CBD1C7
:10212000A0785628C8D12079A179303800EBC002B8
:1021300002EB001001EB80006179B84E01EB8101E8
:1021400006EB4101084403F0ECFA41EC190B207A4C
:10215000A17A303800EBC00202EB001001EB8000E6
:10216000617AAE4A01EB81015A3A02EB410108441F
:1021700003F0D7FA41EC180B207BA17B303800EB41
:10218000C00201E034E1FEE002EB001001EB800050
:10219000617B01EB810106EB4101084403F0C1FAC8
:1021A00041EC120B974A98499848B0EE481AF0EE65
:1021B000681AB0EE490AF0EE690A00F003FE032245
:1021C00097A18D48FFF7DCFA28780A285BD12078A0
:1021D0005328A1D1607850289ED1A0789FED919B83
:1021E0009FED92AB442897D1A079617A303800EB0B
:1021F0004002C2EBC01001EBC000E179642211FB88
:1022000002F1227A02EB820201EB42010844A0F5BE
:10221000A050D03803F085FA41EC180B53EC192B81
:1022200003F096FA03D2B0EE498AF0EE698A53ECD5
:102230001A2B51EC180B03F0C5FB03D2B0EE4A8AFF
:10224000F0EE6A8A2079412807D17048032279A1EB
:1022500080ED088B6848FFF793FA2079422807D170
:102260006948032273A180ED088B6348FFF788FA61
:1022700020795A2807D1634803226EA180ED088B8C
:102280005D48FFF77DFA287811287CD12078502806
:1022900079D160784D2876D1A078502873D12079F3
:1022A000654D37284AD1A079644930384843E179EF
:1022B00040F2712211FB02F100EB0110217A01EBD7
:1022C0004102C2EBC11100EBC100617A01EBC10216
:1022D00002EB011100EB8100A17A01EB810100EB1F
:1022E0004100E17A0844284403F01BFA41EC180B42
:1022F000607B217C303800EB4002C2EBC01001EB68
:10230000C000A17B642211FB02F1E27B02EB82029E
:1023100001EB42010844A0F5A050D03803F001FAC7
:1023200041EC110B4648B0EE480AF0EE680A00F0A6
:102330005BFD032243A13048FFF722FA20793828B9
:102340004CD1A0793D4930384843E17940F27122BF
:1023500011FB02F100EB0110217A01EB4102C2EB0B
:10236000C11100EBC100617A01EBC10202EB011166
:1023700000EB8100A17A01EB810100EB4100E17AE1
:102380000844284400E029E003F0CBF941EC180BA5
:10239000607B217C303800EB4002C2EBC01001EBC7
:1023A000C000A17B642211FB02F1E27B02EB8202FE
:1023B00001EB42010844A0F5A050D03803F0B1F978
:1023C00041EC110B2048B0EE480AF0EE680A00F02C
:1023D0000BFD03221BA10848FFF7D2F902B06422CB
:1023E000BDEC068BBDE8704005490348FFF7B8B95E
:1023F00002B0BDEC068B70BDB0010020F0000020E3
:1024000004010020000000206000002030000020B7
:102410005253540041545400524C5300F0FDFFFFFE
:102420004D4F560000000000000049400000000031
:1024300000407F4053504400B0DCF7FFA08601000D
:1024400090000020504D5000C0000020FEE703B473
:1024500001984100009850EAC12018BF04204A0D9D
:1024600018BF40F0010040F2FF72B2EB515F08BFAD
:1024700040F00200012808BF052002B0704709079C
:10248000090E002804DB00F1E02080F800147047FA
:1024900000F00F0000F1E02080F8141D70470000EC
:1024A00070B5C1482DED020B2DED0E8B82B0119D44
:1024B00025F000449FEDBEDB9FEDBFEB84423EDB89
:1024C000A4F140511098A1F17F6108430FD0BC489E
:1024D000844202DC28D1109830B39DED100B02B07D
:1024E000BDEC0E8B02B0BDE8704000F042BA9DED2D
:1024F000100B53EC1D2B51EC100B03F065F99DED07
:10250000100B41EC180B53EC1E2B51EC100B03F08D
:102510005BF953EC182B02F0C9FE41EC100B02B032
:10252000BDEC0E8B02B070BD0120FDF743FF02B081
:10253000BDEC0E8B02B0BDE8704000F025BAA1489A
:102540009FEDA18B844256DA9DED100BB4F1795FBB
:102550000ADA51EC100BFFF77AFF042808BF00F0ED
:1025600023FA9DED100BDAE753EC102B51EC100B16
:1025700003F02AF941EC190B95480621B0EE490AFF
:10258000F0EE690A784400F078F953EC192B51EC1D
:10259000100B03F019F941EC1A0B8E48B0EE490A02
:1025A000F0EE690A0421784400F067F953EC192B26
:1025B00051EC100B03F008F953EC182B02F076FEE7
:1025C00041EC100B51EC1A0B53EC102B02F022FFD4
:1025D000CDE900019DED000B53EC102B9DED100B90
:1025E00051EC100B03F0F0F89DED101B53EC112B88
:1025F00002F05CFED2E09DED100B51EC100B00F0F0
:10260000ADFB53EC182B03F013FA9FED730BCDE9E0
:10261000000153EC102B9DED000B51EC100B03F05F
:10262000D3F841EC190B6E480621B0EE490AF0EEE2
:10263000690A784400F021F953EC192B51EC100B86
:1026400003F0C2F841EC1B0B6648B0EE490AF0EE0D
:10265000690A0421784400F010F953EC192B51EC6D
:10266000100B03F0B1F853EC182B02F01FFE41ECF5
:102670001C0B51EC190B00F029FD41EC180B5A48CA
:102680009FED5BABA04222DC53EC1C2B51EC1B0BEF
:1026900002F0C0FECDE900019DED000B51EC180BDE
:1026A00053EC102B03F090F853EC182B02F0FEFDC6
:1026B00053EC1A2B03F088F853EC1D2B03F090FA1F
:1026C00053EC1E2B03F0B4F941EC100B5FE08DEDE1
:1026D000008B002000909DED000B51EC180B53EC8B
:1026E000102B02F0E3FD9DED000B41EC1E0B53ECB3
:1026F000102B51EC100B03F067F853EC192B03F07F
:1027000097F953EC1E2B02F085FE41EC190B53ECAC
:102710001C2B51EC1B0B02F07DFE41EC1B0B53EC10
:102720001A2B51EC190B03F04FF853EC1D2B03F04F
:102730007FF941EC190B53EC1A2B51EC180B03F0F9
:1027400043F853EC1B2B03F03FF853EC192B03F029
:1027500047FA9DED000B41EC180B53EC1A2B51EC92
:10276000100B03F031F89FED249B53EC192B03F071
:102770005FF941EC100B51EC180B53EC102B03F0EC
:102780002FFA53EC192B03F053F941EC100B002DE9
:102790003FF7C5AE51EC100B02F07CFD41EC100B85
:1027A000BDE60000000000000000F03F0000000057
:1027B000075C143326A6913C182D4454FB21F93FA5
:1027C0000000F07F0000E03F000000000000F03F4C
:1027D0005838000066380000000000000000E03FAC
:1027E000AA370000B83700003333EF3F0000000085
:1027F0000000000000000040182D4454FB21E93F78
:1028000000B52DED048BB0EE409AF0EE609A83B0E7
:1028100051EC190B03F018F941EC180B18EE100AE3
:1028200018EE901A8DED008B002818BF0120084388
:1028300020F00040C0F17F6000F1E040C00F14D0F4
:1028400019EE101A19EE900A8DED009B002918BFA1
:102850000121084320F00040C0F17F6000F1E0401A
:10286000C00F04BF0120FDF7A5FDB0EE480A03B07C
:10287000F0EE680ABDEC048B00BD70B504462DED8A
:10288000028B4D1E00EBC500B0EE408AF0EE608A70
:1028900090ED000B35F0060017D053EC182B51ECDF
:1028A000100B02F091FF41EC100B6D1E04EBC50004
:1028B00090ED001B51EC100B53EC112B02F0F6FCC9
:1028C00041EC100B35F00600E7D1022D36D0042D77
:1028D0001CD0062D1CBFBDEC028B70BD53EC182B19
:1028E00051EC100B02F070FF94ED0A1B53EC112B0E
:1028F00002F0DCFC53EC182B02F066FF94ED081B91
:1029000053EC112B02F0D2FC41EC100B53EC182BC2
:1029100051EC100B02F058FF94ED061B53EC112BF9
:1029200002F0C4FC53EC182B02F04EFF94ED040BA4
:1029300053EC102B02F0BAFC41EC100B53EC182BAB
:1029400051EC100B02F040FF94ED021B53EC112BE5
:1029500002F0ACFC53EC182B02F036FF94ED001B98
:1029600053EC112B02F0A2FCBDEC028B41EC100BDE
:1029700070BD10B553EC102B51EC100B02F096FC0F
:1029800041EC100B10BD00009FED050B10B553EC92
:10299000102B51EC100B02F03DFD41EC100B10BD63
:1029A00000000000000000009FED050B10B553EC87
:1029B000102B51EC100B02F007FF41EC100B10BD77
:1029C00000000000000000102DE9F04114462DED3C
:1029D000108B0D460646B0EE429AF0EE629AB0EECB
:1029E00041DAF0EE61DAB0EE40BAF0EE60BA9FED97
:1029F00075AB9FED76EB9FED77FB9FED788B51EC00
:102A00001B0B53EC182B02F0DDFF7DD39FED750BF4
:102A100051EC1B0B53EC102B02F09AFE74D353ECC9
:102A20001A2B51EC1D0B02F0CDFF6DD353EC1E2B76
:102A300051EC1D0B02F08CFE66D353EC182B51ECBD
:102A4000190B02F0BFFF5FD353EC1F2B51EC190B96
:102A500002F07EFE58D353EC182B51EC1B0B02F006
:102A6000D9FC41EC100BFFF71BFD53EC182B51EC7C
:102A7000100B02F0A9FE9FED5D1B53EC112B02F031
:102A8000C9FC41EC1C0B9FED5B0B53EC102B02F0CF
:102A90009BFE884648EC100B074653EC182B51EC74
:102AA000100B02F0C5FF41EC1B0B9FED460B51ECE8
:102AB0001C0B53EC102B03F093F853EC1D2B02F07E
:102AC000F5FB41EC1A0B9FED3F0B53EC102B02F082
:102AD00079FF28D353EC1E2B51EC1A0B02F038FE71
:102AE00021D39FED460B51EC1B0B53EC102B02F046
:102AF00069FF18D39FED430B51EC1B0B53EC102BCC
:102B000002F026FE0FD300E057E053EC182B51ECF7
:102B1000190B02F057FF06D353EC1F2B51EC190B86
:102B200002F016FE43D248EC107B53EC182B51EC0C
:102B3000100B03F055F853EC1C2B9FED22CB41EC0E
:102B40001B0B51EC1C0B03F04BF853EC1D2B02F04C
:102B5000ADFB41EC1A0B53EC1C2B02F033FF2CD3D2
:102B600053EC1E2B51EC1A0B02F0F2FD25D351EC65
:102B70001B0B9FED220B53EC102B02F023FF1CD3F9
:102B800051EC1B0B9FED1F0B53EC102B02F0E0FDE3
:102B900013D353EC182B51EC190B02F013FF0CD389
:102BA00053EC1F2B51EC190B02F0D2FD05D386ED2F
:102BB00000AB85ED00BB84ED009BBDEC108BBDE848
:102BC000F08100000000000000805640000000007E
:102BD000008056C0000000000000544000000000CB
:102BE000008066400000000000005240182D445450
:102BF000FB21094000000000000000400000000030
:102C000000A060400000000000A060C010B590ED82
:102C1000020B90ED041B53EC102B51EC110B02F046
:102C2000DFFF9FED0B1B53EC112B02F0CDFD9FED51
:102C30000A1B53EC112B02F0C7FD9FED091B53EC4F
:102C4000112B02F0E7FBBDE8104002F03BBD000095
:102C50000000000000003E40000000000000204096
:102C6000CDCCCCCCCCCCFC3F10B590ED020B90ED94
:102C7000041B53EC102B51EC110B02F0B1FF9FED34
:102C80000E1B53EC112B02F0C5FB9FED0D1B53ECFB
:102C9000112B02F099FD9FED0C1B53EC112B02F050
:102CA00093FD9FED0B1B53EC112B02F0B3FBBDE822
:102CB000104002F007BD00008FC2F5285C8FEA3F8C
:102CC0000000000000003E40000000000000204026
:102CD000CDCCCCCCCCCCFC3F10B590ED020B90ED24
:102CE000041B53EC102B51EC110B02F079FFBDE8E3
:102CF000104002F0E7BC0000F0B5002541F21116CB
:102D000042F20F741449B71023E02346984200D8CA
:102D100003460A6855620A68D2F800C04CF0010CFC
:102D2000C2F800C0D1F80020D2F824C09C45FBD3E3
:102D3000D2F820C01CEA060F0AD1D2F820C01CEA43
:102D4000070F05D1D2F800C02CF0010CC2F800C06A
:102D5000C01A0028D9D1F0BD6801002082B0CDE9A9
:102D6000000121F0004001909DED000B02B051ECFC
:102D7000100B7047FDF79EFEFEF77AFEFEF75EFD34
:102D8000FEF73EFDFEF71EFEFEF750FE0A48006805
:102D9000C16841F01001C160642208490648FEF78D
:102DA000DFFC00F08FF8064A02F16001A1F130006B
:102DB00000F090F8FEE70000B001002004010020C0
:102DC0000000002070B514460D4606461032103142
:102DD0001030FFF7F9FD204602F056F9294630463B
:102DE000BDE8704001F02ABB10B504462DED088BFC
:102DF000B0EE408AF0EE608AB0EE41BAF0EE61BA11
:102E00009FED26AB9FED279B53EC1A2B51EC180B33
:102E100002F0D8FD06D953EC192B51EC180B02F037
:102E200097FC02D884ED08BB12E053EC1A2B51EC4E
:102E3000180B02F08DFC02D284ED08AB08E053ECD5
:102E4000192B51EC180B02F0BDFD01D284ED089B4B
:102E50009FED160B84ED048B84ED020B2068042893
:102E60000AD007280FD0082814D1BDEC088B2046C3
:102E7000BDE8104000F00CBFBDEC088B2046BDE85B
:102E8000104000F08FBABDEC088B2046BDE8104022
:102E900000F0C6BCBDEC088B10BD000000000000B7
:102EA000000049400000000000409F40000000007A
:102EB00000000000012202210148FDF7E8BD0000EA
:102EC00000000240002202210148FDF7E0BD0000A1
:102ED000000002402DE9F05F704E92468B46054699
:102EE0002DED028B002210213046FDF7D0FDDFF8DA
:102EF000B0810022F11447464046FDF7C8FDDFF8D7
:102F0000A4917415002221464846FDF7C0FD012218
:102F100004213046FDF7BBFD002221463846FDF76F
:102F2000B6FD012280214846FDF7B1FD5E4C12E05E
:102F30005A4F012208213846FDF7A9FD4FF4FA76D1
:102F40003046FFF7D9FE002208213846FDF79FFDE5
:102F50003046FFF7D1FE10212046FDF793FD9FED8F
:102F6000538B4FF48066B7100028E1D095ED020B2B
:102F700053EC182B51EC100B02F0EAFB2FD811E0A8
:102F8000012211024F464846FDF781FDC820FFF798
:102F9000B3FE00224FF480713846FDF778FDC8205B
:102FA000FFF7AAFE08212046FDF76CFD0028E7D0B8
:102FB000474604212046FDF765FDC0BB012231468E
:102FC0003846FDF764FDC820FFF796FE0022314623
:102FD0003846FDF75CFDC820FFF78EFEE9E795ED6A
:102FE000020B53EC182B51EC100B02F0EBFC1ED231
:102FF00011E00122910246464046FDF748FDC820F7
:10300000FFF77AFE00224FF480613046FDF73FFD66
:10301000C820FFF771FE04212046FDF733FD00288C
:10302000E7D04E4608212046FDF72CFD20B30122B3
:1030300010211A48FDF72BFD0122D1024046FDF771
:1030400026FD012251024846FDF721FD9FED190B97
:1030500085ED040B85ED020B9FED180B8BED040B3A
:103060008BED020B9FED170B8AED040B8AED020B23
:10307000BDEC028BBDE8F09F012239463046FDF7DA
:1030800006FDC820FFF738FE002239463046FDF71E
:10309000FEFCC820FFF730FEC4E70000000C024031
:1030A0000000024000080240001002400000000042
:1030B0000000000000000000004059C000000000B7
:1030C00000A06040000000000080664000B52DEDCB
:1030D000048B83B041EC190B02F0B6FC41EC180BE9
:1030E00018EE100A18EE901A8DED008B002818BF0C
:1030F0000120084320F00040C0F17F6000F1E04073
:10310000C00F14D019EE101A19EE900A8DED009B25
:10311000002918BF0121084320F00040C0F17F6062
:1031200000F1E040C00F04BF0120FDF743F951EC6E
:10313000180B03B0BDEC048B00BD00002DE9F04F6F
:10314000924C16462DED0A8B0F4605464FF4006B48
:1031500081B0B0EE40BAF0EE60BA00225946204687
:10316000FDF795FC8A484FF40041012D02D06D1CFB
:1031700002D004E0012200E00022FDF788FC9FED70
:10318000859B9FED86AB4FF48068B7427ADA38466C
:1031900002F0C7FA41EC100B51EC190B53EC102B59
:1031A00002F038F941EC180B304602F0BAFA41EC63
:1031B000100B51EC190B53EC102B02F02BF941ECD6
:1031C0001C0B53EC1A2B51EC1B0B02F0FDFA814641
:1031D00041EC1A0B009153EC1C2B51EC1C0B02F030
:1031E000F3FA41EC1B0B53EC182B51EC180B02F0CB
:1031F000EBFA53EC1B2B02F0F3FC53EC1A2B02F00E
:1032000009F902F05FFA0746002637E0012241463D
:103210002046FDF73CFC53EC182B51EC190B02F047
:10322000F9F88A464AEC100B054651EC100B02F0F7
:1032300049FAFFF761FD002241462046FDF727FCD1
:103240004AEC105B51EC100B02F03CFAFFF754FD16
:10325000009953EC182B41EC1A9B51EC180B02F01F
:10326000B3FA53EC1A2B02F0BBFC41EC100BFFF746
:10327000C7FAB0EE408AF0EE608A761CBE42C5DB2B
:103280007AE0FFE778DD384602F04BFA41EC100BAC
:1032900051EC190B53EC102B02F0BCF841EC180B5D
:1032A000304602F03EFA41EC100B51EC190B53EC96
:1032B000102B02F0AFF841EC1C0B53EC1A2B51EC25
:1032C0001B0B02F081FA814641EC1A0B009153EC82
:1032D000182B51EC180B02F077FA41EC1B0B53EC56
:1032E0001C2B51EC1C0B02F06FFA53EC1B2B02F061
:1032F00077FC53EC1A2B02F08DF802F0E3F9074645
:10330000002637E0012241462046FDF7C0FB53EC82
:10331000182B51EC190B02F07DF88A464AEC100B81
:10332000054651EC100B02F0CDF9FFF7E5FC002249
:1033300041462046FDF7ABFB4AEC105B51EC100B0D
:1033400002F0C0F9FFF7D8FC009953EC182B41ECC0
:103350001A9B51EC180B02F037FA53EC1A2B01F0C0
:10336000A5FF41EC100BFFF74BFAB0EE408AF0EEF0
:10337000608A761CBE42C5DB01B05946BDEC0A8BA3
:1033800020460122BDE8F04FFDF781BB000402405A
:1033900000100240000000000000E03F00000000BC
:1033A000000000402DE9F04F05462DED0C8B81B05B
:1033B0004668FFF791FC040095ED08BB95ED06AB60
:1033C000D5F828A0204601D5764244429FED5ACB3D
:1033D00051EC1A0B53EC1C2B02F0F6F9834641EC2E
:1033E000190B5046009102F09CF9894649EC110BEB
:1033F000804653EC112B47469FED518B51EC180B37
:1034000002F008F849EC107B41EC1D0B53EC102B3B
:1034100051EC180B01F0FEFF53EC1D2B02F0D4F918
:1034200041EC1D0B53EC1B2B51EC180B01F0F2FF80
:1034300041EC110B53EC112B02F0C6F953EC1D2B90
:1034400002F0CEFB53EC192B01F0E4FF02F03AF945
:10345000404204EB4007002F02DD51EC1B0B3FE024
:1034600053EC1C2B51EC1B0B02F0AEF941EC190B89
:10347000009949EC108B41EC1BBB53EC102B51EC29
:10348000180B01F0C7FF49EC108B41EC1C0B53ECFF
:10349000102B51EC180B01F0BDFF53EC1C2B02F06C
:1034A00093F941EC1C0B53EC192B51EC180B01F068
:1034B000B1FF41EC110B53EC112B02F085F953ECE9
:1034C0001C2B02F08DFB53EC1B2B01F0A3FF02F031
:1034D000F9F8404204EB4007002F1CDD51EC190BBA
:1034E00002F0F0F80446224651463046B0EE4A0A51
:1034F000F0EE6A0AFFF722FE22463946304600F017
:1035000027F8214652463046B0EE4A0AF0EE6A0AE3
:10351000FFF714FE04E052462146304600F018F84A
:103520009FED090B85ED040B85ED020B01B0BDECA1
:103530000C8BBDE8F08F0000000000000000004090
:10354000000000000000E03F00000000000000005C
:103550002DE9F0471A4D91460E4604464FF4006897
:10356000002241462846FDF792FA16484FF40041E2
:10357000012C02D0641C02D004E0012200E00022F1
:10358000FDF785FA00244FF480670FE0394628469E
:10359000FDF77DFA4846FFF7AFFB00223946284683
:1035A000FDF775FA4846FFF7A7FB641CB4424FF0DD
:1035B0000102EBDB41462846BDE8F047FDF767BA5C
:1035C00000040240001002402DE9F0478E4C1646E0
:1035D0002DED0A8B0F460546B0EE40BAF0EE60BA0C
:1035E000002220212046FDF752FA8848012D02D002
:1035F0006D1C02D005E0012200E000228021FDF7D1
:1036000046FA9FED839B9FED84ABB74279DA38464B
:1036100002F087F841EC100B51EC190B53EC102B16
:1036200001F0F8FE41EC180B304602F07AF841EC5C
:10363000100B51EC190B53EC102B01F0EBFE41EC8D
:103640001C0B53EC1A2B51EC1B0B02F0BDF88A46F5
:1036500080464AEC1A0B53EC1C2B51EC1C0B02F06D
:10366000B3F841EC1B0B53EC182B51EC180B02F088
:10367000ABF853EC1B2B02F0B3FA53EC1A2B01F00E
:10368000C9FE02F01FF80746002636E0012210218D
:103690002046FDF7FCF953EC182B51EC190B01F007
:1036A000B9FE894649EC100B054651EC100B02F0AF
:1036B00009F8FFF721FB002210212046FDF7E7F96A
:1036C00049EC105B51EC100B01F0FCFFFFF714FB11
:1036D0004AEC1A8B53EC182B51EC180B02F074F8CF
:1036E00053EC1A2B02F07CFA41EC100BFFF788F830
:1036F000B0EE408AF0EE608A761CBE42C6DB79E00E
:10370000FFE777DD384602F00CF841EC100B51EC86
:10371000190B53EC102B01F07DFE41EC180B3046D9
:1037200001F0FFFF41EC100B51EC190B53EC102B87
:1037300001F070FE41EC1C0B53EC1A2B51EC1B0BEF
:1037400002F042F88A4680464AEC1A0B53EC182BDA
:1037500051EC180B02F038F841EC1B0B53EC1C2B0E
:1037600051EC1C0B02F030F853EC1B2B02F038FA32
:1037700053EC1A2B01F04EFE01F0A4FF0746002681
:1037800036E0012210212046FDF781F953EC182B79
:1037900051EC190B01F03EFE894649EC100B054631
:1037A00051EC100B01F08EFFFFF7A6FA002210215A
:1037B0002046FDF76CF949EC105B51EC100B01F061
:1037C00081FFFFF799FA4AEC1A8B53EC182B51EC56
:1037D000180B01F0F9FF53EC1A2B01F067FD41ECD7
:1037E000100BFFF70DF8B0EE408AF0EE608A761C01
:1037F000BE42C6DBBDEC0A8B204601222021BDE87B
:10380000F047FDF744B90000000802400000024004
:10381000000000000000E03F000000000000004049
:103820002DE9F04F05462DED0C8B81B04668FFF772
:1038300053FA040095ED08BB95ED06ABD5F828A02A
:10384000204601D5764244429FED5ACB51EC1A0BEB
:1038500053EC1C2B01F0B8FF834641EC190B50468A
:10386000009101F05EFF894649EC110B804653EC54
:10387000112B47469FED518B51EC180B01F0CAFDFF
:1038800049EC107B41EC1D0B53EC102B51EC180B49
:1038900001F0C0FD53EC1D2B01F096FF41EC1D0B18
:1038A00053EC1B2B51EC180B01F0B4FD41EC110B48
:1038B00053EC112B01F088FF53EC1D2B02F090F913
:1038C00053EC192B01F0A6FD01F0FCFE404204EB85
:1038D0004007002F02DD51EC1B0B3FE053EC1C2B8B
:1038E00051EC1B0B01F070FF41EC190B009949ECF6
:1038F000108B41EC1BBB53EC102B51EC180B01F05F
:1039000089FD49EC108B41EC1C0B53EC102B51EC56
:10391000180B01F07FFD53EC1C2B01F055FF41EC1F
:103920001C0B53EC192B51EC180B01F073FD41ECFF
:10393000110B53EC112B01F047FF53EC1C2B02F041
:103940004FF953EC1B2B01F065FD01F0BBFE40422B
:1039500004EB4007002F1CDD51EC190B01F0B2FE07
:103960000446224651463046B0EE4A0AF0EE6A0A54
:10397000FFF72AFE22463946304600F027F8214656
:1039800052463046B0EE4A0AF0EE6A0AFFF71CFED5
:1039900004E052462146304600F018F89FED090B2E
:1039A00085ED040B85ED020B01B0BDEC0C8BBDE881
:1039B000F08F000000000000000000400000000048
:1039C0000000E03F00000000000000002DE9F04191
:1039D000184D17460E460446002220212846FDF7C2
:1039E00056F81548012C02D0641C02D005E00122D3
:1039F00000E000228021FDF74AF800240FE01021AA
:103A00002846FDF744F83846FFF776F900221021E2
:103A10002846FDF73CF83846FFF76EF9641CB442BF
:103A20004FF00102EBDB2846BDE8F0412021FDF715
:103A30002EB8000000080240000002402DE9F047C7
:103A40008E4C16462DED0A8B0F460546B0EE40BA59
:103A5000F0EE60BA002240212046FDF718F8012D53
:103A600002D06D1C02D006E0012200E000221021ED
:103A70002046FDF70CF89FED829B9FED83ABB7428C
:103A800079DA384601F04DFE41EC100B51EC190B80
:103A900053EC102B01F0BEFC41EC180B304601F04A
:103AA00040FE41EC100B51EC190B53EC102B01F0C4
:103AB000B1FC41EC1C0B53EC1A2B51EC1B0B01F02D
:103AC00083FE8A4680464AEC1A0B53EC1C2B51ECC1
:103AD0001C0B01F079FE41EC1B0B53EC182B51EC45
:103AE000180B01F071FE53EC1B2B02F079F853EC2C
:103AF0001A2B01F08FFC01F0E5FD0746002636E0A9
:103B0000012220212046FCF7C2FF53EC182B51EC78
:103B1000190B01F07FFC894649EC100B054651EC6E
:103B2000100B01F0CFFDFFF7E7F80022202120461F
:103B3000FCF7ADFF49EC105B51EC100B01F0C2FD3E
:103B4000FFF7DAF84AEC1A8B53EC182B51EC180BF0
:103B500001F03AFE53EC1A2B02F042F841EC100B44
:103B6000FEF74EFEB0EE408AF0EE608A761CBE4252
:103B7000C6DB79E0FFE777DD384601F0D2FD41ECA6
:103B8000100B51EC190B53EC102B01F043FC41ECE2
:103B9000180B304601F0C5FD41EC100B51EC190B30
:103BA00053EC102B01F036FC41EC1C0B53EC1A2BA0
:103BB00051EC1B0B01F008FE8A4680464AEC1A0BBA
:103BC00053EC182B51EC180B01F0FEFD41EC1B0BD4
:103BD00053EC1C2B51EC1C0B01F0F6FD53EC1B2B92
:103BE00001F0FEFF53EC1A2B01F014FC01F06AFD0A
:103BF0000746002636E0012220212046FCF747FF39
:103C000053EC182B51EC190B01F004FC894649ECDC
:103C1000100B054651EC100B01F054FDFFF76CF84A
:103C2000002220212046FCF732FF49EC105B51ECCA
:103C3000100B01F047FDFFF75FF84AEC1A8B53ECCD
:103C4000182B51EC180B01F0BFFD53EC1A2B01F0AF
:103C50002DFB41EC100BFEF7D3FDB0EE408AF0EEE9
:103C6000608A761CBE42C6DBBDEC0A8B2046012270
:103C70004021BDE8F047FCF70ABF00000000024009
:103C8000000000000000E03F0000000000000040D5
:103C90002DE9F04F05462DED0C8B81B04668FFF7FE
:103CA0001BF8040095ED08BB95ED06ABD5F828A0F0
:103CB000204601D5764244429FED5ACB51EC1A0B77
:103CC00053EC1C2B01F080FD834641EC190B504650
:103CD000009101F026FD894649EC110B804653EC1A
:103CE000112B47469FED518B51EC180B01F092FBC5
:103CF00049EC107B41EC1D0B53EC102B51EC180BD5
:103D000001F088FB53EC1D2B01F05EFD41EC1D0B17
:103D100053EC1B2B51EC180B01F07CFB41EC110B0D
:103D200053EC112B01F050FD53EC1D2B01F058FF0B
:103D300053EC192B01F06EFB01F0C4FC404204EB84
:103D40004007002F02DD51EC1B0B3FE053EC1C2B16
:103D500051EC1B0B01F038FD41EC190B009949ECBB
:103D6000108B41EC1BBB53EC102B51EC180B01F0EA
:103D700051FB49EC108B41EC1C0B53EC102B51EC1C
:103D8000180B01F047FB53EC1C2B01F01DFD41EC1F
:103D90001C0B53EC192B51EC180B01F03BFB41ECC5
:103DA000110B53EC112B01F00FFD53EC1C2B01F008
:103DB00017FF53EC1B2B01F02DFB01F083FC40425D
:103DC00004EB4007002F1CDD51EC190B01F07AFCCD
:103DD0000446224651463046B0EE4A0AF0EE6A0AE0
:103DE000FFF72CFE22463946304600F027F82146E0
:103DF00052463046B0EE4A0AF0EE6A0AFFF71EFE5F
:103E000004E052462146304600F018F89FED090BB9
:103E100085ED040B85ED020B01B0BDEC0C8BBDE80C
:103E2000F08F0000000000000000004000000000D3
:103E30000000E03F00000000000000002DE9F0411C
:103E4000184D17460E460446002240212846FCF72E
:103E50001EFE012C02D0641C02D006E0012200E00C
:103E6000002210212846FCF712FE00240FE020213A
:103E70002846FCF70CFE3846FEF73EFF00222021C4
:103E80002846FCF704FE3846FEF736FF641CB442B1
:103E90004FF00102EBDB2846BDE8F0414021FCF782
:103EA000F6BD0000000002402DE9F04F924C16468E
:103EB0002DED0A8B0F4605464FF4006B81B0B0EE36
:103EC00040BAF0EE60BA002259462046FCF7DFFD0A
:103ED0006115012D02D06D1C02D005E0012200E029
:103EE00000222046FCF7D3FD9FED849B9FED85AB20
:103EF0004FF48068B7427ADA384601F012FC41ECA0
:103F0000100B51EC190B53EC102B01F083FA41EC20
:103F1000180B304601F005FC41EC100B51EC190B6D
:103F200053EC102B01F076FA41EC1C0B53EC1A2BDE
:103F300051EC1B0B01F048FC814641EC1A0B00913F
:103F400053EC1C2B51EC1C0B01F03EFC41EC1B0B09
:103F500053EC182B51EC180B01F036FC53EC1B2BD7
:103F600001F03EFE53EC1A2B01F054FA01F0AAFBCB
:103F70000746002637E0012241462046FCF787FD30
:103F800053EC182B51EC190B01F044FA8A464AEC19
:103F9000100B054651EC100B01F094FBFEF7ACFE44
:103FA000002241462046FCF772FD4AEC105B51ECC2
:103FB000100B01F087FBFEF79FFE009953EC182BC6
:103FC00041EC1A9B51EC180B01F0FEFB53EC1A2B41
:103FD00001F006FE41EC100BFEF712FCB0EE408A39
:103FE000F0EE608A761CBE42C5DB7AE0FFE778DD42
:103FF000384601F096FB41EC100B51EC190B53ECD9
:10400000102B01F007FA41EC180B304601F089FB48
:1040100041EC100B51EC190B53EC102B01F0FAF999
:1040200041EC1C0B53EC1A2B51EC1B0B01F0CCFB9D
:10403000814641EC1A0B009153EC182B51EC180BF4
:1040400001F0C2FB41EC1B0B53EC1C2B51EC1C0B85
:1040500001F0BAFB53EC1B2B01F0C2FD53EC1A2B01
:1040600001F0D8F901F02EFB0746002637E00122C7
:1040700041462046FCF70BFD53EC182B51EC190B75
:1040800001F0C8F98A464AEC100B054651EC100BBA
:1040900001F018FBFEF730FE002241462046FCF7F7
:1040A000F6FC4AEC105B51EC100B01F00BFBFEF739
:1040B00023FE009953EC182B41EC1A9B51EC180B82
:1040C00001F082FB53EC1A2B01F0F0F841EC100BDD
:1040D000FEF796FBB0EE408AF0EE608A761CBE4298
:1040E000C5DB01B05946BDEC0A8B20460122BDE874
:1040F000F04FFCF7CCBC00000000024000000000C4
:104100000000E03F00000000000000402DE9F04703
:104110001A4D91460E4604464FF40068002241466F
:104120002846FCF7B4FC6915012C02D0641C02D0AF
:1041300005E0012200E000222846FCF7A8FC00244C
:104140004FF480670FE039462846FCF7A0FC48464C
:10415000FEF7D2FD002239462846FCF798FC484677
:10416000FEF7CAFD641CB4424FF00102EBDB41468E
:104170002846BDE8F047FCF78ABC0000000002407A
:104180002DE9F04FA74C93462DED0A8B0D460646C0
:1041900083B01F46B0EE40BAF0EE60BA00224FF492
:1041A00000612046FCF773FCDFF87C820022611579
:1041B0004046FCF76CFC012E02D0761C02D007E0D2
:1041C000012200E000224FF400712046FCF75FFC62
:1041D000012D02D06D1C02D006E0012200E0002279
:1041E00080214046FCF753FC58469FED909B9FED85
:1041F00091AB4FF480694FF4807ABB457EDA01F0D1
:1042000090FA41EC100B51EC190B53EC102B01F010
:1042100001F941EC180B384601F083FA41EC100B20
:1042200051EC190B53EC102B01F0F4F841EC1C0B82
:1042300053EC1A2B51EC1B0B01F0C6FA834641ECF0
:104240001A0B019153EC1C2B51EC1C0B01F0BCFA26
:1042500041EC1B0B53EC182B51EC180B01F0B4FA8A
:1042600053EC1B2B01F0BCFC53EC1A2B01F0D2F8E1
:1042700001F028FA074600263EE001224946204682
:10428000FCF705FC012251464046FCF700FC53ECCC
:10429000182B51EC190B01F0BDF80546009101F007
:1042A00011FAFEF729FD002249462046FCF7EFFBF4
:1042B000002251464046FCF7EAFB009941EC105BB6
:1042C00051EC100B01F0FEF9FEF716FD019953ECCD
:1042D000182B41EC1ABB51EC180B01F075FA53EC9A
:1042E0001A2B01F07DFC41EC100BFEF789FAB0EEC1
:1042F000408AF0EE608A761CBE4200E001E0BCDB42
:1043000081E07DDD01F00DFA41EC100B51EC190B51
:1043100053EC102B01F07EF841EC180B384601F0FD
:1043200000FA41EC100B51EC190B53EC102B01F07F
:1043300071F841EC1C0B53EC1A2B51EC1B0B01F0E8
:1043400043FA834641EC1A0B019153EC182B51ECC4
:10435000180B01F039FA41EC1B0B53EC1C2B51EC00
:104360001C0B01F031FA53EC1B2B01F039FC53EC20
:104370001A2B01F04FF801F0A5F9074600263EE0A0
:10438000012249462046FCF782FB01225146404665
:10439000FCF77DFB53EC182B51EC190B01F03AF8AC
:1043A0000546009101F08EF9FEF7A6FC0022494671
:1043B0002046FCF76CFB002251464046FCF767FBA9
:1043C000009941EC105B51EC100B01F07BF9FEF70A
:1043D00093FC019953EC182B41EC1ABB51EC180BD0
:1043E00001F0F2F953EC1A2B00F060FF41EC100BD6
:1043F000FEF706FAB0EE408AF0EE608A761C00E026
:1044000001E0BE42BCDB0122D1022046FCF73FFBAB
:1044100003B04046BDEC0A8B01225102BDE8F04FCB
:10442000FCF735BB0000024000080240000000001D
:104430000000E03F00000000000000402DE9F04FC8
:104440000E462DED108B9BB00746D0F804B0D1F886
:1044500004A0FEF7DBFB05463046FEF7D7FB96EDE2
:10446000081B97ED080B044653EC112B51EC100B75
:1044700001F0A8FA02D296ED08AB01E097ED08AB87
:1044800096ED060B97ED061B97ED08CB96ED08DB36
:1044900053EC102B51EC110B01F094FA02D296ED73
:1044A00006BB01E097ED06BB97ED060B8DED0E0BFD
:1044B000D7F82880D6F8289096ED06FBC84501DD90
:1044C000404600E048460290002D02DACBF1000B96
:1044D0006D42002C02DACAF1000A64429FEDFD9B96
:1044E0009FEDFE8B53EC192B51EC1B0BA5427CDB93
:1044F00001F06AF9CDE9080141EC1D0B029801F0C9
:1045000010F941EC100B109181461291079053EC79
:10451000102B51EC180B00F07DFF41EC1E0B129993
:1045200041EC109B51EC180B53EC102B00F072FF78
:1045300053EC1E2B01F048F941EC1E0B53EC1A2BE7
:1045400051EC180B00F066FF41EC100B53EC102BF4
:1045500001F03AF953EC1E2B01F042FB53EC1D2BFA
:1045600000F058FF01F0AEF8404204EB4009B9F109
:10457000000F45DC53EC192B51EC1A0B01F024F918
:1045800041EC1A0BDDE9080141EC1E0B109907986C
:1045900041EC100B51EC180B53EC102B00F03AFFD0
:1045A00041EC1D0B1099079841EC100B51EC180BC6
:1045B00053EC102B00F02EFF53EC1D2B01F004F9EF
:1045C00041EC1D0B53EC1A2B51EC180B00F022FFA1
:1045D00041EC100B53EC102B01F0F6F853EC1D2BB3
:1045E00001F0FEFA53EC1E2B00E0D6E000F012FFC3
:1045F00001F068F8414204EB4109B9F1000F1FDDF9
:1046000051EC1A0B01F05EF80346039051465846F0
:10461000B0EE4B0AF0EE6B0A029AFFF7B1FD4A4684
:1046200051465846039B00F035FADDE90232514607
:104630005846B0EE4B0AF0EE6B0AFFF7A1FD05E01D
:10464000224651465846029B00F024FA9DED0E0B7F
:104650002C1B53EC192B51EC100B01F0B5F8CDE9E4
:10466000040141EC1A0B404601F05BF88946824692
:1046700049EC100B554653EC102B51EC180B00F085
:10468000C9FE49EC105B41EC1B0B53EC102B51ECB9
:10469000180B00F0BFFE53EC1B2B01F095F841EC1A
:1046A0001B0B53EC1C2B51EC180B00F0B3FE41EC30
:1046B000100B53EC102B01F087F853EC1B2B01F07F
:1046C0008FFA53EC1A2B00F0A5FE00F0FBFF4042DE
:1046D00004EB4005002D02DD51EC1C0B40E053ECD7
:1046E000192B51EC1C0B01F06FF841EC190BDDE9B3
:1046F000040149EC10AB41EC1A0B53EC102B51ECBC
:10470000180B00F087FE49EC10AB41EC1B0B53EC8F
:10471000102B51EC180B00F07DFE53EC1B2B01F01D
:1047200053F841EC1B0B53EC192B51EC180B00F018
:1047300071FE41EC100B53EC102B01F045F853ECDB
:104740001B2B01F04DFA53EC1A2B00F063FE00F026
:10475000B9FF404204EB4005002D18DD51EC190B68
:1047600000F0B0FF04462246414658469DED0E0B30
:10477000FFF79AFB224629465846FFF7C7FC214619
:10478000424658469DED0E0BFFF78EFB74E1424604
:1047900021465846FFF7BAFC6EE101F015F841ECEE
:1047A0001C0B0C900E91029800F0BBFF41EC100B1B
:1047B000CDE9060180460F9153EC102B51EC180BFC
:1047C00000F028FE41EC1E0B0F9941EC108B51ECD0
:1047D000180B53EC102B00F01DFE53EC1E2B00F0B9
:1047E000F3FF41EC1E0B53EC1A2B51EC180B00F0AD
:1047F00011FE41EC100B53EC102B00F0E5FF53ECD5
:104800001E2B01F0EDF953EC1C2B00F003FE00F021
:1048100059FF404205EB4008B8F1000F11DD51ECA3
:104820001A0B00F04FFF0346039051465846B0EE76
:104830004B0AF0EE6B0A029AFFF7A2FC4246039B7A
:104840005DE053EC192B51EC1A0B00F0BDFF41EC6D
:104850001A0B0E990C9841EC1E0BDDE9060141EC98
:10486000100B51EC180B53EC102B00F0D3FD41EC66
:104870001C0BDDE9060141EC100B51EC180B53EC5D
:10488000102B00F0C7FD53EC1C2B00F09DFF41ECFA
:104890001C0B53EC1A2B51EC180B00F0BBFD41EC38
:1048A000100B53EC102B00F08FFF53EC1C2B01F07E
:1048B00097F953EC1E2B00F0ADFD00F003FF4142D1
:1048C00005EB4108B8F1000F28DD51EC1A0B00F0A0
:1048D000F9FE07E0000000000000004000000000BA
:1048E0000000E03F0346039051465846B0EE4B0AA5
:1048F000F0EE6B0A029AFFF743FC039B42465146D7
:10490000584600F0C7F8DDE9023251465846B0EE8D
:104910004B0AF0EE6B0AFFF733FC05E02A465146DE
:104920005846029B00F0B6F8641B53EC192B51EC6F
:104930001F0B00F049FF41EC1A0B0290069148460C
:1049400000F0EFFE8846834648EC100B5D4653ECC2
:10495000102B51EC180B00F05DFD48EC105B41ECA6
:104960001B0B53EC102B51EC180B00F053FD53ECC8
:104970001B2B00F029FF41EC1B0B53EC1D2B51ECC2
:10498000180B00F047FD41EC100B53EC102B00F01E
:104990001BFF53EC1B2B01F023F953EC1A2B00F0F7
:1049A00039FD00F08FFE404204EB4005002D02DD92
:1049B00051EC1D0B40E053EC192B51EC1D0B00F09A
:1049C00003FF41EC190B0699029848EC10BB41EC2F
:1049D0001A0B53EC102B51EC180B00F01BFD48EC9C
:1049E00010BB41EC1B0B53EC102B51EC180B00F0DF
:1049F00011FD53EC1B2B00F0E7FE41EC1B0B53ECBD
:104A0000192B51EC180B00F005FD41EC100B53EC89
:104A1000102B00F0D9FE53EC1B2B01F0E1F853EC06
:104A20001A2B00F0F7FC00F04DFE404204EB40056D
:104A3000002D1CDD51EC190B00F044FE044622460B
:104A400049465046B0EE4F0AF0EE6F0A00F086F885
:104A500022462946504600F0B3F921464A465046C0
:104A6000B0EE4F0AF0EE6F0A00F078F804E04A4624
:104A70002146504600F0A4F997ED040B87ED020B98
:104A800096ED040B86ED020B1BB0BDEC108BBDE860
:104A9000F08F00002DE9FF5F2E4D17460C460646AD
:104AA0004FF4006A002251462846FBF7F0FFDFF87A
:104AB000A8804FF4007B002259464046FBF7E7FFF1
:104AC000012E02D0761C02D006E0012200E0002276
:104AD00059462846FBF7DBFF012C02D0641C02D0AC
:104AE00006E0012200E0002280214046FBF7CFFFD4
:104AF000464600244FF480694FF4807819E0494617
:104B00002846FBF7C4FF012241463046FBF7BFFFB2
:104B10000398FEF7F1F8002249462846FBF7B7FF55
:104B2000002241463046FBF7B2FF0398FEF7E4F857
:104B3000641CBC424FF00102E1DB51462846FBF702
:104B4000A6FF04B059463046BDE8F05F0122FBF7EE
:104B50009EBF000000000240000802402DE9F04F17
:104B6000924C16462DED0A8B0F4605464FF4007BFE
:104B700081B0B0EE40BAF0EE60BA0022594620464D
:104B8000FBF785FF012D02D06D1C02D006E001224B
:104B900000E0002280212046FBF779FF9FED849BF7
:104BA0009FED85AB4FF48078B7427ADA384600F053
:104BB000B8FD41EC100B51EC190B53EC102B00F02D
:104BC00029FC41EC180B304600F0ABFD41EC100B1A
:104BD00051EC190B53EC102B00F01CFC41EC1C0B9E
:104BE00053EC1A2B51EC1B0B00F0EEFD814641EC0F
:104BF0001A0B009153EC1C2B51EC1C0B00F0E4FD44
:104C000041EC1B0B53EC182B51EC180B00F0DCFDA6
:104C100053EC1B2B00F0E4FF53EC1A2B00F0FAFBD3
:104C200000F050FD0746002637E0012241462046AD
:104C3000FBF72DFF53EC182B51EC190B00F0EAFB9E
:104C40008A464AEC100B054651EC100B00F03AFD79
:104C5000FEF752F8002241462046FBF718FF4AECC7
:104C6000105B51EC100B00F02DFDFEF745F800999C
:104C700053EC182B41EC1A9B51EC180B00F0A4FDDF
:104C800053EC1A2B00F0ACFF41EC100BFDF7B8FD14
:104C9000B0EE408AF0EE608A761CBE42C5DB7AE058
:104CA000FFE778DD384600F03CFD41EC100B51EC9D
:104CB000190B53EC102B00F0ADFB41EC180B3046F8
:104CC00000F02FFD41EC100B51EC190B53EC102BA5
:104CD00000F0A0FB41EC1C0B53EC1A2B51EC1B0B0E
:104CE00000F072FD814641EC1A0B009153EC182B39
:104CF00051EC180B00F068FD41EC1B0B53EC1C2B26
:104D000051EC1C0B00F060FD53EC1B2B00F068FF16
:104D100053EC1A2B00F07EFB00F0D4FC0746002673
:104D200037E0012241462046FBF7B1FE53EC182B39
:104D300051EC190B00F06EFB8A464AEC100B05464D
:104D400051EC100B00F0BEFCFDF7D6FF00224146EF
:104D50002046FBF79CFE4AEC105B51EC100B00F078
:104D6000B1FCFDF7C9FF009953EC182B41EC1A9BDD
:104D700051EC180B00F028FD53EC1A2B00F096FABA
:104D800041EC100BFDF73CFDB0EE408AF0EE608A7E
:104D9000761CBE42C5DB01B05946BDEC0A8B2046ED
:104DA0000122BDE8F04FFBF772BE00000008024090
:104DB000000000000000E03F000000000000004094
:104DC0002DE9F0471A4D91460E4604464FF40078FF
:104DD000002241462846FBF75AFE012C02D0641CF3
:104DE00002D006E0012200E0002280212846FBF7E5
:104DF0004EFE00244FF480770FE039462846FBF73B
:104E000046FE4846FDF778FF002239462846FBF764
:104E10003EFE4846FDF770FF641CB4424FF00102AD
:104E2000EBDB41462846BDE8F047FBF730BE00000B
:104E3000000802402DE9F0478E4C16462DED0A8BF6
:104E40000F460546B0EE40BAF0EE60BA00221021DF
:104E50002046FBF71CFE012D02D06D1C02D006E09F
:104E6000012200E0002204212046FBF710FE9FED06
:104E7000829B9FED83ABB74279DA384600F051FC54
:104E800041EC100B51EC190B53EC102B00F0C2FA53
:104E900041EC180B304600F044FC41EC100B51EC97
:104EA000190B53EC102B00F0B5FA41EC1C0B53EC32
:104EB0001A2B51EC1B0B00F087FC8A4680464AEC0B
:104EC0001A0B53EC1C2B51EC1C0B00F07DFC41EC3D
:104ED0001B0B53EC182B51EC180B00F075FC53EC2A
:104EE0001B2B00F07DFE53EC1A2B00F093FA00F020
:104EF000E9FB0746002636E0012208212046FBF7A1
:104F0000C6FD53EC182B51EC190B00F083FA8946BF
:104F100049EC100B054651EC100B00F0D3FBFDF7EC
:104F2000EBFE002208212046FBF7B1FD49EC105BA7
:104F300051EC100B00F0C6FBFDF7DEFE4AEC1A8BBD
:104F400053EC182B51EC180B00F03EFC53EC1A2BD1
:104F500000F046FE41EC100BFDF752FCB0EE408A2B
:104F6000F0EE608A761CBE42C6DB79E0FFE777DDB3
:104F7000384600F0D6FB41EC100B51EC190B53EC0A
:104F8000102B00F047FA41EC180B304600F0C9FB3B
:104F900041EC100B51EC190B53EC102B00F03AFACA
:104FA00041EC1C0B53EC1A2B51EC1B0B00F00CFCCE
:104FB0008A4680464AEC1A0B53EC182B51EC180B1E
:104FC00000F002FC41EC1B0B53EC1C2B51EC1C0BB6
:104FD00000F0FAFB53EC1B2B00F002FE53EC1A2BF3
:104FE00000F018FA00F06EFB0746002636E00122BA
:104FF00008212046FBF74BFD53EC182B51EC190B05
:1050000000F008FA894649EC100B054651EC100BEC
:1050100000F058FBFDF770FE002208212046FBF748
:1050200036FD49EC105B51EC100B00F04BFBFDF72B
:1050300063FE4AEC1A8B53EC182B51EC180B00F062
:10504000C3FB53EC1A2B00F031F941EC100BFDF7C8
:10505000D7FBB0EE408AF0EE608A761CBE42C6DB1B
:10506000BDEC0A8B204601221021BDE8F047FBF77A
:105070000EBD0000000C0240000000000000E03FF8
:1050800000000000000000402DE9F04F05462DED26
:105090000C8B81B04668FDF7E7FD040095ED08BB79
:1050A00095ED06ABD5F828A0204601D576424442BE
:1050B0009FED59CB51EC1A0B53EC1C2B00F084FBE9
:1050C000834641EC190B5046009100F02AFB8946BB
:1050D00049EC110B804653EC112B47469FED508B4A
:1050E00051EC180B00F096F949EC107B41EC1D0BCC
:1050F00053EC102B51EC180B00F08CF953EC1D2BDA
:1051000000F062FB41EC1D0B53EC1B2B51EC180B18
:1051100000F080F941EC110B53EC112B00F054FB23
:1051200053EC1D2B00F05CFD53EC192B00F072F9D1
:1051300000F0C8FA404204EB4007002F02DD51ECBA
:105140001B0B3FE053EC1C2B51EC1B0B00F03CFB0A
:1051500041EC190B009949EC108B41EC1BBB53EC53
:10516000102B51EC180B00F055F949EC108B41EC69
:105170001C0B53EC102B51EC180B00F04BF953ECBB
:105180001C2B00F021FB41EC1C0B53EC192B51ECB8
:10519000180B00F03FF941EC110B53EC112B00F010
:1051A00013FB53EC1C2B00F01BFD53EC1B2B00F0EE
:1051B00031F900F087FA404204EB4007002F1CDD74
:1051C00051EC190B00F07EFA044622465146304657
:1051D000B0EE4A0AF0EE6A0AFFF72CFE2246394684
:1051E000304600F021F8214652463046B0EE4A0AD9
:1051F000F0EE6A0AFFF71EFE04E0524621463046F2
:1052000000F012F895ED040B85ED020B01B0BDEC3A
:105210000C8BBDE8F08F0000000000000000004093
:10522000000000000000E03F2DE9F041184D174656
:105230000E460446002210212846FBF728FC012CCC
:1052400002D0641C02D006E0012200E0002204210A
:105250002846FBF71CFC00240FE008212846FBF73A
:1052600016FC3846FDF748FD002208212846FBF7CA
:105270000EFC3846FDF740FD641CB4424FF00102BD
:10528000EBDB2846BDE8F0411021FBF700BC000035
:10529000000C024081F00041704780F000407047F0
:1052A00021F00041704720F00040704710B591EAAE
:1052B000030F48BF83F0004300F19A84841A71EB16
:1052C000030C05D2121943EB0C03001B61EB0C011C
:1052D000DFF824E14FEA1154A4EB135C1EEA430FFC
:1052E00018BF9EEA445F73D023EA0E03DCF1200E60
:1052F00021EA045143F4801332D322FA0CFE10EB5E
:105300000E0023FA0CFE41EB0E01CCF1200E03FA45
:105310000EFE10EB0E0051F10001B1F5801FCCF133
:10532000200E32D201EB045112FA0EF2BDE8104009
:1053300058BF7047401C38BF5FEA420218BF704731
:10534000002814BF20F0010041F100014FEA4103A1
:1053500013F5001F38BF7047A1F1C04100F02CBB0E
:10536000012A43EB0302ACF1200CDCF11F0E32BF2B
:105370004FF0000E23FA0CF310EB030041EB045145
:10538000B4EB115FD0D0A1EB045101F580114908B5
:105390005FEA300001EB04510ED350F1000038BF3A
:1053A00012FA0EFE08D1BDE81040C9E7401C38BF14
:1053B0005FEA4202CAD1C3E7BDE810404FEA4103A9
:1053C00013F5001F38BF7047A1F1C04100F0F4BAD7
:1053D0009EEA445F08D011EA5E0FBDE8104004BFAA
:1053E00001F0004100207047BDE8104070B500F0AA
:1053F00095FA00BF64FBBE3E0000E0FF491058BFB5
:10540000C1F140415B1058BFC3F140438B42EFF301
:10541000008070472DE9C04130B4DFF8A0C23CEAFB
:10542000111418BF3CEA131400F0EC8081EA030564
:105430001CEA111444EAD57418BF1CEA131500F0D5
:10544000C780A4EB05044FF0004545EAC12145EAB9
:10545000C32341EA505143EA525304F17F74994205
:1054600004F500344FEAC0204FEAC22208BF904240
:1054700000F09C804FEA13650FF24016765D4FEA0C
:10548000134506FB05F7C7F1807706FB07F74FEAE0
:10549000D737A7FB03687642C8F58038A7FB06CE4E
:1054A00038BFA8F1010807FB08E64FF0000EA6FB85
:1054B000028CE6FB03CEDCF1000CCEF1004E38BFCF
:1054C000AEF1010EA6FB0C584FF000074FF000059F
:1054D000E6FB0E87A1FB08C6A0FB07CE16EB0E0667
:1054E00045F10005E1FB076515F1E04E7EBFA4F52F
:1054F00080345FEA46066D4116F1800745F10005EC
:105500004FEA17274FEA066647EA0567A6F1DE4627
:10551000B6F1805F4FEA15251FD9384624F0010CFB
:1055200005EBC471BCF1FE6F01EB0C1102D8F0BCAD
:10553000BDE8008124425CBF01F5801E9EEAC47F65
:1055400002D4F0BCBDE80081244238D4F0BCA1F103
:10555000C041BDE8004100F02FBA4FEAD22242EA32
:1055600043524FEAD323A7FB02864FEAD02040EAFA
:10557000415007FB03661EEA0E0F4FEAD12105FBDF
:10558000026658BFA6EB0056B6EB00564FEA520E25
:105590004EEAC37E18EB0E0E56EB530EBDD518EB3C
:1055A00002085E417F1C55F10005B6E74FF48015F7
:1055B0004FF000074FF000064FF00008ADE7F0BCD9
:1055C0004FF0000001F1C04101F00041BDE8008151
:1055D00011EA0C1F0CEA131500D00CE013EA0C1FA3
:1055E00000F025804FF00000F0BC81EA030101F0DB
:1055F0000041BDE80081F0BCBDE8004181EA030143
:1056000000F0DAB9F0BCBDE8004170B500F086F9F1
:10561000097EFC3E00F007B881EA03014FF000006C
:1056200001F00041704781EA030100F0C5B9F0BC08
:10563000BDE800414FF0000021497047FFFDFBF934
:10564000F7F5F4F2F0EEEDEBE9E8E6E4E3E1E0DEB5
:10565000DDDBDAD8D7D5D4D3D1D0CFCDCCCBCAC827
:10566000C7C6C5C4C2C1C0BFBEBDBCBBBAB9B8B74E
:10567000B6B5B4B3B2B1B0AFAEADACABAAA9A8A841
:10568000A7A6A5A4A3A3A2A1A09F9F9E9D9C9C9B0F
:105690009A999998979796959594939392919190BA
:1056A0008F8F8E8E8D8C8C8B8B8A8989888887874B
:1056B0008685858484838382828181800000FF07C0
:1056C0000000F87F4FEA41034FEA5353A3F580638C
:1056D000D3F11E03C8BFD3F1210C0CDD4FF0004203
:1056E00042EAC12242EA505232FA03FC8CEAE17CDF
:1056F000ACEBE1707047102BC4BF0020704703F57E
:10570000787CBCF1FF3F04D06FF0004282EA2100B8
:10571000704770B500F002F949922480002070476C
:10572000F2E710F0004248BF4042B0FA80F310FAAE
:1057300003F10AD0C3F11D0303F580634FEA415022
:1057400002EB035202EBD12170474FF0000070478B
:1057500051EA030C17D41CF5801F58BFBCF5801FFD
:1057600000F10680994218BF704708BF9042704709
:1057700007D711F5801F58BF13F5801F19D4994220
:105780007047894270471CF5801F08D5BCF5801F03
:10579000F7D58B4218BF704708BF824270474FF45D
:1057A000001C1CEB410F38BF1CEB430F01D28B4296
:1057B000704770B500F0B2F8922449004FF00051E4
:1057C0004FF08053FFF71ABEDFF848C170B51CEAEE
:1057D000111E1EBF1CEA13159EEA0C0F95EA0C0F52
:1057E00000F06F8081EA030423EA4C134EEAD47E72
:1057F00021EA4C1141F4801143F48013AE44A1FB23
:10580000024CA0FB0365AEF17F7E361955EB0C050B
:10581000A1FB034C4CF10003A0FB021C16EB0C0691
:10582000654153F10003094218BF46F0010613F425
:10583000007F0BD14FEA03314FEA0530340341EAD0
:10584000155140EA16506FF003020AE04FEAC321F7
:105850004FEAC520F40241EA555140EA56506FF034
:10586000020202EB2E4201EB025585EACE710AD00C
:105870005FEA440C18BF24F0004450F1000041F1ED
:10588000000120EAD47040F2FE7C624500D270BD77
:10589000A84214BF4FF080444FF04044002E08BF90
:1058A0000024BEF1806FA8BFA1F1C041BDE87040E7
:1058B00080F282804FF0000001F1C04101F0004110
:1058C00070479EEA0C0F0CEA131518BF95EA0C0FEF
:1058D00006D04FF0000081EA030E0EF0004170BDCB
:1058E00000F01CF88900013E00F007B800F009B88C
:1058F0004FEA430C5FEA5C5C08D081EA030100F0E8
:105900005BB84FEA410C5FEA5C5CF6D14FF00000F7
:10591000014970470000FF070000F87F0EF1020EFA
:105920002EF0030E5EF8046B364205D4012A43EBD9
:10593000030515F5001F12D8012841EB010C1CF5D9
:10594000001F0CD80ED14FEAD17C15F5001F0CEBCF
:105950004C0C0CF1020C08BF4CEBD37C04E04FF074
:10596000080C01E04FEAD37C0CEB4C0526FA05F657
:1059700006F00706B6F1040C06D20EEB860CBDE865
:1059800070404CF0010C6047DFE80CF0090B02029C
:105990004FF000414FF00000A1F5002170BD194605
:1059A0001046012851EB010418BFD4F5001484BF40
:1059B000002001F0004170BD0808A0F500114FEA79
:1059C0003101704753EA010C17D41CF5801F58BFF2
:1059D000BCF5801F00F106808B4218BF704708BFDE
:1059E0008242704707D713F5801F58BF11F5801FFB
:1059F00019D48B4270479B4270471CF5801F08D515
:105A0000BCF5801FF7D5994218BF704708BF904278
:105A100070474FF4001C1CEB430F38BF1CEB410FC9
:105A200001D2994270470FB40CBC03BCFFF7C1BE52
:105A300091EA030F10B581F000413FF53FAC83F0D0
:105A4000004300F0D5B800002DE9F04101F5801CBD
:105A5000BCF5001FC0F2A9804FEA115C21EA0C518D
:105A60000CF1FD0C41F480115FEA5C0C0CF5C07C7C
:105A700001D34000494130A4890241EA9051870294
:105A80008E0E0A0CA45D04FB04F602FB06F6C6F1BA
:105A90004046A4FB0662F60D46EA422606FB06F4E3
:105AA000A4FB01235242C3F1404338BF5B1EA6FB57
:105AB00002420024E6FB0324D20B42EA4446A6FB42
:105AC0000623A1FB02E2A3FB07E4E3FB614264427D
:105AD000C2F1404E38BFAEF1010EA6FB04234FF0D9
