:020000040800F2
:10000000B8060020290200086B1000080D0F000838
:10001000691000089B0400085F120008000000003F
:100020000000000000000000000000006F10000849
:100030009D040008000000006D1000087110000809
:10004000430200084302000843020008430200087C
:10005000430200084302000843020008430200086C
:10006000430200084302000843020008430200085C
:10007000430200084302000843020008430200084C
:10008000430200084302000843020008430200083C
:10009000430200084302000843020008430200082C
:1000A000430200084302000843020008430200081C
:1000B000430200084302000843020008430200080C
:1000C00043020008430200084302000843020008FC
:1000D00043020008430200084302000843020008EC
:1000E00043020008430200084302000843020008DC
:1000F00043020008430200084302000843020008CC
:1001000043020008430200084302000843020008BB
:1001100043020008430200084302000843020008AB
:10012000430200084302000843020008430200089B
:10013000430200084302000843020008430200088B
:10014000430200084302000843020008430200087B
:10015000430200084302000843020008430200086B
:10016000430200084302000843020008430200085B
:100170004302000843020008430200080000000098
:10018000430200084302000800F002F800F03CF8C7
:100190000AA090E8000C82448344AAF10107DA45E2
:1001A00001D100F031F8AFF2090EBAE80F0013F0F8
:1001B000010F18BFFB1A43F001031847FC39000078
:1001C0001C3A0000103A24BF78C878C1FAD8520708
:1001D00024BF30C830C144BF04680C6070470000C1
:1001E0000023002400250026103A28BF78C1FBD840
:1001F000520728BF30C148BF0B6070471FB503F0DE
:100200005DFC1FBD10B510BD00F014F91146FFF7DD
:10021000F5FF01F0A7FC00F032F903B4FFF7F2FF9D
:1002200003BC00F033F90000094880470948004743
:10023000FEE7FEE7FEE7FEE7FEE7FEE7FEE7FEE796
:10024000FEE7FEE704480549054A064B70470000F3
:100250000D11000889010008B8000020B806002030
:10026000B8020020B802002053EA020C00F06980B6
:100270002DE9F04B4FF00006002B1FBFB3FA83F5BA
:1002800003FA05F424FA05F65E4012BF1643B2FAEB
:1002900082F502FA05F4C5F120051EBF22FA05FC1D
:1002A00044EA0C04203556EA044C4FEA144418BFC3
:1002B000641C4FF000084FF00009904271EB030CF2
:1002C00039D3002919BFB1FA81F701FA07F6B0FA5C
:1002D00080F700FA07F6C7F120071EBF20FA07FCD7
:1002E00046EA0C062037B6FBF4FCA7EB0507103FE7
:1002F00007F01F0BCBF120060CFA0BFB2CFA06F6CD
:1003000044BFB3460026202FA4BF5E464FF0000B2B
:100310005BEA060C08BF4FF0010B19EB0B09ABFBB6
:10032000027C48EB0608C01B06FB02CC0BFB03CC8F
:1003300071EB0C01C1E70B46024641464846BDE859
:10034000F08B13B54FF000004FF00001AFF30080C9
:10035000BDE81C40704710B5203AC0F00B80B1E8F2
:100360001850203AA0E81850B1E81850A0E81850EA
:10037000BFF4F5AF5FEA027C24BFB1E81850A0E8F3
:10038000185044BF18C918C0BDE810405FEA827C0D
:1003900024BF51F8043B40F8043B08BF7047D20724
:1003A00028BF31F8023B48BF11F8012B28BF20F8C5
:1003B000023B48BF00F8012B70474FF0000200B528
:1003C000134694469646203922BFA0E80C50A0E878
:1003D0000C50B1F12001BFF4F7AF090728BFA0E826
:1003E0000C5048BF0CC05DF804EB890028BF40F8F2
:1003F000042B08BF704748BF20F8022B11F0804F34
:1004000018BF00F8012B704770477047704710B550
:1004100000F008F8006810BD10B5044600F002F8BE
:10042000046010BD00487047580000200048704725
:10043000580000207546FFF7F9FFAE4605006946F3
:10044000534620F00700854618B020B5FFF7FAFEA6
:10045000BDE820404FF000064FF000074FF00008C5
:100460004FF0000B21F00701AC46ACE8C009ACE846
:10047000C009ACE8C009ACE8C0098D467047044625
:10048000AFF300802046FFF7C8FE000001491820A6
:10049000ABBEFEE7260002007047FEE7704772B66B
:1004A000FEE7000070B5044600F010F90546601C38
:1004B00002D004480078044400F008F9401BA04230
:1004C000FAD370BD000000202DE9F84FDFF8BCA181
:1004D0000022012503264FF00F090AF1040BAAF1AF
:1004E000040E00BF0B6805FA02F42340A34270D14A
:1004F0000F7907F00307012F01D0022F16D187686B
:100500004FEA420806FA08FC27EA0C07D1F80CC0AB
:100510000CFA08FC4CEA070CC0F808C04768A7436F
:100520000C79C4F3001494403C4344600C79E443D8
:10053000A4070AD0C4684FEA420C06FA0CF7BC4381
:100540008F6807FA0CF72743C7600C7904F003049F
:10055000022C12D1D40800EB840CDCF820405707A1
:10056000FF0E09FA07F824EA0804D1F8108008FA07
:1005700007F848EA0408CCF8208004684FEA420CE7
:1005800006FA0CF7BC430F7907F0030707FA0CF7DC
:10059000274307604C6814F4403F70D03C4C2768F8
:1005A00047F480472760246822F0030704F480445E
:1005B0000094384C07EB040CDCF8084897074FEA26
:1005C000177809FA08F7BC43334FB84202D1002725
:1005D00024E054E0314FB84201D101271EE0304FF2
:1005E000B84201D1022719E02E4FB84201D10327AA
:1005F00014E02D4FB84201D104270FE02B4FB84231
:1006000001D105270AE02A4FB84201D1062705E0AB
:10061000284FB84201D1072700E0082707FA08F75A
:100620002743CCF80878DAF800405746D1F804C0E0
:100630009C435FEACC2C00D51C433C60DBF80040B7
:100640005F46D1F804C09C435FEA8C2C00D51C4364
:100650003C60DEF800407746D1F804C09C435FEA76
:100660008C3C00D51C433C60084F083F3C68D1F8E7
:1006700004C09C435FEACC3C00D51C433C60521C48
:10068000102AFFF42FAFBDE8F88F0000083C0140AE
:1006900044380240003001400000024000040240A3
:1006A00000080240000C024000100240001402400A
:1006B00000180240001C02400069084000D00120E0
:1006C00070470AB1816170470904FBE701488068FF
:1006D0007047000000000020024881680278114441
:1006E00081607047000000200B4810B5016841F49C
:1006F00000710160016841F480610160016841F4AA
:1007000080710160032000F061F80F2000F006F80E
:1007100000F024F8002010BD003C024070B50D4DE3
:1007200004464FF47A712878B1FBF0F00A49096861
:10073000B1FBF0F000F0DEFA48B9102C07D200222D
:100740002146501E00F022F800206C6070BD012090
:1007500070BD0000000000200C0000200A4808B511
:10076000016841F480410160006800F4804000901D
:100770000548001F016841F080510160006800F0E9
:100780008050009008BD000044380240F0B40E4B89
:100790001B680C46C3F30223C3F10705042D00D9DF
:1007A0000425191D072901D2002300E0DB1E0126C4
:1007B00006FA05F1491E214099409E40761E1640DA
:1007C0003143F0BC00F064BD0CED00E0064900F0E0
:1007D000070208684FF6FF03184040EA0220034A68
:1007E00010430860704700000CED00E00000FA05BF
:1007F0002DE9F0470E46050065D0DFF81481D8F8E2
:100800000000F7B200F00700B04207D288F800708D
:10081000D8F8000000F00700B04254D128683D4CE1
:10082000810712D5400703D5206840F4E0502060CE
:100830002878000703D5206840F4604020602068D5
:10084000A96820F0F000084320602878C0072DD068
:10085000304968680839012812D0022813D00328CB
:1008600011D00968890700292DDA216821F00301D8
:1008700001432160FFF72AFF814641F2883A0EE0EA
:1008800009688903EFE709688901ECE7FFF71EFFB4
:10089000A0EB0901514502D90320BDE8F08720688B
:1008A000696800F00C00B0EB810FEFD1D8F80010B0
:1008B000404601F00701B14207D90770006800F017
:1008C0000700B04201D00120E7E72878400705D5AE
:1008D0002068E96820F4E050084320602878000789
:1008E00006D52068296920F4604040EAC1002060F4
:1008F00000F018F82168084AC1F30311515CC840A0
:100900000649086006480068FFF708FF0020C4E7B2
:10091000003C024008380240583B00080C00002010
:1009200004000020154810B5006810F00C021448AF
:1009300013D01449042A0FD0082A0ED10F4C241FBB
:100940002268236802F03F025B0207D52068C0F3EB
:100950008810A0FB010106E0084610BD2168C1F324
:100960008811A1FB00010023FFF77EFC2168C1F381
:100970000141491C4900B0FBF1F010BD08380240AC
:100980000024F40040787D012DE9F84F04006ED07A
:100990002078DFF84C93C007A9F104054AD009F18B
:1009A00004000168C1F38101012908D00068C0F387
:1009B000810002280AD1D9F80000400206D5286833
:1009C000800337D560680028E1D033E06068B0F577
:1009D000803F10D0B0F5A02F286810D020F48030D0
:1009E0002860286820F4802028606068A8B1FFF79C
:1009F0006DFE06460DE0286840F48030F4E740F4D0
:100A000080202860F7E700BFFFF760FE801B6428A6
:100A100073D828688003F7D50CE0FFF757FE064629
:100A200005E000BFFFF752FE801B6428F0D828685D
:100A30008003F7D42078DFF8AC8280074FF0000AFB
:100A40003ED5A748001D016811F00C0F08D00068C2
:100A5000C0F3810002280BD1D9F80000400207D46E
:100A60002868800716D5E068012800D112E033E13C
:100A7000E068B8B10120C8F80000FFF727FE06467D
:100A800005E000BFFFF722FE801B0228C0D82868BF
:100A90008007F7D52868216920F0F80040EAC100F6
:100AA00028600DE0C8F800A0FFF710FE064604E03D
:100AB000FFF70CFE801B02281FD828688007F7D498
:100AC0002078000722D5864F87486169703771B159
:100AD00001210160FFF7FAFD064604E0FFF7F6FD8D
:100AE000801B022809D838688007F7D50EE0C0F8C7
:100AF00000A0FFF7EBFD064605E082E0FFF7E6FD0C
:100B0000801B02287DD838688007F7D420784007FA
:100B100068D5DFF8CCB100270BF13C0BDBF8000007
:100B2000C0000BD4DBF8001041F08051CBF800106E
:100B3000DBF80000012700F0805000906B4E306819
:100B4000C00510D4306840F480703060FFF7BEFDFF
:100B5000009005E0FFF7BAFD0099401A022850D82E
:100B60003068C005F6D55E4EA0686C3601280FD0FF
:100B70000528306810D020F001003060306820F087
:100B800004003060A068B8B1FFF7A0FD00900FE04E
:100B9000306840F00100F4E740F004003060F7E70F
:100BA000FFF794FD0099411A41F28830814266D8DE
:100BB00030688007F4D50EE0FFF788FD009007E06D
:100BC000FFF784FD0099411A41F28830814256D8DE
:100BD00030688007F4D42FB1DBF8001021F0805189
:100BE000CBF80010A069C8B33D49091D0968C1F3DD
:100BF000810102294AD00228504607D0C8F8600077
:100C000000E03CE0FFF762FD04463BE04746C8F8E1
:100C10006000FFF75BFD064605E000BFFFF756FDED
:100C2000801B02282BD828688001F7D4D4E907015B
:100C30000843A16A2E4A490802EB0141626A41EA6F
:100C40008211084394F82C1040EA0161C9F80010A1
:100C500001203866FFF73AFD044606E03EE000BF9B
:100C6000FFF734FD001B022809D828688001F7D55A
:100C700034E000BFFFF72AFD001B022802D9032041
:100C8000BDE8F88F28688001F4D427E00128F7D068
:100C9000D9F80000E26900F4800191421CD1226A77
:100CA00000F03F01914217D147F6C071626A0140DE
:100CB000B1EB821F10D1A26A4FF0FF3300F4403134
:100CC00003EB5202B1EB024F06D194F82C1000F066
:100CD0007060B0EB016F01D00120D1E70020CFE7B9
:100CE0000438024000004742800E47420070004036
:100CF0000000FFFF10B5401EB0F1807F01D301203E
:100D000010BD4FF0E02460610F21601700F0C0FAC1
:100D10000020A06107202061002010BD70B590F870
:100D20003C20012A32D0012480F83C40022280F885
:100D30003D2003685A689D6822F070060A683243B5
:100D40005A60134B02689A4214D0B2F1804F11D00E
:100D5000104B9A420ED0104B9A420BD00F4B9A4236
:100D600008D00F4B9A4205D00E4B9A4202D00E4B40
:100D70009A4204D1496825F080031943916080F8B4
:100D80003D40002180F83C10084670BD022070BD37
:100D9000000001400004004000080040000C00403A
:100DA00000040140004001400018004010B504005C
:100DB00003D094F83D0010B107E0012010BD0020E1
:100DC00084F83C00204600F01FF8022084F83D0023
:100DD000211D206800F0A2F9012084F8460084F863
:100DE0003E0084F83F0084F8400084F8410084F815
:100DF000420084F8430084F8440084F8450084F8F5
:100E00003D00002010BD000008B50068064988427A
:100E100008D10648016841F001010160006800F056
:100E20000100009008BD000000000140443802406D
:100E300070B5044690F83C000025012817D0012623
:100E400084F83C60022084F83D002068826822F02B
:100E5000770222F47F4282600868502838D00DDC87
:100E600020284FD005DC90B3102811D14AE0022091
:100E700070BD302846D040280AD13BE060282FD0F2
:100E800070280DD0B0F5805F03D0B0F5005F12D0B0
:100E9000012584F83D60002084F83C00284670BDA0
:100EA000CB68D1E90121206800F0A4F920688168AD
:100EB00041F0770109E0CB68D1E90121206800F019
:100EC00099F92068816841F480418160E1E719E087
:100ED000CA684968206800F09FF95021206806E040
:100EE000CA684968206800F0A8F96021206800F00D
:100EF0008BF9CEE7CA684968206800F08DF9402177
:100F00002068F4E7226801461046F0E7FEE700009B
:100F10002DE9F04387B014216846FFF74EFA3348B5
:100F20000024016841F010010160016801F0100126
:100F30000591016841F004010160016801F00401BC
:100F40000591016841F080010160016801F08001B4
:100F50000591016841F001010160016801F00101A2
:100F60000591016841F0080101600068204F00F020
:100F700008004FF46F650590002229463846FFF7B8
:100F8000A0FBDFF870804FF46C76002231464046BB
:100F9000FFF797FBDFF8609000221C214846FFF71F
:100FA00090FB7C20CDE90004694614480294FFF7C9
:100FB0008BFA00950125CDE9015469463846039422
:100FC000FFF782FA0096CDE9015469464046039442
:100FD000FFF77AFA1C200090CDE901546946484693
:100FE0000394FFF771FA07B0BDE8F0833038024090
:100FF0000000024000080240000C024000100240C5
:1010000010B586B00024174800940194029403940C
:101010000494134905940160A721C0E9011442F228
:101020000F71C0E9031444618461FFF7BFFE08B18A
:10103000FFF735FA4FF48050009069460948FFF7F2
:10104000F7FE08B1FFF72BFA049404A905480594AC
:10105000FFF764FE002801D0FFF721FA06B010BDAB
:101060000000014010000020FEE7FEE770477047D7
:10107000FFF732BB30B593B030216846FFF79DF9DA
:1010800014210CA8FFF799F91E480025016841F0CA
:1010900080510160006800F0805011901A4801688A
:1010A00041F4804101600068022400F48040119006
:1010B00001200090000401908001CDE90640192034
:1010C00008904FF4A870CDE9090404200B906846FD
:1010D000FFF75AFC08B172B6FEE70CA90F2081E8B1
:1010E00031004FF4A0500F904FF480501090052124
:1010F0000CA8FFF77DFB002801D072B6FEE713B005
:1011000030BD0000403802400070004002480168D5
:1011100041F470010160704788ED00E0F0B50268AD
:10112000294C2A4D2A4E2B4F2B4B4FF0804CA0427E
:1011300009D0604507D0A84205D0B04203D0B842DC
:1011400001D0984204D122F0700E4A6842EA0E02A1
:10115000A0421BD0604519D0A84217D0B04215D08C
:10116000B84213D0984211D01C4DA8420ED01C4D4D
:10117000A8420BD01B4DA84208D01B4DA84205D059
:101180001A4DA84202D01A4DA84203D122F440754C
:10119000CA682A434D6922F080022A4302608A68A5
:1011A000C2620A688262A04201D0984201D10969F4
:1011B0000163012141610169C90703D0016921F07F
:1011C00001010161F0BD0000000001400004004089
:1011D00000080040000C00400004014000400140B5
:1011E000004401400048014000180040001C00403D
:1011F0000020004010B5846842EA032224F47F44B2
:101200000A432243826010BD826822F070020A43C2
:1012100042F007018160704710B5036A046A24F048
:1012200001040462846924F0F00444EA021423F007
:101230000A020A438461026210BD10B5036A046A9F
:1012400024F010040462846923F0A00324F47044A1
:1012500044EA023243EA01118261016210BDFEE7F5
:1012600003B401984100009850EAC12018BF04203F
:101270004A0D18BF40F0010040F2FF72B2EB515F1F
:1012800008BF40F00200012808BF052002B07047E7
:101290000907090E002804DB00F1E02080F80014A3
:1012A000704700F00F0000F1E02080F8141D704737
:1012B00070B5C1482DED020B2DED0E8B82B0119D46
:1012C00025F000449FEDBEDB9FEDBFEB84423EDB8B
:1012D000A4F140511098A1F17F6108430FD0BC48A0
:1012E000844202DC28D1109830B39DED100B02B07F
:1012F000BDEC0E8B02B0BDE8704000F042BA9DED2F
:10130000100B53EC1D2B51EC100B02F0E1F89DED8E
:10131000100B41EC180B53EC1E2B51EC100B02F090
:10132000D7F853EC182B01F045FE41EC100B02B03E
:10133000BDEC0E8B02B070BD0120FFF76DF802B05E
:10134000BDEC0E8B02B0BDE8704000F025BAA1489C
:101350009FEDA18B844256DA9DED100BB4F1795FBD
:101360000ADA51EC100BFFF77BFF042808BF00F0EE
:1013700023FA9DED100BDAE753EC102B51EC100B18
:1013800002F0A6F841EC190B95480621B0EE490A87
:10139000F0EE690A784400F078F953EC192B51EC1F
:1013A000100B02F095F841EC1A0B8E48B0EE490A8A
:1013B000F0EE690A0421784400F067F953EC192B28
:1013C00051EC100B02F084F853EC182B01F0F2FDF5
:1013D00041EC100B51EC1A0B53EC102B01F09EFE5C
:1013E000CDE900019DED000B53EC102B9DED100B92
:1013F00051EC100B02F06CF89DED101B53EC112B0F
:1014000001F0D8FDD2E09DED100B51EC100B00F077
:101410009DFB53EC182B02F08FF99FED730BCDE978
:10142000000153EC102B9DED000B51EC100B02F062
:101430004FF841EC190B6E480621B0EE490AF0EE68
:10144000690A784400F021F953EC192B51EC100B88
:1014500002F03EF841EC1B0B6648B0EE490AF0EE94
:10146000690A0421784400F010F953EC192B51EC6F
:10147000100B02F02DF853EC182B01F09BFD41EC02
:101480001C0B51EC190B00F09DFC41EC180B5A4859
:101490009FED5BABA04222DC53EC1C2B51EC1B0BF1
:1014A00001F03CFECDE900019DED000B51EC180B65
:1014B00053EC102B02F00CF853EC182B01F07AFDD2
:1014C00053EC1A2B02F004F853EC1D2B02F00CFA2B
:1014D00053EC1E2B02F030F941EC100B5FE08DED68
:1014E000008B002000909DED000B51EC180B53EC8D
:1014F000102B01F05FFD9DED000B41EC1E0B53EC3A
:10150000102B51EC100B01F0E3FF53EC192B02F000
:1015100013F953EC1E2B01F001FE41EC190B53ECB7
:101520001C2B51EC1B0B01F0F9FD41EC1B0B53EC98
:101530001A2B51EC190B01F0CBFF53EC1D2B02F0D1
:10154000FBF841EC190B53EC1A2B51EC180B01F082
:10155000BFFF53EC1B2B01F0BBFF53EC192B02F028
:10156000C3F99DED000B41EC180B53EC1A2B51EC19
:10157000100B01F0ADFF9FED249B53EC192B02F0F3
:10158000DBF841EC100B51EC180B53EC102B02F074
:10159000ABF953EC192B02F0CFF841EC100B002DF6
:1015A0003FF7C5AE51EC100B01F0F8FC41EC100B0D
:1015B000BDE60000000000000000F03F0000000059
:1015C000075C143326A6913C182D4454FB21F93FA7
:1015D0000000F07F0000E03F000000000000F03F4E
:1015E000D0270000DE270000000000000000E03FE0
:1015F00022270000302700003333EF3F00000000B7
:101600000000000000000040182D4454FB21E93F79
:1016100000B52DED048BB0EE409AF0EE609A83B0E9
:1016200051EC190B02F094F841EC180B18EE100A6B
:1016300018EE901A8DED008B002818BF012008438A
:1016400020F00040C0F17F6000F1E040C00F14D0F6
:1016500019EE101A19EE900A8DED009B002918BFA3
:101660000121084320F00040C0F17F6000F1E0401C
:10167000C00F04BF0120FEF7CFFEB0EE480A03B052
:10168000F0EE680ABDEC048B00BD70B504462DED8C
:10169000028B4D1E00EBC500B0EE408AF0EE608A72
:1016A00090ED000B35F0060017D053EC182B51ECE1
:1016B000100B01F00DFF41EC100B6D1E04EBC5008B
:1016C00090ED001B51EC100B53EC112B01F072FC50
:1016D00041EC100B35F00600E7D1022D36D0042D79
:1016E0001CD0062D1CBFBDEC028B70BD53EC182B1B
:1016F00051EC100B01F0ECFE94ED0A1B53EC112B96
:1017000001F058FC53EC182B01F0E2FE94ED081B9D
:1017100053EC112B01F04EFC41EC100B53EC182B49
:1017200051EC100B01F0D4FE94ED061B53EC112B81
:1017300001F040FC53EC182B01F0CAFE94ED040BB1
:1017400053EC102B01F036FC41EC100B53EC182B32
:1017500051EC100B01F0BCFE94ED021B53EC112B6D
:1017600001F028FC53EC182B01F0B2FE94ED001BA5
:1017700053EC112B01F01EFCBDEC028B41EC100B65
:1017800070BD10B553EC102B51EC100B01F012FC96
:1017900041EC100B10BD00009FED050B10B553EC94
:1017A000102B51EC100B01F0B9FC41EC100B10BDEB
:1017B00000000000000000009FED050B10B553EC89
:1017C000102B51EC100B01F083FE41EC100B10BDFF
:1017D00000000000000000102DE9F04114462DED3E
:1017E000108B0D460646B0EE429AF0EE629AB0EECD
:1017F00041DAF0EE61DAB0EE40BAF0EE60BA9FED99
:1018000075AB9FED76EB9FED77FB9FED788B51EC01
:101810001B0B53EC182B01F059FF7DD39FED750B7B
:1018200051EC1B0B53EC102B01F016FE74D353EC50
:101830001A2B51EC1D0B01F049FF6DD353EC1E2BFD
:1018400051EC1D0B01F008FE66D353EC182B51EC44
:10185000190B01F03BFF5FD353EC1F2B51EC190B1D
:1018600001F0FAFD58D353EC182B51EC1B0B01F08F
:1018700055FC41EC100BFFF71BFD53EC182B51EC02
:10188000100B01F025FE9FED5D1B53EC112B01F0B9
:1018900045FC41EC1C0B9FED5B0B53EC102B01F056
:1018A00017FE884648EC100B074653EC182B51ECFA
:1018B000100B01F041FF41EC1B0B9FED460B51EC6F
:1018C0001C0B53EC102B02F00FF853EC1D2B01F006
:1018D00071FB41EC1A0B9FED3F0B53EC102B01F009
:1018E000F5FE28D353EC1E2B51EC1A0B01F0B4FD7E
:1018F00021D39FED460B51EC1B0B53EC102B01F049
:10190000E5FE18D39FED430B51EC1B0B53EC102B52
:1019100001F0A2FD0FD300E057E053EC182B51EC7F
:10192000190B01F0D3FE06D353EC1F2B51EC190B0E
:1019300001F092FD43D248EC107B53EC182B51EC94
:10194000100B01F0D1FF53EC1C2B9FED22CB41EC8F
:101950001B0B51EC1C0B01F0C7FF53EC1D2B01F0CE
:1019600029FB41EC1A0B53EC1C2B01F0AFFE2CD3DE
:1019700053EC1E2B51EC1A0B01F06EFD25D351ECEC
:101980001B0B9FED220B53EC102B01F09FFE1CD381
:1019900051EC1B0B9FED1F0B53EC102B01F05CFD6A
:1019A00013D353EC182B51EC190B01F08FFE0CD311
:1019B00053EC1F2B51EC190B01F04EFD05D386EDB6
:1019C00000AB85ED00BB84ED009BBDEC108BBDE84A
:1019D000F081000000000000008056400000000080
:1019E000008056C0000000000000544000000000CD
:1019F000008066400000000000004940182D44545B
:101A0000FB21094000000000000000400000000031
:101A100000C062400000000000C062C010B590ED40
:101A2000020B90ED041B53EC102B51EC110B01F049
:101A30005BFF9FED0B1B53EC112B01F049FD9FED5C
:101A40000A1B53EC112B01F043FD9FED091B53ECD6
:101A5000112B01F063FBBDE8104001F0B7BC0000A2
:101A60000000000000003E40000000000000204098
:101A7000CDCCCCCCCCCCFC3F10B590ED020B90ED96
:101A8000041B53EC102B51EC110B01F02DFF9FEDBB
:101A90000E1B53EC112B01F041FB9FED0D1B53EC82
:101AA000112B01F015FD9FED0C1B53EC112B01F0D8
:101AB0000FFD9FED0B1B53EC112B01F02FFBBDE82D
:101AC000104001F083BC00008FC2F5285C8FEA3F14
:101AD0000000000000003E40000000000000204028
:101AE000CDCCCCCCCCCCFC3FF0B5002541F21116CE
:101AF00042F20F741449B71023E02346984200D8ED
:101B000003460A6855620A68D2F800C04CF0010C1E
:101B1000C2F800C0D1F80020D2F824C09C45FBD305
:101B2000D2F820C01CEA060F0AD1D2F820C01CEA65
:101B3000070F05D1D2F800C02CF0010CC2F800C08C
:101B4000C01A0028D9D1F0BD1000002082B0CDE924
:101B5000000121F0004001909DED000B02B051EC1E
:101B6000100B70472DED068BA4B0FEF7BDFDFFF7FF
:101B700081FAFFF7CDF9FFF743FA00F095F830222C
:101B800031496846FEF7E7FB2F49302230310CA877
:101B9000FEF7E1FB2C493022603118A8FEF7DBFB91
:101BA0009FED2A8B9FED2B9B9FED2CAB6A4618A9CE
:101BB0000CA8B0EE482AF0EE682AB0EE491AF0EE12
:101BC000691AB0EE4A0AF0EE6A0A00F05BF84FF4C8
:101BD000FA742046FEF766FC6A4618A90CA8B0EE17
:101BE000482AF0EE682AB0EE491AF0EE691AB0EE13
:101BF000480AF0EE680A00F045F82046FEF752FC6D
:101C00006A4618A90CA89FED172B9FED181BB0EE84
:101C10004A0AF0EE6A0A00F035F82046FEF742FC68
:101C20006A4618A90CA8B0EE482AF0EE682A9FED83
:101C3000111B9FED120B00F025F82046FEF732FC39
:101C400000F032F8FEE70000C83A0008000000008B
:101C500000005E40000000000000000000000000E6
:101C600000806640000000000000594000000000B5
:101C700000003E4000000000000049C000000000DD
:101C80000040604070B514460D46064610321031D3
:101C90001030FFF7A1FD204600F0CCF82946304671
:101CA000BDE8704000F07CBC2DE9F05F414E0022A1
:101CB00010213046FEF705FD3F4C4FF4006B00222B
:101CC00059462046FEF7FDFC4FF400793B4D0022BB
:101CD0004F4649462846FEF7F4FC012204213046CF
:101CE000FEF7EFFC002239462046FEF7EAFC01220F
:101CF00080212846FEF7E5FC314F4FF4FA780FE0DB
:101D0000012208213046FEF7DCFC4046FFF7ECFEDE
:101D1000002208213046FEF7D4FC4046FFF7E4FEDF
:101D200010213846FEF7C8FC0028E9D04FF480782F
:101D300008213846FEF7C0FCC8B14FF48068BA46A7
:101D400004215046FEF7B8FC4FF0010200B3102109
:101D50003046FEF7B6FC012259462046FEF7B1FC9C
:101D600049462846BDE8F05F0122FEF7AABC0122E1
:101D700041462846FEF7A5FCC820FFF7B5FE002225
:101D800041462846FEF79DFCC820FFF7ADFECFE791
:101D9000474641462046FEF794FCC820FFF7A4FEC4
:101DA000002239462046FEF78CFCC820FFF79CFE37
:101DB000C6E70000000C024000000240000802409C
:101DC0000010024000B52DED048B83B041EC190BDF
:101DD00001F0BEFC41EC180B18EE100A18EE901A38
:101DE0008DED008B002818BF0120084320F0004033
:101DF000C0F17F6000F1E040C00F14D019EE101A5E
:101E000019EE900A8DED009B002918BF01210843AF
:101E100020F00040C0F17F6000F1E040C00F04BF3F
:101E20000120FEF7F9FA51EC180B03B0BDEC048B5E
:101E300000BD00002DE9F04F05462DED0C8B002470
:101E400081B0D5E90006012804D0022806D0032875
:101E500004D007E02846FFF70FFE02E02846FFF710
:101E6000DDFD044695ED089B95ED06ABD5F828A061
:101E7000002C01DA764264429FED60CB51EC1A0BE4
:101E800053EC1C2B01F024FB834641EC1B0B50460A
:101E9000009101F0CAFA894649EC110B804653ECD7
:101EA000112B47469FED578B51EC180B01F036F97B
:101EB00049EC107B41EC1D0B53EC102B51EC180B33
:101EC00001F02CF953EC1D2B01F002FB41EC1D0B32
:101ED00053EC192B51EC180B01F020F941EC110BCC
:101EE00053EC112B01F0F4FA53EC1D2B01F0FCFC28
:101EF00053EC1B2B01F012F901F068FA404204EB9D
:101F00004007002F10DD51EC190B01F05FFA044679
:101F1000224651463046B0EE4A0AF0EE6A0A00F018
:101F2000DDFE394622464DE053EC1C2B51EC190BDB
:101F300001F0CEFA41EC190B009949EC108B41EC01
:101F40001BBB53EC102B51EC180B01F0E7F849ECDC
:101F5000108B41EC1C0B53EC102B51EC180B01F0C7
:101F6000DDF853EC1C2B01F0B3FA41EC1C0B53ECE5
:101F7000192B51EC180B01F0D1F841EC110B53EC7B
:101F8000112B01F0A5FA53EC1C2B01F0ADFC53EC26
:101F90001B2B01F0C3F801F019FA404204EB400793
:101FA000002F1CDD51EC190B01F010FA04462246FB
:101FB00051463046B0EE4A0AF0EE6A0A00F08EFE54
:101FC00022463946304600F0B3FF2146524630469D
:101FD000B0EE4A0AF0EE6A0A00F080FE04E05246D3
:101FE0002146304600F0A4FF95ED040B85ED020B71
:101FF00001B0BDEC0C8BBDE8F08F000000000000CC
:1020000000000040000000000000E03F2DE9F04F1C
:10201000924C16462DED0A8B0F4605464FF4006B89
:1020200081B0B0EE40BAF0EE60BA002259462046C8
:10203000FEF747FB6115012D02D06D1C02D005E0B3
:10204000012200E000222046FEF73BFB9FED849B2F
:102050009FED85AB4FF48068B7427ADA384601F0DD
:10206000E4F941EC100B51EC190B53EC102B01F07F
:1020700055F841EC180B304601F0D7F941EC100B44
:1020800051EC190B53EC102B01F048F841EC1C0BF0
:1020900053EC1A2B51EC1B0B01F01AFA814641EC60
:1020A0001A0B009153EC1C2B51EC1C0B01F010FA95
:1020B00041EC1B0B53EC182B51EC180B01F008FAF8
:1020C00053EC1B2B01F010FC53EC1A2B01F026F8FB
:1020D00001F07CF90746002637E001224146204600
:1020E000FEF7EFFA53EC182B51EC190B01F016F830
:1020F0008A464AEC100B054651EC100B01F066F9CC
:10210000FFF7F2FC002241462046FEF7DAFA4AECDD
:10211000105B51EC100B01F059F9FFF7E5FC009949
:1021200053EC182B41EC1A9B51EC180B01F0D0F931
:1021300053EC1A2B01F0D8FB41EC100BFFF768FAB7
:10214000B0EE408AF0EE608A761CBE42C5DB7AE0D3
:10215000FFE778DD384601F068F941EC100B51ECEF
:10216000190B53EC102B00F0D9FF41EC180B304643
:1021700001F05BF941EC100B51EC190B53EC102BF7
:1021800000F0CCFF41EC1C0B53EC1A2B51EC1B0B59
:1021900001F09EF9814641EC1A0B009153EC182B8B
:1021A00051EC180B01F094F941EC1B0B53EC1C2B78
:1021B00051EC1C0B01F08CF953EC1B2B01F094FB40
:1021C00053EC1A2B00F0AAFF01F000F90746002695
:1021D00037E0012241462046FEF773FA53EC182BF4
:1021E00051EC190B00F09AFF8A464AEC100B054699
:1021F00051EC100B01F0EAF8FFF776FC00224146A3
:102200002046FEF75EFA4AEC105B51EC100B01F031
:10221000DDF8FFF769FC009953EC182B41EC1A9B91
:1022200051EC180B01F054F953EC1A2B00F0C2FEDC
:1022300041EC100BFFF7ECF9B0EE408AF0EE608A4B
:10224000761CBE42C5DB01B05946BDEC0A8B204668
:102250000122BDE8F04FFEF734BA00000000024052
:10226000000000000000E03F00000000000000400F
:102270002DE9F0471A4D91460E4604464FF400688A
:10228000002241462846FEF71CFA6915012C02D0AF
:10229000641C02D005E0012200E000222846FEF77F
:1022A00010FA00244FF480670FE039462846FEF705
:1022B00008FA4846FFF718FC002239462846FEF780
:1022C00000FA4846FFF710FC641CB4424FF00102CC
:1022D000EBDB41462846BDE8F047FEF7F2B90000C7
:1022E000000002402DE9F04FA74C93462DED0A8BDC
:1022F0000D46064683B01F46B0EE40BAF0EE60BA17
:1023000000224FF400612046FEF7DBF9DFF87C8203
:10231000002261154046FEF7D4F9012E02D0761C4A
:1023200002D007E0012200E000224FF400712046B5
:10233000FEF7C7F9012D02D06D1C02D006E0012284
:1023400000E0002280214046FEF7BBF958469FED91
:10235000909B9FED91AB4FF480694FF4807ABB4521
:102360007EDA01F062F841EC100B51EC190B53ECE2
:10237000102B00F0D3FE41EC180B384601F055F855
:1023800041EC100B51EC190B53EC102B00F0C6FE76
:1023900041EC1C0B53EC1A2B51EC1B0B01F098F881
:1023A000834641EC1A0B019153EC1C2B51EC1C0B96
:1023B00001F08EF841EC1B0B53EC182B51EC180B71
:1023C00001F086F853EC1B2B01F08EFA53EC1A2B1C
:1023D00000F0A4FE00F0FAFF074600263EE00122CE
:1023E00049462046FEF76DF9012251464046FEF768
:1023F00068F953EC182B51EC190B00F08FFE0546D1
:10240000009100F0E3FFFFF76FFB002249462046F2
:10241000FEF757F9002251464046FEF752F900995F
:1024200041EC105B51EC100B00F0D0FFFFF75CFBB0
:10243000019953EC182B41EC1ABB51EC180B01F02D
:1024400047F853EC1A2B01F04FFA41EC100BFFF751
:10245000DFF8B0EE408AF0EE608A761CBE4200E003
:1024600001E0BCDB81E07DDD00F0DFFF41EC100B23
:1024700051EC190B53EC102B00F050FE41EC180BF3
:10248000384600F0D2FF41EC100B51EC190B53EC25
:10249000102B00F043FE41EC1C0B53EC1A2B51ECBB
:1024A0001B0B01F015F8834641EC1A0B019153EC1C
:1024B000182B51EC180B01F00BF841EC1B0B53ECF3
:1024C0001C2B51EC1C0B01F003F853EC1B2B01F0FF
:1024D0000BFA53EC1A2B00F021FE00F077FF0746B1
:1024E00000263EE0012249462046FEF7EAF8012296
:1024F00051464046FEF7E5F853EC182B51EC190B0A
:1025000000F00CFE0546009100F060FFFFF7ECFACA
:10251000002249462046FEF7D4F8002251464046A4
:10252000FEF7CFF8009941EC105B51EC100B00F076
:102530004DFFFFF7D9FA019953EC182B41EC1ABB68
:1025400051EC180B00F0C4FF53EC1A2B00F032FDD5
:1025500041EC100BFFF75CF8B0EE408AF0EE608AB9
:10256000761C00E001E0BE42BCDB0122D102204625
:10257000FEF7A7F803B04046BDEC0A8B01225102DA
:10258000BDE8F04FFEF79DB8000002400008024091
:10259000000000000000E03F0000000000000040DC
:1025A0002DE9F05F0E462DED108B0746D0F804A004
:1025B000D1F80490FFF732FA05463046FFF72EFABD
:1025C00097ED08CB96ED08DB04469FEDD0EB97ED39
:1025D00006FB96ED069B002D02DACAF1000A6D4259
:1025E000002C02DAC9F1000964429FEDCABB9FEDDD
:1025F000CB0B51EC100B00F0E9FE40424FF47A781F
:102600009FEDC88B9FEDC9AB9FEDCA0BA5426FDB59
:1026100004EB400BB0EE409AF0EE609ABBF1000F75
:1026200011DD3C23424649465046B0EE4E0AF0EEDC
:102630006E0AFFF757FE3C235A464946504600F0C3
:102640007DF93C201AE051EC1B0B00F0BFFE41422B
:1026500004EB410BBBF1000F1BDD782342464946DA
:102660005046B0EE4E0AF0EE6E0AFFF73BFE7823BE
:102670005A464946504600F061F9782002464346E2
:1026800049465046B0EE4E0AF0EE6E0AFFF72AFEBB
:1026900005E0434622464946504600F04FF92C1BC0
:1026A00053EC182B51EC1F0B00F012FF8B468146A8
:1026B0004BEC1B0B53EC1C2B51EC1A0B00F02EFDBA
:1026C00041EC100B53EC102B00F002FF53EC192BD4
:1026D00001F00AF953EC1B2B00F020FD00F076FE10
:1026E000404204EB4005002D03DD51EC1C0B27E0BC
:1026F00048E053EC182B51EC1C0B00F0E9FE41ECC8
:10270000180B4BEC1B9B53EC182B51EC1A0B00F0E5
:1027100005FD41EC100B53EC102B00F0D9FE53ECEF
:10272000192B01F0E1F853EC1B2B00F0F7FC00F043
:102730004DFE404204EB4005002D1DDD51EC180B11
:1027400000F044FE81464A46444641465046B0EEBB
:102750004F0AF0EE6F0AFFF759FC4A4629465046E9
:10276000FFF786FD494622465046B0EE4F0AF0EE8E
:102770006F0AFFF74BFCBDE0424621465046FFF78B
:1027800077FDB7E005EB400BB0EE40CAF0EE60CA53
:10279000BBF1000F12DD3C23424649465046B0EEE5
:1027A0004E0AF0EE6E0AFFF79DFD3C235A4649465D
:1027B000504600F0C3F83C2243461BE051EC1B0B93
:1027C00000F004FE414205EB410BBBF1000F1ADDA6
:1027D0007823424649465046B0EE4E0AF0EE6E0A65
:1027E000FFF780FD78235A464946504600F0A6F888
:1027F0007822434649465046B0EE4E0AF0EE6E0A45
:10280000FFF770FD05E043462A464946504600F072
:1028100095F8641B53EC182B51EC190B00F058FE83
:102820008B4682464BEC1B0B53EC1D2B51EC1A0BC9
:1028300000F074FC41EC100B53EC102B00F048FE40
:1028400053EC1C2B01F050F853EC1B2B00F066FCF2
:1028500000F0BCFD404204EB4005002D02DD51ECD0
:102860001D0B26E053EC182B51EC1D0B00F030FE35
:1028700041EC180B4BEC1BAB53EC182B51EC1A0B27
:1028800000F04CFC41EC100B53EC102B00F020FE40
:1028900053EC1C2B01F028F853EC1B2B00F03EFCF2
:1028A00000F094FD404204EB4005002D1DDD51EC8D
:1028B000180B00F08BFD824652464446414648467E
:1028C000B0EE490AF0EE690A00F09CF8524629463B
:1028D000484600F0C9F9514622464846B0EE490A3A
:1028E000F0EE690A00F08EF804E0424621464846C0
:1028F00000F0BAF997ED040B87ED020B96ED040B8F
:1029000086ED020BBDEC108BBDE8F09F3A8C30E2F7
:102910008E79453EC7711CC771BC8A40C6711CC701
:102920007107AB4000000000000000400000000004
:102930000000E03F8DEDB5A0F7C6903E2DE9FF5FAA
:102940002E4D17460C4606464FF4006A00225146AB
:102950002846FDF7B6FEDFF8A8804FF4007B002282
:1029600059464046FDF7ADFE012E02D0761C02D03E
:1029700006E0012200E0002259462846FDF7A1FEAC
:10298000012C02D0641C02D006E0012200E00022EB
:1029900080214046FDF795FE464600244FF48069AD
:1029A0004FF4807819E049462846FDF78AFE012257
:1029B00041463046FDF785FE0398FFF795F8002263
:1029C00049462846FDF77DFE002241463046FDF788
:1029D00078FE0398FFF788F8641CBC424FF00102B0
:1029E000E1DB51462846FDF76CFE04B059463046FF
:1029F000BDE8F05F0122FDF764BE00000000024068
:102A0000000802402DE9F04F924C16462DED0A8B3E
:102A10000F4605464FF4007B81B0B0EE40BAF0EEB1
:102A200060BA002259462046FDF74BFE012D02D028
:102A30006D1C02D006E0012200E000228021204629
:102A4000FDF73FFE9FED849B9FED85AB4FF48078B3
:102A5000B7427ADA384600F0E8FC41EC100B51EC52
:102A6000190B53EC102B00F059FB41EC180B3046BE
:102A700000F0DBFC41EC100B51EC190B53EC102B6C
:102A800000F04CFB41EC1C0B53EC1A2B51EC1B0BD4
:102A900000F01EFD814641EC1A0B009153EC1C2BFB
:102AA00051EC1C0B00F014FD41EC1B0B53EC182BEC
:102AB00051EC180B00F00CFD53EC1B2B00F014FF35
:102AC00053EC1A2B00F02AFB00F080FC074600268E
:102AD00037E0012241462046FDF7F3FD53EC182B69
:102AE00051EC190B00F01AFB8A464AEC100B054614
:102AF00051EC100B00F06AFCFEF7F6FF0022414695
:102B00002046FDF7DEFD4AEC105B51EC100B00F0A7
:102B10005DFCFEF7E9FF009953EC182B41EC1A9B82
:102B200051EC180B00F0D4FC53EC1A2B00F0DCFE37
:102B300041EC100BFEF76CFDB0EE408AF0EE608ABF
:102B4000761CBE42C5DB7AE0FFE778DD384600F050
:102B50006CFC41EC100B51EC190B53EC102B00F0FA
:102B6000DDFA41EC180B304600F05FFC41EC100B35
:102B700051EC190B53EC102B00F0D0FA41EC1C0B6C
:102B800053EC1A2B51EC1B0B00F0A2FC814641ECDC
:102B90001A0B009153EC182B51EC180B00F098FC19
:102BA00041EC1B0B53EC1C2B51EC1C0B00F090FC6C
:102BB00053EC1B2B00F098FE53EC1A2B00F0AEFAEE
:102BC00000F004FC0746002637E00122414620467B
:102BD000FDF777FD53EC182B51EC190B00F09EFA22
:102BE0008A464AEC100B054651EC100B00F0EEFB48
:102BF000FEF77AFF002241462046FDF762FD4AECCF
:102C0000105B51EC100B00F0E1FBFEF76DFF00993B
:102C100053EC182B41EC1A9B51EC180B00F058FCAC
:102C200053EC1A2B00F0C6F941EC100BFEF7F0FC48
:102C3000B0EE408AF0EE608A761CBE42C5DB01B081
:102C40005946BDEC0A8B20460122BDE8F04FFDF746
:102C500038BD000000080240000000000000E03F16
:102C600000000000000000402DE9F0471A4D914699
:102C70000E4604464FF40078002241462846FDF7F0
:102C800020FD012C02D0641C02D006E0012200E0ED
:102C9000002280212846FDF714FD00244FF48077A0
:102CA0000FE039462846FDF70CFD4846FEF71CFFAD
:102CB000002239462846FDF704FD4846FEF714FF7A
:102CC000641CB4424FF00102EBDB41462846BDE8EC
:102CD000F047FDF7F6BC0000000802402DE9F04780
:102CE0008E4C16462DED0A8B0F460546B0EE40BAC7
:102CF000F0EE60BA002210212046FDF7E2FC012D23
:102D000002D06D1C02D006E0012200E00022042166
:102D10002046FDF7D6FC9FED829B9FED83ABB7422B
:102D200079DA384600F081FB41EC100B51EC190BBD
:102D300053EC102B00F0F2F941EC180B304600F088
:102D400074FB41EC100B51EC190B53EC102B00F001
:102D5000E5F941EC1C0B53EC1A2B51EC1B0B00F06A
:102D6000B7FB8A4680464AEC1A0B53EC1C2B51ECFD
:102D70001C0B00F0ADFB41EC1B0B53EC182B51EC82
:102D8000180B00F0A5FB53EC1B2B00F0ADFD53EC32
:102D90001A2B00F0C3F900F019FB0746002636E0B5
:102DA000012208212046FDF78CFC53EC182B51EC36
:102DB000190B00F0B3F9894649EC100B054651ECAC
:102DC000100B00F003FBFEF78FFE002208212046C7
:102DD000FDF777FC49EC105B51EC100B00F0F6FAB4
:102DE000FEF782FE4AEC1A8B53EC182B51EC180BB1
:102DF00000F06EFB53EC1A2B00F076FD41EC100B4B
:102E0000FEF706FCB0EE408AF0EE608A761CBE4209
:102E1000C6DB79E0FFE777DD384600F006FB41ECE2
:102E2000100B51EC190B53EC102B00F077F941EC1F
:102E3000180B304600F0F9FA41EC100B51EC190B6D
:102E400053EC102B00F06AF941EC1C0B53EC1A2BDD
:102E500051EC1B0B00F03CFB8A4680464AEC1A0BF7
:102E600053EC182B51EC180B00F032FB41EC1B0B10
:102E700053EC1C2B51EC1C0B00F02AFB53EC1B2BCE
:102E800000F032FD53EC1A2B00F048F900F09EFAE6
:102E90000746002636E0012208212046FDF711FCF6
:102EA00053EC182B51EC190B00F038F9894649EC1A
:102EB000100B054651EC100B00F088FAFEF714FEDB
:102EC000002208212046FDF7FCFB49EC105B51EC89
:102ED000100B00F07BFAFEF707FE4AEC1A8B53EC5E
:102EE000182B51EC180B00F0F3FA53EC1A2B00F0EE
:102EF00061F841EC100BFEF78BFBB0EE408AF0EE70
:102F0000608A761CBE42C6DBBDEC0A8B20460122DD
:102F10001021BDE8F047FDF7D4BB0000000C0240D3
:102F2000000000000000E03F000000000000004042
:102F30002DE9F041184D17460E4604460022102197
:102F40002846FDF7BEFB012C02D0641C02D006E02F
:102F5000012200E0002204212846FDF7B2FB0024F4
:102F60000FE008212846FDF7ACFB3846FEF7BCFD14
:102F7000002208212846FDF7A4FB3846FEF7B4FDE1
:102F8000641CB4424FF00102EBDB2846BDE8F0417F
:102F90001021FDF796BB0000000C024081F00041BB
:102FA000704780F00040704721F00041704720F0EA
:102FB0000040704710B591EA030F48BF83F000430B
:102FC00000F19A84841A71EB030C05D2121943EBB9
:102FD0000C03001B61EB0C01DFF824E14FEA1154F4
:102FE000A4EB135C1EEA430F18BF9EEA445F73D044
:102FF00023EA0E03DCF1200E21EA045143F480138E
:1030000032D322FA0CFE10EB0E0023FA0CFE41EB39
:103010000E01CCF1200E03FA0EFE10EB0E0051F162
:103020000001B1F5801FCCF1200E32D201EB04512A
:1030300012FA0EF2BDE8104058BF7047401C38BF6E
:103040005FEA420218BF7047002814BF20F0010059
:1030500041F100014FEA410313F5001F38BF7047EB
:10306000A1F1C04100F02CBB012A43EB0302ACF1FB
:10307000200CDCF11F0E32BF4FF0000E23FA0CF3D0
:1030800010EB030041EB0451B4EB115FD0D0A1EB86
:10309000045101F5801149085FEA300001EB045149
:1030A0000ED350F1000038BF12FA0EFE08D1BDE871
:1030B0001040C9E7401C38BF5FEA4202CAD1C3E7EB
:1030C000BDE810404FEA410313F5001F38BF7047B9
:1030D000A1F1C04100F0F4BA9EEA445F08D011EAC1
:1030E0005E0FBDE8104004BF01F0004100207047B2
:1030F000BDE8104070B500F095FA00BF64FBBE3E1D
:103100000000E0FF491058BFC1F140415B1058BFBB
:10311000C3F140438B42EFF3008070472DE9C0417B
:1031200030B4DFF8A0C23CEA111418BF3CEA131413
:1031300000F0EC8081EA03051CEA111444EAD5741E
:1031400018BF1CEA131500F0C780A4EB05044FF06C
:10315000004545EAC12145EAC32341EA505143EA0B
:10316000525304F17F74994204F500344FEAC020B1
:103170004FEAC22208BF904200F09C804FEA1365DC
:103180000FF24016765D4FEA134506FB05F7C7F1CF
:10319000807706FB07F74FEAD737A7FB036876422D
:1031A000C8F58038A7FB06CE38BFA8F1010807FB99
:1031B00008E64FF0000EA6FB028CE6FB03CEDCF126
:1031C000000CCEF1004E38BFAEF1010EA6FB0C583C
:1031D0004FF000074FF00005E6FB0E87A1FB08C685
:1031E000A0FB07CE16EB0E0645F10005E1FB0765D7
:1031F00015F1E04E7EBFA4F580345FEA46066D41CE
:1032000016F1800745F100054FEA17274FEA0666D9
:1032100047EA0567A6F1DE46B6F1805F4FEA15255D
:103220001FD9384624F0010C05EBC471BCF1FE6FC8
:1032300001EB0C1102D8F0BCBDE8008124425CBF58
:1032400001F5801E9EEAC47F02D4F0BCBDE8008177
:10325000244238D4F0BCA1F1C041BDE8004100F0E7
:103260002FBA4FEAD22242EA43524FEAD323A7FBB6
:1032700002864FEAD02040EA415007FB03661EEA6F
:103280000E0F4FEAD12105FB026658BFA6EB005690
:10329000B6EB00564FEA520E4EEAC37E18EB0E0E06
:1032A00056EB530EBDD518EB02085E417F1C55F15D
:1032B0000005B6E74FF480154FF000074FF0000609
:1032C0004FF00008ADE7F0BC4FF0000001F1C04145
:1032D00001F00041BDE8008111EA0C1F0CEA131552
:1032E00000D00CE013EA0C1F00F025804FF0000026
:1032F000F0BC81EA030101F00041BDE80081F0BCAF
:10330000BDE8004181EA030100F0DAB9F0BCBDE894
:10331000004170B500F086F9097EFC3E00F007B868
:1033200081EA03014FF0000001F00041704781EA9B
:10333000030100F0C5B9F0BCBDE800414FF000004A
:1033400021497047FFFDFBF9F7F5F4F2F0EEEDEBE4
:10335000E9E8E6E4E3E1E0DEDDDBDAD8D7D5D4D393
:10336000D1D0CFCDCCCBCAC8C7C6C5C4C2C1C0BFDF
:10337000BEBDBCBBBAB9B8B7B6B5B4B3B2B1B0AFE5
:10338000AEADACABAAA9A8A8A7A6A5A4A3A3A2A1C9
:10339000A09F9F9E9D9C9C9B9A9999989797969584
:1033A00095949393929191908F8F8E8E8D8C8C8B20
:1033B0008B8A8989888887878685858484838382A8
:1033C000828181800000FF070000F87F4FEA4103FF
:1033D0004FEA5353A3F58063D3F11E03C8BFD3F163
:1033E000210C0CDD4FF0004242EAC12242EA505269
:1033F00032FA03FC8CEAE17CACEBE1707047102BF5
:10340000C4BF0020704703F5787CBCF1FF3F04D0B7
:103410006FF0004282EA2100704770B500F002F9B7
:103420004992248000207047F2E710F0004248BF24
:103430004042B0FA80F310FA03F10AD0C3F11D0341
:1034400003F580634FEA415002EB035202EBD121B6
:1034500070474FF00000704751EA030C17D41CF579
:10346000801F58BFBCF5801F00F10680994218BF2D
:10347000704708BF9042704707D711F5801F58BFAB
:1034800013F5801F19D499427047894270471CF583
:10349000801F08D5BCF5801FF7D58B4218BF704739
:1034A00008BF824270474FF4001C1CEB410F38BF2D
:1034B0001CEB430F01D28B42704770B500F0B2F89D
:1034C000922449004FF000514FF08053FFF71ABE8D
:1034D000DFF848C170B51CEA111E1EBF1CEA1315A7
:1034E0009EEA0C0F95EA0C0F00F06F8081EA03044E
:1034F00023EA4C134EEAD47E21EA4C1141F48011A8
:1035000043F48013AE44A1FB024CA0FB0365AEF173
:103510007F7E361955EB0C05A1FB034C4CF10003E3
:10352000A0FB021C16EB0C06654153F10003094297
:1035300018BF46F0010613F4007F0BD14FEA0331A8
:103540004FEA0530340341EA155140EA16506FF056
:1035500003020AE04FEAC3214FEAC520F40241EA20
:10356000555140EA56506FF0020202EB2E4201EB39
:10357000025585EACE710AD05FEA440C18BF24F0E8
:10358000004450F1000041F1000120EAD47040F203
:10359000FE7C624500D270BDA84214BF4FF080444B
:1035A0004FF04044002E08BF0024BEF1806FA8BF3A
:1035B000A1F1C041BDE8704080F282804FF0000070
:1035C00001F1C04101F0004170479EEA0C0F0CEA86
:1035D000131518BF95EA0C0F06D04FF0000081EAD2
:1035E000030E0EF0004170BD00F01CF88900013E92
:1035F00000F007B800F009B84FEA430C5FEA5C5CE2
:1036000008D081EA030100F05BB84FEA410C5FEAA1
:103610005C5CF6D14FF00000014970470000FF07E5
:103620000000F87F0EF1020E2EF0030E5EF8046B20
:10363000364205D4012A43EB030515F5001F12D8C5
:10364000012841EB010C1CF5001F0CD80ED14FEAEC
:10365000D17C15F5001F0CEB4C0C0CF1020C08BFD3
:103660004CEBD37C04E04FF0080C01E04FEAD37C34
:103670000CEB4C0526FA05F606F00706B6F1040C2D
:1036800006D20EEB860CBDE870404CF0010C604792
:10369000DFE80CF0090B02024FF000414FF0000090
:1036A000A1F5002170BD19461046012851EB010417
:1036B00018BFD4F5001484BF002001F0004170BD94
:1036C0000808A0F500114FEA3101704753EA010CD8
:1036D00017D41CF5801F58BFBCF5801F00F1068071
:1036E0008B4218BF704708BF8242704707D713F557
:1036F000801F58BF11F5801F19D48B4270479B4221
:1037000070471CF5801F08D5BCF5801FF7D599427E
:1037100018BF704708BF904270474FF4001C1CEB65
:10372000430F38BF1CEB410F01D2994270470FB4D1
:103730000CBC03BCFFF7C1BE91EA030F10B581F0CA
:1037400000413FF53FAC83F0004300F0D5B80000E6
:103750002DE9F04101F5801CBCF5001FC0F2A980E5
:103760004FEA115C21EA0C510CF1FD0C41F480117F
:103770005FEA5C0C0CF5C07C01D34000494130A4E9
:10378000890241EA905187028E0E0A0CA45D04FB67
:1037900004F602FB06F6C6F14046A4FB0662F60DEF
:1037A00046EA422606FB06F4A4FB01235242C3F17B
:1037B000404338BF5B1EA6FB02420024E6FB032405
:1037C000D20B42EA4446A6FB0623A1FB02E2A3FB7E
:1037D00007E4E3FB61426442C2F1404E38BFAEF100
:1037E000010EA6FB04234FF00002E6FB0E32A2FB03
:1037F00003463400E2FB6264A1FB06E6A4FB07E893
:10380000E4FB61687642C8F1405838BFA8F101086E
:10381000A2FB06E4A3FB08E5E2FB6854A1FB05E676
:10382000A7FB04E8E1FB648618F1200556F10006C9
:10383000A809A8F11B08B10908F03F08B8F10A0F60
:1038400040EA86601CD901EB0C51BDE8F08100BF55
:10385000FCF5EEE8E2DDD8D3CFCBC7C3C0BDB9B627
:10386000B4B1AEACA9A7A5A3A19F9D9B9A9896952C
:103870009392908F8D8C8B898887868584838281B3
:10388000A0FB006800FB01F208EB4208B8EB8728B8
:1038900007D5341858EB0104D5D5401C51F100016F
:1038A000D1E7341A78EB0104CDD4401E71F1000148
:1038B000C9E75FEA4C0C5FEA9C5C0DD105D34FF081
:1038C000000001F00041BDE8F081BDE8F04170B5B5
:1038D000FFF7A8FE6DDBFFBEBDE8F0414FF0000032
:1038E000004970470000F87F10B591EA030F48BF08
:1038F00083F000433FF566AB841A71EB030C07D2EB
:1039000012198CF0004C43EB0C03001B61EB0C0113
:10391000DFF8A4E14FEA1154A4EB135C1EEA430F55
:1039200018BF9EEA445F00F0B08023EA6E03524263
:1039300021EA0451C3EB6E0338BF5B1EDCF1200E9D
:1039400025D322FA0CFE10EB0E0043FA0CFE41EBDD
:103950000E01CCF1200E03FA0EFE10EB0E0051F119
:103960000001CCF1200E29D412FA0EF201EB045121
:10397000BDE8104058BF7047401C1CBFB2F1004F5B
:10398000704700280CBF491C20F00100704712EB63
:10399000020E43EB030218BF4FF0010E4EEA420243
:1039A000ACF1200CDCF11E0E54D943FA0CFE10EBE6
:1039B0000E0051F1FF31CCF11E0ED5D50EF1010EE6
:1039C00012FA0EFE404141EB010101EB445C5FEA5B
:1039D0005C5C10D910EBDE7001EB045138BFBEF116
:1039E000004FBDE8104018BF704700280CBF491CAD
:1039F00020F00100704730D24FEAD42C11F50011AD
:103A000024F400641BD0B1FA81F20B3AA41AA41E6C
:103A1000D2F12003914030FA03F31943904001EBB7
:103A2000CC71002C01EB0451BDE81040A8BF7047D9
:103A300001F1C0414FF0000001F000417047B0FAC1
:103A400080F310FA03F100D110BDE41A173C4805C9
:103A5000C90AE4E701EB045110BD491001EB045120
:103A6000BDE810404FEA300002E04FF0000170471F
:103A70004A0008BF0042F8D0B2F5001F28BF7047C7
:103A800001F000414FF0000070479EEA445F07D00C
:103A900011EA5E0FBDE8104004BF0021002070470E
:103AA000BDE8104070B5FFF7BDFD00BF40DFF63E3A
:103AB00083F00041104670470000E0FF4FF0407077
:103AC000E1EE100A70470000010000000100000054
:103AD000000000000080664000000000008066409A
:103AE00095D626E80B2E213E0000000000C0624063
:103AF000D0070000000000000200000001000000EC
:103B000000000000004059C000000000004059C003
:103B10003A8C30E28E79453E0000000000004E40B5
:103B2000E8030000000000000300000001000000A6
:103B30000000000000A060400000000000A0604005
:103B40003A8C30E28E79453E0000000000004E4085
:103B5000E80300000000000000000000000000007A
:103B60000102030406070809555555555555C53F2B
:103B70007D6FEB0312D6D4BF5544880E55C1C93FA3
:103B80003B8F68B52882A4BF88B20175E0EF493F3A
:103B900009F7FD0DE13D023F4B2D8A1C273A03C07A
:103BA000C88A599CE52A004059018D1B6C06E6BF66
:103BB00082922EB1C5B8B33FD83B00080000002068
:103BC00010000000C4010008E83B000810000020BD
:103BD000A8060000E001000801000000100000003D
:083BE000000000000024F400C5
:040000050800018965
:00000001FF
